{"contracts/Cashpoints.sol":{"CashPoints":{"abi":[{"inputs":[],"stateMutability":"nonpayable","type":"constructor"},{"anonymous":false,"inputs":[{"indexed":true,"internalType":"address","name":"owner","type":"address"},{"indexed":true,"internalType":"address","name":"spender","type":"address"},{"indexed":false,"internalType":"uint256","name":"value","type":"uint256"}],"name":"Approval","type":"event"},{"anonymous":false,"inputs":[{"indexed":false,"internalType":"address","name":"cashpoint","type":"address"}],"name":"CreatedCashPoint","type":"event"},{"anonymous":false,"inputs":[{"indexed":false,"internalType":"address","name":"","type":"address"},{"indexed":false,"internalType":"uint256","name":"","type":"uint256"}],"name":"Received","type":"event"},{"anonymous":false,"inputs":[{"indexed":true,"internalType":"address","name":"from","type":"address"},{"indexed":true,"internalType":"address","name":"to","type":"address"},{"indexed":false,"internalType":"uint256","name":"value","type":"uint256"}],"name":"Transfer","type":"event"},{"anonymous":false,"inputs":[{"indexed":false,"internalType":"address","name":"cashpoint","type":"address"}],"name":"UpdatedCashPoint","type":"event"},{"inputs":[],"name":"AVAILABLE_TOKENS","outputs":[{"internalType":"uint256","name":"","type":"uint256"}],"stateMutability":"view","type":"function"},{"inputs":[],"name":"CASHPOINT_FEE","outputs":[{"internalType":"uint256","name":"","type":"uint256"}],"stateMutability":"view","type":"function"},{"inputs":[],"name":"MAX_SUPPLY","outputs":[{"internalType":"uint256","name":"","type":"uint256"}],"stateMutability":"view","type":"function"},{"inputs":[],"name":"Owner","outputs":[{"internalType":"address payable","name":"","type":"address"}],"stateMutability":"view","type":"function"},{"inputs":[],"name":"PRICE_PER_TOKEN","outputs":[{"internalType":"uint256","name":"","type":"uint256"}],"stateMutability":"view","type":"function"},{"inputs":[],"name":"TRANSACTION_COMMISION","outputs":[{"internalType":"uint256","name":"","type":"uint256"}],"stateMutability":"view","type":"function"},{"inputs":[{"internalType":"string","name":"name","type":"string"},{"internalType":"string","name":"city","type":"string"},{"internalType":"string","name":"phone","type":"string"},{"internalType":"string","name":"currency","type":"string"},{"internalType":"uint256","name":"buy","type":"uint256"},{"internalType":"uint256","name":"sell","type":"uint256"},{"internalType":"string","name":"endtime","type":"string"},{"internalType":"uint256","name":"duration","type":"uint256"}],"name":"addCashPoint","outputs":[],"stateMutability":"payable","type":"function"},{"inputs":[{"internalType":"address","name":"owner","type":"address"},{"internalType":"address","name":"spender","type":"address"}],"name":"allowance","outputs":[{"internalType":"uint256","name":"","type":"uint256"}],"stateMutability":"view","type":"function"},{"inputs":[{"internalType":"address","name":"spender","type":"address"},{"internalType":"uint256","name":"amount","type":"uint256"}],"name":"approve","outputs":[{"internalType":"bool","name":"","type":"bool"}],"stateMutability":"nonpayable","type":"function"},{"inputs":[{"internalType":"address","name":"account","type":"address"}],"name":"balanceOf","outputs":[{"internalType":"uint256","name":"","type":"uint256"}],"stateMutability":"view","type":"function"},{"inputs":[{"internalType":"uint256","name":"_amount","type":"uint256"}],"name":"buyTokens","outputs":[],"stateMutability":"payable","type":"function"},{"inputs":[{"internalType":"address","name":"","type":"address"}],"name":"cashpoints","outputs":[{"internalType":"string","name":"_name","type":"string"},{"internalType":"string","name":"city","type":"string"},{"internalType":"string","name":"_phoneNumber","type":"string"},{"internalType":"string","name":"_currency","type":"string"},{"internalType":"uint256","name":"_buy","type":"uint256"},{"internalType":"uint256","name":"_sell","type":"uint256"},{"internalType":"string","name":"_endTime","type":"string"},{"internalType":"bool","name":"_isCashPoint","type":"bool"}],"stateMutability":"view","type":"function"},{"inputs":[{"internalType":"uint256","name":"_tokens","type":"uint256"}],"name":"checkAmountToTransfer","outputs":[{"internalType":"uint256","name":"","type":"uint256"}],"stateMutability":"view","type":"function"},{"inputs":[{"internalType":"uint256","name":"_tokens","type":"uint256"}],"name":"checkIfICanWithdraw","outputs":[{"internalType":"bool","name":"","type":"bool"}],"stateMutability":"view","type":"function"},{"inputs":[],"name":"count","outputs":[{"internalType":"uint256","name":"","type":"uint256"}],"stateMutability":"view","type":"function"},{"inputs":[],"name":"decimals","outputs":[{"internalType":"uint8","name":"","type":"uint8"}],"stateMutability":"view","type":"function"},{"inputs":[{"internalType":"address","name":"spender","type":"address"},{"internalType":"uint256","name":"subtractedValue","type":"uint256"}],"name":"decreaseAllowance","outputs":[{"internalType":"bool","name":"","type":"bool"}],"stateMutability":"nonpayable","type":"function"},{"inputs":[{"internalType":"address","name":"cp","type":"address"}],"name":"getCashPoint","outputs":[{"components":[{"internalType":"string","name":"_name","type":"string"},{"internalType":"string","name":"city","type":"string"},{"internalType":"string","name":"_phoneNumber","type":"string"},{"internalType":"string","name":"_currency","type":"string"},{"internalType":"uint256","name":"_buy","type":"uint256"},{"internalType":"uint256","name":"_sell","type":"uint256"},{"internalType":"string","name":"_endTime","type":"string"},{"internalType":"bool","name":"_isCashPoint","type":"bool"}],"internalType":"struct CashPoints.CashPoint","name":"cashpoint","type":"tuple"}],"stateMutability":"view","type":"function"},{"inputs":[{"internalType":"address","name":"spender","type":"address"},{"internalType":"uint256","name":"addedValue","type":"uint256"}],"name":"increaseAllowance","outputs":[{"internalType":"bool","name":"","type":"bool"}],"stateMutability":"nonpayable","type":"function"},{"inputs":[{"internalType":"uint256","name":"","type":"uint256"}],"name":"keys","outputs":[{"internalType":"address","name":"","type":"address"}],"stateMutability":"view","type":"function"},{"inputs":[],"name":"name","outputs":[{"internalType":"string","name":"","type":"string"}],"stateMutability":"view","type":"function"},{"inputs":[],"name":"reentrancyLock","outputs":[{"internalType":"bool","name":"","type":"bool"}],"stateMutability":"view","type":"function"},{"inputs":[{"internalType":"uint256","name":"_amount","type":"uint256"},{"internalType":"address","name":"_to","type":"address"}],"name":"send","outputs":[],"stateMutability":"payable","type":"function"},{"inputs":[],"name":"setPrice","outputs":[],"stateMutability":"nonpayable","type":"function"},{"inputs":[],"name":"symbol","outputs":[{"internalType":"string","name":"","type":"string"}],"stateMutability":"view","type":"function"},{"inputs":[],"name":"totalSupply","outputs":[{"internalType":"uint256","name":"","type":"uint256"}],"stateMutability":"view","type":"function"},{"inputs":[{"internalType":"address","name":"to","type":"address"},{"internalType":"uint256","name":"amount","type":"uint256"}],"name":"transfer","outputs":[{"internalType":"bool","name":"","type":"bool"}],"stateMutability":"nonpayable","type":"function"},{"inputs":[{"internalType":"address","name":"from","type":"address"},{"internalType":"address","name":"to","type":"address"},{"internalType":"uint256","name":"amount","type":"uint256"}],"name":"transferFrom","outputs":[{"internalType":"bool","name":"","type":"bool"}],"stateMutability":"nonpayable","type":"function"},{"inputs":[{"internalType":"address payable","name":"_to","type":"address"},{"internalType":"uint256","name":"_amount","type":"uint256"}],"name":"transferXDai","outputs":[],"stateMutability":"nonpayable","type":"function"},{"inputs":[{"internalType":"string","name":"name","type":"string"},{"internalType":"string","name":"city","type":"string"},{"internalType":"string","name":"phone","type":"string"},{"internalType":"string","name":"currency","type":"string"},{"internalType":"uint256","name":"buy","type":"uint256"},{"internalType":"uint256","name":"sell","type":"uint256"},{"internalType":"string","name":"endtime","type":"string"},{"internalType":"uint256","name":"duration","type":"uint256"}],"name":"updateCashPoint","outputs":[],"stateMutability":"payable","type":"function"},{"inputs":[{"internalType":"uint256","name":"_tokens","type":"uint256"}],"name":"withdraw","outputs":[],"stateMutability":"nonpayable","type":"function"},{"stateMutability":"payable","type":"receive"}],"evm":{"bytecode":{"linkReferences":{},"object":"60806040526706f05b59d3b20000600a556001600b556000600c556000600d60006101000a81548160ff0219169083151502179055503480156200004257600080fd5b506040518060400160405280600881526020017f4368696b77616d610000000000000000000000000000000000000000000000008152506040518060400160405280600381526020017f43484b00000000000000000000000000000000000000000000000000000000008152508160039081620000c091906200054d565b508060049081620000d291906200054d565b50505033600760006101000a81548173ffffffffffffffffffffffffffffffffffffffff021916908373ffffffffffffffffffffffffffffffffffffffff1602179055506200014c600760009054906101000a900473ffffffffffffffffffffffffffffffffffffffff166127106200015c60201b60201c565b62015f906008819055506200074f565b600073ffffffffffffffffffffffffffffffffffffffff168273ffffffffffffffffffffffffffffffffffffffff1603620001ce576040517f08c379a0000000000000000000000000000000000000000000000000000000008152600401620001c59062000695565b60405180910390fd5b620001e260008383620002c960201b60201c565b8060026000828254620001f69190620006e6565b92505081905550806000808473ffffffffffffffffffffffffffffffffffffffff1673ffffffffffffffffffffffffffffffffffffffff168152602001908152602001600020600082825401925050819055508173ffffffffffffffffffffffffffffffffffffffff16600073ffffffffffffffffffffffffffffffffffffffff167fddf252ad1be2c89b69c2b068fc378daa952ba7f163c4a11628f55a4df523b3ef83604051620002a9919062000732565b60405180910390a3620002c560008383620002ce60201b60201c565b5050565b505050565b505050565b600081519050919050565b7f4e487b7100000000000000000000000000000000000000000000000000000000600052604160045260246000fd5b7f4e487b7100000000000000000000000000000000000000000000000000000000600052602260045260246000fd5b600060028204905060018216806200035557607f821691505b6020821081036200036b576200036a6200030d565b5b50919050565b60008190508160005260206000209050919050565b60006020601f8301049050919050565b600082821b905092915050565b600060088302620003d57fffffffffffffffffffffffffffffffffffffffffffffffffffffffffffffffff8262000396565b620003e1868362000396565b95508019841693508086168417925050509392505050565b6000819050919050565b6000819050919050565b60006200042e620004286200042284620003f9565b62000403565b620003f9565b9050919050565b6000819050919050565b6200044a836200040d565b62000462620004598262000435565b848454620003a3565b825550505050565b600090565b620004796200046a565b620004868184846200043f565b505050565b5b81811015620004ae57620004a26000826200046f565b6001810190506200048c565b5050565b601f821115620004fd57620004c78162000371565b620004d28462000386565b81016020851015620004e2578190505b620004fa620004f18562000386565b8301826200048b565b50505b505050565b600082821c905092915050565b6000620005226000198460080262000502565b1980831691505092915050565b60006200053d83836200050f565b9150826002028217905092915050565b6200055882620002d3565b67ffffffffffffffff811115620005745762000573620002de565b5b6200058082546200033c565b6200058d828285620004b2565b600060209050601f831160018114620005c55760008415620005b0578287015190505b620005bc85826200052f565b8655506200062c565b601f198416620005d58662000371565b60005b82811015620005ff57848901518255600182019150602085019450602081019050620005d8565b868310156200061f57848901516200061b601f8916826200050f565b8355505b6001600288020188555050505b505050505050565b600082825260208201905092915050565b7f45524332303a206d696e7420746f20746865207a65726f206164647265737300600082015250565b60006200067d601f8362000634565b91506200068a8262000645565b602082019050919050565b60006020820190508181036000830152620006b0816200066e565b9050919050565b7f4e487b7100000000000000000000000000000000000000000000000000000000600052601160045260246000fd5b6000620006f382620003f9565b91506200070083620003f9565b92508282019050808211156200071b576200071a620006b7565b5b92915050565b6200072c81620003f9565b82525050565b600060208201905062000749600083018462000721565b92915050565b613dc5806200075f6000396000f3fe6080604052600436106101dc5760003560e01c8063785d04f511610102578063b78175f911610095578063dabaddb311610064578063dabaddb3146106ee578063dd62ed3e1461072b578063e5d7255314610768578063e97567f9146107a557610224565b8063b78175f914610667578063cc6dd91914610690578063d49aef61146106ac578063da93d0d1146106d757610224565b8063a457c2d7116100d1578063a457c2d714610597578063a74143f9146105d4578063a9059cbb146105ff578063b4a99a4e1461063c57610224565b8063785d04f5146104fa578063833b949914610516578063948e1a1c1461054157806395d89b411461056c57610224565b80632446d79f1161017a5780633610724e116101495780633610724e1461044857806339509351146104645780636a905df5146104a157806370a08231146104bd57610224565b80632446d79f1461039e5780632e1a7d4d146103c9578063313ce567146103f257806332cb6b0c1461041d57610224565b80630cb6aaf1116101b65780630cb6aaf1146102bc57806318160ddd146102f9578063207b885a1461032457806323b872dd1461036157610224565b806306661abd1461022957806306fdde0314610254578063095ea7b31461027f57610224565b36610224576101e96107e9565b7f88a5966d370b9919b20f3e2c13ff65706f196a4e32cc2c12bf57088f88525874333460405161021a9291906125ff565b60405180910390a1005b600080fd5b34801561023557600080fd5b5061023e610847565b60405161024b9190612628565b60405180910390f35b34801561026057600080fd5b5061026961084d565b60405161027691906126d3565b60405180910390f35b34801561028b57600080fd5b506102a660048036038101906102a19190612761565b6108df565b6040516102b391906127bc565b60405180910390f35b3480156102c857600080fd5b506102e360048036038101906102de91906127d7565b610902565b6040516102f09190612804565b60405180910390f35b34801561030557600080fd5b5061030e610935565b60405161031b9190612628565b60405180910390f35b34801561033057600080fd5b5061034b600480360381019061034691906127d7565b61093f565b60405161035891906127bc565b60405180910390f35b34801561036d57600080fd5b506103886004803603810190610383919061281f565b610954565b60405161039591906127bc565b60405180910390f35b3480156103aa57600080fd5b506103b3610983565b6040516103c091906127bc565b60405180910390f35b3480156103d557600080fd5b506103f060048036038101906103eb91906127d7565b610996565b005b3480156103fe57600080fd5b50610407610b32565b604051610414919061288e565b60405180910390f35b34801561042957600080fd5b50610432610b3b565b60405161043f9190612628565b60405180910390f35b610462600480360381019061045d91906127d7565b610b42565b005b34801561047057600080fd5b5061048b60048036038101906104869190612761565b610c9d565b60405161049891906127bc565b60405180910390f35b6104bb60048036038101906104b691906129de565b610cd4565b005b3480156104c957600080fd5b506104e460048036038101906104df9190612b20565b610fa8565b6040516104f19190612628565b60405180910390f35b610514600480360381019061050f9190612b4d565b610ff0565b005b34801561052257600080fd5b5061052b6110ff565b6040516105389190612628565b60405180910390f35b34801561054d57600080fd5b50610556611105565b6040516105639190612628565b60405180910390f35b34801561057857600080fd5b5061058161110b565b60405161058e91906126d3565b60405180910390f35b3480156105a357600080fd5b506105be60048036038101906105b99190612761565b61119d565b6040516105cb91906127bc565b60405180910390f35b3480156105e057600080fd5b506105e9611214565b6040516105f69190612628565b60405180910390f35b34801561060b57600080fd5b5061062660048036038101906106219190612761565b61121a565b60405161063391906127bc565b60405180910390f35b34801561064857600080fd5b5061065161123d565b60405161065e9190612bae565b60405180910390f35b34801561067357600080fd5b5061068e60048036038101906106899190612bf5565b611263565b005b6106aa60048036038101906106a591906129de565b611314565b005b3480156106b857600080fd5b506106c1611655565b6040516106ce9190612628565b60405180910390f35b3480156106e357600080fd5b506106ec6107e9565b005b3480156106fa57600080fd5b50610715600480360381019061071091906127d7565b61165b565b6040516107229190612628565b60405180910390f35b34801561073757600080fd5b50610752600480360381019061074d9190612c35565b611677565b60405161075f9190612628565b60405180910390f35b34801561077457600080fd5b5061078f600480360381019061078a9190612b20565b6116fe565b60405161079c9190612da9565b60405180910390f35b3480156107b157600080fd5b506107cc60048036038101906107c79190612b20565b611a61565b6040516107e0989796959493929190612dcb565b60405180910390f35b6000471161082c576040517f08c379a000000000000000000000000000000000000000000000000000000000815260040161082390612ede565b60405180910390fd5b610834610935565b4761083f9190612f5c565b600981905550565b600c5481565b60606003805461085c90612fbc565b80601f016020809104026020016040519081016040528092919081815260200182805461088890612fbc565b80156108d55780601f106108aa576101008083540402835291602001916108d5565b820191906000526020600020905b8154815290600101906020018083116108b857829003601f168201915b5050505050905090565b6000806108ea611d5e565b90506108f7818585611d66565b600191505092915050565b60066020528060005260406000206000915054906101000a900473ffffffffffffffffffffffffffffffffffffffff1681565b6000600254905090565b60008161094b33610fa8565b10159050919050565b60008061095f611d5e565b905061096c858285611f2f565b610977858585611fbb565b60019150509392505050565b600d60009054906101000a900460ff1681565b60006109a133610fa8565b116109e1576040517f08c379a00000000000000000000000000000000000000000000000000000000081526004016109d890613039565b60405180910390fd5b600d60009054906101000a900460ff1615610a31576040517f08c379a0000000000000000000000000000000000000000000000000000000008152600401610a28906130a5565b60405180910390fd5b6001600d60006101000a81548160ff021916908315150217905550610a546107e9565b60004711610a97576040517f08c379a0000000000000000000000000000000000000000000000000000000008152600401610a8e90612ede565b60405180910390fd5b610aa08161093f565b610adf576040517f08c379a0000000000000000000000000000000000000000000000000000000008152600401610ad690613137565b60405180910390fd5b610ae93382612231565b8060086000828254610afb9190613157565b92505081905550610b1433610b0f8361165b565b611263565b6000600d60006101000a81548160ff02191690831515021790555050565b60006012905090565b620186a081565b600d60009054906101000a900460ff1615610b92576040517f08c379a0000000000000000000000000000000000000000000000000000000008152600401610b89906130a5565b60405180910390fd5b6001600d60006101000a81548160ff0219169083151502179055503460095482610bbc919061318b565b14610bfc576040517f08c379a0000000000000000000000000000000000000000000000000000000008152600401610bf39061323f565b60405180910390fd5b620186a081610c09610935565b610c139190613157565b1115610c54576040517f08c379a0000000000000000000000000000000000000000000000000000000008152600401610c4b906132ab565b60405180910390fd5b610c5e33826123fe565b610c666107e9565b8060086000828254610c7891906132cb565b925050819055506000600d60006101000a81548160ff02191690831515021790555050565b600080610ca8611d5e565b9050610cc9818585610cba8589611677565b610cc49190613157565b611d66565b600191505092915050565b600d60009054906101000a900460ff1615610d24576040517f08c379a0000000000000000000000000000000000000000000000000000000008152600401610d1b906130a5565b60405180910390fd5b6001600d60006101000a81548160ff0219169083151502179055506000600a5482610d4f919061318b565b9050803414610d93576040517f08c379a0000000000000000000000000000000000000000000000000000000008152600401610d8a9061334b565b60405180910390fd5b600560003373ffffffffffffffffffffffffffffffffffffffff1673ffffffffffffffffffffffffffffffffffffffff16815260200190815260200160002060070160009054906101000a900460ff16610e22576040517f08c379a0000000000000000000000000000000000000000000000000000000008152600401610e19906133b7565b60405180910390fd5b6040518061010001604052808a815260200189815260200188815260200187815260200186815260200185815260200184815260200160011515815250600560003373ffffffffffffffffffffffffffffffffffffffff1673ffffffffffffffffffffffffffffffffffffffff1681526020019081526020016000206000820151816000019081610eb39190613583565b506020820151816001019081610ec99190613583565b506040820151816002019081610edf9190613583565b506060820151816003019081610ef59190613583565b506080820151816004015560a0820151816005015560c0820151816006019081610f1f9190613583565b5060e08201518160070160006101000a81548160ff021916908315150217905550905050610f4b6107e9565b7faa9f6ecd6a994e8b7abb6b3f3a42756c6c483a3abc40d774db0e7d564ecf895833604051610f7a9190612804565b60405180910390a1506000600d60006101000a81548160ff0219169083151502179055505050505050505050565b60008060008373ffffffffffffffffffffffffffffffffffffffff1673ffffffffffffffffffffffffffffffffffffffff168152602001908152602001600020549050919050565b600d60009054906101000a900460ff1615611040576040517f08c379a0000000000000000000000000000000000000000000000000000000008152600401611037906130a5565b60405180910390fd5b6001600d60006101000a81548160ff0219169083151502179055506000826064600b5461106d9190612f5c565b611077919061318b565b9050600083826110879190613157565b9050803410156110cc576040517f08c379a00000000000000000000000000000000000000000000000000000000081526004016110c3906136a1565b60405180910390fd5b6110d68385611263565b6110de6107e9565b50506000600d60006101000a81548160ff0219169083151502179055505050565b60095481565b60085481565b60606004805461111a90612fbc565b80601f016020809104026020016040519081016040528092919081815260200182805461114690612fbc565b80156111935780601f1061116857610100808354040283529160200191611193565b820191906000526020600020905b81548152906001019060200180831161117657829003601f168201915b5050505050905090565b6000806111a8611d5e565b905060006111b68286611677565b9050838110156111fb576040517f08c379a00000000000000000000000000000000000000000000000000000000081526004016111f290613733565b60405180910390fd5b6112088286868403611d66565b60019250505092915050565b600b5481565b600080611225611d5e565b9050611232818585611fbb565b600191505092915050565b600760009054906101000a900473ffffffffffffffffffffffffffffffffffffffff1681565b60008273ffffffffffffffffffffffffffffffffffffffff168260405161128990613784565b60006040518083038185875af1925050503d80600081146112c6576040519150601f19603f3d011682016040523d82523d6000602084013e6112cb565b606091505b505090508061130f576040517f08c379a0000000000000000000000000000000000000000000000000000000008152600401611306906137e5565b60405180910390fd5b505050565b600d60009054906101000a900460ff1615611364576040517f08c379a000000000000000000000000000000000000000000000000000000000815260040161135b906130a5565b60405180910390fd5b6001600d60006101000a81548160ff0219169083151502179055506000600a548261138f919061318b565b90508034146113d3576040517f08c379a00000000000000000000000000000000000000000000000000000000081526004016113ca9061334b565b60405180910390fd5b600560003373ffffffffffffffffffffffffffffffffffffffff1673ffffffffffffffffffffffffffffffffffffffff16815260200190815260200160002060070160009054906101000a900460ff1615611463576040517f08c379a000000000000000000000000000000000000000000000000000000000815260040161145a90613851565b60405180910390fd5b6040518061010001604052808a815260200189815260200188815260200187815260200186815260200185815260200184815260200160011515815250600560003373ffffffffffffffffffffffffffffffffffffffff1673ffffffffffffffffffffffffffffffffffffffff16815260200190815260200160002060008201518160000190816114f49190613583565b50602082015181600101908161150a9190613583565b5060408201518160020190816115209190613583565b5060608201518160030190816115369190613583565b506080820151816004015560a0820151816005015560c08201518160060190816115609190613583565b5060e08201518160070160006101000a81548160ff021916908315150217905550905050600c600081548092919061159790613871565b91905055503360066000600c54815260200190815260200160002060006101000a81548173ffffffffffffffffffffffffffffffffffffffff021916908373ffffffffffffffffffffffffffffffffffffffff1602179055506115f86107e9565b7f5b73fdb55c6d540b14745a3fd5938bc6f31fefb134291d87585fb561def1395b336040516116279190612804565b60405180910390a1506000600d60006101000a81548160ff0219169083151502179055505050505050505050565b600a5481565b6000806009548361166c919061318b565b905080915050919050565b6000600160008473ffffffffffffffffffffffffffffffffffffffff1673ffffffffffffffffffffffffffffffffffffffff16815260200190815260200160002060008373ffffffffffffffffffffffffffffffffffffffff1673ffffffffffffffffffffffffffffffffffffffff16815260200190815260200160002054905092915050565b61170661255e565b600560008373ffffffffffffffffffffffffffffffffffffffff1673ffffffffffffffffffffffffffffffffffffffff1681526020019081526020016000206040518061010001604052908160008201805461176190612fbc565b80601f016020809104026020016040519081016040528092919081815260200182805461178d90612fbc565b80156117da5780601f106117af576101008083540402835291602001916117da565b820191906000526020600020905b8154815290600101906020018083116117bd57829003601f168201915b505050505081526020016001820180546117f390612fbc565b80601f016020809104026020016040519081016040528092919081815260200182805461181f90612fbc565b801561186c5780601f106118415761010080835404028352916020019161186c565b820191906000526020600020905b81548152906001019060200180831161184f57829003601f168201915b5050505050815260200160028201805461188590612fbc565b80601f01602080910402602001604051908101604052809291908181526020018280546118b190612fbc565b80156118fe5780601f106118d3576101008083540402835291602001916118fe565b820191906000526020600020905b8154815290600101906020018083116118e157829003601f168201915b5050505050815260200160038201805461191790612fbc565b80601f016020809104026020016040519081016040528092919081815260200182805461194390612fbc565b80156119905780601f1061196557610100808354040283529160200191611990565b820191906000526020600020905b81548152906001019060200180831161197357829003601f168201915b5050505050815260200160048201548152602001600582015481526020016006820180546119bd90612fbc565b80601f01602080910402602001604051908101604052809291908181526020018280546119e990612fbc565b8015611a365780601f10611a0b57610100808354040283529160200191611a36565b820191906000526020600020905b815481529060010190602001808311611a1957829003601f168201915b505050505081526020016007820160009054906101000a900460ff1615151515815250509050919050565b6005602052806000526040600020600091509050806000018054611a8490612fbc565b80601f0160208091040260200160405190810160405280929190818152602001828054611ab090612fbc565b8015611afd5780601f10611ad257610100808354040283529160200191611afd565b820191906000526020600020905b815481529060010190602001808311611ae057829003601f168201915b505050505090806001018054611b1290612fbc565b80601f0160208091040260200160405190810160405280929190818152602001828054611b3e90612fbc565b8015611b8b5780601f10611b6057610100808354040283529160200191611b8b565b820191906000526020600020905b815481529060010190602001808311611b6e57829003601f168201915b505050505090806002018054611ba090612fbc565b80601f0160208091040260200160405190810160405280929190818152602001828054611bcc90612fbc565b8015611c195780601f10611bee57610100808354040283529160200191611c19565b820191906000526020600020905b815481529060010190602001808311611bfc57829003601f168201915b505050505090806003018054611c2e90612fbc565b80601f0160208091040260200160405190810160405280929190818152602001828054611c5a90612fbc565b8015611ca75780601f10611c7c57610100808354040283529160200191611ca7565b820191906000526020600020905b815481529060010190602001808311611c8a57829003601f168201915b505050505090806004015490806005015490806006018054611cc890612fbc565b80601f0160208091040260200160405190810160405280929190818152602001828054611cf490612fbc565b8015611d415780601f10611d1657610100808354040283529160200191611d41565b820191906000526020600020905b815481529060010190602001808311611d2457829003601f168201915b5050505050908060070160009054906101000a900460ff16905088565b600033905090565b600073ffffffffffffffffffffffffffffffffffffffff168373ffffffffffffffffffffffffffffffffffffffff1603611dd5576040517f08c379a0000000000000000000000000000000000000000000000000000000008152600401611dcc9061392b565b60405180910390fd5b600073ffffffffffffffffffffffffffffffffffffffff168273ffffffffffffffffffffffffffffffffffffffff1603611e44576040517f08c379a0000000000000000000000000000000000000000000000000000000008152600401611e3b906139bd565b60405180910390fd5b80600160008573ffffffffffffffffffffffffffffffffffffffff1673ffffffffffffffffffffffffffffffffffffffff16815260200190815260200160002060008473ffffffffffffffffffffffffffffffffffffffff1673ffffffffffffffffffffffffffffffffffffffff168152602001908152602001600020819055508173ffffffffffffffffffffffffffffffffffffffff168373ffffffffffffffffffffffffffffffffffffffff167f8c5be1e5ebec7d5bd14f71427d1e84f3dd0314c0f7b2291e5b200ac8c7c3b92583604051611f229190612628565b60405180910390a3505050565b6000611f3b8484611677565b90507fffffffffffffffffffffffffffffffffffffffffffffffffffffffffffffffff8114611fb55781811015611fa7576040517f08c379a0000000000000000000000000000000000000000000000000000000008152600401611f9e90613a29565b60405180910390fd5b611fb48484848403611d66565b5b50505050565b600073ffffffffffffffffffffffffffffffffffffffff168373ffffffffffffffffffffffffffffffffffffffff160361202a576040517f08c379a000000000000000000000000000000000000000000000000000000000815260040161202190613abb565b60405180910390fd5b600073ffffffffffffffffffffffffffffffffffffffff168273ffffffffffffffffffffffffffffffffffffffff1603612099576040517f08c379a000000000000000000000000000000000000000000000000000000000815260040161209090613b4d565b60405180910390fd5b6120a4838383612554565b60008060008573ffffffffffffffffffffffffffffffffffffffff1673ffffffffffffffffffffffffffffffffffffffff1681526020019081526020016000205490508181101561212a576040517f08c379a000000000000000000000000000000000000000000000000000000000815260040161212190613bdf565b60405180910390fd5b8181036000808673ffffffffffffffffffffffffffffffffffffffff1673ffffffffffffffffffffffffffffffffffffffff16815260200190815260200160002081905550816000808573ffffffffffffffffffffffffffffffffffffffff1673ffffffffffffffffffffffffffffffffffffffff168152602001908152602001600020600082825401925050819055508273ffffffffffffffffffffffffffffffffffffffff168473ffffffffffffffffffffffffffffffffffffffff167fddf252ad1be2c89b69c2b068fc378daa952ba7f163c4a11628f55a4df523b3ef846040516122189190612628565b60405180910390a361222b848484612559565b50505050565b600073ffffffffffffffffffffffffffffffffffffffff168273ffffffffffffffffffffffffffffffffffffffff16036122a0576040517f08c379a000000000000000000000000000000000000000000000000000000000815260040161229790613c71565b60405180910390fd5b6122ac82600083612554565b60008060008473ffffffffffffffffffffffffffffffffffffffff1673ffffffffffffffffffffffffffffffffffffffff16815260200190815260200160002054905081811015612332576040517f08c379a000000000000000000000000000000000000000000000000000000000815260040161232990613d03565b60405180910390fd5b8181036000808573ffffffffffffffffffffffffffffffffffffffff1673ffffffffffffffffffffffffffffffffffffffff1681526020019081526020016000208190555081600260008282540392505081905550600073ffffffffffffffffffffffffffffffffffffffff168373ffffffffffffffffffffffffffffffffffffffff167fddf252ad1be2c89b69c2b068fc378daa952ba7f163c4a11628f55a4df523b3ef846040516123e59190612628565b60405180910390a36123f983600084612559565b505050565b600073ffffffffffffffffffffffffffffffffffffffff168273ffffffffffffffffffffffffffffffffffffffff160361246d576040517f08c379a000000000000000000000000000000000000000000000000000000000815260040161246490613d6f565b60405180910390fd5b61247960008383612554565b806002600082825461248b9190613157565b92505081905550806000808473ffffffffffffffffffffffffffffffffffffffff1673ffffffffffffffffffffffffffffffffffffffff168152602001908152602001600020600082825401925050819055508173ffffffffffffffffffffffffffffffffffffffff16600073ffffffffffffffffffffffffffffffffffffffff167fddf252ad1be2c89b69c2b068fc378daa952ba7f163c4a11628f55a4df523b3ef8360405161253c9190612628565b60405180910390a361255060008383612559565b5050565b505050565b505050565b604051806101000160405280606081526020016060815260200160608152602001606081526020016000815260200160008152602001606081526020016000151581525090565b600073ffffffffffffffffffffffffffffffffffffffff82169050919050565b60006125d0826125a5565b9050919050565b6125e0816125c5565b82525050565b6000819050919050565b6125f9816125e6565b82525050565b600060408201905061261460008301856125d7565b61262160208301846125f0565b9392505050565b600060208201905061263d60008301846125f0565b92915050565b600081519050919050565b600082825260208201905092915050565b60005b8381101561267d578082015181840152602081019050612662565b60008484015250505050565b6000601f19601f8301169050919050565b60006126a582612643565b6126af818561264e565b93506126bf81856020860161265f565b6126c881612689565b840191505092915050565b600060208201905081810360008301526126ed818461269a565b905092915050565b6000604051905090565b600080fd5b600080fd5b612712816125c5565b811461271d57600080fd5b50565b60008135905061272f81612709565b92915050565b61273e816125e6565b811461274957600080fd5b50565b60008135905061275b81612735565b92915050565b60008060408385031215612778576127776126ff565b5b600061278685828601612720565b92505060206127978582860161274c565b9150509250929050565b60008115159050919050565b6127b6816127a1565b82525050565b60006020820190506127d160008301846127ad565b92915050565b6000602082840312156127ed576127ec6126ff565b5b60006127fb8482850161274c565b91505092915050565b600060208201905061281960008301846125d7565b92915050565b600080600060608486031215612838576128376126ff565b5b600061284686828701612720565b935050602061285786828701612720565b92505060406128688682870161274c565b9150509250925092565b600060ff82169050919050565b61288881612872565b82525050565b60006020820190506128a3600083018461287f565b92915050565b600080fd5b600080fd5b7f4e487b7100000000000000000000000000000000000000000000000000000000600052604160045260246000fd5b6128eb82612689565b810181811067ffffffffffffffff8211171561290a576129096128b3565b5b80604052505050565b600061291d6126f5565b905061292982826128e2565b919050565b600067ffffffffffffffff821115612949576129486128b3565b5b61295282612689565b9050602081019050919050565b82818337600083830152505050565b600061298161297c8461292e565b612913565b90508281526020810184848401111561299d5761299c6128ae565b5b6129a884828561295f565b509392505050565b600082601f8301126129c5576129c46128a9565b5b81356129d584826020860161296e565b91505092915050565b600080600080600080600080610100898b0312156129ff576129fe6126ff565b5b600089013567ffffffffffffffff811115612a1d57612a1c612704565b5b612a298b828c016129b0565b985050602089013567ffffffffffffffff811115612a4a57612a49612704565b5b612a568b828c016129b0565b975050604089013567ffffffffffffffff811115612a7757612a76612704565b5b612a838b828c016129b0565b965050606089013567ffffffffffffffff811115612aa457612aa3612704565b5b612ab08b828c016129b0565b9550506080612ac18b828c0161274c565b94505060a0612ad28b828c0161274c565b93505060c089013567ffffffffffffffff811115612af357612af2612704565b5b612aff8b828c016129b0565b92505060e0612b108b828c0161274c565b9150509295985092959890939650565b600060208284031215612b3657612b356126ff565b5b6000612b4484828501612720565b91505092915050565b60008060408385031215612b6457612b636126ff565b5b6000612b728582860161274c565b9250506020612b8385828601612720565b9150509250929050565b6000612b98826125a5565b9050919050565b612ba881612b8d565b82525050565b6000602082019050612bc36000830184612b9f565b92915050565b612bd281612b8d565b8114612bdd57600080fd5b50565b600081359050612bef81612bc9565b92915050565b60008060408385031215612c0c57612c0b6126ff565b5b6000612c1a85828601612be0565b9250506020612c2b8582860161274c565b9150509250929050565b60008060408385031215612c4c57612c4b6126ff565b5b6000612c5a85828601612720565b9250506020612c6b85828601612720565b9150509250929050565b600082825260208201905092915050565b6000612c9182612643565b612c9b8185612c75565b9350612cab81856020860161265f565b612cb481612689565b840191505092915050565b612cc8816125e6565b82525050565b612cd7816127a1565b82525050565b6000610100830160008301518482036000860152612cfb8282612c86565b91505060208301518482036020860152612d158282612c86565b91505060408301518482036040860152612d2f8282612c86565b91505060608301518482036060860152612d498282612c86565b9150506080830151612d5e6080860182612cbf565b5060a0830151612d7160a0860182612cbf565b5060c083015184820360c0860152612d898282612c86565b91505060e0830151612d9e60e0860182612cce565b508091505092915050565b60006020820190508181036000830152612dc38184612cdd565b905092915050565b6000610100820190508181036000830152612de6818b61269a565b90508181036020830152612dfa818a61269a565b90508181036040830152612e0e818961269a565b90508181036060830152612e22818861269a565b9050612e3160808301876125f0565b612e3e60a08301866125f0565b81810360c0830152612e50818561269a565b9050612e5f60e08301846127ad565b9998505050505050505050565b7f5468657265206973206e6f2076616c756520696e207468697320636f6e74726160008201527f6374000000000000000000000000000000000000000000000000000000000000602082015250565b6000612ec860228361264e565b9150612ed382612e6c565b604082019050919050565b60006020820190508181036000830152612ef781612ebb565b9050919050565b7f4e487b7100000000000000000000000000000000000000000000000000000000600052601260045260246000fd5b7f4e487b7100000000000000000000000000000000000000000000000000000000600052601160045260246000fd5b6000612f67826125e6565b9150612f72836125e6565b925082612f8257612f81612efe565b5b828204905092915050565b7f4e487b7100000000000000000000000000000000000000000000000000000000600052602260045260246000fd5b60006002820490506001821680612fd457607f821691505b602082108103612fe757612fe6612f8d565b5b50919050565b7f4e6f7420686f6c64657200000000000000000000000000000000000000000000600082015250565b6000613023600a8361264e565b915061302e82612fed565b602082019050919050565b6000602082019050818103600083015261305281613016565b9050919050565b7f5265656e7472616e6379206973206e6f7420616c6c6f77656400000000000000600082015250565b600061308f60198361264e565b915061309a82613059565b602082019050919050565b600060208201905081810360008301526130be81613082565b9050919050565b7f596f752061726520747279696e6720746f207769746864726177206d6f72652060008201527f7468616e20796f7572207374616b650000000000000000000000000000000000602082015250565b6000613121602f8361264e565b915061312c826130c5565b604082019050919050565b6000602082019050818103600083015261315081613114565b9050919050565b6000613162826125e6565b915061316d836125e6565b925082820190508082111561318557613184612f2d565b5b92915050565b6000613196826125e6565b91506131a1836125e6565b92508282026131af816125e6565b915082820484148315176131c6576131c5612f2d565b5b5092915050565b7f596f75206172652073656e64696e67207468652077726f6e6720616d6f756e7460008201527f20746f207468697320636f6e7472616374000000000000000000000000000000602082015250565b600061322960318361264e565b9150613234826131cd565b604082019050919050565b600060208201905081810360008301526132588161321c565b9050919050565b7f4d617820737570706c7920726561636865640000000000000000000000000000600082015250565b600061329560128361264e565b91506132a08261325f565b602082019050919050565b600060208201905081810360008301526132c481613288565b9050919050565b60006132d6826125e6565b91506132e1836125e6565b92508282039050818111156132f9576132f8612f2d565b5b92915050565b7f506c656173652070617920746865207265636f6d6d656e646564206665650000600082015250565b6000613335601e8361264e565b9150613340826132ff565b602082019050919050565b6000602082019050818103600083015261336481613328565b9050919050565b7f4e6f7420612063617368706f696e740000000000000000000000000000000000600082015250565b60006133a1600f8361264e565b91506133ac8261336b565b602082019050919050565b600060208201905081810360008301526133d081613394565b9050919050565b60008190508160005260206000209050919050565b60006020601f8301049050919050565b600082821b905092915050565b6000600883026134397fffffffffffffffffffffffffffffffffffffffffffffffffffffffffffffffff826133fc565b61344386836133fc565b95508019841693508086168417925050509392505050565b6000819050919050565b600061348061347b613476846125e6565b61345b565b6125e6565b9050919050565b6000819050919050565b61349a83613465565b6134ae6134a682613487565b848454613409565b825550505050565b600090565b6134c36134b6565b6134ce818484613491565b505050565b5b818110156134f2576134e76000826134bb565b6001810190506134d4565b5050565b601f82111561353757613508816133d7565b613511846133ec565b81016020851015613520578190505b61353461352c856133ec565b8301826134d3565b50505b505050565b600082821c905092915050565b600061355a6000198460080261353c565b1980831691505092915050565b60006135738383613549565b9150826002028217905092915050565b61358c82612643565b67ffffffffffffffff8111156135a5576135a46128b3565b5b6135af8254612fbc565b6135ba8282856134f6565b600060209050601f8311600181146135ed57600084156135db578287015190505b6135e58582613567565b86555061364d565b601f1984166135fb866133d7565b60005b82811015613623578489015182556001820191506020850194506020810190506135fe565b86831015613640578489015161363c601f891682613549565b8355505b6001600288020188555050505b505050505050565b7f4e6f7420656e6f7567682066756e64732073656e740000000000000000000000600082015250565b600061368b60158361264e565b915061369682613655565b602082019050919050565b600060208201905081810360008301526136ba8161367e565b9050919050565b7f45524332303a2064656372656173656420616c6c6f77616e63652062656c6f7760008201527f207a65726f000000000000000000000000000000000000000000000000000000602082015250565b600061371d60258361264e565b9150613728826136c1565b604082019050919050565b6000602082019050818103600083015261374c81613710565b9050919050565b600081905092915050565b50565b600061376e600083613753565b91506137798261375e565b600082019050919050565b600061378f82613761565b9150819050919050565b7f4661696c656420746f2073656e64207844616900000000000000000000000000600082015250565b60006137cf60138361264e565b91506137da82613799565b602082019050919050565b600060208201905081810360008301526137fe816137c2565b9050919050565b7f416c726561647920612063617368706f696e7400000000000000000000000000600082015250565b600061383b60138361264e565b915061384682613805565b602082019050919050565b6000602082019050818103600083015261386a8161382e565b9050919050565b600061387c826125e6565b91507fffffffffffffffffffffffffffffffffffffffffffffffffffffffffffffffff82036138ae576138ad612f2d565b5b600182019050919050565b7f45524332303a20617070726f76652066726f6d20746865207a65726f2061646460008201527f7265737300000000000000000000000000000000000000000000000000000000602082015250565b600061391560248361264e565b9150613920826138b9565b604082019050919050565b6000602082019050818103600083015261394481613908565b9050919050565b7f45524332303a20617070726f766520746f20746865207a65726f20616464726560008201527f7373000000000000000000000000000000000000000000000000000000000000602082015250565b60006139a760228361264e565b91506139b28261394b565b604082019050919050565b600060208201905081810360008301526139d68161399a565b9050919050565b7f45524332303a20696e73756666696369656e7420616c6c6f77616e6365000000600082015250565b6000613a13601d8361264e565b9150613a1e826139dd565b602082019050919050565b60006020820190508181036000830152613a4281613a06565b9050919050565b7f45524332303a207472616e736665722066726f6d20746865207a65726f20616460008201527f6472657373000000000000000000000000000000000000000000000000000000602082015250565b6000613aa560258361264e565b9150613ab082613a49565b604082019050919050565b60006020820190508181036000830152613ad481613a98565b9050919050565b7f45524332303a207472616e7366657220746f20746865207a65726f206164647260008201527f6573730000000000000000000000000000000000000000000000000000000000602082015250565b6000613b3760238361264e565b9150613b4282613adb565b604082019050919050565b60006020820190508181036000830152613b6681613b2a565b9050919050565b7f45524332303a207472616e7366657220616d6f756e742065786365656473206260008201527f616c616e63650000000000000000000000000000000000000000000000000000602082015250565b6000613bc960268361264e565b9150613bd482613b6d565b604082019050919050565b60006020820190508181036000830152613bf881613bbc565b9050919050565b7f45524332303a206275726e2066726f6d20746865207a65726f2061646472657360008201527f7300000000000000000000000000000000000000000000000000000000000000602082015250565b6000613c5b60218361264e565b9150613c6682613bff565b604082019050919050565b60006020820190508181036000830152613c8a81613c4e565b9050919050565b7f45524332303a206275726e20616d6f756e7420657863656564732062616c616e60008201527f6365000000000000000000000000000000000000000000000000000000000000602082015250565b6000613ced60228361264e565b9150613cf882613c91565b604082019050919050565b60006020820190508181036000830152613d1c81613ce0565b9050919050565b7f45524332303a206d696e7420746f20746865207a65726f206164647265737300600082015250565b6000613d59601f8361264e565b9150613d6482613d23565b602082019050919050565b60006020820190508181036000830152613d8881613d4c565b905091905056fea2646970667358221220908b7e9685786f6981f55a9f5ca6ec8d5a835f5153e244cc22850c1f65fea97a64736f6c63430008110033","opcodes":"PUSH1 0x80 PUSH1 0x40 MSTORE PUSH8 0x6F05B59D3B20000 PUSH1 0xA SSTORE PUSH1 0x1 PUSH1 0xB SSTORE PUSH1 0x0 PUSH1 0xC SSTORE PUSH1 0x0 PUSH1 0xD PUSH1 0x0 PUSH2 0x100 EXP DUP2 SLOAD DUP2 PUSH1 0xFF MUL NOT AND SWAP1 DUP4 ISZERO ISZERO MUL OR SWAP1 SSTORE POP CALLVALUE DUP1 ISZERO PUSH3 0x42 JUMPI PUSH1 0x0 DUP1 REVERT JUMPDEST POP PUSH1 0x40 MLOAD DUP1 PUSH1 0x40 ADD PUSH1 0x40 MSTORE DUP1 PUSH1 0x8 DUP2 MSTORE PUSH1 0x20 ADD PUSH32 0x4368696B77616D61000000000000000000000000000000000000000000000000 DUP2 MSTORE POP PUSH1 0x40 MLOAD DUP1 PUSH1 0x40 ADD PUSH1 0x40 MSTORE DUP1 PUSH1 0x3 DUP2 MSTORE PUSH1 0x20 ADD PUSH32 0x43484B0000000000000000000000000000000000000000000000000000000000 DUP2 MSTORE POP DUP2 PUSH1 0x3 SWAP1 DUP2 PUSH3 0xC0 SWAP2 SWAP1 PUSH3 0x54D JUMP JUMPDEST POP DUP1 PUSH1 0x4 SWAP1 DUP2 PUSH3 0xD2 SWAP2 SWAP1 PUSH3 0x54D JUMP JUMPDEST POP POP POP CALLER PUSH1 0x7 PUSH1 0x0 PUSH2 0x100 EXP DUP2 SLOAD DUP2 PUSH20 0xFFFFFFFFFFFFFFFFFFFFFFFFFFFFFFFFFFFFFFFF MUL NOT AND SWAP1 DUP4 PUSH20 0xFFFFFFFFFFFFFFFFFFFFFFFFFFFFFFFFFFFFFFFF AND MUL OR SWAP1 SSTORE POP PUSH3 0x14C PUSH1 0x7 PUSH1 0x0 SWAP1 SLOAD SWAP1 PUSH2 0x100 EXP SWAP1 DIV PUSH20 0xFFFFFFFFFFFFFFFFFFFFFFFFFFFFFFFFFFFFFFFF AND PUSH2 0x2710 PUSH3 0x15C PUSH1 0x20 SHL PUSH1 0x20 SHR JUMP JUMPDEST PUSH3 0x15F90 PUSH1 0x8 DUP2 SWAP1 SSTORE POP PUSH3 0x74F JUMP JUMPDEST PUSH1 0x0 PUSH20 0xFFFFFFFFFFFFFFFFFFFFFFFFFFFFFFFFFFFFFFFF AND DUP3 PUSH20 0xFFFFFFFFFFFFFFFFFFFFFFFFFFFFFFFFFFFFFFFF AND SUB PUSH3 0x1CE JUMPI PUSH1 0x40 MLOAD PUSH32 0x8C379A000000000000000000000000000000000000000000000000000000000 DUP2 MSTORE PUSH1 0x4 ADD PUSH3 0x1C5 SWAP1 PUSH3 0x695 JUMP JUMPDEST PUSH1 0x40 MLOAD DUP1 SWAP2 SUB SWAP1 REVERT JUMPDEST PUSH3 0x1E2 PUSH1 0x0 DUP4 DUP4 PUSH3 0x2C9 PUSH1 0x20 SHL PUSH1 0x20 SHR JUMP JUMPDEST DUP1 PUSH1 0x2 PUSH1 0x0 DUP3 DUP3 SLOAD PUSH3 0x1F6 SWAP2 SWAP1 PUSH3 0x6E6 JUMP JUMPDEST SWAP3 POP POP DUP2 SWAP1 SSTORE POP DUP1 PUSH1 0x0 DUP1 DUP5 PUSH20 0xFFFFFFFFFFFFFFFFFFFFFFFFFFFFFFFFFFFFFFFF AND PUSH20 0xFFFFFFFFFFFFFFFFFFFFFFFFFFFFFFFFFFFFFFFF AND DUP2 MSTORE PUSH1 0x20 ADD SWAP1 DUP2 MSTORE PUSH1 0x20 ADD PUSH1 0x0 KECCAK256 PUSH1 0x0 DUP3 DUP3 SLOAD ADD SWAP3 POP POP DUP2 SWAP1 SSTORE POP DUP2 PUSH20 0xFFFFFFFFFFFFFFFFFFFFFFFFFFFFFFFFFFFFFFFF AND PUSH1 0x0 PUSH20 0xFFFFFFFFFFFFFFFFFFFFFFFFFFFFFFFFFFFFFFFF AND PUSH32 0xDDF252AD1BE2C89B69C2B068FC378DAA952BA7F163C4A11628F55A4DF523B3EF DUP4 PUSH1 0x40 MLOAD PUSH3 0x2A9 SWAP2 SWAP1 PUSH3 0x732 JUMP JUMPDEST PUSH1 0x40 MLOAD DUP1 SWAP2 SUB SWAP1 LOG3 PUSH3 0x2C5 PUSH1 0x0 DUP4 DUP4 PUSH3 0x2CE PUSH1 0x20 SHL PUSH1 0x20 SHR JUMP JUMPDEST POP POP JUMP JUMPDEST POP POP POP JUMP JUMPDEST POP POP POP JUMP JUMPDEST PUSH1 0x0 DUP2 MLOAD SWAP1 POP SWAP2 SWAP1 POP JUMP JUMPDEST PUSH32 0x4E487B7100000000000000000000000000000000000000000000000000000000 PUSH1 0x0 MSTORE PUSH1 0x41 PUSH1 0x4 MSTORE PUSH1 0x24 PUSH1 0x0 REVERT JUMPDEST PUSH32 0x4E487B7100000000000000000000000000000000000000000000000000000000 PUSH1 0x0 MSTORE PUSH1 0x22 PUSH1 0x4 MSTORE PUSH1 0x24 PUSH1 0x0 REVERT JUMPDEST PUSH1 0x0 PUSH1 0x2 DUP3 DIV SWAP1 POP PUSH1 0x1 DUP3 AND DUP1 PUSH3 0x355 JUMPI PUSH1 0x7F DUP3 AND SWAP2 POP JUMPDEST PUSH1 0x20 DUP3 LT DUP2 SUB PUSH3 0x36B JUMPI PUSH3 0x36A PUSH3 0x30D JUMP JUMPDEST JUMPDEST POP SWAP2 SWAP1 POP JUMP JUMPDEST PUSH1 0x0 DUP2 SWAP1 POP DUP2 PUSH1 0x0 MSTORE PUSH1 0x20 PUSH1 0x0 KECCAK256 SWAP1 POP SWAP2 SWAP1 POP JUMP JUMPDEST PUSH1 0x0 PUSH1 0x20 PUSH1 0x1F DUP4 ADD DIV SWAP1 POP SWAP2 SWAP1 POP JUMP JUMPDEST PUSH1 0x0 DUP3 DUP3 SHL SWAP1 POP SWAP3 SWAP2 POP POP JUMP JUMPDEST PUSH1 0x0 PUSH1 0x8 DUP4 MUL PUSH3 0x3D5 PUSH32 0xFFFFFFFFFFFFFFFFFFFFFFFFFFFFFFFFFFFFFFFFFFFFFFFFFFFFFFFFFFFFFFFF DUP3 PUSH3 0x396 JUMP JUMPDEST PUSH3 0x3E1 DUP7 DUP4 PUSH3 0x396 JUMP JUMPDEST SWAP6 POP DUP1 NOT DUP5 AND SWAP4 POP DUP1 DUP7 AND DUP5 OR SWAP3 POP POP POP SWAP4 SWAP3 POP POP POP JUMP JUMPDEST PUSH1 0x0 DUP2 SWAP1 POP SWAP2 SWAP1 POP JUMP JUMPDEST PUSH1 0x0 DUP2 SWAP1 POP SWAP2 SWAP1 POP JUMP JUMPDEST PUSH1 0x0 PUSH3 0x42E PUSH3 0x428 PUSH3 0x422 DUP5 PUSH3 0x3F9 JUMP JUMPDEST PUSH3 0x403 JUMP JUMPDEST PUSH3 0x3F9 JUMP JUMPDEST SWAP1 POP SWAP2 SWAP1 POP JUMP JUMPDEST PUSH1 0x0 DUP2 SWAP1 POP SWAP2 SWAP1 POP JUMP JUMPDEST PUSH3 0x44A DUP4 PUSH3 0x40D JUMP JUMPDEST PUSH3 0x462 PUSH3 0x459 DUP3 PUSH3 0x435 JUMP JUMPDEST DUP5 DUP5 SLOAD PUSH3 0x3A3 JUMP JUMPDEST DUP3 SSTORE POP POP POP POP JUMP JUMPDEST PUSH1 0x0 SWAP1 JUMP JUMPDEST PUSH3 0x479 PUSH3 0x46A JUMP JUMPDEST PUSH3 0x486 DUP2 DUP5 DUP5 PUSH3 0x43F JUMP JUMPDEST POP POP POP JUMP JUMPDEST JUMPDEST DUP2 DUP2 LT ISZERO PUSH3 0x4AE JUMPI PUSH3 0x4A2 PUSH1 0x0 DUP3 PUSH3 0x46F JUMP JUMPDEST PUSH1 0x1 DUP2 ADD SWAP1 POP PUSH3 0x48C JUMP JUMPDEST POP POP JUMP JUMPDEST PUSH1 0x1F DUP3 GT ISZERO PUSH3 0x4FD JUMPI PUSH3 0x4C7 DUP2 PUSH3 0x371 JUMP JUMPDEST PUSH3 0x4D2 DUP5 PUSH3 0x386 JUMP JUMPDEST DUP2 ADD PUSH1 0x20 DUP6 LT ISZERO PUSH3 0x4E2 JUMPI DUP2 SWAP1 POP JUMPDEST PUSH3 0x4FA PUSH3 0x4F1 DUP6 PUSH3 0x386 JUMP JUMPDEST DUP4 ADD DUP3 PUSH3 0x48B JUMP JUMPDEST POP POP JUMPDEST POP POP POP JUMP JUMPDEST PUSH1 0x0 DUP3 DUP3 SHR SWAP1 POP SWAP3 SWAP2 POP POP JUMP JUMPDEST PUSH1 0x0 PUSH3 0x522 PUSH1 0x0 NOT DUP5 PUSH1 0x8 MUL PUSH3 0x502 JUMP JUMPDEST NOT DUP1 DUP4 AND SWAP2 POP POP SWAP3 SWAP2 POP POP JUMP JUMPDEST PUSH1 0x0 PUSH3 0x53D DUP4 DUP4 PUSH3 0x50F JUMP JUMPDEST SWAP2 POP DUP3 PUSH1 0x2 MUL DUP3 OR SWAP1 POP SWAP3 SWAP2 POP POP JUMP JUMPDEST PUSH3 0x558 DUP3 PUSH3 0x2D3 JUMP JUMPDEST PUSH8 0xFFFFFFFFFFFFFFFF DUP2 GT ISZERO PUSH3 0x574 JUMPI PUSH3 0x573 PUSH3 0x2DE JUMP JUMPDEST JUMPDEST PUSH3 0x580 DUP3 SLOAD PUSH3 0x33C JUMP JUMPDEST PUSH3 0x58D DUP3 DUP3 DUP6 PUSH3 0x4B2 JUMP JUMPDEST PUSH1 0x0 PUSH1 0x20 SWAP1 POP PUSH1 0x1F DUP4 GT PUSH1 0x1 DUP2 EQ PUSH3 0x5C5 JUMPI PUSH1 0x0 DUP5 ISZERO PUSH3 0x5B0 JUMPI DUP3 DUP8 ADD MLOAD SWAP1 POP JUMPDEST PUSH3 0x5BC DUP6 DUP3 PUSH3 0x52F JUMP JUMPDEST DUP7 SSTORE POP PUSH3 0x62C JUMP JUMPDEST PUSH1 0x1F NOT DUP5 AND PUSH3 0x5D5 DUP7 PUSH3 0x371 JUMP JUMPDEST PUSH1 0x0 JUMPDEST DUP3 DUP2 LT ISZERO PUSH3 0x5FF JUMPI DUP5 DUP10 ADD MLOAD DUP3 SSTORE PUSH1 0x1 DUP3 ADD SWAP2 POP PUSH1 0x20 DUP6 ADD SWAP5 POP PUSH1 0x20 DUP2 ADD SWAP1 POP PUSH3 0x5D8 JUMP JUMPDEST DUP7 DUP4 LT ISZERO PUSH3 0x61F JUMPI DUP5 DUP10 ADD MLOAD PUSH3 0x61B PUSH1 0x1F DUP10 AND DUP3 PUSH3 0x50F JUMP JUMPDEST DUP4 SSTORE POP JUMPDEST PUSH1 0x1 PUSH1 0x2 DUP9 MUL ADD DUP9 SSTORE POP POP POP JUMPDEST POP POP POP POP POP POP JUMP JUMPDEST PUSH1 0x0 DUP3 DUP3 MSTORE PUSH1 0x20 DUP3 ADD SWAP1 POP SWAP3 SWAP2 POP POP JUMP JUMPDEST PUSH32 0x45524332303A206D696E7420746F20746865207A65726F206164647265737300 PUSH1 0x0 DUP3 ADD MSTORE POP JUMP JUMPDEST PUSH1 0x0 PUSH3 0x67D PUSH1 0x1F DUP4 PUSH3 0x634 JUMP JUMPDEST SWAP2 POP PUSH3 0x68A DUP3 PUSH3 0x645 JUMP JUMPDEST PUSH1 0x20 DUP3 ADD SWAP1 POP SWAP2 SWAP1 POP JUMP JUMPDEST PUSH1 0x0 PUSH1 0x20 DUP3 ADD SWAP1 POP DUP2 DUP2 SUB PUSH1 0x0 DUP4 ADD MSTORE PUSH3 0x6B0 DUP2 PUSH3 0x66E JUMP JUMPDEST SWAP1 POP SWAP2 SWAP1 POP JUMP JUMPDEST PUSH32 0x4E487B7100000000000000000000000000000000000000000000000000000000 PUSH1 0x0 MSTORE PUSH1 0x11 PUSH1 0x4 MSTORE PUSH1 0x24 PUSH1 0x0 REVERT JUMPDEST PUSH1 0x0 PUSH3 0x6F3 DUP3 PUSH3 0x3F9 JUMP JUMPDEST SWAP2 POP PUSH3 0x700 DUP4 PUSH3 0x3F9 JUMP JUMPDEST SWAP3 POP DUP3 DUP3 ADD SWAP1 POP DUP1 DUP3 GT ISZERO PUSH3 0x71B JUMPI PUSH3 0x71A PUSH3 0x6B7 JUMP JUMPDEST JUMPDEST SWAP3 SWAP2 POP POP JUMP JUMPDEST PUSH3 0x72C DUP2 PUSH3 0x3F9 JUMP JUMPDEST DUP3 MSTORE POP POP JUMP JUMPDEST PUSH1 0x0 PUSH1 0x20 DUP3 ADD SWAP1 POP PUSH3 0x749 PUSH1 0x0 DUP4 ADD DUP5 PUSH3 0x721 JUMP JUMPDEST SWAP3 SWAP2 POP POP JUMP JUMPDEST PUSH2 0x3DC5 DUP1 PUSH3 0x75F PUSH1 0x0 CODECOPY PUSH1 0x0 RETURN INVALID PUSH1 0x80 PUSH1 0x40 MSTORE PUSH1 0x4 CALLDATASIZE LT PUSH2 0x1DC JUMPI PUSH1 0x0 CALLDATALOAD PUSH1 0xE0 SHR DUP1 PUSH4 0x785D04F5 GT PUSH2 0x102 JUMPI DUP1 PUSH4 0xB78175F9 GT PUSH2 0x95 JUMPI DUP1 PUSH4 0xDABADDB3 GT PUSH2 0x64 JUMPI DUP1 PUSH4 0xDABADDB3 EQ PUSH2 0x6EE JUMPI DUP1 PUSH4 0xDD62ED3E EQ PUSH2 0x72B JUMPI DUP1 PUSH4 0xE5D72553 EQ PUSH2 0x768 JUMPI DUP1 PUSH4 0xE97567F9 EQ PUSH2 0x7A5 JUMPI PUSH2 0x224 JUMP JUMPDEST DUP1 PUSH4 0xB78175F9 EQ PUSH2 0x667 JUMPI DUP1 PUSH4 0xCC6DD919 EQ PUSH2 0x690 JUMPI DUP1 PUSH4 0xD49AEF61 EQ PUSH2 0x6AC JUMPI DUP1 PUSH4 0xDA93D0D1 EQ PUSH2 0x6D7 JUMPI PUSH2 0x224 JUMP JUMPDEST DUP1 PUSH4 0xA457C2D7 GT PUSH2 0xD1 JUMPI DUP1 PUSH4 0xA457C2D7 EQ PUSH2 0x597 JUMPI DUP1 PUSH4 0xA74143F9 EQ PUSH2 0x5D4 JUMPI DUP1 PUSH4 0xA9059CBB EQ PUSH2 0x5FF JUMPI DUP1 PUSH4 0xB4A99A4E EQ PUSH2 0x63C JUMPI PUSH2 0x224 JUMP JUMPDEST DUP1 PUSH4 0x785D04F5 EQ PUSH2 0x4FA JUMPI DUP1 PUSH4 0x833B9499 EQ PUSH2 0x516 JUMPI DUP1 PUSH4 0x948E1A1C EQ PUSH2 0x541 JUMPI DUP1 PUSH4 0x95D89B41 EQ PUSH2 0x56C JUMPI PUSH2 0x224 JUMP JUMPDEST DUP1 PUSH4 0x2446D79F GT PUSH2 0x17A JUMPI DUP1 PUSH4 0x3610724E GT PUSH2 0x149 JUMPI DUP1 PUSH4 0x3610724E EQ PUSH2 0x448 JUMPI DUP1 PUSH4 0x39509351 EQ PUSH2 0x464 JUMPI DUP1 PUSH4 0x6A905DF5 EQ PUSH2 0x4A1 JUMPI DUP1 PUSH4 0x70A08231 EQ PUSH2 0x4BD JUMPI PUSH2 0x224 JUMP JUMPDEST DUP1 PUSH4 0x2446D79F EQ PUSH2 0x39E JUMPI DUP1 PUSH4 0x2E1A7D4D EQ PUSH2 0x3C9 JUMPI DUP1 PUSH4 0x313CE567 EQ PUSH2 0x3F2 JUMPI DUP1 PUSH4 0x32CB6B0C EQ PUSH2 0x41D JUMPI PUSH2 0x224 JUMP JUMPDEST DUP1 PUSH4 0xCB6AAF1 GT PUSH2 0x1B6 JUMPI DUP1 PUSH4 0xCB6AAF1 EQ PUSH2 0x2BC JUMPI DUP1 PUSH4 0x18160DDD EQ PUSH2 0x2F9 JUMPI DUP1 PUSH4 0x207B885A EQ PUSH2 0x324 JUMPI DUP1 PUSH4 0x23B872DD EQ PUSH2 0x361 JUMPI PUSH2 0x224 JUMP JUMPDEST DUP1 PUSH4 0x6661ABD EQ PUSH2 0x229 JUMPI DUP1 PUSH4 0x6FDDE03 EQ PUSH2 0x254 JUMPI DUP1 PUSH4 0x95EA7B3 EQ PUSH2 0x27F JUMPI PUSH2 0x224 JUMP JUMPDEST CALLDATASIZE PUSH2 0x224 JUMPI PUSH2 0x1E9 PUSH2 0x7E9 JUMP JUMPDEST PUSH32 0x88A5966D370B9919B20F3E2C13FF65706F196A4E32CC2C12BF57088F88525874 CALLER CALLVALUE PUSH1 0x40 MLOAD PUSH2 0x21A SWAP3 SWAP2 SWAP1 PUSH2 0x25FF JUMP JUMPDEST PUSH1 0x40 MLOAD DUP1 SWAP2 SUB SWAP1 LOG1 STOP JUMPDEST PUSH1 0x0 DUP1 REVERT JUMPDEST CALLVALUE DUP1 ISZERO PUSH2 0x235 JUMPI PUSH1 0x0 DUP1 REVERT JUMPDEST POP PUSH2 0x23E PUSH2 0x847 JUMP JUMPDEST PUSH1 0x40 MLOAD PUSH2 0x24B SWAP2 SWAP1 PUSH2 0x2628 JUMP JUMPDEST PUSH1 0x40 MLOAD DUP1 SWAP2 SUB SWAP1 RETURN JUMPDEST CALLVALUE DUP1 ISZERO PUSH2 0x260 JUMPI PUSH1 0x0 DUP1 REVERT JUMPDEST POP PUSH2 0x269 PUSH2 0x84D JUMP JUMPDEST PUSH1 0x40 MLOAD PUSH2 0x276 SWAP2 SWAP1 PUSH2 0x26D3 JUMP JUMPDEST PUSH1 0x40 MLOAD DUP1 SWAP2 SUB SWAP1 RETURN JUMPDEST CALLVALUE DUP1 ISZERO PUSH2 0x28B JUMPI PUSH1 0x0 DUP1 REVERT JUMPDEST POP PUSH2 0x2A6 PUSH1 0x4 DUP1 CALLDATASIZE SUB DUP2 ADD SWAP1 PUSH2 0x2A1 SWAP2 SWAP1 PUSH2 0x2761 JUMP JUMPDEST PUSH2 0x8DF JUMP JUMPDEST PUSH1 0x40 MLOAD PUSH2 0x2B3 SWAP2 SWAP1 PUSH2 0x27BC JUMP JUMPDEST PUSH1 0x40 MLOAD DUP1 SWAP2 SUB SWAP1 RETURN JUMPDEST CALLVALUE DUP1 ISZERO PUSH2 0x2C8 JUMPI PUSH1 0x0 DUP1 REVERT JUMPDEST POP PUSH2 0x2E3 PUSH1 0x4 DUP1 CALLDATASIZE SUB DUP2 ADD SWAP1 PUSH2 0x2DE SWAP2 SWAP1 PUSH2 0x27D7 JUMP JUMPDEST PUSH2 0x902 JUMP JUMPDEST PUSH1 0x40 MLOAD PUSH2 0x2F0 SWAP2 SWAP1 PUSH2 0x2804 JUMP JUMPDEST PUSH1 0x40 MLOAD DUP1 SWAP2 SUB SWAP1 RETURN JUMPDEST CALLVALUE DUP1 ISZERO PUSH2 0x305 JUMPI PUSH1 0x0 DUP1 REVERT JUMPDEST POP PUSH2 0x30E PUSH2 0x935 JUMP JUMPDEST PUSH1 0x40 MLOAD PUSH2 0x31B SWAP2 SWAP1 PUSH2 0x2628 JUMP JUMPDEST PUSH1 0x40 MLOAD DUP1 SWAP2 SUB SWAP1 RETURN JUMPDEST CALLVALUE DUP1 ISZERO PUSH2 0x330 JUMPI PUSH1 0x0 DUP1 REVERT JUMPDEST POP PUSH2 0x34B PUSH1 0x4 DUP1 CALLDATASIZE SUB DUP2 ADD SWAP1 PUSH2 0x346 SWAP2 SWAP1 PUSH2 0x27D7 JUMP JUMPDEST PUSH2 0x93F JUMP JUMPDEST PUSH1 0x40 MLOAD PUSH2 0x358 SWAP2 SWAP1 PUSH2 0x27BC JUMP JUMPDEST PUSH1 0x40 MLOAD DUP1 SWAP2 SUB SWAP1 RETURN JUMPDEST CALLVALUE DUP1 ISZERO PUSH2 0x36D JUMPI PUSH1 0x0 DUP1 REVERT JUMPDEST POP PUSH2 0x388 PUSH1 0x4 DUP1 CALLDATASIZE SUB DUP2 ADD SWAP1 PUSH2 0x383 SWAP2 SWAP1 PUSH2 0x281F JUMP JUMPDEST PUSH2 0x954 JUMP JUMPDEST PUSH1 0x40 MLOAD PUSH2 0x395 SWAP2 SWAP1 PUSH2 0x27BC JUMP JUMPDEST PUSH1 0x40 MLOAD DUP1 SWAP2 SUB SWAP1 RETURN JUMPDEST CALLVALUE DUP1 ISZERO PUSH2 0x3AA JUMPI PUSH1 0x0 DUP1 REVERT JUMPDEST POP PUSH2 0x3B3 PUSH2 0x983 JUMP JUMPDEST PUSH1 0x40 MLOAD PUSH2 0x3C0 SWAP2 SWAP1 PUSH2 0x27BC JUMP JUMPDEST PUSH1 0x40 MLOAD DUP1 SWAP2 SUB SWAP1 RETURN JUMPDEST CALLVALUE DUP1 ISZERO PUSH2 0x3D5 JUMPI PUSH1 0x0 DUP1 REVERT JUMPDEST POP PUSH2 0x3F0 PUSH1 0x4 DUP1 CALLDATASIZE SUB DUP2 ADD SWAP1 PUSH2 0x3EB SWAP2 SWAP1 PUSH2 0x27D7 JUMP JUMPDEST PUSH2 0x996 JUMP JUMPDEST STOP JUMPDEST CALLVALUE DUP1 ISZERO PUSH2 0x3FE JUMPI PUSH1 0x0 DUP1 REVERT JUMPDEST POP PUSH2 0x407 PUSH2 0xB32 JUMP JUMPDEST PUSH1 0x40 MLOAD PUSH2 0x414 SWAP2 SWAP1 PUSH2 0x288E JUMP JUMPDEST PUSH1 0x40 MLOAD DUP1 SWAP2 SUB SWAP1 RETURN JUMPDEST CALLVALUE DUP1 ISZERO PUSH2 0x429 JUMPI PUSH1 0x0 DUP1 REVERT JUMPDEST POP PUSH2 0x432 PUSH2 0xB3B JUMP JUMPDEST PUSH1 0x40 MLOAD PUSH2 0x43F SWAP2 SWAP1 PUSH2 0x2628 JUMP JUMPDEST PUSH1 0x40 MLOAD DUP1 SWAP2 SUB SWAP1 RETURN JUMPDEST PUSH2 0x462 PUSH1 0x4 DUP1 CALLDATASIZE SUB DUP2 ADD SWAP1 PUSH2 0x45D SWAP2 SWAP1 PUSH2 0x27D7 JUMP JUMPDEST PUSH2 0xB42 JUMP JUMPDEST STOP JUMPDEST CALLVALUE DUP1 ISZERO PUSH2 0x470 JUMPI PUSH1 0x0 DUP1 REVERT JUMPDEST POP PUSH2 0x48B PUSH1 0x4 DUP1 CALLDATASIZE SUB DUP2 ADD SWAP1 PUSH2 0x486 SWAP2 SWAP1 PUSH2 0x2761 JUMP JUMPDEST PUSH2 0xC9D JUMP JUMPDEST PUSH1 0x40 MLOAD PUSH2 0x498 SWAP2 SWAP1 PUSH2 0x27BC JUMP JUMPDEST PUSH1 0x40 MLOAD DUP1 SWAP2 SUB SWAP1 RETURN JUMPDEST PUSH2 0x4BB PUSH1 0x4 DUP1 CALLDATASIZE SUB DUP2 ADD SWAP1 PUSH2 0x4B6 SWAP2 SWAP1 PUSH2 0x29DE JUMP JUMPDEST PUSH2 0xCD4 JUMP JUMPDEST STOP JUMPDEST CALLVALUE DUP1 ISZERO PUSH2 0x4C9 JUMPI PUSH1 0x0 DUP1 REVERT JUMPDEST POP PUSH2 0x4E4 PUSH1 0x4 DUP1 CALLDATASIZE SUB DUP2 ADD SWAP1 PUSH2 0x4DF SWAP2 SWAP1 PUSH2 0x2B20 JUMP JUMPDEST PUSH2 0xFA8 JUMP JUMPDEST PUSH1 0x40 MLOAD PUSH2 0x4F1 SWAP2 SWAP1 PUSH2 0x2628 JUMP JUMPDEST PUSH1 0x40 MLOAD DUP1 SWAP2 SUB SWAP1 RETURN JUMPDEST PUSH2 0x514 PUSH1 0x4 DUP1 CALLDATASIZE SUB DUP2 ADD SWAP1 PUSH2 0x50F SWAP2 SWAP1 PUSH2 0x2B4D JUMP JUMPDEST PUSH2 0xFF0 JUMP JUMPDEST STOP JUMPDEST CALLVALUE DUP1 ISZERO PUSH2 0x522 JUMPI PUSH1 0x0 DUP1 REVERT JUMPDEST POP PUSH2 0x52B PUSH2 0x10FF JUMP JUMPDEST PUSH1 0x40 MLOAD PUSH2 0x538 SWAP2 SWAP1 PUSH2 0x2628 JUMP JUMPDEST PUSH1 0x40 MLOAD DUP1 SWAP2 SUB SWAP1 RETURN JUMPDEST CALLVALUE DUP1 ISZERO PUSH2 0x54D JUMPI PUSH1 0x0 DUP1 REVERT JUMPDEST POP PUSH2 0x556 PUSH2 0x1105 JUMP JUMPDEST PUSH1 0x40 MLOAD PUSH2 0x563 SWAP2 SWAP1 PUSH2 0x2628 JUMP JUMPDEST PUSH1 0x40 MLOAD DUP1 SWAP2 SUB SWAP1 RETURN JUMPDEST CALLVALUE DUP1 ISZERO PUSH2 0x578 JUMPI PUSH1 0x0 DUP1 REVERT JUMPDEST POP PUSH2 0x581 PUSH2 0x110B JUMP JUMPDEST PUSH1 0x40 MLOAD PUSH2 0x58E SWAP2 SWAP1 PUSH2 0x26D3 JUMP JUMPDEST PUSH1 0x40 MLOAD DUP1 SWAP2 SUB SWAP1 RETURN JUMPDEST CALLVALUE DUP1 ISZERO PUSH2 0x5A3 JUMPI PUSH1 0x0 DUP1 REVERT JUMPDEST POP PUSH2 0x5BE PUSH1 0x4 DUP1 CALLDATASIZE SUB DUP2 ADD SWAP1 PUSH2 0x5B9 SWAP2 SWAP1 PUSH2 0x2761 JUMP JUMPDEST PUSH2 0x119D JUMP JUMPDEST PUSH1 0x40 MLOAD PUSH2 0x5CB SWAP2 SWAP1 PUSH2 0x27BC JUMP JUMPDEST PUSH1 0x40 MLOAD DUP1 SWAP2 SUB SWAP1 RETURN JUMPDEST CALLVALUE DUP1 ISZERO PUSH2 0x5E0 JUMPI PUSH1 0x0 DUP1 REVERT JUMPDEST POP PUSH2 0x5E9 PUSH2 0x1214 JUMP JUMPDEST PUSH1 0x40 MLOAD PUSH2 0x5F6 SWAP2 SWAP1 PUSH2 0x2628 JUMP JUMPDEST PUSH1 0x40 MLOAD DUP1 SWAP2 SUB SWAP1 RETURN JUMPDEST CALLVALUE DUP1 ISZERO PUSH2 0x60B JUMPI PUSH1 0x0 DUP1 REVERT JUMPDEST POP PUSH2 0x626 PUSH1 0x4 DUP1 CALLDATASIZE SUB DUP2 ADD SWAP1 PUSH2 0x621 SWAP2 SWAP1 PUSH2 0x2761 JUMP JUMPDEST PUSH2 0x121A JUMP JUMPDEST PUSH1 0x40 MLOAD PUSH2 0x633 SWAP2 SWAP1 PUSH2 0x27BC JUMP JUMPDEST PUSH1 0x40 MLOAD DUP1 SWAP2 SUB SWAP1 RETURN JUMPDEST CALLVALUE DUP1 ISZERO PUSH2 0x648 JUMPI PUSH1 0x0 DUP1 REVERT JUMPDEST POP PUSH2 0x651 PUSH2 0x123D JUMP JUMPDEST PUSH1 0x40 MLOAD PUSH2 0x65E SWAP2 SWAP1 PUSH2 0x2BAE JUMP JUMPDEST PUSH1 0x40 MLOAD DUP1 SWAP2 SUB SWAP1 RETURN JUMPDEST CALLVALUE DUP1 ISZERO PUSH2 0x673 JUMPI PUSH1 0x0 DUP1 REVERT JUMPDEST POP PUSH2 0x68E PUSH1 0x4 DUP1 CALLDATASIZE SUB DUP2 ADD SWAP1 PUSH2 0x689 SWAP2 SWAP1 PUSH2 0x2BF5 JUMP JUMPDEST PUSH2 0x1263 JUMP JUMPDEST STOP JUMPDEST PUSH2 0x6AA PUSH1 0x4 DUP1 CALLDATASIZE SUB DUP2 ADD SWAP1 PUSH2 0x6A5 SWAP2 SWAP1 PUSH2 0x29DE JUMP JUMPDEST PUSH2 0x1314 JUMP JUMPDEST STOP JUMPDEST CALLVALUE DUP1 ISZERO PUSH2 0x6B8 JUMPI PUSH1 0x0 DUP1 REVERT JUMPDEST POP PUSH2 0x6C1 PUSH2 0x1655 JUMP JUMPDEST PUSH1 0x40 MLOAD PUSH2 0x6CE SWAP2 SWAP1 PUSH2 0x2628 JUMP JUMPDEST PUSH1 0x40 MLOAD DUP1 SWAP2 SUB SWAP1 RETURN JUMPDEST CALLVALUE DUP1 ISZERO PUSH2 0x6E3 JUMPI PUSH1 0x0 DUP1 REVERT JUMPDEST POP PUSH2 0x6EC PUSH2 0x7E9 JUMP JUMPDEST STOP JUMPDEST CALLVALUE DUP1 ISZERO PUSH2 0x6FA JUMPI PUSH1 0x0 DUP1 REVERT JUMPDEST POP PUSH2 0x715 PUSH1 0x4 DUP1 CALLDATASIZE SUB DUP2 ADD SWAP1 PUSH2 0x710 SWAP2 SWAP1 PUSH2 0x27D7 JUMP JUMPDEST PUSH2 0x165B JUMP JUMPDEST PUSH1 0x40 MLOAD PUSH2 0x722 SWAP2 SWAP1 PUSH2 0x2628 JUMP JUMPDEST PUSH1 0x40 MLOAD DUP1 SWAP2 SUB SWAP1 RETURN JUMPDEST CALLVALUE DUP1 ISZERO PUSH2 0x737 JUMPI PUSH1 0x0 DUP1 REVERT JUMPDEST POP PUSH2 0x752 PUSH1 0x4 DUP1 CALLDATASIZE SUB DUP2 ADD SWAP1 PUSH2 0x74D SWAP2 SWAP1 PUSH2 0x2C35 JUMP JUMPDEST PUSH2 0x1677 JUMP JUMPDEST PUSH1 0x40 MLOAD PUSH2 0x75F SWAP2 SWAP1 PUSH2 0x2628 JUMP JUMPDEST PUSH1 0x40 MLOAD DUP1 SWAP2 SUB SWAP1 RETURN JUMPDEST CALLVALUE DUP1 ISZERO PUSH2 0x774 JUMPI PUSH1 0x0 DUP1 REVERT JUMPDEST POP PUSH2 0x78F PUSH1 0x4 DUP1 CALLDATASIZE SUB DUP2 ADD SWAP1 PUSH2 0x78A SWAP2 SWAP1 PUSH2 0x2B20 JUMP JUMPDEST PUSH2 0x16FE JUMP JUMPDEST PUSH1 0x40 MLOAD PUSH2 0x79C SWAP2 SWAP1 PUSH2 0x2DA9 JUMP JUMPDEST PUSH1 0x40 MLOAD DUP1 SWAP2 SUB SWAP1 RETURN JUMPDEST CALLVALUE DUP1 ISZERO PUSH2 0x7B1 JUMPI PUSH1 0x0 DUP1 REVERT JUMPDEST POP PUSH2 0x7CC PUSH1 0x4 DUP1 CALLDATASIZE SUB DUP2 ADD SWAP1 PUSH2 0x7C7 SWAP2 SWAP1 PUSH2 0x2B20 JUMP JUMPDEST PUSH2 0x1A61 JUMP JUMPDEST PUSH1 0x40 MLOAD PUSH2 0x7E0 SWAP9 SWAP8 SWAP7 SWAP6 SWAP5 SWAP4 SWAP3 SWAP2 SWAP1 PUSH2 0x2DCB JUMP JUMPDEST PUSH1 0x40 MLOAD DUP1 SWAP2 SUB SWAP1 RETURN JUMPDEST PUSH1 0x0 SELFBALANCE GT PUSH2 0x82C JUMPI PUSH1 0x40 MLOAD PUSH32 0x8C379A000000000000000000000000000000000000000000000000000000000 DUP2 MSTORE PUSH1 0x4 ADD PUSH2 0x823 SWAP1 PUSH2 0x2EDE JUMP JUMPDEST PUSH1 0x40 MLOAD DUP1 SWAP2 SUB SWAP1 REVERT JUMPDEST PUSH2 0x834 PUSH2 0x935 JUMP JUMPDEST SELFBALANCE PUSH2 0x83F SWAP2 SWAP1 PUSH2 0x2F5C JUMP JUMPDEST PUSH1 0x9 DUP2 SWAP1 SSTORE POP JUMP JUMPDEST PUSH1 0xC SLOAD DUP2 JUMP JUMPDEST PUSH1 0x60 PUSH1 0x3 DUP1 SLOAD PUSH2 0x85C SWAP1 PUSH2 0x2FBC JUMP JUMPDEST DUP1 PUSH1 0x1F ADD PUSH1 0x20 DUP1 SWAP2 DIV MUL PUSH1 0x20 ADD PUSH1 0x40 MLOAD SWAP1 DUP2 ADD PUSH1 0x40 MSTORE DUP1 SWAP3 SWAP2 SWAP1 DUP2 DUP2 MSTORE PUSH1 0x20 ADD DUP3 DUP1 SLOAD PUSH2 0x888 SWAP1 PUSH2 0x2FBC JUMP JUMPDEST DUP1 ISZERO PUSH2 0x8D5 JUMPI DUP1 PUSH1 0x1F LT PUSH2 0x8AA JUMPI PUSH2 0x100 DUP1 DUP4 SLOAD DIV MUL DUP4 MSTORE SWAP2 PUSH1 0x20 ADD SWAP2 PUSH2 0x8D5 JUMP JUMPDEST DUP3 ADD SWAP2 SWAP1 PUSH1 0x0 MSTORE PUSH1 0x20 PUSH1 0x0 KECCAK256 SWAP1 JUMPDEST DUP2 SLOAD DUP2 MSTORE SWAP1 PUSH1 0x1 ADD SWAP1 PUSH1 0x20 ADD DUP1 DUP4 GT PUSH2 0x8B8 JUMPI DUP3 SWAP1 SUB PUSH1 0x1F AND DUP3 ADD SWAP2 JUMPDEST POP POP POP POP POP SWAP1 POP SWAP1 JUMP JUMPDEST PUSH1 0x0 DUP1 PUSH2 0x8EA PUSH2 0x1D5E JUMP JUMPDEST SWAP1 POP PUSH2 0x8F7 DUP2 DUP6 DUP6 PUSH2 0x1D66 JUMP JUMPDEST PUSH1 0x1 SWAP2 POP POP SWAP3 SWAP2 POP POP JUMP JUMPDEST PUSH1 0x6 PUSH1 0x20 MSTORE DUP1 PUSH1 0x0 MSTORE PUSH1 0x40 PUSH1 0x0 KECCAK256 PUSH1 0x0 SWAP2 POP SLOAD SWAP1 PUSH2 0x100 EXP SWAP1 DIV PUSH20 0xFFFFFFFFFFFFFFFFFFFFFFFFFFFFFFFFFFFFFFFF AND DUP2 JUMP JUMPDEST PUSH1 0x0 PUSH1 0x2 SLOAD SWAP1 POP SWAP1 JUMP JUMPDEST PUSH1 0x0 DUP2 PUSH2 0x94B CALLER PUSH2 0xFA8 JUMP JUMPDEST LT ISZERO SWAP1 POP SWAP2 SWAP1 POP JUMP JUMPDEST PUSH1 0x0 DUP1 PUSH2 0x95F PUSH2 0x1D5E JUMP JUMPDEST SWAP1 POP PUSH2 0x96C DUP6 DUP3 DUP6 PUSH2 0x1F2F JUMP JUMPDEST PUSH2 0x977 DUP6 DUP6 DUP6 PUSH2 0x1FBB JUMP JUMPDEST PUSH1 0x1 SWAP2 POP POP SWAP4 SWAP3 POP POP POP JUMP JUMPDEST PUSH1 0xD PUSH1 0x0 SWAP1 SLOAD SWAP1 PUSH2 0x100 EXP SWAP1 DIV PUSH1 0xFF AND DUP2 JUMP JUMPDEST PUSH1 0x0 PUSH2 0x9A1 CALLER PUSH2 0xFA8 JUMP JUMPDEST GT PUSH2 0x9E1 JUMPI PUSH1 0x40 MLOAD PUSH32 0x8C379A000000000000000000000000000000000000000000000000000000000 DUP2 MSTORE PUSH1 0x4 ADD PUSH2 0x9D8 SWAP1 PUSH2 0x3039 JUMP JUMPDEST PUSH1 0x40 MLOAD DUP1 SWAP2 SUB SWAP1 REVERT JUMPDEST PUSH1 0xD PUSH1 0x0 SWAP1 SLOAD SWAP1 PUSH2 0x100 EXP SWAP1 DIV PUSH1 0xFF AND ISZERO PUSH2 0xA31 JUMPI PUSH1 0x40 MLOAD PUSH32 0x8C379A000000000000000000000000000000000000000000000000000000000 DUP2 MSTORE PUSH1 0x4 ADD PUSH2 0xA28 SWAP1 PUSH2 0x30A5 JUMP JUMPDEST PUSH1 0x40 MLOAD DUP1 SWAP2 SUB SWAP1 REVERT JUMPDEST PUSH1 0x1 PUSH1 0xD PUSH1 0x0 PUSH2 0x100 EXP DUP2 SLOAD DUP2 PUSH1 0xFF MUL NOT AND SWAP1 DUP4 ISZERO ISZERO MUL OR SWAP1 SSTORE POP PUSH2 0xA54 PUSH2 0x7E9 JUMP JUMPDEST PUSH1 0x0 SELFBALANCE GT PUSH2 0xA97 JUMPI PUSH1 0x40 MLOAD PUSH32 0x8C379A000000000000000000000000000000000000000000000000000000000 DUP2 MSTORE PUSH1 0x4 ADD PUSH2 0xA8E SWAP1 PUSH2 0x2EDE JUMP JUMPDEST PUSH1 0x40 MLOAD DUP1 SWAP2 SUB SWAP1 REVERT JUMPDEST PUSH2 0xAA0 DUP2 PUSH2 0x93F JUMP JUMPDEST PUSH2 0xADF JUMPI PUSH1 0x40 MLOAD PUSH32 0x8C379A000000000000000000000000000000000000000000000000000000000 DUP2 MSTORE PUSH1 0x4 ADD PUSH2 0xAD6 SWAP1 PUSH2 0x3137 JUMP JUMPDEST PUSH1 0x40 MLOAD DUP1 SWAP2 SUB SWAP1 REVERT JUMPDEST PUSH2 0xAE9 CALLER DUP3 PUSH2 0x2231 JUMP JUMPDEST DUP1 PUSH1 0x8 PUSH1 0x0 DUP3 DUP3 SLOAD PUSH2 0xAFB SWAP2 SWAP1 PUSH2 0x3157 JUMP JUMPDEST SWAP3 POP POP DUP2 SWAP1 SSTORE POP PUSH2 0xB14 CALLER PUSH2 0xB0F DUP4 PUSH2 0x165B JUMP JUMPDEST PUSH2 0x1263 JUMP JUMPDEST PUSH1 0x0 PUSH1 0xD PUSH1 0x0 PUSH2 0x100 EXP DUP2 SLOAD DUP2 PUSH1 0xFF MUL NOT AND SWAP1 DUP4 ISZERO ISZERO MUL OR SWAP1 SSTORE POP POP JUMP JUMPDEST PUSH1 0x0 PUSH1 0x12 SWAP1 POP SWAP1 JUMP JUMPDEST PUSH3 0x186A0 DUP2 JUMP JUMPDEST PUSH1 0xD PUSH1 0x0 SWAP1 SLOAD SWAP1 PUSH2 0x100 EXP SWAP1 DIV PUSH1 0xFF AND ISZERO PUSH2 0xB92 JUMPI PUSH1 0x40 MLOAD PUSH32 0x8C379A000000000000000000000000000000000000000000000000000000000 DUP2 MSTORE PUSH1 0x4 ADD PUSH2 0xB89 SWAP1 PUSH2 0x30A5 JUMP JUMPDEST PUSH1 0x40 MLOAD DUP1 SWAP2 SUB SWAP1 REVERT JUMPDEST PUSH1 0x1 PUSH1 0xD PUSH1 0x0 PUSH2 0x100 EXP DUP2 SLOAD DUP2 PUSH1 0xFF MUL NOT AND SWAP1 DUP4 ISZERO ISZERO MUL OR SWAP1 SSTORE POP CALLVALUE PUSH1 0x9 SLOAD DUP3 PUSH2 0xBBC SWAP2 SWAP1 PUSH2 0x318B JUMP JUMPDEST EQ PUSH2 0xBFC JUMPI PUSH1 0x40 MLOAD PUSH32 0x8C379A000000000000000000000000000000000000000000000000000000000 DUP2 MSTORE PUSH1 0x4 ADD PUSH2 0xBF3 SWAP1 PUSH2 0x323F JUMP JUMPDEST PUSH1 0x40 MLOAD DUP1 SWAP2 SUB SWAP1 REVERT JUMPDEST PUSH3 0x186A0 DUP2 PUSH2 0xC09 PUSH2 0x935 JUMP JUMPDEST PUSH2 0xC13 SWAP2 SWAP1 PUSH2 0x3157 JUMP JUMPDEST GT ISZERO PUSH2 0xC54 JUMPI PUSH1 0x40 MLOAD PUSH32 0x8C379A000000000000000000000000000000000000000000000000000000000 DUP2 MSTORE PUSH1 0x4 ADD PUSH2 0xC4B SWAP1 PUSH2 0x32AB JUMP JUMPDEST PUSH1 0x40 MLOAD DUP1 SWAP2 SUB SWAP1 REVERT JUMPDEST PUSH2 0xC5E CALLER DUP3 PUSH2 0x23FE JUMP JUMPDEST PUSH2 0xC66 PUSH2 0x7E9 JUMP JUMPDEST DUP1 PUSH1 0x8 PUSH1 0x0 DUP3 DUP3 SLOAD PUSH2 0xC78 SWAP2 SWAP1 PUSH2 0x32CB JUMP JUMPDEST SWAP3 POP POP DUP2 SWAP1 SSTORE POP PUSH1 0x0 PUSH1 0xD PUSH1 0x0 PUSH2 0x100 EXP DUP2 SLOAD DUP2 PUSH1 0xFF MUL NOT AND SWAP1 DUP4 ISZERO ISZERO MUL OR SWAP1 SSTORE POP POP JUMP JUMPDEST PUSH1 0x0 DUP1 PUSH2 0xCA8 PUSH2 0x1D5E JUMP JUMPDEST SWAP1 POP PUSH2 0xCC9 DUP2 DUP6 DUP6 PUSH2 0xCBA DUP6 DUP10 PUSH2 0x1677 JUMP JUMPDEST PUSH2 0xCC4 SWAP2 SWAP1 PUSH2 0x3157 JUMP JUMPDEST PUSH2 0x1D66 JUMP JUMPDEST PUSH1 0x1 SWAP2 POP POP SWAP3 SWAP2 POP POP JUMP JUMPDEST PUSH1 0xD PUSH1 0x0 SWAP1 SLOAD SWAP1 PUSH2 0x100 EXP SWAP1 DIV PUSH1 0xFF AND ISZERO PUSH2 0xD24 JUMPI PUSH1 0x40 MLOAD PUSH32 0x8C379A000000000000000000000000000000000000000000000000000000000 DUP2 MSTORE PUSH1 0x4 ADD PUSH2 0xD1B SWAP1 PUSH2 0x30A5 JUMP JUMPDEST PUSH1 0x40 MLOAD DUP1 SWAP2 SUB SWAP1 REVERT JUMPDEST PUSH1 0x1 PUSH1 0xD PUSH1 0x0 PUSH2 0x100 EXP DUP2 SLOAD DUP2 PUSH1 0xFF MUL NOT AND SWAP1 DUP4 ISZERO ISZERO MUL OR SWAP1 SSTORE POP PUSH1 0x0 PUSH1 0xA SLOAD DUP3 PUSH2 0xD4F SWAP2 SWAP1 PUSH2 0x318B JUMP JUMPDEST SWAP1 POP DUP1 CALLVALUE EQ PUSH2 0xD93 JUMPI PUSH1 0x40 MLOAD PUSH32 0x8C379A000000000000000000000000000000000000000000000000000000000 DUP2 MSTORE PUSH1 0x4 ADD PUSH2 0xD8A SWAP1 PUSH2 0x334B JUMP JUMPDEST PUSH1 0x40 MLOAD DUP1 SWAP2 SUB SWAP1 REVERT JUMPDEST PUSH1 0x5 PUSH1 0x0 CALLER PUSH20 0xFFFFFFFFFFFFFFFFFFFFFFFFFFFFFFFFFFFFFFFF AND PUSH20 0xFFFFFFFFFFFFFFFFFFFFFFFFFFFFFFFFFFFFFFFF AND DUP2 MSTORE PUSH1 0x20 ADD SWAP1 DUP2 MSTORE PUSH1 0x20 ADD PUSH1 0x0 KECCAK256 PUSH1 0x7 ADD PUSH1 0x0 SWAP1 SLOAD SWAP1 PUSH2 0x100 EXP SWAP1 DIV PUSH1 0xFF AND PUSH2 0xE22 JUMPI PUSH1 0x40 MLOAD PUSH32 0x8C379A000000000000000000000000000000000000000000000000000000000 DUP2 MSTORE PUSH1 0x4 ADD PUSH2 0xE19 SWAP1 PUSH2 0x33B7 JUMP JUMPDEST PUSH1 0x40 MLOAD DUP1 SWAP2 SUB SWAP1 REVERT JUMPDEST PUSH1 0x40 MLOAD DUP1 PUSH2 0x100 ADD PUSH1 0x40 MSTORE DUP1 DUP11 DUP2 MSTORE PUSH1 0x20 ADD DUP10 DUP2 MSTORE PUSH1 0x20 ADD DUP9 DUP2 MSTORE PUSH1 0x20 ADD DUP8 DUP2 MSTORE PUSH1 0x20 ADD DUP7 DUP2 MSTORE PUSH1 0x20 ADD DUP6 DUP2 MSTORE PUSH1 0x20 ADD DUP5 DUP2 MSTORE PUSH1 0x20 ADD PUSH1 0x1 ISZERO ISZERO DUP2 MSTORE POP PUSH1 0x5 PUSH1 0x0 CALLER PUSH20 0xFFFFFFFFFFFFFFFFFFFFFFFFFFFFFFFFFFFFFFFF AND PUSH20 0xFFFFFFFFFFFFFFFFFFFFFFFFFFFFFFFFFFFFFFFF AND DUP2 MSTORE PUSH1 0x20 ADD SWAP1 DUP2 MSTORE PUSH1 0x20 ADD PUSH1 0x0 KECCAK256 PUSH1 0x0 DUP3 ADD MLOAD DUP2 PUSH1 0x0 ADD SWAP1 DUP2 PUSH2 0xEB3 SWAP2 SWAP1 PUSH2 0x3583 JUMP JUMPDEST POP PUSH1 0x20 DUP3 ADD MLOAD DUP2 PUSH1 0x1 ADD SWAP1 DUP2 PUSH2 0xEC9 SWAP2 SWAP1 PUSH2 0x3583 JUMP JUMPDEST POP PUSH1 0x40 DUP3 ADD MLOAD DUP2 PUSH1 0x2 ADD SWAP1 DUP2 PUSH2 0xEDF SWAP2 SWAP1 PUSH2 0x3583 JUMP JUMPDEST POP PUSH1 0x60 DUP3 ADD MLOAD DUP2 PUSH1 0x3 ADD SWAP1 DUP2 PUSH2 0xEF5 SWAP2 SWAP1 PUSH2 0x3583 JUMP JUMPDEST POP PUSH1 0x80 DUP3 ADD MLOAD DUP2 PUSH1 0x4 ADD SSTORE PUSH1 0xA0 DUP3 ADD MLOAD DUP2 PUSH1 0x5 ADD SSTORE PUSH1 0xC0 DUP3 ADD MLOAD DUP2 PUSH1 0x6 ADD SWAP1 DUP2 PUSH2 0xF1F SWAP2 SWAP1 PUSH2 0x3583 JUMP JUMPDEST POP PUSH1 0xE0 DUP3 ADD MLOAD DUP2 PUSH1 0x7 ADD PUSH1 0x0 PUSH2 0x100 EXP DUP2 SLOAD DUP2 PUSH1 0xFF MUL NOT AND SWAP1 DUP4 ISZERO ISZERO MUL OR SWAP1 SSTORE POP SWAP1 POP POP PUSH2 0xF4B PUSH2 0x7E9 JUMP JUMPDEST PUSH32 0xAA9F6ECD6A994E8B7ABB6B3F3A42756C6C483A3ABC40D774DB0E7D564ECF8958 CALLER PUSH1 0x40 MLOAD PUSH2 0xF7A SWAP2 SWAP1 PUSH2 0x2804 JUMP JUMPDEST PUSH1 0x40 MLOAD DUP1 SWAP2 SUB SWAP1 LOG1 POP PUSH1 0x0 PUSH1 0xD PUSH1 0x0 PUSH2 0x100 EXP DUP2 SLOAD DUP2 PUSH1 0xFF MUL NOT AND SWAP1 DUP4 ISZERO ISZERO MUL OR SWAP1 SSTORE POP POP POP POP POP POP POP POP POP JUMP JUMPDEST PUSH1 0x0 DUP1 PUSH1 0x0 DUP4 PUSH20 0xFFFFFFFFFFFFFFFFFFFFFFFFFFFFFFFFFFFFFFFF AND PUSH20 0xFFFFFFFFFFFFFFFFFFFFFFFFFFFFFFFFFFFFFFFF AND DUP2 MSTORE PUSH1 0x20 ADD SWAP1 DUP2 MSTORE PUSH1 0x20 ADD PUSH1 0x0 KECCAK256 SLOAD SWAP1 POP SWAP2 SWAP1 POP JUMP JUMPDEST PUSH1 0xD PUSH1 0x0 SWAP1 SLOAD SWAP1 PUSH2 0x100 EXP SWAP1 DIV PUSH1 0xFF AND ISZERO PUSH2 0x1040 JUMPI PUSH1 0x40 MLOAD PUSH32 0x8C379A000000000000000000000000000000000000000000000000000000000 DUP2 MSTORE PUSH1 0x4 ADD PUSH2 0x1037 SWAP1 PUSH2 0x30A5 JUMP JUMPDEST PUSH1 0x40 MLOAD DUP1 SWAP2 SUB SWAP1 REVERT JUMPDEST PUSH1 0x1 PUSH1 0xD PUSH1 0x0 PUSH2 0x100 EXP DUP2 SLOAD DUP2 PUSH1 0xFF MUL NOT AND SWAP1 DUP4 ISZERO ISZERO MUL OR SWAP1 SSTORE POP PUSH1 0x0 DUP3 PUSH1 0x64 PUSH1 0xB SLOAD PUSH2 0x106D SWAP2 SWAP1 PUSH2 0x2F5C JUMP JUMPDEST PUSH2 0x1077 SWAP2 SWAP1 PUSH2 0x318B JUMP JUMPDEST SWAP1 POP PUSH1 0x0 DUP4 DUP3 PUSH2 0x1087 SWAP2 SWAP1 PUSH2 0x3157 JUMP JUMPDEST SWAP1 POP DUP1 CALLVALUE LT ISZERO PUSH2 0x10CC JUMPI PUSH1 0x40 MLOAD PUSH32 0x8C379A000000000000000000000000000000000000000000000000000000000 DUP2 MSTORE PUSH1 0x4 ADD PUSH2 0x10C3 SWAP1 PUSH2 0x36A1 JUMP JUMPDEST PUSH1 0x40 MLOAD DUP1 SWAP2 SUB SWAP1 REVERT JUMPDEST PUSH2 0x10D6 DUP4 DUP6 PUSH2 0x1263 JUMP JUMPDEST PUSH2 0x10DE PUSH2 0x7E9 JUMP JUMPDEST POP POP PUSH1 0x0 PUSH1 0xD PUSH1 0x0 PUSH2 0x100 EXP DUP2 SLOAD DUP2 PUSH1 0xFF MUL NOT AND SWAP1 DUP4 ISZERO ISZERO MUL OR SWAP1 SSTORE POP POP POP JUMP JUMPDEST PUSH1 0x9 SLOAD DUP2 JUMP JUMPDEST PUSH1 0x8 SLOAD DUP2 JUMP JUMPDEST PUSH1 0x60 PUSH1 0x4 DUP1 SLOAD PUSH2 0x111A SWAP1 PUSH2 0x2FBC JUMP JUMPDEST DUP1 PUSH1 0x1F ADD PUSH1 0x20 DUP1 SWAP2 DIV MUL PUSH1 0x20 ADD PUSH1 0x40 MLOAD SWAP1 DUP2 ADD PUSH1 0x40 MSTORE DUP1 SWAP3 SWAP2 SWAP1 DUP2 DUP2 MSTORE PUSH1 0x20 ADD DUP3 DUP1 SLOAD PUSH2 0x1146 SWAP1 PUSH2 0x2FBC JUMP JUMPDEST DUP1 ISZERO PUSH2 0x1193 JUMPI DUP1 PUSH1 0x1F LT PUSH2 0x1168 JUMPI PUSH2 0x100 DUP1 DUP4 SLOAD DIV MUL DUP4 MSTORE SWAP2 PUSH1 0x20 ADD SWAP2 PUSH2 0x1193 JUMP JUMPDEST DUP3 ADD SWAP2 SWAP1 PUSH1 0x0 MSTORE PUSH1 0x20 PUSH1 0x0 KECCAK256 SWAP1 JUMPDEST DUP2 SLOAD DUP2 MSTORE SWAP1 PUSH1 0x1 ADD SWAP1 PUSH1 0x20 ADD DUP1 DUP4 GT PUSH2 0x1176 JUMPI DUP3 SWAP1 SUB PUSH1 0x1F AND DUP3 ADD SWAP2 JUMPDEST POP POP POP POP POP SWAP1 POP SWAP1 JUMP JUMPDEST PUSH1 0x0 DUP1 PUSH2 0x11A8 PUSH2 0x1D5E JUMP JUMPDEST SWAP1 POP PUSH1 0x0 PUSH2 0x11B6 DUP3 DUP7 PUSH2 0x1677 JUMP JUMPDEST SWAP1 POP DUP4 DUP2 LT ISZERO PUSH2 0x11FB JUMPI PUSH1 0x40 MLOAD PUSH32 0x8C379A000000000000000000000000000000000000000000000000000000000 DUP2 MSTORE PUSH1 0x4 ADD PUSH2 0x11F2 SWAP1 PUSH2 0x3733 JUMP JUMPDEST PUSH1 0x40 MLOAD DUP1 SWAP2 SUB SWAP1 REVERT JUMPDEST PUSH2 0x1208 DUP3 DUP7 DUP7 DUP5 SUB PUSH2 0x1D66 JUMP JUMPDEST PUSH1 0x1 SWAP3 POP POP POP SWAP3 SWAP2 POP POP JUMP JUMPDEST PUSH1 0xB SLOAD DUP2 JUMP JUMPDEST PUSH1 0x0 DUP1 PUSH2 0x1225 PUSH2 0x1D5E JUMP JUMPDEST SWAP1 POP PUSH2 0x1232 DUP2 DUP6 DUP6 PUSH2 0x1FBB JUMP JUMPDEST PUSH1 0x1 SWAP2 POP POP SWAP3 SWAP2 POP POP JUMP JUMPDEST PUSH1 0x7 PUSH1 0x0 SWAP1 SLOAD SWAP1 PUSH2 0x100 EXP SWAP1 DIV PUSH20 0xFFFFFFFFFFFFFFFFFFFFFFFFFFFFFFFFFFFFFFFF AND DUP2 JUMP JUMPDEST PUSH1 0x0 DUP3 PUSH20 0xFFFFFFFFFFFFFFFFFFFFFFFFFFFFFFFFFFFFFFFF AND DUP3 PUSH1 0x40 MLOAD PUSH2 0x1289 SWAP1 PUSH2 0x3784 JUMP JUMPDEST PUSH1 0x0 PUSH1 0x40 MLOAD DUP1 DUP4 SUB DUP2 DUP6 DUP8 GAS CALL SWAP3 POP POP POP RETURNDATASIZE DUP1 PUSH1 0x0 DUP2 EQ PUSH2 0x12C6 JUMPI PUSH1 0x40 MLOAD SWAP2 POP PUSH1 0x1F NOT PUSH1 0x3F RETURNDATASIZE ADD AND DUP3 ADD PUSH1 0x40 MSTORE RETURNDATASIZE DUP3 MSTORE RETURNDATASIZE PUSH1 0x0 PUSH1 0x20 DUP5 ADD RETURNDATACOPY PUSH2 0x12CB JUMP JUMPDEST PUSH1 0x60 SWAP2 POP JUMPDEST POP POP SWAP1 POP DUP1 PUSH2 0x130F JUMPI PUSH1 0x40 MLOAD PUSH32 0x8C379A000000000000000000000000000000000000000000000000000000000 DUP2 MSTORE PUSH1 0x4 ADD PUSH2 0x1306 SWAP1 PUSH2 0x37E5 JUMP JUMPDEST PUSH1 0x40 MLOAD DUP1 SWAP2 SUB SWAP1 REVERT JUMPDEST POP POP POP JUMP JUMPDEST PUSH1 0xD PUSH1 0x0 SWAP1 SLOAD SWAP1 PUSH2 0x100 EXP SWAP1 DIV PUSH1 0xFF AND ISZERO PUSH2 0x1364 JUMPI PUSH1 0x40 MLOAD PUSH32 0x8C379A000000000000000000000000000000000000000000000000000000000 DUP2 MSTORE PUSH1 0x4 ADD PUSH2 0x135B SWAP1 PUSH2 0x30A5 JUMP JUMPDEST PUSH1 0x40 MLOAD DUP1 SWAP2 SUB SWAP1 REVERT JUMPDEST PUSH1 0x1 PUSH1 0xD PUSH1 0x0 PUSH2 0x100 EXP DUP2 SLOAD DUP2 PUSH1 0xFF MUL NOT AND SWAP1 DUP4 ISZERO ISZERO MUL OR SWAP1 SSTORE POP PUSH1 0x0 PUSH1 0xA SLOAD DUP3 PUSH2 0x138F SWAP2 SWAP1 PUSH2 0x318B JUMP JUMPDEST SWAP1 POP DUP1 CALLVALUE EQ PUSH2 0x13D3 JUMPI PUSH1 0x40 MLOAD PUSH32 0x8C379A000000000000000000000000000000000000000000000000000000000 DUP2 MSTORE PUSH1 0x4 ADD PUSH2 0x13CA SWAP1 PUSH2 0x334B JUMP JUMPDEST PUSH1 0x40 MLOAD DUP1 SWAP2 SUB SWAP1 REVERT JUMPDEST PUSH1 0x5 PUSH1 0x0 CALLER PUSH20 0xFFFFFFFFFFFFFFFFFFFFFFFFFFFFFFFFFFFFFFFF AND PUSH20 0xFFFFFFFFFFFFFFFFFFFFFFFFFFFFFFFFFFFFFFFF AND DUP2 MSTORE PUSH1 0x20 ADD SWAP1 DUP2 MSTORE PUSH1 0x20 ADD PUSH1 0x0 KECCAK256 PUSH1 0x7 ADD PUSH1 0x0 SWAP1 SLOAD SWAP1 PUSH2 0x100 EXP SWAP1 DIV PUSH1 0xFF AND ISZERO PUSH2 0x1463 JUMPI PUSH1 0x40 MLOAD PUSH32 0x8C379A000000000000000000000000000000000000000000000000000000000 DUP2 MSTORE PUSH1 0x4 ADD PUSH2 0x145A SWAP1 PUSH2 0x3851 JUMP JUMPDEST PUSH1 0x40 MLOAD DUP1 SWAP2 SUB SWAP1 REVERT JUMPDEST PUSH1 0x40 MLOAD DUP1 PUSH2 0x100 ADD PUSH1 0x40 MSTORE DUP1 DUP11 DUP2 MSTORE PUSH1 0x20 ADD DUP10 DUP2 MSTORE PUSH1 0x20 ADD DUP9 DUP2 MSTORE PUSH1 0x20 ADD DUP8 DUP2 MSTORE PUSH1 0x20 ADD DUP7 DUP2 MSTORE PUSH1 0x20 ADD DUP6 DUP2 MSTORE PUSH1 0x20 ADD DUP5 DUP2 MSTORE PUSH1 0x20 ADD PUSH1 0x1 ISZERO ISZERO DUP2 MSTORE POP PUSH1 0x5 PUSH1 0x0 CALLER PUSH20 0xFFFFFFFFFFFFFFFFFFFFFFFFFFFFFFFFFFFFFFFF AND PUSH20 0xFFFFFFFFFFFFFFFFFFFFFFFFFFFFFFFFFFFFFFFF AND DUP2 MSTORE PUSH1 0x20 ADD SWAP1 DUP2 MSTORE PUSH1 0x20 ADD PUSH1 0x0 KECCAK256 PUSH1 0x0 DUP3 ADD MLOAD DUP2 PUSH1 0x0 ADD SWAP1 DUP2 PUSH2 0x14F4 SWAP2 SWAP1 PUSH2 0x3583 JUMP JUMPDEST POP PUSH1 0x20 DUP3 ADD MLOAD DUP2 PUSH1 0x1 ADD SWAP1 DUP2 PUSH2 0x150A SWAP2 SWAP1 PUSH2 0x3583 JUMP JUMPDEST POP PUSH1 0x40 DUP3 ADD MLOAD DUP2 PUSH1 0x2 ADD SWAP1 DUP2 PUSH2 0x1520 SWAP2 SWAP1 PUSH2 0x3583 JUMP JUMPDEST POP PUSH1 0x60 DUP3 ADD MLOAD DUP2 PUSH1 0x3 ADD SWAP1 DUP2 PUSH2 0x1536 SWAP2 SWAP1 PUSH2 0x3583 JUMP JUMPDEST POP PUSH1 0x80 DUP3 ADD MLOAD DUP2 PUSH1 0x4 ADD SSTORE PUSH1 0xA0 DUP3 ADD MLOAD DUP2 PUSH1 0x5 ADD SSTORE PUSH1 0xC0 DUP3 ADD MLOAD DUP2 PUSH1 0x6 ADD SWAP1 DUP2 PUSH2 0x1560 SWAP2 SWAP1 PUSH2 0x3583 JUMP JUMPDEST POP PUSH1 0xE0 DUP3 ADD MLOAD DUP2 PUSH1 0x7 ADD PUSH1 0x0 PUSH2 0x100 EXP DUP2 SLOAD DUP2 PUSH1 0xFF MUL NOT AND SWAP1 DUP4 ISZERO ISZERO MUL OR SWAP1 SSTORE POP SWAP1 POP POP PUSH1 0xC PUSH1 0x0 DUP2 SLOAD DUP1 SWAP3 SWAP2 SWAP1 PUSH2 0x1597 SWAP1 PUSH2 0x3871 JUMP JUMPDEST SWAP2 SWAP1 POP SSTORE POP CALLER PUSH1 0x6 PUSH1 0x0 PUSH1 0xC SLOAD DUP2 MSTORE PUSH1 0x20 ADD SWAP1 DUP2 MSTORE PUSH1 0x20 ADD PUSH1 0x0 KECCAK256 PUSH1 0x0 PUSH2 0x100 EXP DUP2 SLOAD DUP2 PUSH20 0xFFFFFFFFFFFFFFFFFFFFFFFFFFFFFFFFFFFFFFFF MUL NOT AND SWAP1 DUP4 PUSH20 0xFFFFFFFFFFFFFFFFFFFFFFFFFFFFFFFFFFFFFFFF AND MUL OR SWAP1 SSTORE POP PUSH2 0x15F8 PUSH2 0x7E9 JUMP JUMPDEST PUSH32 0x5B73FDB55C6D540B14745A3FD5938BC6F31FEFB134291D87585FB561DEF1395B CALLER PUSH1 0x40 MLOAD PUSH2 0x1627 SWAP2 SWAP1 PUSH2 0x2804 JUMP JUMPDEST PUSH1 0x40 MLOAD DUP1 SWAP2 SUB SWAP1 LOG1 POP PUSH1 0x0 PUSH1 0xD PUSH1 0x0 PUSH2 0x100 EXP DUP2 SLOAD DUP2 PUSH1 0xFF MUL NOT AND SWAP1 DUP4 ISZERO ISZERO MUL OR SWAP1 SSTORE POP POP POP POP POP POP POP POP POP JUMP JUMPDEST PUSH1 0xA SLOAD DUP2 JUMP JUMPDEST PUSH1 0x0 DUP1 PUSH1 0x9 SLOAD DUP4 PUSH2 0x166C SWAP2 SWAP1 PUSH2 0x318B JUMP JUMPDEST SWAP1 POP DUP1 SWAP2 POP POP SWAP2 SWAP1 POP JUMP JUMPDEST PUSH1 0x0 PUSH1 0x1 PUSH1 0x0 DUP5 PUSH20 0xFFFFFFFFFFFFFFFFFFFFFFFFFFFFFFFFFFFFFFFF AND PUSH20 0xFFFFFFFFFFFFFFFFFFFFFFFFFFFFFFFFFFFFFFFF AND DUP2 MSTORE PUSH1 0x20 ADD SWAP1 DUP2 MSTORE PUSH1 0x20 ADD PUSH1 0x0 KECCAK256 PUSH1 0x0 DUP4 PUSH20 0xFFFFFFFFFFFFFFFFFFFFFFFFFFFFFFFFFFFFFFFF AND PUSH20 0xFFFFFFFFFFFFFFFFFFFFFFFFFFFFFFFFFFFFFFFF AND DUP2 MSTORE PUSH1 0x20 ADD SWAP1 DUP2 MSTORE PUSH1 0x20 ADD PUSH1 0x0 KECCAK256 SLOAD SWAP1 POP SWAP3 SWAP2 POP POP JUMP JUMPDEST PUSH2 0x1706 PUSH2 0x255E JUMP JUMPDEST PUSH1 0x5 PUSH1 0x0 DUP4 PUSH20 0xFFFFFFFFFFFFFFFFFFFFFFFFFFFFFFFFFFFFFFFF AND PUSH20 0xFFFFFFFFFFFFFFFFFFFFFFFFFFFFFFFFFFFFFFFF AND DUP2 MSTORE PUSH1 0x20 ADD SWAP1 DUP2 MSTORE PUSH1 0x20 ADD PUSH1 0x0 KECCAK256 PUSH1 0x40 MLOAD DUP1 PUSH2 0x100 ADD PUSH1 0x40 MSTORE SWAP1 DUP2 PUSH1 0x0 DUP3 ADD DUP1 SLOAD PUSH2 0x1761 SWAP1 PUSH2 0x2FBC JUMP JUMPDEST DUP1 PUSH1 0x1F ADD PUSH1 0x20 DUP1 SWAP2 DIV MUL PUSH1 0x20 ADD PUSH1 0x40 MLOAD SWAP1 DUP2 ADD PUSH1 0x40 MSTORE DUP1 SWAP3 SWAP2 SWAP1 DUP2 DUP2 MSTORE PUSH1 0x20 ADD DUP3 DUP1 SLOAD PUSH2 0x178D SWAP1 PUSH2 0x2FBC JUMP JUMPDEST DUP1 ISZERO PUSH2 0x17DA JUMPI DUP1 PUSH1 0x1F LT PUSH2 0x17AF JUMPI PUSH2 0x100 DUP1 DUP4 SLOAD DIV MUL DUP4 MSTORE SWAP2 PUSH1 0x20 ADD SWAP2 PUSH2 0x17DA JUMP JUMPDEST DUP3 ADD SWAP2 SWAP1 PUSH1 0x0 MSTORE PUSH1 0x20 PUSH1 0x0 KECCAK256 SWAP1 JUMPDEST DUP2 SLOAD DUP2 MSTORE SWAP1 PUSH1 0x1 ADD SWAP1 PUSH1 0x20 ADD DUP1 DUP4 GT PUSH2 0x17BD JUMPI DUP3 SWAP1 SUB PUSH1 0x1F AND DUP3 ADD SWAP2 JUMPDEST POP POP POP POP POP DUP2 MSTORE PUSH1 0x20 ADD PUSH1 0x1 DUP3 ADD DUP1 SLOAD PUSH2 0x17F3 SWAP1 PUSH2 0x2FBC JUMP JUMPDEST DUP1 PUSH1 0x1F ADD PUSH1 0x20 DUP1 SWAP2 DIV MUL PUSH1 0x20 ADD PUSH1 0x40 MLOAD SWAP1 DUP2 ADD PUSH1 0x40 MSTORE DUP1 SWAP3 SWAP2 SWAP1 DUP2 DUP2 MSTORE PUSH1 0x20 ADD DUP3 DUP1 SLOAD PUSH2 0x181F SWAP1 PUSH2 0x2FBC JUMP JUMPDEST DUP1 ISZERO PUSH2 0x186C JUMPI DUP1 PUSH1 0x1F LT PUSH2 0x1841 JUMPI PUSH2 0x100 DUP1 DUP4 SLOAD DIV MUL DUP4 MSTORE SWAP2 PUSH1 0x20 ADD SWAP2 PUSH2 0x186C JUMP JUMPDEST DUP3 ADD SWAP2 SWAP1 PUSH1 0x0 MSTORE PUSH1 0x20 PUSH1 0x0 KECCAK256 SWAP1 JUMPDEST DUP2 SLOAD DUP2 MSTORE SWAP1 PUSH1 0x1 ADD SWAP1 PUSH1 0x20 ADD DUP1 DUP4 GT PUSH2 0x184F JUMPI DUP3 SWAP1 SUB PUSH1 0x1F AND DUP3 ADD SWAP2 JUMPDEST POP POP POP POP POP DUP2 MSTORE PUSH1 0x20 ADD PUSH1 0x2 DUP3 ADD DUP1 SLOAD PUSH2 0x1885 SWAP1 PUSH2 0x2FBC JUMP JUMPDEST DUP1 PUSH1 0x1F ADD PUSH1 0x20 DUP1 SWAP2 DIV MUL PUSH1 0x20 ADD PUSH1 0x40 MLOAD SWAP1 DUP2 ADD PUSH1 0x40 MSTORE DUP1 SWAP3 SWAP2 SWAP1 DUP2 DUP2 MSTORE PUSH1 0x20 ADD DUP3 DUP1 SLOAD PUSH2 0x18B1 SWAP1 PUSH2 0x2FBC JUMP JUMPDEST DUP1 ISZERO PUSH2 0x18FE JUMPI DUP1 PUSH1 0x1F LT PUSH2 0x18D3 JUMPI PUSH2 0x100 DUP1 DUP4 SLOAD DIV MUL DUP4 MSTORE SWAP2 PUSH1 0x20 ADD SWAP2 PUSH2 0x18FE JUMP JUMPDEST DUP3 ADD SWAP2 SWAP1 PUSH1 0x0 MSTORE PUSH1 0x20 PUSH1 0x0 KECCAK256 SWAP1 JUMPDEST DUP2 SLOAD DUP2 MSTORE SWAP1 PUSH1 0x1 ADD SWAP1 PUSH1 0x20 ADD DUP1 DUP4 GT PUSH2 0x18E1 JUMPI DUP3 SWAP1 SUB PUSH1 0x1F AND DUP3 ADD SWAP2 JUMPDEST POP POP POP POP POP DUP2 MSTORE PUSH1 0x20 ADD PUSH1 0x3 DUP3 ADD DUP1 SLOAD PUSH2 0x1917 SWAP1 PUSH2 0x2FBC JUMP JUMPDEST DUP1 PUSH1 0x1F ADD PUSH1 0x20 DUP1 SWAP2 DIV MUL PUSH1 0x20 ADD PUSH1 0x40 MLOAD SWAP1 DUP2 ADD PUSH1 0x40 MSTORE DUP1 SWAP3 SWAP2 SWAP1 DUP2 DUP2 MSTORE PUSH1 0x20 ADD DUP3 DUP1 SLOAD PUSH2 0x1943 SWAP1 PUSH2 0x2FBC JUMP JUMPDEST DUP1 ISZERO PUSH2 0x1990 JUMPI DUP1 PUSH1 0x1F LT PUSH2 0x1965 JUMPI PUSH2 0x100 DUP1 DUP4 SLOAD DIV MUL DUP4 MSTORE SWAP2 PUSH1 0x20 ADD SWAP2 PUSH2 0x1990 JUMP JUMPDEST DUP3 ADD SWAP2 SWAP1 PUSH1 0x0 MSTORE PUSH1 0x20 PUSH1 0x0 KECCAK256 SWAP1 JUMPDEST DUP2 SLOAD DUP2 MSTORE SWAP1 PUSH1 0x1 ADD SWAP1 PUSH1 0x20 ADD DUP1 DUP4 GT PUSH2 0x1973 JUMPI DUP3 SWAP1 SUB PUSH1 0x1F AND DUP3 ADD SWAP2 JUMPDEST POP POP POP POP POP DUP2 MSTORE PUSH1 0x20 ADD PUSH1 0x4 DUP3 ADD SLOAD DUP2 MSTORE PUSH1 0x20 ADD PUSH1 0x5 DUP3 ADD SLOAD DUP2 MSTORE PUSH1 0x20 ADD PUSH1 0x6 DUP3 ADD DUP1 SLOAD PUSH2 0x19BD SWAP1 PUSH2 0x2FBC JUMP JUMPDEST DUP1 PUSH1 0x1F ADD PUSH1 0x20 DUP1 SWAP2 DIV MUL PUSH1 0x20 ADD PUSH1 0x40 MLOAD SWAP1 DUP2 ADD PUSH1 0x40 MSTORE DUP1 SWAP3 SWAP2 SWAP1 DUP2 DUP2 MSTORE PUSH1 0x20 ADD DUP3 DUP1 SLOAD PUSH2 0x19E9 SWAP1 PUSH2 0x2FBC JUMP JUMPDEST DUP1 ISZERO PUSH2 0x1A36 JUMPI DUP1 PUSH1 0x1F LT PUSH2 0x1A0B JUMPI PUSH2 0x100 DUP1 DUP4 SLOAD DIV MUL DUP4 MSTORE SWAP2 PUSH1 0x20 ADD SWAP2 PUSH2 0x1A36 JUMP JUMPDEST DUP3 ADD SWAP2 SWAP1 PUSH1 0x0 MSTORE PUSH1 0x20 PUSH1 0x0 KECCAK256 SWAP1 JUMPDEST DUP2 SLOAD DUP2 MSTORE SWAP1 PUSH1 0x1 ADD SWAP1 PUSH1 0x20 ADD DUP1 DUP4 GT PUSH2 0x1A19 JUMPI DUP3 SWAP1 SUB PUSH1 0x1F AND DUP3 ADD SWAP2 JUMPDEST POP POP POP POP POP DUP2 MSTORE PUSH1 0x20 ADD PUSH1 0x7 DUP3 ADD PUSH1 0x0 SWAP1 SLOAD SWAP1 PUSH2 0x100 EXP SWAP1 DIV PUSH1 0xFF AND ISZERO ISZERO ISZERO ISZERO DUP2 MSTORE POP POP SWAP1 POP SWAP2 SWAP1 POP JUMP JUMPDEST PUSH1 0x5 PUSH1 0x20 MSTORE DUP1 PUSH1 0x0 MSTORE PUSH1 0x40 PUSH1 0x0 KECCAK256 PUSH1 0x0 SWAP2 POP SWAP1 POP DUP1 PUSH1 0x0 ADD DUP1 SLOAD PUSH2 0x1A84 SWAP1 PUSH2 0x2FBC JUMP JUMPDEST DUP1 PUSH1 0x1F ADD PUSH1 0x20 DUP1 SWAP2 DIV MUL PUSH1 0x20 ADD PUSH1 0x40 MLOAD SWAP1 DUP2 ADD PUSH1 0x40 MSTORE DUP1 SWAP3 SWAP2 SWAP1 DUP2 DUP2 MSTORE PUSH1 0x20 ADD DUP3 DUP1 SLOAD PUSH2 0x1AB0 SWAP1 PUSH2 0x2FBC JUMP JUMPDEST DUP1 ISZERO PUSH2 0x1AFD JUMPI DUP1 PUSH1 0x1F LT PUSH2 0x1AD2 JUMPI PUSH2 0x100 DUP1 DUP4 SLOAD DIV MUL DUP4 MSTORE SWAP2 PUSH1 0x20 ADD SWAP2 PUSH2 0x1AFD JUMP JUMPDEST DUP3 ADD SWAP2 SWAP1 PUSH1 0x0 MSTORE PUSH1 0x20 PUSH1 0x0 KECCAK256 SWAP1 JUMPDEST DUP2 SLOAD DUP2 MSTORE SWAP1 PUSH1 0x1 ADD SWAP1 PUSH1 0x20 ADD DUP1 DUP4 GT PUSH2 0x1AE0 JUMPI DUP3 SWAP1 SUB PUSH1 0x1F AND DUP3 ADD SWAP2 JUMPDEST POP POP POP POP POP SWAP1 DUP1 PUSH1 0x1 ADD DUP1 SLOAD PUSH2 0x1B12 SWAP1 PUSH2 0x2FBC JUMP JUMPDEST DUP1 PUSH1 0x1F ADD PUSH1 0x20 DUP1 SWAP2 DIV MUL PUSH1 0x20 ADD PUSH1 0x40 MLOAD SWAP1 DUP2 ADD PUSH1 0x40 MSTORE DUP1 SWAP3 SWAP2 SWAP1 DUP2 DUP2 MSTORE PUSH1 0x20 ADD DUP3 DUP1 SLOAD PUSH2 0x1B3E SWAP1 PUSH2 0x2FBC JUMP JUMPDEST DUP1 ISZERO PUSH2 0x1B8B JUMPI DUP1 PUSH1 0x1F LT PUSH2 0x1B60 JUMPI PUSH2 0x100 DUP1 DUP4 SLOAD DIV MUL DUP4 MSTORE SWAP2 PUSH1 0x20 ADD SWAP2 PUSH2 0x1B8B JUMP JUMPDEST DUP3 ADD SWAP2 SWAP1 PUSH1 0x0 MSTORE PUSH1 0x20 PUSH1 0x0 KECCAK256 SWAP1 JUMPDEST DUP2 SLOAD DUP2 MSTORE SWAP1 PUSH1 0x1 ADD SWAP1 PUSH1 0x20 ADD DUP1 DUP4 GT PUSH2 0x1B6E JUMPI DUP3 SWAP1 SUB PUSH1 0x1F AND DUP3 ADD SWAP2 JUMPDEST POP POP POP POP POP SWAP1 DUP1 PUSH1 0x2 ADD DUP1 SLOAD PUSH2 0x1BA0 SWAP1 PUSH2 0x2FBC JUMP JUMPDEST DUP1 PUSH1 0x1F ADD PUSH1 0x20 DUP1 SWAP2 DIV MUL PUSH1 0x20 ADD PUSH1 0x40 MLOAD SWAP1 DUP2 ADD PUSH1 0x40 MSTORE DUP1 SWAP3 SWAP2 SWAP1 DUP2 DUP2 MSTORE PUSH1 0x20 ADD DUP3 DUP1 SLOAD PUSH2 0x1BCC SWAP1 PUSH2 0x2FBC JUMP JUMPDEST DUP1 ISZERO PUSH2 0x1C19 JUMPI DUP1 PUSH1 0x1F LT PUSH2 0x1BEE JUMPI PUSH2 0x100 DUP1 DUP4 SLOAD DIV MUL DUP4 MSTORE SWAP2 PUSH1 0x20 ADD SWAP2 PUSH2 0x1C19 JUMP JUMPDEST DUP3 ADD SWAP2 SWAP1 PUSH1 0x0 MSTORE PUSH1 0x20 PUSH1 0x0 KECCAK256 SWAP1 JUMPDEST DUP2 SLOAD DUP2 MSTORE SWAP1 PUSH1 0x1 ADD SWAP1 PUSH1 0x20 ADD DUP1 DUP4 GT PUSH2 0x1BFC JUMPI DUP3 SWAP1 SUB PUSH1 0x1F AND DUP3 ADD SWAP2 JUMPDEST POP POP POP POP POP SWAP1 DUP1 PUSH1 0x3 ADD DUP1 SLOAD PUSH2 0x1C2E SWAP1 PUSH2 0x2FBC JUMP JUMPDEST DUP1 PUSH1 0x1F ADD PUSH1 0x20 DUP1 SWAP2 DIV MUL PUSH1 0x20 ADD PUSH1 0x40 MLOAD SWAP1 DUP2 ADD PUSH1 0x40 MSTORE DUP1 SWAP3 SWAP2 SWAP1 DUP2 DUP2 MSTORE PUSH1 0x20 ADD DUP3 DUP1 SLOAD PUSH2 0x1C5A SWAP1 PUSH2 0x2FBC JUMP JUMPDEST DUP1 ISZERO PUSH2 0x1CA7 JUMPI DUP1 PUSH1 0x1F LT PUSH2 0x1C7C JUMPI PUSH2 0x100 DUP1 DUP4 SLOAD DIV MUL DUP4 MSTORE SWAP2 PUSH1 0x20 ADD SWAP2 PUSH2 0x1CA7 JUMP JUMPDEST DUP3 ADD SWAP2 SWAP1 PUSH1 0x0 MSTORE PUSH1 0x20 PUSH1 0x0 KECCAK256 SWAP1 JUMPDEST DUP2 SLOAD DUP2 MSTORE SWAP1 PUSH1 0x1 ADD SWAP1 PUSH1 0x20 ADD DUP1 DUP4 GT PUSH2 0x1C8A JUMPI DUP3 SWAP1 SUB PUSH1 0x1F AND DUP3 ADD SWAP2 JUMPDEST POP POP POP POP POP SWAP1 DUP1 PUSH1 0x4 ADD SLOAD SWAP1 DUP1 PUSH1 0x5 ADD SLOAD SWAP1 DUP1 PUSH1 0x6 ADD DUP1 SLOAD PUSH2 0x1CC8 SWAP1 PUSH2 0x2FBC JUMP JUMPDEST DUP1 PUSH1 0x1F ADD PUSH1 0x20 DUP1 SWAP2 DIV MUL PUSH1 0x20 ADD PUSH1 0x40 MLOAD SWAP1 DUP2 ADD PUSH1 0x40 MSTORE DUP1 SWAP3 SWAP2 SWAP1 DUP2 DUP2 MSTORE PUSH1 0x20 ADD DUP3 DUP1 SLOAD PUSH2 0x1CF4 SWAP1 PUSH2 0x2FBC JUMP JUMPDEST DUP1 ISZERO PUSH2 0x1D41 JUMPI DUP1 PUSH1 0x1F LT PUSH2 0x1D16 JUMPI PUSH2 0x100 DUP1 DUP4 SLOAD DIV MUL DUP4 MSTORE SWAP2 PUSH1 0x20 ADD SWAP2 PUSH2 0x1D41 JUMP JUMPDEST DUP3 ADD SWAP2 SWAP1 PUSH1 0x0 MSTORE PUSH1 0x20 PUSH1 0x0 KECCAK256 SWAP1 JUMPDEST DUP2 SLOAD DUP2 MSTORE SWAP1 PUSH1 0x1 ADD SWAP1 PUSH1 0x20 ADD DUP1 DUP4 GT PUSH2 0x1D24 JUMPI DUP3 SWAP1 SUB PUSH1 0x1F AND DUP3 ADD SWAP2 JUMPDEST POP POP POP POP POP SWAP1 DUP1 PUSH1 0x7 ADD PUSH1 0x0 SWAP1 SLOAD SWAP1 PUSH2 0x100 EXP SWAP1 DIV PUSH1 0xFF AND SWAP1 POP DUP9 JUMP JUMPDEST PUSH1 0x0 CALLER SWAP1 POP SWAP1 JUMP JUMPDEST PUSH1 0x0 PUSH20 0xFFFFFFFFFFFFFFFFFFFFFFFFFFFFFFFFFFFFFFFF AND DUP4 PUSH20 0xFFFFFFFFFFFFFFFFFFFFFFFFFFFFFFFFFFFFFFFF AND SUB PUSH2 0x1DD5 JUMPI PUSH1 0x40 MLOAD PUSH32 0x8C379A000000000000000000000000000000000000000000000000000000000 DUP2 MSTORE PUSH1 0x4 ADD PUSH2 0x1DCC SWAP1 PUSH2 0x392B JUMP JUMPDEST PUSH1 0x40 MLOAD DUP1 SWAP2 SUB SWAP1 REVERT JUMPDEST PUSH1 0x0 PUSH20 0xFFFFFFFFFFFFFFFFFFFFFFFFFFFFFFFFFFFFFFFF AND DUP3 PUSH20 0xFFFFFFFFFFFFFFFFFFFFFFFFFFFFFFFFFFFFFFFF AND SUB PUSH2 0x1E44 JUMPI PUSH1 0x40 MLOAD PUSH32 0x8C379A000000000000000000000000000000000000000000000000000000000 DUP2 MSTORE PUSH1 0x4 ADD PUSH2 0x1E3B SWAP1 PUSH2 0x39BD JUMP JUMPDEST PUSH1 0x40 MLOAD DUP1 SWAP2 SUB SWAP1 REVERT JUMPDEST DUP1 PUSH1 0x1 PUSH1 0x0 DUP6 PUSH20 0xFFFFFFFFFFFFFFFFFFFFFFFFFFFFFFFFFFFFFFFF AND PUSH20 0xFFFFFFFFFFFFFFFFFFFFFFFFFFFFFFFFFFFFFFFF AND DUP2 MSTORE PUSH1 0x20 ADD SWAP1 DUP2 MSTORE PUSH1 0x20 ADD PUSH1 0x0 KECCAK256 PUSH1 0x0 DUP5 PUSH20 0xFFFFFFFFFFFFFFFFFFFFFFFFFFFFFFFFFFFFFFFF AND PUSH20 0xFFFFFFFFFFFFFFFFFFFFFFFFFFFFFFFFFFFFFFFF AND DUP2 MSTORE PUSH1 0x20 ADD SWAP1 DUP2 MSTORE PUSH1 0x20 ADD PUSH1 0x0 KECCAK256 DUP2 SWAP1 SSTORE POP DUP2 PUSH20 0xFFFFFFFFFFFFFFFFFFFFFFFFFFFFFFFFFFFFFFFF AND DUP4 PUSH20 0xFFFFFFFFFFFFFFFFFFFFFFFFFFFFFFFFFFFFFFFF AND PUSH32 0x8C5BE1E5EBEC7D5BD14F71427D1E84F3DD0314C0F7B2291E5B200AC8C7C3B925 DUP4 PUSH1 0x40 MLOAD PUSH2 0x1F22 SWAP2 SWAP1 PUSH2 0x2628 JUMP JUMPDEST PUSH1 0x40 MLOAD DUP1 SWAP2 SUB SWAP1 LOG3 POP POP POP JUMP JUMPDEST PUSH1 0x0 PUSH2 0x1F3B DUP5 DUP5 PUSH2 0x1677 JUMP JUMPDEST SWAP1 POP PUSH32 0xFFFFFFFFFFFFFFFFFFFFFFFFFFFFFFFFFFFFFFFFFFFFFFFFFFFFFFFFFFFFFFFF DUP2 EQ PUSH2 0x1FB5 JUMPI DUP2 DUP2 LT ISZERO PUSH2 0x1FA7 JUMPI PUSH1 0x40 MLOAD PUSH32 0x8C379A000000000000000000000000000000000000000000000000000000000 DUP2 MSTORE PUSH1 0x4 ADD PUSH2 0x1F9E SWAP1 PUSH2 0x3A29 JUMP JUMPDEST PUSH1 0x40 MLOAD DUP1 SWAP2 SUB SWAP1 REVERT JUMPDEST PUSH2 0x1FB4 DUP5 DUP5 DUP5 DUP5 SUB PUSH2 0x1D66 JUMP JUMPDEST JUMPDEST POP POP POP POP JUMP JUMPDEST PUSH1 0x0 PUSH20 0xFFFFFFFFFFFFFFFFFFFFFFFFFFFFFFFFFFFFFFFF AND DUP4 PUSH20 0xFFFFFFFFFFFFFFFFFFFFFFFFFFFFFFFFFFFFFFFF AND SUB PUSH2 0x202A JUMPI PUSH1 0x40 MLOAD PUSH32 0x8C379A000000000000000000000000000000000000000000000000000000000 DUP2 MSTORE PUSH1 0x4 ADD PUSH2 0x2021 SWAP1 PUSH2 0x3ABB JUMP JUMPDEST PUSH1 0x40 MLOAD DUP1 SWAP2 SUB SWAP1 REVERT JUMPDEST PUSH1 0x0 PUSH20 0xFFFFFFFFFFFFFFFFFFFFFFFFFFFFFFFFFFFFFFFF AND DUP3 PUSH20 0xFFFFFFFFFFFFFFFFFFFFFFFFFFFFFFFFFFFFFFFF AND SUB PUSH2 0x2099 JUMPI PUSH1 0x40 MLOAD PUSH32 0x8C379A000000000000000000000000000000000000000000000000000000000 DUP2 MSTORE PUSH1 0x4 ADD PUSH2 0x2090 SWAP1 PUSH2 0x3B4D JUMP JUMPDEST PUSH1 0x40 MLOAD DUP1 SWAP2 SUB SWAP1 REVERT JUMPDEST PUSH2 0x20A4 DUP4 DUP4 DUP4 PUSH2 0x2554 JUMP JUMPDEST PUSH1 0x0 DUP1 PUSH1 0x0 DUP6 PUSH20 0xFFFFFFFFFFFFFFFFFFFFFFFFFFFFFFFFFFFFFFFF AND PUSH20 0xFFFFFFFFFFFFFFFFFFFFFFFFFFFFFFFFFFFFFFFF AND DUP2 MSTORE PUSH1 0x20 ADD SWAP1 DUP2 MSTORE PUSH1 0x20 ADD PUSH1 0x0 KECCAK256 SLOAD SWAP1 POP DUP2 DUP2 LT ISZERO PUSH2 0x212A JUMPI PUSH1 0x40 MLOAD PUSH32 0x8C379A000000000000000000000000000000000000000000000000000000000 DUP2 MSTORE PUSH1 0x4 ADD PUSH2 0x2121 SWAP1 PUSH2 0x3BDF JUMP JUMPDEST PUSH1 0x40 MLOAD DUP1 SWAP2 SUB SWAP1 REVERT JUMPDEST DUP2 DUP2 SUB PUSH1 0x0 DUP1 DUP7 PUSH20 0xFFFFFFFFFFFFFFFFFFFFFFFFFFFFFFFFFFFFFFFF AND PUSH20 0xFFFFFFFFFFFFFFFFFFFFFFFFFFFFFFFFFFFFFFFF AND DUP2 MSTORE PUSH1 0x20 ADD SWAP1 DUP2 MSTORE PUSH1 0x20 ADD PUSH1 0x0 KECCAK256 DUP2 SWAP1 SSTORE POP DUP2 PUSH1 0x0 DUP1 DUP6 PUSH20 0xFFFFFFFFFFFFFFFFFFFFFFFFFFFFFFFFFFFFFFFF AND PUSH20 0xFFFFFFFFFFFFFFFFFFFFFFFFFFFFFFFFFFFFFFFF AND DUP2 MSTORE PUSH1 0x20 ADD SWAP1 DUP2 MSTORE PUSH1 0x20 ADD PUSH1 0x0 KECCAK256 PUSH1 0x0 DUP3 DUP3 SLOAD ADD SWAP3 POP POP DUP2 SWAP1 SSTORE POP DUP3 PUSH20 0xFFFFFFFFFFFFFFFFFFFFFFFFFFFFFFFFFFFFFFFF AND DUP5 PUSH20 0xFFFFFFFFFFFFFFFFFFFFFFFFFFFFFFFFFFFFFFFF AND PUSH32 0xDDF252AD1BE2C89B69C2B068FC378DAA952BA7F163C4A11628F55A4DF523B3EF DUP5 PUSH1 0x40 MLOAD PUSH2 0x2218 SWAP2 SWAP1 PUSH2 0x2628 JUMP JUMPDEST PUSH1 0x40 MLOAD DUP1 SWAP2 SUB SWAP1 LOG3 PUSH2 0x222B DUP5 DUP5 DUP5 PUSH2 0x2559 JUMP JUMPDEST POP POP POP POP JUMP JUMPDEST PUSH1 0x0 PUSH20 0xFFFFFFFFFFFFFFFFFFFFFFFFFFFFFFFFFFFFFFFF AND DUP3 PUSH20 0xFFFFFFFFFFFFFFFFFFFFFFFFFFFFFFFFFFFFFFFF AND SUB PUSH2 0x22A0 JUMPI PUSH1 0x40 MLOAD PUSH32 0x8C379A000000000000000000000000000000000000000000000000000000000 DUP2 MSTORE PUSH1 0x4 ADD PUSH2 0x2297 SWAP1 PUSH2 0x3C71 JUMP JUMPDEST PUSH1 0x40 MLOAD DUP1 SWAP2 SUB SWAP1 REVERT JUMPDEST PUSH2 0x22AC DUP3 PUSH1 0x0 DUP4 PUSH2 0x2554 JUMP JUMPDEST PUSH1 0x0 DUP1 PUSH1 0x0 DUP5 PUSH20 0xFFFFFFFFFFFFFFFFFFFFFFFFFFFFFFFFFFFFFFFF AND PUSH20 0xFFFFFFFFFFFFFFFFFFFFFFFFFFFFFFFFFFFFFFFF AND DUP2 MSTORE PUSH1 0x20 ADD SWAP1 DUP2 MSTORE PUSH1 0x20 ADD PUSH1 0x0 KECCAK256 SLOAD SWAP1 POP DUP2 DUP2 LT ISZERO PUSH2 0x2332 JUMPI PUSH1 0x40 MLOAD PUSH32 0x8C379A000000000000000000000000000000000000000000000000000000000 DUP2 MSTORE PUSH1 0x4 ADD PUSH2 0x2329 SWAP1 PUSH2 0x3D03 JUMP JUMPDEST PUSH1 0x40 MLOAD DUP1 SWAP2 SUB SWAP1 REVERT JUMPDEST DUP2 DUP2 SUB PUSH1 0x0 DUP1 DUP6 PUSH20 0xFFFFFFFFFFFFFFFFFFFFFFFFFFFFFFFFFFFFFFFF AND PUSH20 0xFFFFFFFFFFFFFFFFFFFFFFFFFFFFFFFFFFFFFFFF AND DUP2 MSTORE PUSH1 0x20 ADD SWAP1 DUP2 MSTORE PUSH1 0x20 ADD PUSH1 0x0 KECCAK256 DUP2 SWAP1 SSTORE POP DUP2 PUSH1 0x2 PUSH1 0x0 DUP3 DUP3 SLOAD SUB SWAP3 POP POP DUP2 SWAP1 SSTORE POP PUSH1 0x0 PUSH20 0xFFFFFFFFFFFFFFFFFFFFFFFFFFFFFFFFFFFFFFFF AND DUP4 PUSH20 0xFFFFFFFFFFFFFFFFFFFFFFFFFFFFFFFFFFFFFFFF AND PUSH32 0xDDF252AD1BE2C89B69C2B068FC378DAA952BA7F163C4A11628F55A4DF523B3EF DUP5 PUSH1 0x40 MLOAD PUSH2 0x23E5 SWAP2 SWAP1 PUSH2 0x2628 JUMP JUMPDEST PUSH1 0x40 MLOAD DUP1 SWAP2 SUB SWAP1 LOG3 PUSH2 0x23F9 DUP4 PUSH1 0x0 DUP5 PUSH2 0x2559 JUMP JUMPDEST POP POP POP JUMP JUMPDEST PUSH1 0x0 PUSH20 0xFFFFFFFFFFFFFFFFFFFFFFFFFFFFFFFFFFFFFFFF AND DUP3 PUSH20 0xFFFFFFFFFFFFFFFFFFFFFFFFFFFFFFFFFFFFFFFF AND SUB PUSH2 0x246D JUMPI PUSH1 0x40 MLOAD PUSH32 0x8C379A000000000000000000000000000000000000000000000000000000000 DUP2 MSTORE PUSH1 0x4 ADD PUSH2 0x2464 SWAP1 PUSH2 0x3D6F JUMP JUMPDEST PUSH1 0x40 MLOAD DUP1 SWAP2 SUB SWAP1 REVERT JUMPDEST PUSH2 0x2479 PUSH1 0x0 DUP4 DUP4 PUSH2 0x2554 JUMP JUMPDEST DUP1 PUSH1 0x2 PUSH1 0x0 DUP3 DUP3 SLOAD PUSH2 0x248B SWAP2 SWAP1 PUSH2 0x3157 JUMP JUMPDEST SWAP3 POP POP DUP2 SWAP1 SSTORE POP DUP1 PUSH1 0x0 DUP1 DUP5 PUSH20 0xFFFFFFFFFFFFFFFFFFFFFFFFFFFFFFFFFFFFFFFF AND PUSH20 0xFFFFFFFFFFFFFFFFFFFFFFFFFFFFFFFFFFFFFFFF AND DUP2 MSTORE PUSH1 0x20 ADD SWAP1 DUP2 MSTORE PUSH1 0x20 ADD PUSH1 0x0 KECCAK256 PUSH1 0x0 DUP3 DUP3 SLOAD ADD SWAP3 POP POP DUP2 SWAP1 SSTORE POP DUP2 PUSH20 0xFFFFFFFFFFFFFFFFFFFFFFFFFFFFFFFFFFFFFFFF AND PUSH1 0x0 PUSH20 0xFFFFFFFFFFFFFFFFFFFFFFFFFFFFFFFFFFFFFFFF AND PUSH32 0xDDF252AD1BE2C89B69C2B068FC378DAA952BA7F163C4A11628F55A4DF523B3EF DUP4 PUSH1 0x40 MLOAD PUSH2 0x253C SWAP2 SWAP1 PUSH2 0x2628 JUMP JUMPDEST PUSH1 0x40 MLOAD DUP1 SWAP2 SUB SWAP1 LOG3 PUSH2 0x2550 PUSH1 0x0 DUP4 DUP4 PUSH2 0x2559 JUMP JUMPDEST POP POP JUMP JUMPDEST POP POP POP JUMP JUMPDEST POP POP POP JUMP JUMPDEST PUSH1 0x40 MLOAD DUP1 PUSH2 0x100 ADD PUSH1 0x40 MSTORE DUP1 PUSH1 0x60 DUP2 MSTORE PUSH1 0x20 ADD PUSH1 0x60 DUP2 MSTORE PUSH1 0x20 ADD PUSH1 0x60 DUP2 MSTORE PUSH1 0x20 ADD PUSH1 0x60 DUP2 MSTORE PUSH1 0x20 ADD PUSH1 0x0 DUP2 MSTORE PUSH1 0x20 ADD PUSH1 0x0 DUP2 MSTORE PUSH1 0x20 ADD PUSH1 0x60 DUP2 MSTORE PUSH1 0x20 ADD PUSH1 0x0 ISZERO ISZERO DUP2 MSTORE POP SWAP1 JUMP JUMPDEST PUSH1 0x0 PUSH20 0xFFFFFFFFFFFFFFFFFFFFFFFFFFFFFFFFFFFFFFFF DUP3 AND SWAP1 POP SWAP2 SWAP1 POP JUMP JUMPDEST PUSH1 0x0 PUSH2 0x25D0 DUP3 PUSH2 0x25A5 JUMP JUMPDEST SWAP1 POP SWAP2 SWAP1 POP JUMP JUMPDEST PUSH2 0x25E0 DUP2 PUSH2 0x25C5 JUMP JUMPDEST DUP3 MSTORE POP POP JUMP JUMPDEST PUSH1 0x0 DUP2 SWAP1 POP SWAP2 SWAP1 POP JUMP JUMPDEST PUSH2 0x25F9 DUP2 PUSH2 0x25E6 JUMP JUMPDEST DUP3 MSTORE POP POP JUMP JUMPDEST PUSH1 0x0 PUSH1 0x40 DUP3 ADD SWAP1 POP PUSH2 0x2614 PUSH1 0x0 DUP4 ADD DUP6 PUSH2 0x25D7 JUMP JUMPDEST PUSH2 0x2621 PUSH1 0x20 DUP4 ADD DUP5 PUSH2 0x25F0 JUMP JUMPDEST SWAP4 SWAP3 POP POP POP JUMP JUMPDEST PUSH1 0x0 PUSH1 0x20 DUP3 ADD SWAP1 POP PUSH2 0x263D PUSH1 0x0 DUP4 ADD DUP5 PUSH2 0x25F0 JUMP JUMPDEST SWAP3 SWAP2 POP POP JUMP JUMPDEST PUSH1 0x0 DUP2 MLOAD SWAP1 POP SWAP2 SWAP1 POP JUMP JUMPDEST PUSH1 0x0 DUP3 DUP3 MSTORE PUSH1 0x20 DUP3 ADD SWAP1 POP SWAP3 SWAP2 POP POP JUMP JUMPDEST PUSH1 0x0 JUMPDEST DUP4 DUP2 LT ISZERO PUSH2 0x267D JUMPI DUP1 DUP3 ADD MLOAD DUP2 DUP5 ADD MSTORE PUSH1 0x20 DUP2 ADD SWAP1 POP PUSH2 0x2662 JUMP JUMPDEST PUSH1 0x0 DUP5 DUP5 ADD MSTORE POP POP POP POP JUMP JUMPDEST PUSH1 0x0 PUSH1 0x1F NOT PUSH1 0x1F DUP4 ADD AND SWAP1 POP SWAP2 SWAP1 POP JUMP JUMPDEST PUSH1 0x0 PUSH2 0x26A5 DUP3 PUSH2 0x2643 JUMP JUMPDEST PUSH2 0x26AF DUP2 DUP6 PUSH2 0x264E JUMP JUMPDEST SWAP4 POP PUSH2 0x26BF DUP2 DUP6 PUSH1 0x20 DUP7 ADD PUSH2 0x265F JUMP JUMPDEST PUSH2 0x26C8 DUP2 PUSH2 0x2689 JUMP JUMPDEST DUP5 ADD SWAP2 POP POP SWAP3 SWAP2 POP POP JUMP JUMPDEST PUSH1 0x0 PUSH1 0x20 DUP3 ADD SWAP1 POP DUP2 DUP2 SUB PUSH1 0x0 DUP4 ADD MSTORE PUSH2 0x26ED DUP2 DUP5 PUSH2 0x269A JUMP JUMPDEST SWAP1 POP SWAP3 SWAP2 POP POP JUMP JUMPDEST PUSH1 0x0 PUSH1 0x40 MLOAD SWAP1 POP SWAP1 JUMP JUMPDEST PUSH1 0x0 DUP1 REVERT JUMPDEST PUSH1 0x0 DUP1 REVERT JUMPDEST PUSH2 0x2712 DUP2 PUSH2 0x25C5 JUMP JUMPDEST DUP2 EQ PUSH2 0x271D JUMPI PUSH1 0x0 DUP1 REVERT JUMPDEST POP JUMP JUMPDEST PUSH1 0x0 DUP2 CALLDATALOAD SWAP1 POP PUSH2 0x272F DUP2 PUSH2 0x2709 JUMP JUMPDEST SWAP3 SWAP2 POP POP JUMP JUMPDEST PUSH2 0x273E DUP2 PUSH2 0x25E6 JUMP JUMPDEST DUP2 EQ PUSH2 0x2749 JUMPI PUSH1 0x0 DUP1 REVERT JUMPDEST POP JUMP JUMPDEST PUSH1 0x0 DUP2 CALLDATALOAD SWAP1 POP PUSH2 0x275B DUP2 PUSH2 0x2735 JUMP JUMPDEST SWAP3 SWAP2 POP POP JUMP JUMPDEST PUSH1 0x0 DUP1 PUSH1 0x40 DUP4 DUP6 SUB SLT ISZERO PUSH2 0x2778 JUMPI PUSH2 0x2777 PUSH2 0x26FF JUMP JUMPDEST JUMPDEST PUSH1 0x0 PUSH2 0x2786 DUP6 DUP3 DUP7 ADD PUSH2 0x2720 JUMP JUMPDEST SWAP3 POP POP PUSH1 0x20 PUSH2 0x2797 DUP6 DUP3 DUP7 ADD PUSH2 0x274C JUMP JUMPDEST SWAP2 POP POP SWAP3 POP SWAP3 SWAP1 POP JUMP JUMPDEST PUSH1 0x0 DUP2 ISZERO ISZERO SWAP1 POP SWAP2 SWAP1 POP JUMP JUMPDEST PUSH2 0x27B6 DUP2 PUSH2 0x27A1 JUMP JUMPDEST DUP3 MSTORE POP POP JUMP JUMPDEST PUSH1 0x0 PUSH1 0x20 DUP3 ADD SWAP1 POP PUSH2 0x27D1 PUSH1 0x0 DUP4 ADD DUP5 PUSH2 0x27AD JUMP JUMPDEST SWAP3 SWAP2 POP POP JUMP JUMPDEST PUSH1 0x0 PUSH1 0x20 DUP3 DUP5 SUB SLT ISZERO PUSH2 0x27ED JUMPI PUSH2 0x27EC PUSH2 0x26FF JUMP JUMPDEST JUMPDEST PUSH1 0x0 PUSH2 0x27FB DUP5 DUP3 DUP6 ADD PUSH2 0x274C JUMP JUMPDEST SWAP2 POP POP SWAP3 SWAP2 POP POP JUMP JUMPDEST PUSH1 0x0 PUSH1 0x20 DUP3 ADD SWAP1 POP PUSH2 0x2819 PUSH1 0x0 DUP4 ADD DUP5 PUSH2 0x25D7 JUMP JUMPDEST SWAP3 SWAP2 POP POP JUMP JUMPDEST PUSH1 0x0 DUP1 PUSH1 0x0 PUSH1 0x60 DUP5 DUP7 SUB SLT ISZERO PUSH2 0x2838 JUMPI PUSH2 0x2837 PUSH2 0x26FF JUMP JUMPDEST JUMPDEST PUSH1 0x0 PUSH2 0x2846 DUP7 DUP3 DUP8 ADD PUSH2 0x2720 JUMP JUMPDEST SWAP4 POP POP PUSH1 0x20 PUSH2 0x2857 DUP7 DUP3 DUP8 ADD PUSH2 0x2720 JUMP JUMPDEST SWAP3 POP POP PUSH1 0x40 PUSH2 0x2868 DUP7 DUP3 DUP8 ADD PUSH2 0x274C JUMP JUMPDEST SWAP2 POP POP SWAP3 POP SWAP3 POP SWAP3 JUMP JUMPDEST PUSH1 0x0 PUSH1 0xFF DUP3 AND SWAP1 POP SWAP2 SWAP1 POP JUMP JUMPDEST PUSH2 0x2888 DUP2 PUSH2 0x2872 JUMP JUMPDEST DUP3 MSTORE POP POP JUMP JUMPDEST PUSH1 0x0 PUSH1 0x20 DUP3 ADD SWAP1 POP PUSH2 0x28A3 PUSH1 0x0 DUP4 ADD DUP5 PUSH2 0x287F JUMP JUMPDEST SWAP3 SWAP2 POP POP JUMP JUMPDEST PUSH1 0x0 DUP1 REVERT JUMPDEST PUSH1 0x0 DUP1 REVERT JUMPDEST PUSH32 0x4E487B7100000000000000000000000000000000000000000000000000000000 PUSH1 0x0 MSTORE PUSH1 0x41 PUSH1 0x4 MSTORE PUSH1 0x24 PUSH1 0x0 REVERT JUMPDEST PUSH2 0x28EB DUP3 PUSH2 0x2689 JUMP JUMPDEST DUP2 ADD DUP2 DUP2 LT PUSH8 0xFFFFFFFFFFFFFFFF DUP3 GT OR ISZERO PUSH2 0x290A JUMPI PUSH2 0x2909 PUSH2 0x28B3 JUMP JUMPDEST JUMPDEST DUP1 PUSH1 0x40 MSTORE POP POP POP JUMP JUMPDEST PUSH1 0x0 PUSH2 0x291D PUSH2 0x26F5 JUMP JUMPDEST SWAP1 POP PUSH2 0x2929 DUP3 DUP3 PUSH2 0x28E2 JUMP JUMPDEST SWAP2 SWAP1 POP JUMP JUMPDEST PUSH1 0x0 PUSH8 0xFFFFFFFFFFFFFFFF DUP3 GT ISZERO PUSH2 0x2949 JUMPI PUSH2 0x2948 PUSH2 0x28B3 JUMP JUMPDEST JUMPDEST PUSH2 0x2952 DUP3 PUSH2 0x2689 JUMP JUMPDEST SWAP1 POP PUSH1 0x20 DUP2 ADD SWAP1 POP SWAP2 SWAP1 POP JUMP JUMPDEST DUP3 DUP2 DUP4 CALLDATACOPY PUSH1 0x0 DUP4 DUP4 ADD MSTORE POP POP POP JUMP JUMPDEST PUSH1 0x0 PUSH2 0x2981 PUSH2 0x297C DUP5 PUSH2 0x292E JUMP JUMPDEST PUSH2 0x2913 JUMP JUMPDEST SWAP1 POP DUP3 DUP2 MSTORE PUSH1 0x20 DUP2 ADD DUP5 DUP5 DUP5 ADD GT ISZERO PUSH2 0x299D JUMPI PUSH2 0x299C PUSH2 0x28AE JUMP JUMPDEST JUMPDEST PUSH2 0x29A8 DUP5 DUP3 DUP6 PUSH2 0x295F JUMP JUMPDEST POP SWAP4 SWAP3 POP POP POP JUMP JUMPDEST PUSH1 0x0 DUP3 PUSH1 0x1F DUP4 ADD SLT PUSH2 0x29C5 JUMPI PUSH2 0x29C4 PUSH2 0x28A9 JUMP JUMPDEST JUMPDEST DUP2 CALLDATALOAD PUSH2 0x29D5 DUP5 DUP3 PUSH1 0x20 DUP7 ADD PUSH2 0x296E JUMP JUMPDEST SWAP2 POP POP SWAP3 SWAP2 POP POP JUMP JUMPDEST PUSH1 0x0 DUP1 PUSH1 0x0 DUP1 PUSH1 0x0 DUP1 PUSH1 0x0 DUP1 PUSH2 0x100 DUP10 DUP12 SUB SLT ISZERO PUSH2 0x29FF JUMPI PUSH2 0x29FE PUSH2 0x26FF JUMP JUMPDEST JUMPDEST PUSH1 0x0 DUP10 ADD CALLDATALOAD PUSH8 0xFFFFFFFFFFFFFFFF DUP2 GT ISZERO PUSH2 0x2A1D JUMPI PUSH2 0x2A1C PUSH2 0x2704 JUMP JUMPDEST JUMPDEST PUSH2 0x2A29 DUP12 DUP3 DUP13 ADD PUSH2 0x29B0 JUMP JUMPDEST SWAP9 POP POP PUSH1 0x20 DUP10 ADD CALLDATALOAD PUSH8 0xFFFFFFFFFFFFFFFF DUP2 GT ISZERO PUSH2 0x2A4A JUMPI PUSH2 0x2A49 PUSH2 0x2704 JUMP JUMPDEST JUMPDEST PUSH2 0x2A56 DUP12 DUP3 DUP13 ADD PUSH2 0x29B0 JUMP JUMPDEST SWAP8 POP POP PUSH1 0x40 DUP10 ADD CALLDATALOAD PUSH8 0xFFFFFFFFFFFFFFFF DUP2 GT ISZERO PUSH2 0x2A77 JUMPI PUSH2 0x2A76 PUSH2 0x2704 JUMP JUMPDEST JUMPDEST PUSH2 0x2A83 DUP12 DUP3 DUP13 ADD PUSH2 0x29B0 JUMP JUMPDEST SWAP7 POP POP PUSH1 0x60 DUP10 ADD CALLDATALOAD PUSH8 0xFFFFFFFFFFFFFFFF DUP2 GT ISZERO PUSH2 0x2AA4 JUMPI PUSH2 0x2AA3 PUSH2 0x2704 JUMP JUMPDEST JUMPDEST PUSH2 0x2AB0 DUP12 DUP3 DUP13 ADD PUSH2 0x29B0 JUMP JUMPDEST SWAP6 POP POP PUSH1 0x80 PUSH2 0x2AC1 DUP12 DUP3 DUP13 ADD PUSH2 0x274C JUMP JUMPDEST SWAP5 POP POP PUSH1 0xA0 PUSH2 0x2AD2 DUP12 DUP3 DUP13 ADD PUSH2 0x274C JUMP JUMPDEST SWAP4 POP POP PUSH1 0xC0 DUP10 ADD CALLDATALOAD PUSH8 0xFFFFFFFFFFFFFFFF DUP2 GT ISZERO PUSH2 0x2AF3 JUMPI PUSH2 0x2AF2 PUSH2 0x2704 JUMP JUMPDEST JUMPDEST PUSH2 0x2AFF DUP12 DUP3 DUP13 ADD PUSH2 0x29B0 JUMP JUMPDEST SWAP3 POP POP PUSH1 0xE0 PUSH2 0x2B10 DUP12 DUP3 DUP13 ADD PUSH2 0x274C JUMP JUMPDEST SWAP2 POP POP SWAP3 SWAP6 SWAP9 POP SWAP3 SWAP6 SWAP9 SWAP1 SWAP4 SWAP7 POP JUMP JUMPDEST PUSH1 0x0 PUSH1 0x20 DUP3 DUP5 SUB SLT ISZERO PUSH2 0x2B36 JUMPI PUSH2 0x2B35 PUSH2 0x26FF JUMP JUMPDEST JUMPDEST PUSH1 0x0 PUSH2 0x2B44 DUP5 DUP3 DUP6 ADD PUSH2 0x2720 JUMP JUMPDEST SWAP2 POP POP SWAP3 SWAP2 POP POP JUMP JUMPDEST PUSH1 0x0 DUP1 PUSH1 0x40 DUP4 DUP6 SUB SLT ISZERO PUSH2 0x2B64 JUMPI PUSH2 0x2B63 PUSH2 0x26FF JUMP JUMPDEST JUMPDEST PUSH1 0x0 PUSH2 0x2B72 DUP6 DUP3 DUP7 ADD PUSH2 0x274C JUMP JUMPDEST SWAP3 POP POP PUSH1 0x20 PUSH2 0x2B83 DUP6 DUP3 DUP7 ADD PUSH2 0x2720 JUMP JUMPDEST SWAP2 POP POP SWAP3 POP SWAP3 SWAP1 POP JUMP JUMPDEST PUSH1 0x0 PUSH2 0x2B98 DUP3 PUSH2 0x25A5 JUMP JUMPDEST SWAP1 POP SWAP2 SWAP1 POP JUMP JUMPDEST PUSH2 0x2BA8 DUP2 PUSH2 0x2B8D JUMP JUMPDEST DUP3 MSTORE POP POP JUMP JUMPDEST PUSH1 0x0 PUSH1 0x20 DUP3 ADD SWAP1 POP PUSH2 0x2BC3 PUSH1 0x0 DUP4 ADD DUP5 PUSH2 0x2B9F JUMP JUMPDEST SWAP3 SWAP2 POP POP JUMP JUMPDEST PUSH2 0x2BD2 DUP2 PUSH2 0x2B8D JUMP JUMPDEST DUP2 EQ PUSH2 0x2BDD JUMPI PUSH1 0x0 DUP1 REVERT JUMPDEST POP JUMP JUMPDEST PUSH1 0x0 DUP2 CALLDATALOAD SWAP1 POP PUSH2 0x2BEF DUP2 PUSH2 0x2BC9 JUMP JUMPDEST SWAP3 SWAP2 POP POP JUMP JUMPDEST PUSH1 0x0 DUP1 PUSH1 0x40 DUP4 DUP6 SUB SLT ISZERO PUSH2 0x2C0C JUMPI PUSH2 0x2C0B PUSH2 0x26FF JUMP JUMPDEST JUMPDEST PUSH1 0x0 PUSH2 0x2C1A DUP6 DUP3 DUP7 ADD PUSH2 0x2BE0 JUMP JUMPDEST SWAP3 POP POP PUSH1 0x20 PUSH2 0x2C2B DUP6 DUP3 DUP7 ADD PUSH2 0x274C JUMP JUMPDEST SWAP2 POP POP SWAP3 POP SWAP3 SWAP1 POP JUMP JUMPDEST PUSH1 0x0 DUP1 PUSH1 0x40 DUP4 DUP6 SUB SLT ISZERO PUSH2 0x2C4C JUMPI PUSH2 0x2C4B PUSH2 0x26FF JUMP JUMPDEST JUMPDEST PUSH1 0x0 PUSH2 0x2C5A DUP6 DUP3 DUP7 ADD PUSH2 0x2720 JUMP JUMPDEST SWAP3 POP POP PUSH1 0x20 PUSH2 0x2C6B DUP6 DUP3 DUP7 ADD PUSH2 0x2720 JUMP JUMPDEST SWAP2 POP POP SWAP3 POP SWAP3 SWAP1 POP JUMP JUMPDEST PUSH1 0x0 DUP3 DUP3 MSTORE PUSH1 0x20 DUP3 ADD SWAP1 POP SWAP3 SWAP2 POP POP JUMP JUMPDEST PUSH1 0x0 PUSH2 0x2C91 DUP3 PUSH2 0x2643 JUMP JUMPDEST PUSH2 0x2C9B DUP2 DUP6 PUSH2 0x2C75 JUMP JUMPDEST SWAP4 POP PUSH2 0x2CAB DUP2 DUP6 PUSH1 0x20 DUP7 ADD PUSH2 0x265F JUMP JUMPDEST PUSH2 0x2CB4 DUP2 PUSH2 0x2689 JUMP JUMPDEST DUP5 ADD SWAP2 POP POP SWAP3 SWAP2 POP POP JUMP JUMPDEST PUSH2 0x2CC8 DUP2 PUSH2 0x25E6 JUMP JUMPDEST DUP3 MSTORE POP POP JUMP JUMPDEST PUSH2 0x2CD7 DUP2 PUSH2 0x27A1 JUMP JUMPDEST DUP3 MSTORE POP POP JUMP JUMPDEST PUSH1 0x0 PUSH2 0x100 DUP4 ADD PUSH1 0x0 DUP4 ADD MLOAD DUP5 DUP3 SUB PUSH1 0x0 DUP7 ADD MSTORE PUSH2 0x2CFB DUP3 DUP3 PUSH2 0x2C86 JUMP JUMPDEST SWAP2 POP POP PUSH1 0x20 DUP4 ADD MLOAD DUP5 DUP3 SUB PUSH1 0x20 DUP7 ADD MSTORE PUSH2 0x2D15 DUP3 DUP3 PUSH2 0x2C86 JUMP JUMPDEST SWAP2 POP POP PUSH1 0x40 DUP4 ADD MLOAD DUP5 DUP3 SUB PUSH1 0x40 DUP7 ADD MSTORE PUSH2 0x2D2F DUP3 DUP3 PUSH2 0x2C86 JUMP JUMPDEST SWAP2 POP POP PUSH1 0x60 DUP4 ADD MLOAD DUP5 DUP3 SUB PUSH1 0x60 DUP7 ADD MSTORE PUSH2 0x2D49 DUP3 DUP3 PUSH2 0x2C86 JUMP JUMPDEST SWAP2 POP POP PUSH1 0x80 DUP4 ADD MLOAD PUSH2 0x2D5E PUSH1 0x80 DUP7 ADD DUP3 PUSH2 0x2CBF JUMP JUMPDEST POP PUSH1 0xA0 DUP4 ADD MLOAD PUSH2 0x2D71 PUSH1 0xA0 DUP7 ADD DUP3 PUSH2 0x2CBF JUMP JUMPDEST POP PUSH1 0xC0 DUP4 ADD MLOAD DUP5 DUP3 SUB PUSH1 0xC0 DUP7 ADD MSTORE PUSH2 0x2D89 DUP3 DUP3 PUSH2 0x2C86 JUMP JUMPDEST SWAP2 POP POP PUSH1 0xE0 DUP4 ADD MLOAD PUSH2 0x2D9E PUSH1 0xE0 DUP7 ADD DUP3 PUSH2 0x2CCE JUMP JUMPDEST POP DUP1 SWAP2 POP POP SWAP3 SWAP2 POP POP JUMP JUMPDEST PUSH1 0x0 PUSH1 0x20 DUP3 ADD SWAP1 POP DUP2 DUP2 SUB PUSH1 0x0 DUP4 ADD MSTORE PUSH2 0x2DC3 DUP2 DUP5 PUSH2 0x2CDD JUMP JUMPDEST SWAP1 POP SWAP3 SWAP2 POP POP JUMP JUMPDEST PUSH1 0x0 PUSH2 0x100 DUP3 ADD SWAP1 POP DUP2 DUP2 SUB PUSH1 0x0 DUP4 ADD MSTORE PUSH2 0x2DE6 DUP2 DUP12 PUSH2 0x269A JUMP JUMPDEST SWAP1 POP DUP2 DUP2 SUB PUSH1 0x20 DUP4 ADD MSTORE PUSH2 0x2DFA DUP2 DUP11 PUSH2 0x269A JUMP JUMPDEST SWAP1 POP DUP2 DUP2 SUB PUSH1 0x40 DUP4 ADD MSTORE PUSH2 0x2E0E DUP2 DUP10 PUSH2 0x269A JUMP JUMPDEST SWAP1 POP DUP2 DUP2 SUB PUSH1 0x60 DUP4 ADD MSTORE PUSH2 0x2E22 DUP2 DUP9 PUSH2 0x269A JUMP JUMPDEST SWAP1 POP PUSH2 0x2E31 PUSH1 0x80 DUP4 ADD DUP8 PUSH2 0x25F0 JUMP JUMPDEST PUSH2 0x2E3E PUSH1 0xA0 DUP4 ADD DUP7 PUSH2 0x25F0 JUMP JUMPDEST DUP2 DUP2 SUB PUSH1 0xC0 DUP4 ADD MSTORE PUSH2 0x2E50 DUP2 DUP6 PUSH2 0x269A JUMP JUMPDEST SWAP1 POP PUSH2 0x2E5F PUSH1 0xE0 DUP4 ADD DUP5 PUSH2 0x27AD JUMP JUMPDEST SWAP10 SWAP9 POP POP POP POP POP POP POP POP POP JUMP JUMPDEST PUSH32 0x5468657265206973206E6F2076616C756520696E207468697320636F6E747261 PUSH1 0x0 DUP3 ADD MSTORE PUSH32 0x6374000000000000000000000000000000000000000000000000000000000000 PUSH1 0x20 DUP3 ADD MSTORE POP JUMP JUMPDEST PUSH1 0x0 PUSH2 0x2EC8 PUSH1 0x22 DUP4 PUSH2 0x264E JUMP JUMPDEST SWAP2 POP PUSH2 0x2ED3 DUP3 PUSH2 0x2E6C JUMP JUMPDEST PUSH1 0x40 DUP3 ADD SWAP1 POP SWAP2 SWAP1 POP JUMP JUMPDEST PUSH1 0x0 PUSH1 0x20 DUP3 ADD SWAP1 POP DUP2 DUP2 SUB PUSH1 0x0 DUP4 ADD MSTORE PUSH2 0x2EF7 DUP2 PUSH2 0x2EBB JUMP JUMPDEST SWAP1 POP SWAP2 SWAP1 POP JUMP JUMPDEST PUSH32 0x4E487B7100000000000000000000000000000000000000000000000000000000 PUSH1 0x0 MSTORE PUSH1 0x12 PUSH1 0x4 MSTORE PUSH1 0x24 PUSH1 0x0 REVERT JUMPDEST PUSH32 0x4E487B7100000000000000000000000000000000000000000000000000000000 PUSH1 0x0 MSTORE PUSH1 0x11 PUSH1 0x4 MSTORE PUSH1 0x24 PUSH1 0x0 REVERT JUMPDEST PUSH1 0x0 PUSH2 0x2F67 DUP3 PUSH2 0x25E6 JUMP JUMPDEST SWAP2 POP PUSH2 0x2F72 DUP4 PUSH2 0x25E6 JUMP JUMPDEST SWAP3 POP DUP3 PUSH2 0x2F82 JUMPI PUSH2 0x2F81 PUSH2 0x2EFE JUMP JUMPDEST JUMPDEST DUP3 DUP3 DIV SWAP1 POP SWAP3 SWAP2 POP POP JUMP JUMPDEST PUSH32 0x4E487B7100000000000000000000000000000000000000000000000000000000 PUSH1 0x0 MSTORE PUSH1 0x22 PUSH1 0x4 MSTORE PUSH1 0x24 PUSH1 0x0 REVERT JUMPDEST PUSH1 0x0 PUSH1 0x2 DUP3 DIV SWAP1 POP PUSH1 0x1 DUP3 AND DUP1 PUSH2 0x2FD4 JUMPI PUSH1 0x7F DUP3 AND SWAP2 POP JUMPDEST PUSH1 0x20 DUP3 LT DUP2 SUB PUSH2 0x2FE7 JUMPI PUSH2 0x2FE6 PUSH2 0x2F8D JUMP JUMPDEST JUMPDEST POP SWAP2 SWAP1 POP JUMP JUMPDEST PUSH32 0x4E6F7420686F6C64657200000000000000000000000000000000000000000000 PUSH1 0x0 DUP3 ADD MSTORE POP JUMP JUMPDEST PUSH1 0x0 PUSH2 0x3023 PUSH1 0xA DUP4 PUSH2 0x264E JUMP JUMPDEST SWAP2 POP PUSH2 0x302E DUP3 PUSH2 0x2FED JUMP JUMPDEST PUSH1 0x20 DUP3 ADD SWAP1 POP SWAP2 SWAP1 POP JUMP JUMPDEST PUSH1 0x0 PUSH1 0x20 DUP3 ADD SWAP1 POP DUP2 DUP2 SUB PUSH1 0x0 DUP4 ADD MSTORE PUSH2 0x3052 DUP2 PUSH2 0x3016 JUMP JUMPDEST SWAP1 POP SWAP2 SWAP1 POP JUMP JUMPDEST PUSH32 0x5265656E7472616E6379206973206E6F7420616C6C6F77656400000000000000 PUSH1 0x0 DUP3 ADD MSTORE POP JUMP JUMPDEST PUSH1 0x0 PUSH2 0x308F PUSH1 0x19 DUP4 PUSH2 0x264E JUMP JUMPDEST SWAP2 POP PUSH2 0x309A DUP3 PUSH2 0x3059 JUMP JUMPDEST PUSH1 0x20 DUP3 ADD SWAP1 POP SWAP2 SWAP1 POP JUMP JUMPDEST PUSH1 0x0 PUSH1 0x20 DUP3 ADD SWAP1 POP DUP2 DUP2 SUB PUSH1 0x0 DUP4 ADD MSTORE PUSH2 0x30BE DUP2 PUSH2 0x3082 JUMP JUMPDEST SWAP1 POP SWAP2 SWAP1 POP JUMP JUMPDEST PUSH32 0x596F752061726520747279696E6720746F207769746864726177206D6F726520 PUSH1 0x0 DUP3 ADD MSTORE PUSH32 0x7468616E20796F7572207374616B650000000000000000000000000000000000 PUSH1 0x20 DUP3 ADD MSTORE POP JUMP JUMPDEST PUSH1 0x0 PUSH2 0x3121 PUSH1 0x2F DUP4 PUSH2 0x264E JUMP JUMPDEST SWAP2 POP PUSH2 0x312C DUP3 PUSH2 0x30C5 JUMP JUMPDEST PUSH1 0x40 DUP3 ADD SWAP1 POP SWAP2 SWAP1 POP JUMP JUMPDEST PUSH1 0x0 PUSH1 0x20 DUP3 ADD SWAP1 POP DUP2 DUP2 SUB PUSH1 0x0 DUP4 ADD MSTORE PUSH2 0x3150 DUP2 PUSH2 0x3114 JUMP JUMPDEST SWAP1 POP SWAP2 SWAP1 POP JUMP JUMPDEST PUSH1 0x0 PUSH2 0x3162 DUP3 PUSH2 0x25E6 JUMP JUMPDEST SWAP2 POP PUSH2 0x316D DUP4 PUSH2 0x25E6 JUMP JUMPDEST SWAP3 POP DUP3 DUP3 ADD SWAP1 POP DUP1 DUP3 GT ISZERO PUSH2 0x3185 JUMPI PUSH2 0x3184 PUSH2 0x2F2D JUMP JUMPDEST JUMPDEST SWAP3 SWAP2 POP POP JUMP JUMPDEST PUSH1 0x0 PUSH2 0x3196 DUP3 PUSH2 0x25E6 JUMP JUMPDEST SWAP2 POP PUSH2 0x31A1 DUP4 PUSH2 0x25E6 JUMP JUMPDEST SWAP3 POP DUP3 DUP3 MUL PUSH2 0x31AF DUP2 PUSH2 0x25E6 JUMP JUMPDEST SWAP2 POP DUP3 DUP3 DIV DUP5 EQ DUP4 ISZERO OR PUSH2 0x31C6 JUMPI PUSH2 0x31C5 PUSH2 0x2F2D JUMP JUMPDEST JUMPDEST POP SWAP3 SWAP2 POP POP JUMP JUMPDEST PUSH32 0x596F75206172652073656E64696E67207468652077726F6E6720616D6F756E74 PUSH1 0x0 DUP3 ADD MSTORE PUSH32 0x20746F207468697320636F6E7472616374000000000000000000000000000000 PUSH1 0x20 DUP3 ADD MSTORE POP JUMP JUMPDEST PUSH1 0x0 PUSH2 0x3229 PUSH1 0x31 DUP4 PUSH2 0x264E JUMP JUMPDEST SWAP2 POP PUSH2 0x3234 DUP3 PUSH2 0x31CD JUMP JUMPDEST PUSH1 0x40 DUP3 ADD SWAP1 POP SWAP2 SWAP1 POP JUMP JUMPDEST PUSH1 0x0 PUSH1 0x20 DUP3 ADD SWAP1 POP DUP2 DUP2 SUB PUSH1 0x0 DUP4 ADD MSTORE PUSH2 0x3258 DUP2 PUSH2 0x321C JUMP JUMPDEST SWAP1 POP SWAP2 SWAP1 POP JUMP JUMPDEST PUSH32 0x4D617820737570706C7920726561636865640000000000000000000000000000 PUSH1 0x0 DUP3 ADD MSTORE POP JUMP JUMPDEST PUSH1 0x0 PUSH2 0x3295 PUSH1 0x12 DUP4 PUSH2 0x264E JUMP JUMPDEST SWAP2 POP PUSH2 0x32A0 DUP3 PUSH2 0x325F JUMP JUMPDEST PUSH1 0x20 DUP3 ADD SWAP1 POP SWAP2 SWAP1 POP JUMP JUMPDEST PUSH1 0x0 PUSH1 0x20 DUP3 ADD SWAP1 POP DUP2 DUP2 SUB PUSH1 0x0 DUP4 ADD MSTORE PUSH2 0x32C4 DUP2 PUSH2 0x3288 JUMP JUMPDEST SWAP1 POP SWAP2 SWAP1 POP JUMP JUMPDEST PUSH1 0x0 PUSH2 0x32D6 DUP3 PUSH2 0x25E6 JUMP JUMPDEST SWAP2 POP PUSH2 0x32E1 DUP4 PUSH2 0x25E6 JUMP JUMPDEST SWAP3 POP DUP3 DUP3 SUB SWAP1 POP DUP2 DUP2 GT ISZERO PUSH2 0x32F9 JUMPI PUSH2 0x32F8 PUSH2 0x2F2D JUMP JUMPDEST JUMPDEST SWAP3 SWAP2 POP POP JUMP JUMPDEST PUSH32 0x506C656173652070617920746865207265636F6D6D656E646564206665650000 PUSH1 0x0 DUP3 ADD MSTORE POP JUMP JUMPDEST PUSH1 0x0 PUSH2 0x3335 PUSH1 0x1E DUP4 PUSH2 0x264E JUMP JUMPDEST SWAP2 POP PUSH2 0x3340 DUP3 PUSH2 0x32FF JUMP JUMPDEST PUSH1 0x20 DUP3 ADD SWAP1 POP SWAP2 SWAP1 POP JUMP JUMPDEST PUSH1 0x0 PUSH1 0x20 DUP3 ADD SWAP1 POP DUP2 DUP2 SUB PUSH1 0x0 DUP4 ADD MSTORE PUSH2 0x3364 DUP2 PUSH2 0x3328 JUMP JUMPDEST SWAP1 POP SWAP2 SWAP1 POP JUMP JUMPDEST PUSH32 0x4E6F7420612063617368706F696E740000000000000000000000000000000000 PUSH1 0x0 DUP3 ADD MSTORE POP JUMP JUMPDEST PUSH1 0x0 PUSH2 0x33A1 PUSH1 0xF DUP4 PUSH2 0x264E JUMP JUMPDEST SWAP2 POP PUSH2 0x33AC DUP3 PUSH2 0x336B JUMP JUMPDEST PUSH1 0x20 DUP3 ADD SWAP1 POP SWAP2 SWAP1 POP JUMP JUMPDEST PUSH1 0x0 PUSH1 0x20 DUP3 ADD SWAP1 POP DUP2 DUP2 SUB PUSH1 0x0 DUP4 ADD MSTORE PUSH2 0x33D0 DUP2 PUSH2 0x3394 JUMP JUMPDEST SWAP1 POP SWAP2 SWAP1 POP JUMP JUMPDEST PUSH1 0x0 DUP2 SWAP1 POP DUP2 PUSH1 0x0 MSTORE PUSH1 0x20 PUSH1 0x0 KECCAK256 SWAP1 POP SWAP2 SWAP1 POP JUMP JUMPDEST PUSH1 0x0 PUSH1 0x20 PUSH1 0x1F DUP4 ADD DIV SWAP1 POP SWAP2 SWAP1 POP JUMP JUMPDEST PUSH1 0x0 DUP3 DUP3 SHL SWAP1 POP SWAP3 SWAP2 POP POP JUMP JUMPDEST PUSH1 0x0 PUSH1 0x8 DUP4 MUL PUSH2 0x3439 PUSH32 0xFFFFFFFFFFFFFFFFFFFFFFFFFFFFFFFFFFFFFFFFFFFFFFFFFFFFFFFFFFFFFFFF DUP3 PUSH2 0x33FC JUMP JUMPDEST PUSH2 0x3443 DUP7 DUP4 PUSH2 0x33FC JUMP JUMPDEST SWAP6 POP DUP1 NOT DUP5 AND SWAP4 POP DUP1 DUP7 AND DUP5 OR SWAP3 POP POP POP SWAP4 SWAP3 POP POP POP JUMP JUMPDEST PUSH1 0x0 DUP2 SWAP1 POP SWAP2 SWAP1 POP JUMP JUMPDEST PUSH1 0x0 PUSH2 0x3480 PUSH2 0x347B PUSH2 0x3476 DUP5 PUSH2 0x25E6 JUMP JUMPDEST PUSH2 0x345B JUMP JUMPDEST PUSH2 0x25E6 JUMP JUMPDEST SWAP1 POP SWAP2 SWAP1 POP JUMP JUMPDEST PUSH1 0x0 DUP2 SWAP1 POP SWAP2 SWAP1 POP JUMP JUMPDEST PUSH2 0x349A DUP4 PUSH2 0x3465 JUMP JUMPDEST PUSH2 0x34AE PUSH2 0x34A6 DUP3 PUSH2 0x3487 JUMP JUMPDEST DUP5 DUP5 SLOAD PUSH2 0x3409 JUMP JUMPDEST DUP3 SSTORE POP POP POP POP JUMP JUMPDEST PUSH1 0x0 SWAP1 JUMP JUMPDEST PUSH2 0x34C3 PUSH2 0x34B6 JUMP JUMPDEST PUSH2 0x34CE DUP2 DUP5 DUP5 PUSH2 0x3491 JUMP JUMPDEST POP POP POP JUMP JUMPDEST JUMPDEST DUP2 DUP2 LT ISZERO PUSH2 0x34F2 JUMPI PUSH2 0x34E7 PUSH1 0x0 DUP3 PUSH2 0x34BB JUMP JUMPDEST PUSH1 0x1 DUP2 ADD SWAP1 POP PUSH2 0x34D4 JUMP JUMPDEST POP POP JUMP JUMPDEST PUSH1 0x1F DUP3 GT ISZERO PUSH2 0x3537 JUMPI PUSH2 0x3508 DUP2 PUSH2 0x33D7 JUMP JUMPDEST PUSH2 0x3511 DUP5 PUSH2 0x33EC JUMP JUMPDEST DUP2 ADD PUSH1 0x20 DUP6 LT ISZERO PUSH2 0x3520 JUMPI DUP2 SWAP1 POP JUMPDEST PUSH2 0x3534 PUSH2 0x352C DUP6 PUSH2 0x33EC JUMP JUMPDEST DUP4 ADD DUP3 PUSH2 0x34D3 JUMP JUMPDEST POP POP JUMPDEST POP POP POP JUMP JUMPDEST PUSH1 0x0 DUP3 DUP3 SHR SWAP1 POP SWAP3 SWAP2 POP POP JUMP JUMPDEST PUSH1 0x0 PUSH2 0x355A PUSH1 0x0 NOT DUP5 PUSH1 0x8 MUL PUSH2 0x353C JUMP JUMPDEST NOT DUP1 DUP4 AND SWAP2 POP POP SWAP3 SWAP2 POP POP JUMP JUMPDEST PUSH1 0x0 PUSH2 0x3573 DUP4 DUP4 PUSH2 0x3549 JUMP JUMPDEST SWAP2 POP DUP3 PUSH1 0x2 MUL DUP3 OR SWAP1 POP SWAP3 SWAP2 POP POP JUMP JUMPDEST PUSH2 0x358C DUP3 PUSH2 0x2643 JUMP JUMPDEST PUSH8 0xFFFFFFFFFFFFFFFF DUP2 GT ISZERO PUSH2 0x35A5 JUMPI PUSH2 0x35A4 PUSH2 0x28B3 JUMP JUMPDEST JUMPDEST PUSH2 0x35AF DUP3 SLOAD PUSH2 0x2FBC JUMP JUMPDEST PUSH2 0x35BA DUP3 DUP3 DUP6 PUSH2 0x34F6 JUMP JUMPDEST PUSH1 0x0 PUSH1 0x20 SWAP1 POP PUSH1 0x1F DUP4 GT PUSH1 0x1 DUP2 EQ PUSH2 0x35ED JUMPI PUSH1 0x0 DUP5 ISZERO PUSH2 0x35DB JUMPI DUP3 DUP8 ADD MLOAD SWAP1 POP JUMPDEST PUSH2 0x35E5 DUP6 DUP3 PUSH2 0x3567 JUMP JUMPDEST DUP7 SSTORE POP PUSH2 0x364D JUMP JUMPDEST PUSH1 0x1F NOT DUP5 AND PUSH2 0x35FB DUP7 PUSH2 0x33D7 JUMP JUMPDEST PUSH1 0x0 JUMPDEST DUP3 DUP2 LT ISZERO PUSH2 0x3623 JUMPI DUP5 DUP10 ADD MLOAD DUP3 SSTORE PUSH1 0x1 DUP3 ADD SWAP2 POP PUSH1 0x20 DUP6 ADD SWAP5 POP PUSH1 0x20 DUP2 ADD SWAP1 POP PUSH2 0x35FE JUMP JUMPDEST DUP7 DUP4 LT ISZERO PUSH2 0x3640 JUMPI DUP5 DUP10 ADD MLOAD PUSH2 0x363C PUSH1 0x1F DUP10 AND DUP3 PUSH2 0x3549 JUMP JUMPDEST DUP4 SSTORE POP JUMPDEST PUSH1 0x1 PUSH1 0x2 DUP9 MUL ADD DUP9 SSTORE POP POP POP JUMPDEST POP POP POP POP POP POP JUMP JUMPDEST PUSH32 0x4E6F7420656E6F7567682066756E64732073656E740000000000000000000000 PUSH1 0x0 DUP3 ADD MSTORE POP JUMP JUMPDEST PUSH1 0x0 PUSH2 0x368B PUSH1 0x15 DUP4 PUSH2 0x264E JUMP JUMPDEST SWAP2 POP PUSH2 0x3696 DUP3 PUSH2 0x3655 JUMP JUMPDEST PUSH1 0x20 DUP3 ADD SWAP1 POP SWAP2 SWAP1 POP JUMP JUMPDEST PUSH1 0x0 PUSH1 0x20 DUP3 ADD SWAP1 POP DUP2 DUP2 SUB PUSH1 0x0 DUP4 ADD MSTORE PUSH2 0x36BA DUP2 PUSH2 0x367E JUMP JUMPDEST SWAP1 POP SWAP2 SWAP1 POP JUMP JUMPDEST PUSH32 0x45524332303A2064656372656173656420616C6C6F77616E63652062656C6F77 PUSH1 0x0 DUP3 ADD MSTORE PUSH32 0x207A65726F000000000000000000000000000000000000000000000000000000 PUSH1 0x20 DUP3 ADD MSTORE POP JUMP JUMPDEST PUSH1 0x0 PUSH2 0x371D PUSH1 0x25 DUP4 PUSH2 0x264E JUMP JUMPDEST SWAP2 POP PUSH2 0x3728 DUP3 PUSH2 0x36C1 JUMP JUMPDEST PUSH1 0x40 DUP3 ADD SWAP1 POP SWAP2 SWAP1 POP JUMP JUMPDEST PUSH1 0x0 PUSH1 0x20 DUP3 ADD SWAP1 POP DUP2 DUP2 SUB PUSH1 0x0 DUP4 ADD MSTORE PUSH2 0x374C DUP2 PUSH2 0x3710 JUMP JUMPDEST SWAP1 POP SWAP2 SWAP1 POP JUMP JUMPDEST PUSH1 0x0 DUP2 SWAP1 POP SWAP3 SWAP2 POP POP JUMP JUMPDEST POP JUMP JUMPDEST PUSH1 0x0 PUSH2 0x376E PUSH1 0x0 DUP4 PUSH2 0x3753 JUMP JUMPDEST SWAP2 POP PUSH2 0x3779 DUP3 PUSH2 0x375E JUMP JUMPDEST PUSH1 0x0 DUP3 ADD SWAP1 POP SWAP2 SWAP1 POP JUMP JUMPDEST PUSH1 0x0 PUSH2 0x378F DUP3 PUSH2 0x3761 JUMP JUMPDEST SWAP2 POP DUP2 SWAP1 POP SWAP2 SWAP1 POP JUMP JUMPDEST PUSH32 0x4661696C656420746F2073656E64207844616900000000000000000000000000 PUSH1 0x0 DUP3 ADD MSTORE POP JUMP JUMPDEST PUSH1 0x0 PUSH2 0x37CF PUSH1 0x13 DUP4 PUSH2 0x264E JUMP JUMPDEST SWAP2 POP PUSH2 0x37DA DUP3 PUSH2 0x3799 JUMP JUMPDEST PUSH1 0x20 DUP3 ADD SWAP1 POP SWAP2 SWAP1 POP JUMP JUMPDEST PUSH1 0x0 PUSH1 0x20 DUP3 ADD SWAP1 POP DUP2 DUP2 SUB PUSH1 0x0 DUP4 ADD MSTORE PUSH2 0x37FE DUP2 PUSH2 0x37C2 JUMP JUMPDEST SWAP1 POP SWAP2 SWAP1 POP JUMP JUMPDEST PUSH32 0x416C726561647920612063617368706F696E7400000000000000000000000000 PUSH1 0x0 DUP3 ADD MSTORE POP JUMP JUMPDEST PUSH1 0x0 PUSH2 0x383B PUSH1 0x13 DUP4 PUSH2 0x264E JUMP JUMPDEST SWAP2 POP PUSH2 0x3846 DUP3 PUSH2 0x3805 JUMP JUMPDEST PUSH1 0x20 DUP3 ADD SWAP1 POP SWAP2 SWAP1 POP JUMP JUMPDEST PUSH1 0x0 PUSH1 0x20 DUP3 ADD SWAP1 POP DUP2 DUP2 SUB PUSH1 0x0 DUP4 ADD MSTORE PUSH2 0x386A DUP2 PUSH2 0x382E JUMP JUMPDEST SWAP1 POP SWAP2 SWAP1 POP JUMP JUMPDEST PUSH1 0x0 PUSH2 0x387C DUP3 PUSH2 0x25E6 JUMP JUMPDEST SWAP2 POP PUSH32 0xFFFFFFFFFFFFFFFFFFFFFFFFFFFFFFFFFFFFFFFFFFFFFFFFFFFFFFFFFFFFFFFF DUP3 SUB PUSH2 0x38AE JUMPI PUSH2 0x38AD PUSH2 0x2F2D JUMP JUMPDEST JUMPDEST PUSH1 0x1 DUP3 ADD SWAP1 POP SWAP2 SWAP1 POP JUMP JUMPDEST PUSH32 0x45524332303A20617070726F76652066726F6D20746865207A65726F20616464 PUSH1 0x0 DUP3 ADD MSTORE PUSH32 0x7265737300000000000000000000000000000000000000000000000000000000 PUSH1 0x20 DUP3 ADD MSTORE POP JUMP JUMPDEST PUSH1 0x0 PUSH2 0x3915 PUSH1 0x24 DUP4 PUSH2 0x264E JUMP JUMPDEST SWAP2 POP PUSH2 0x3920 DUP3 PUSH2 0x38B9 JUMP JUMPDEST PUSH1 0x40 DUP3 ADD SWAP1 POP SWAP2 SWAP1 POP JUMP JUMPDEST PUSH1 0x0 PUSH1 0x20 DUP3 ADD SWAP1 POP DUP2 DUP2 SUB PUSH1 0x0 DUP4 ADD MSTORE PUSH2 0x3944 DUP2 PUSH2 0x3908 JUMP JUMPDEST SWAP1 POP SWAP2 SWAP1 POP JUMP JUMPDEST PUSH32 0x45524332303A20617070726F766520746F20746865207A65726F206164647265 PUSH1 0x0 DUP3 ADD MSTORE PUSH32 0x7373000000000000000000000000000000000000000000000000000000000000 PUSH1 0x20 DUP3 ADD MSTORE POP JUMP JUMPDEST PUSH1 0x0 PUSH2 0x39A7 PUSH1 0x22 DUP4 PUSH2 0x264E JUMP JUMPDEST SWAP2 POP PUSH2 0x39B2 DUP3 PUSH2 0x394B JUMP JUMPDEST PUSH1 0x40 DUP3 ADD SWAP1 POP SWAP2 SWAP1 POP JUMP JUMPDEST PUSH1 0x0 PUSH1 0x20 DUP3 ADD SWAP1 POP DUP2 DUP2 SUB PUSH1 0x0 DUP4 ADD MSTORE PUSH2 0x39D6 DUP2 PUSH2 0x399A JUMP JUMPDEST SWAP1 POP SWAP2 SWAP1 POP JUMP JUMPDEST PUSH32 0x45524332303A20696E73756666696369656E7420616C6C6F77616E6365000000 PUSH1 0x0 DUP3 ADD MSTORE POP JUMP JUMPDEST PUSH1 0x0 PUSH2 0x3A13 PUSH1 0x1D DUP4 PUSH2 0x264E JUMP JUMPDEST SWAP2 POP PUSH2 0x3A1E DUP3 PUSH2 0x39DD JUMP JUMPDEST PUSH1 0x20 DUP3 ADD SWAP1 POP SWAP2 SWAP1 POP JUMP JUMPDEST PUSH1 0x0 PUSH1 0x20 DUP3 ADD SWAP1 POP DUP2 DUP2 SUB PUSH1 0x0 DUP4 ADD MSTORE PUSH2 0x3A42 DUP2 PUSH2 0x3A06 JUMP JUMPDEST SWAP1 POP SWAP2 SWAP1 POP JUMP JUMPDEST PUSH32 0x45524332303A207472616E736665722066726F6D20746865207A65726F206164 PUSH1 0x0 DUP3 ADD MSTORE PUSH32 0x6472657373000000000000000000000000000000000000000000000000000000 PUSH1 0x20 DUP3 ADD MSTORE POP JUMP JUMPDEST PUSH1 0x0 PUSH2 0x3AA5 PUSH1 0x25 DUP4 PUSH2 0x264E JUMP JUMPDEST SWAP2 POP PUSH2 0x3AB0 DUP3 PUSH2 0x3A49 JUMP JUMPDEST PUSH1 0x40 DUP3 ADD SWAP1 POP SWAP2 SWAP1 POP JUMP JUMPDEST PUSH1 0x0 PUSH1 0x20 DUP3 ADD SWAP1 POP DUP2 DUP2 SUB PUSH1 0x0 DUP4 ADD MSTORE PUSH2 0x3AD4 DUP2 PUSH2 0x3A98 JUMP JUMPDEST SWAP1 POP SWAP2 SWAP1 POP JUMP JUMPDEST PUSH32 0x45524332303A207472616E7366657220746F20746865207A65726F2061646472 PUSH1 0x0 DUP3 ADD MSTORE PUSH32 0x6573730000000000000000000000000000000000000000000000000000000000 PUSH1 0x20 DUP3 ADD MSTORE POP JUMP JUMPDEST PUSH1 0x0 PUSH2 0x3B37 PUSH1 0x23 DUP4 PUSH2 0x264E JUMP JUMPDEST SWAP2 POP PUSH2 0x3B42 DUP3 PUSH2 0x3ADB JUMP JUMPDEST PUSH1 0x40 DUP3 ADD SWAP1 POP SWAP2 SWAP1 POP JUMP JUMPDEST PUSH1 0x0 PUSH1 0x20 DUP3 ADD SWAP1 POP DUP2 DUP2 SUB PUSH1 0x0 DUP4 ADD MSTORE PUSH2 0x3B66 DUP2 PUSH2 0x3B2A JUMP JUMPDEST SWAP1 POP SWAP2 SWAP1 POP JUMP JUMPDEST PUSH32 0x45524332303A207472616E7366657220616D6F756E7420657863656564732062 PUSH1 0x0 DUP3 ADD MSTORE PUSH32 0x616C616E63650000000000000000000000000000000000000000000000000000 PUSH1 0x20 DUP3 ADD MSTORE POP JUMP JUMPDEST PUSH1 0x0 PUSH2 0x3BC9 PUSH1 0x26 DUP4 PUSH2 0x264E JUMP JUMPDEST SWAP2 POP PUSH2 0x3BD4 DUP3 PUSH2 0x3B6D JUMP JUMPDEST PUSH1 0x40 DUP3 ADD SWAP1 POP SWAP2 SWAP1 POP JUMP JUMPDEST PUSH1 0x0 PUSH1 0x20 DUP3 ADD SWAP1 POP DUP2 DUP2 SUB PUSH1 0x0 DUP4 ADD MSTORE PUSH2 0x3BF8 DUP2 PUSH2 0x3BBC JUMP JUMPDEST SWAP1 POP SWAP2 SWAP1 POP JUMP JUMPDEST PUSH32 0x45524332303A206275726E2066726F6D20746865207A65726F20616464726573 PUSH1 0x0 DUP3 ADD MSTORE PUSH32 0x7300000000000000000000000000000000000000000000000000000000000000 PUSH1 0x20 DUP3 ADD MSTORE POP JUMP JUMPDEST PUSH1 0x0 PUSH2 0x3C5B PUSH1 0x21 DUP4 PUSH2 0x264E JUMP JUMPDEST SWAP2 POP PUSH2 0x3C66 DUP3 PUSH2 0x3BFF JUMP JUMPDEST PUSH1 0x40 DUP3 ADD SWAP1 POP SWAP2 SWAP1 POP JUMP JUMPDEST PUSH1 0x0 PUSH1 0x20 DUP3 ADD SWAP1 POP DUP2 DUP2 SUB PUSH1 0x0 DUP4 ADD MSTORE PUSH2 0x3C8A DUP2 PUSH2 0x3C4E JUMP JUMPDEST SWAP1 POP SWAP2 SWAP1 POP JUMP JUMPDEST PUSH32 0x45524332303A206275726E20616D6F756E7420657863656564732062616C616E PUSH1 0x0 DUP3 ADD MSTORE PUSH32 0x6365000000000000000000000000000000000000000000000000000000000000 PUSH1 0x20 DUP3 ADD MSTORE POP JUMP JUMPDEST PUSH1 0x0 PUSH2 0x3CED PUSH1 0x22 DUP4 PUSH2 0x264E JUMP JUMPDEST SWAP2 POP PUSH2 0x3CF8 DUP3 PUSH2 0x3C91 JUMP JUMPDEST PUSH1 0x40 DUP3 ADD SWAP1 POP SWAP2 SWAP1 POP JUMP JUMPDEST PUSH1 0x0 PUSH1 0x20 DUP3 ADD SWAP1 POP DUP2 DUP2 SUB PUSH1 0x0 DUP4 ADD MSTORE PUSH2 0x3D1C DUP2 PUSH2 0x3CE0 JUMP JUMPDEST SWAP1 POP SWAP2 SWAP1 POP JUMP JUMPDEST PUSH32 0x45524332303A206D696E7420746F20746865207A65726F206164647265737300 PUSH1 0x0 DUP3 ADD MSTORE POP JUMP JUMPDEST PUSH1 0x0 PUSH2 0x3D59 PUSH1 0x1F DUP4 PUSH2 0x264E JUMP JUMPDEST SWAP2 POP PUSH2 0x3D64 DUP3 PUSH2 0x3D23 JUMP JUMPDEST PUSH1 0x20 DUP3 ADD SWAP1 POP SWAP2 SWAP1 POP JUMP JUMPDEST PUSH1 0x0 PUSH1 0x20 DUP3 ADD SWAP1 POP DUP2 DUP2 SUB PUSH1 0x0 DUP4 ADD MSTORE PUSH2 0x3D88 DUP2 PUSH2 0x3D4C JUMP JUMPDEST SWAP1 POP SWAP2 SWAP1 POP JUMP INVALID LOG2 PUSH5 0x6970667358 0x22 SLT KECCAK256 SWAP1 DUP12 PUSH31 0x9685786F6981F55A9F5CA6EC8D5A835F5153E244CC22850C1F65FEA97A6473 PUSH16 0x6C634300081100330000000000000000 "},"methodIdentifiers":{"AVAILABLE_TOKENS()":"948e1a1c","CASHPOINT_FEE()":"d49aef61","MAX_SUPPLY()":"32cb6b0c","Owner()":"b4a99a4e","PRICE_PER_TOKEN()":"833b9499","TRANSACTION_COMMISION()":"a74143f9","addCashPoint(string,string,string,string,uint256,uint256,string,uint256)":"cc6dd919","allowance(address,address)":"dd62ed3e","approve(address,uint256)":"095ea7b3","balanceOf(address)":"70a08231","buyTokens(uint256)":"3610724e","cashpoints(address)":"e97567f9","checkAmountToTransfer(uint256)":"dabaddb3","checkIfICanWithdraw(uint256)":"207b885a","count()":"06661abd","decimals()":"313ce567","decreaseAllowance(address,uint256)":"a457c2d7","getCashPoint(address)":"e5d72553","increaseAllowance(address,uint256)":"39509351","keys(uint256)":"0cb6aaf1","name()":"06fdde03","reentrancyLock()":"2446d79f","send(uint256,address)":"785d04f5","setPrice()":"da93d0d1","symbol()":"95d89b41","totalSupply()":"18160ddd","transfer(address,uint256)":"a9059cbb","transferFrom(address,address,uint256)":"23b872dd","transferXDai(address,uint256)":"b78175f9","updateCashPoint(string,string,string,string,uint256,uint256,string,uint256)":"6a905df5","withdraw(uint256)":"2e1a7d4d"}}}}}