{
  "_format": "hh-sol-artifact-1",
  "contractName": "CashPoints",
  "sourceName": "contracts/Cashpoints.sol",
  "abi": [
    {
      "inputs": [],
      "stateMutability": "nonpayable",
      "type": "constructor"
    },
    {
      "anonymous": false,
      "inputs": [
        {
          "indexed": true,
          "internalType": "address",
          "name": "owner",
          "type": "address"
        },
        {
          "indexed": true,
          "internalType": "address",
          "name": "spender",
          "type": "address"
        },
        {
          "indexed": false,
          "internalType": "uint256",
          "name": "value",
          "type": "uint256"
        }
      ],
      "name": "Approval",
      "type": "event"
    },
    {
      "anonymous": false,
      "inputs": [
        {
          "indexed": false,
          "internalType": "address",
          "name": "cashpoint",
          "type": "address"
        }
      ],
      "name": "CreatedCashPoint",
      "type": "event"
    },
    {
      "anonymous": false,
      "inputs": [
        {
          "indexed": false,
          "internalType": "address",
          "name": "",
          "type": "address"
        },
        {
          "indexed": false,
          "internalType": "uint256",
          "name": "",
          "type": "uint256"
        }
      ],
      "name": "Received",
      "type": "event"
    },
    {
      "anonymous": false,
      "inputs": [
        {
          "indexed": true,
          "internalType": "address",
          "name": "from",
          "type": "address"
        },
        {
          "indexed": true,
          "internalType": "address",
          "name": "to",
          "type": "address"
        },
        {
          "indexed": false,
          "internalType": "uint256",
          "name": "value",
          "type": "uint256"
        }
      ],
      "name": "Transfer",
      "type": "event"
    },
    {
      "anonymous": false,
      "inputs": [
        {
          "indexed": false,
          "internalType": "address",
          "name": "cashpoint",
          "type": "address"
        }
      ],
      "name": "UpdatedCashPoint",
      "type": "event"
    },
    {
      "inputs": [],
      "name": "AVAILABLE_TOKENS",
      "outputs": [
        {
          "internalType": "uint256",
          "name": "",
          "type": "uint256"
        }
      ],
      "stateMutability": "view",
      "type": "function"
    },
    {
      "inputs": [],
      "name": "CASHPOINT_FEE",
      "outputs": [
        {
          "internalType": "uint256",
          "name": "",
          "type": "uint256"
        }
      ],
      "stateMutability": "view",
      "type": "function"
    },
    {
      "inputs": [],
      "name": "MAX_SUPPLY",
      "outputs": [
        {
          "internalType": "uint256",
          "name": "",
          "type": "uint256"
        }
      ],
      "stateMutability": "view",
      "type": "function"
    },
    {
      "inputs": [],
      "name": "Owner",
      "outputs": [
        {
          "internalType": "address payable",
          "name": "",
          "type": "address"
        }
      ],
      "stateMutability": "view",
      "type": "function"
    },
    {
      "inputs": [],
      "name": "PRICE_PER_TOKEN",
      "outputs": [
        {
          "internalType": "uint256",
          "name": "",
          "type": "uint256"
        }
      ],
      "stateMutability": "view",
      "type": "function"
    },
    {
      "inputs": [],
      "name": "TRANSACTION_COMMISION",
      "outputs": [
        {
          "internalType": "uint256",
          "name": "",
          "type": "uint256"
        }
      ],
      "stateMutability": "view",
      "type": "function"
    },
    {
      "inputs": [
        {
          "internalType": "string",
          "name": "name",
          "type": "string"
        },
        {
          "internalType": "string",
          "name": "city",
          "type": "string"
        },
        {
          "internalType": "string",
          "name": "phone",
          "type": "string"
        },
        {
          "internalType": "string",
          "name": "currency",
          "type": "string"
        },
        {
          "internalType": "uint256",
          "name": "buy",
          "type": "uint256"
        },
        {
          "internalType": "uint256",
          "name": "sell",
          "type": "uint256"
        },
        {
          "internalType": "string",
          "name": "endtime",
          "type": "string"
        },
        {
          "internalType": "uint256",
          "name": "duration",
          "type": "uint256"
        }
      ],
      "name": "addCashPoint",
      "outputs": [],
      "stateMutability": "payable",
      "type": "function"
    },
    {
      "inputs": [
        {
          "internalType": "address",
          "name": "owner",
          "type": "address"
        },
        {
          "internalType": "address",
          "name": "spender",
          "type": "address"
        }
      ],
      "name": "allowance",
      "outputs": [
        {
          "internalType": "uint256",
          "name": "",
          "type": "uint256"
        }
      ],
      "stateMutability": "view",
      "type": "function"
    },
    {
      "inputs": [
        {
          "internalType": "address",
          "name": "spender",
          "type": "address"
        },
        {
          "internalType": "uint256",
          "name": "amount",
          "type": "uint256"
        }
      ],
      "name": "approve",
      "outputs": [
        {
          "internalType": "bool",
          "name": "",
          "type": "bool"
        }
      ],
      "stateMutability": "nonpayable",
      "type": "function"
    },
    {
      "inputs": [
        {
          "internalType": "address",
          "name": "account",
          "type": "address"
        }
      ],
      "name": "balanceOf",
      "outputs": [
        {
          "internalType": "uint256",
          "name": "",
          "type": "uint256"
        }
      ],
      "stateMutability": "view",
      "type": "function"
    },
    {
      "inputs": [
        {
          "internalType": "uint256",
          "name": "_amount",
          "type": "uint256"
        }
      ],
      "name": "buyTokens",
      "outputs": [],
      "stateMutability": "payable",
      "type": "function"
    },
    {
      "inputs": [
        {
          "internalType": "address",
          "name": "",
          "type": "address"
        }
      ],
      "name": "cashpoints",
      "outputs": [
        {
          "internalType": "string",
          "name": "_name",
          "type": "string"
        },
        {
          "internalType": "string",
          "name": "city",
          "type": "string"
        },
        {
          "internalType": "string",
          "name": "_phoneNumber",
          "type": "string"
        },
        {
          "internalType": "string",
          "name": "_currency",
          "type": "string"
        },
        {
          "internalType": "uint256",
          "name": "_buy",
          "type": "uint256"
        },
        {
          "internalType": "uint256",
          "name": "_sell",
          "type": "uint256"
        },
        {
          "internalType": "string",
          "name": "_endTime",
          "type": "string"
        },
        {
          "internalType": "bool",
          "name": "_isCashPoint",
          "type": "bool"
        }
      ],
      "stateMutability": "view",
      "type": "function"
    },
    {
      "inputs": [
        {
          "internalType": "uint256",
          "name": "_tokens",
          "type": "uint256"
        }
      ],
      "name": "checkAmountToTransfer",
      "outputs": [
        {
          "internalType": "uint256",
          "name": "",
          "type": "uint256"
        }
      ],
      "stateMutability": "view",
      "type": "function"
    },
    {
      "inputs": [
        {
          "internalType": "uint256",
          "name": "_tokens",
          "type": "uint256"
        }
      ],
      "name": "checkIfICanWithdraw",
      "outputs": [
        {
          "internalType": "bool",
          "name": "",
          "type": "bool"
        }
      ],
      "stateMutability": "view",
      "type": "function"
    },
    {
      "inputs": [],
      "name": "count",
      "outputs": [
        {
          "internalType": "uint256",
          "name": "",
          "type": "uint256"
        }
      ],
      "stateMutability": "view",
      "type": "function"
    },
    {
      "inputs": [],
      "name": "decimals",
      "outputs": [
        {
          "internalType": "uint8",
          "name": "",
          "type": "uint8"
        }
      ],
      "stateMutability": "view",
      "type": "function"
    },
    {
      "inputs": [
        {
          "internalType": "address",
          "name": "spender",
          "type": "address"
        },
        {
          "internalType": "uint256",
          "name": "subtractedValue",
          "type": "uint256"
        }
      ],
      "name": "decreaseAllowance",
      "outputs": [
        {
          "internalType": "bool",
          "name": "",
          "type": "bool"
        }
      ],
      "stateMutability": "nonpayable",
      "type": "function"
    },
    {
      "inputs": [
        {
          "internalType": "address",
          "name": "cp",
          "type": "address"
        }
      ],
      "name": "getCashPoint",
      "outputs": [
        {
          "components": [
            {
              "internalType": "string",
              "name": "_name",
              "type": "string"
            },
            {
              "internalType": "string",
              "name": "city",
              "type": "string"
            },
            {
              "internalType": "string",
              "name": "_phoneNumber",
              "type": "string"
            },
            {
              "internalType": "string",
              "name": "_currency",
              "type": "string"
            },
            {
              "internalType": "uint256",
              "name": "_buy",
              "type": "uint256"
            },
            {
              "internalType": "uint256",
              "name": "_sell",
              "type": "uint256"
            },
            {
              "internalType": "string",
              "name": "_endTime",
              "type": "string"
            },
            {
              "internalType": "bool",
              "name": "_isCashPoint",
              "type": "bool"
            }
          ],
          "internalType": "struct CashPoints.CashPoint",
          "name": "cashpoint",
          "type": "tuple"
        }
      ],
      "stateMutability": "view",
      "type": "function"
    },
    {
      "inputs": [
        {
          "internalType": "address",
          "name": "spender",
          "type": "address"
        },
        {
          "internalType": "uint256",
          "name": "addedValue",
          "type": "uint256"
        }
      ],
      "name": "increaseAllowance",
      "outputs": [
        {
          "internalType": "bool",
          "name": "",
          "type": "bool"
        }
      ],
      "stateMutability": "nonpayable",
      "type": "function"
    },
    {
      "inputs": [
        {
          "internalType": "uint256",
          "name": "",
          "type": "uint256"
        }
      ],
      "name": "keys",
      "outputs": [
        {
          "internalType": "address",
          "name": "",
          "type": "address"
        }
      ],
      "stateMutability": "view",
      "type": "function"
    },
    {
      "inputs": [],
      "name": "name",
      "outputs": [
        {
          "internalType": "string",
          "name": "",
          "type": "string"
        }
      ],
      "stateMutability": "view",
      "type": "function"
    },
    {
      "inputs": [],
      "name": "reentrancyLock",
      "outputs": [
        {
          "internalType": "bool",
          "name": "",
          "type": "bool"
        }
      ],
      "stateMutability": "view",
      "type": "function"
    },
    {
      "inputs": [
        {
          "internalType": "uint256",
          "name": "_amount",
          "type": "uint256"
        },
        {
          "internalType": "address",
          "name": "_to",
          "type": "address"
        }
      ],
      "name": "send",
      "outputs": [],
      "stateMutability": "payable",
      "type": "function"
    },
    {
      "inputs": [],
      "name": "setPrice",
      "outputs": [],
      "stateMutability": "nonpayable",
      "type": "function"
    },
    {
      "inputs": [],
      "name": "symbol",
      "outputs": [
        {
          "internalType": "string",
          "name": "",
          "type": "string"
        }
      ],
      "stateMutability": "view",
      "type": "function"
    },
    {
      "inputs": [],
      "name": "totalSupply",
      "outputs": [
        {
          "internalType": "uint256",
          "name": "",
          "type": "uint256"
        }
      ],
      "stateMutability": "view",
      "type": "function"
    },
    {
      "inputs": [
        {
          "internalType": "address",
          "name": "to",
          "type": "address"
        },
        {
          "internalType": "uint256",
          "name": "amount",
          "type": "uint256"
        }
      ],
      "name": "transfer",
      "outputs": [
        {
          "internalType": "bool",
          "name": "",
          "type": "bool"
        }
      ],
      "stateMutability": "nonpayable",
      "type": "function"
    },
    {
      "inputs": [
        {
          "internalType": "address",
          "name": "from",
          "type": "address"
        },
        {
          "internalType": "address",
          "name": "to",
          "type": "address"
        },
        {
          "internalType": "uint256",
          "name": "amount",
          "type": "uint256"
        }
      ],
      "name": "transferFrom",
      "outputs": [
        {
          "internalType": "bool",
          "name": "",
          "type": "bool"
        }
      ],
      "stateMutability": "nonpayable",
      "type": "function"
    },
    {
      "inputs": [
        {
          "internalType": "address payable",
          "name": "_to",
          "type": "address"
        },
        {
          "internalType": "uint256",
          "name": "_amount",
          "type": "uint256"
        }
      ],
      "name": "transferXDai",
      "outputs": [],
      "stateMutability": "nonpayable",
      "type": "function"
    },
    {
      "inputs": [
        {
          "internalType": "string",
          "name": "name",
          "type": "string"
        },
        {
          "internalType": "string",
          "name": "city",
          "type": "string"
        },
        {
          "internalType": "string",
          "name": "phone",
          "type": "string"
        },
        {
          "internalType": "string",
          "name": "currency",
          "type": "string"
        },
        {
          "internalType": "uint256",
          "name": "buy",
          "type": "uint256"
        },
        {
          "internalType": "uint256",
          "name": "sell",
          "type": "uint256"
        },
        {
          "internalType": "string",
          "name": "endtime",
          "type": "string"
        },
        {
          "internalType": "uint256",
          "name": "duration",
          "type": "uint256"
        }
      ],
      "name": "updateCashPoint",
      "outputs": [],
      "stateMutability": "payable",
      "type": "function"
    },
    {
      "inputs": [
        {
          "internalType": "uint256",
          "name": "_tokens",
          "type": "uint256"
        }
      ],
      "name": "withdraw",
      "outputs": [],
      "stateMutability": "nonpayable",
      "type": "function"
    },
    {
      "stateMutability": "payable",
      "type": "receive"
    }
  ],
  "bytecode": "0x60806040526706f05b59d3b20000600a556001600b556000600c556000600d60006101000a81548160ff0219169083151502179055503480156200004257600080fd5b506040518060400160405280600881526020017f4368696b77616d610000000000000000000000000000000000000000000000008152506040518060400160405280600381526020017f43484b00000000000000000000000000000000000000000000000000000000008152508160039081620000c091906200054d565b508060049081620000d291906200054d565b50505033600760006101000a81548173ffffffffffffffffffffffffffffffffffffffff021916908373ffffffffffffffffffffffffffffffffffffffff1602179055506200014c600760009054906101000a900473ffffffffffffffffffffffffffffffffffffffff166127106200015c60201b60201c565b62015f906008819055506200074f565b600073ffffffffffffffffffffffffffffffffffffffff168273ffffffffffffffffffffffffffffffffffffffff1603620001ce576040517f08c379a0000000000000000000000000000000000000000000000000000000008152600401620001c59062000695565b60405180910390fd5b620001e260008383620002c960201b60201c565b8060026000828254620001f69190620006e6565b92505081905550806000808473ffffffffffffffffffffffffffffffffffffffff1673ffffffffffffffffffffffffffffffffffffffff168152602001908152602001600020600082825401925050819055508173ffffffffffffffffffffffffffffffffffffffff16600073ffffffffffffffffffffffffffffffffffffffff167fddf252ad1be2c89b69c2b068fc378daa952ba7f163c4a11628f55a4df523b3ef83604051620002a9919062000732565b60405180910390a3620002c560008383620002ce60201b60201c565b5050565b505050565b505050565b600081519050919050565b7f4e487b7100000000000000000000000000000000000000000000000000000000600052604160045260246000fd5b7f4e487b7100000000000000000000000000000000000000000000000000000000600052602260045260246000fd5b600060028204905060018216806200035557607f821691505b6020821081036200036b576200036a6200030d565b5b50919050565b60008190508160005260206000209050919050565b60006020601f8301049050919050565b600082821b905092915050565b600060088302620003d57fffffffffffffffffffffffffffffffffffffffffffffffffffffffffffffffff8262000396565b620003e1868362000396565b95508019841693508086168417925050509392505050565b6000819050919050565b6000819050919050565b60006200042e620004286200042284620003f9565b62000403565b620003f9565b9050919050565b6000819050919050565b6200044a836200040d565b62000462620004598262000435565b848454620003a3565b825550505050565b600090565b620004796200046a565b620004868184846200043f565b505050565b5b81811015620004ae57620004a26000826200046f565b6001810190506200048c565b5050565b601f821115620004fd57620004c78162000371565b620004d28462000386565b81016020851015620004e2578190505b620004fa620004f18562000386565b8301826200048b565b50505b505050565b600082821c905092915050565b6000620005226000198460080262000502565b1980831691505092915050565b60006200053d83836200050f565b9150826002028217905092915050565b6200055882620002d3565b67ffffffffffffffff811115620005745762000573620002de565b5b6200058082546200033c565b6200058d828285620004b2565b600060209050601f831160018114620005c55760008415620005b0578287015190505b620005bc85826200052f565b8655506200062c565b601f198416620005d58662000371565b60005b82811015620005ff57848901518255600182019150602085019450602081019050620005d8565b868310156200061f57848901516200061b601f8916826200050f565b8355505b6001600288020188555050505b505050505050565b600082825260208201905092915050565b7f45524332303a206d696e7420746f20746865207a65726f206164647265737300600082015250565b60006200067d601f8362000634565b91506200068a8262000645565b602082019050919050565b60006020820190508181036000830152620006b0816200066e565b9050919050565b7f4e487b7100000000000000000000000000000000000000000000000000000000600052601160045260246000fd5b6000620006f382620003f9565b91506200070083620003f9565b92508282019050808211156200071b576200071a620006b7565b5b92915050565b6200072c81620003f9565b82525050565b600060208201905062000749600083018462000721565b92915050565b613dc5806200075f6000396000f3fe6080604052600436106101dc5760003560e01c8063785d04f511610102578063b78175f911610095578063dabaddb311610064578063dabaddb3146106ee578063dd62ed3e1461072b578063e5d7255314610768578063e97567f9146107a557610224565b8063b78175f914610667578063cc6dd91914610690578063d49aef61146106ac578063da93d0d1146106d757610224565b8063a457c2d7116100d1578063a457c2d714610597578063a74143f9146105d4578063a9059cbb146105ff578063b4a99a4e1461063c57610224565b8063785d04f5146104fa578063833b949914610516578063948e1a1c1461054157806395d89b411461056c57610224565b80632446d79f1161017a5780633610724e116101495780633610724e1461044857806339509351146104645780636a905df5146104a157806370a08231146104bd57610224565b80632446d79f1461039e5780632e1a7d4d146103c9578063313ce567146103f257806332cb6b0c1461041d57610224565b80630cb6aaf1116101b65780630cb6aaf1146102bc57806318160ddd146102f9578063207b885a1461032457806323b872dd1461036157610224565b806306661abd1461022957806306fdde0314610254578063095ea7b31461027f57610224565b36610224576101e96107e9565b7f88a5966d370b9919b20f3e2c13ff65706f196a4e32cc2c12bf57088f88525874333460405161021a9291906125ff565b60405180910390a1005b600080fd5b34801561023557600080fd5b5061023e610847565b60405161024b9190612628565b60405180910390f35b34801561026057600080fd5b5061026961084d565b60405161027691906126d3565b60405180910390f35b34801561028b57600080fd5b506102a660048036038101906102a19190612761565b6108df565b6040516102b391906127bc565b60405180910390f35b3480156102c857600080fd5b506102e360048036038101906102de91906127d7565b610902565b6040516102f09190612804565b60405180910390f35b34801561030557600080fd5b5061030e610935565b60405161031b9190612628565b60405180910390f35b34801561033057600080fd5b5061034b600480360381019061034691906127d7565b61093f565b60405161035891906127bc565b60405180910390f35b34801561036d57600080fd5b506103886004803603810190610383919061281f565b610954565b60405161039591906127bc565b60405180910390f35b3480156103aa57600080fd5b506103b3610983565b6040516103c091906127bc565b60405180910390f35b3480156103d557600080fd5b506103f060048036038101906103eb91906127d7565b610996565b005b3480156103fe57600080fd5b50610407610b32565b604051610414919061288e565b60405180910390f35b34801561042957600080fd5b50610432610b3b565b60405161043f9190612628565b60405180910390f35b610462600480360381019061045d91906127d7565b610b42565b005b34801561047057600080fd5b5061048b60048036038101906104869190612761565b610c9d565b60405161049891906127bc565b60405180910390f35b6104bb60048036038101906104b691906129de565b610cd4565b005b3480156104c957600080fd5b506104e460048036038101906104df9190612b20565b610fa8565b6040516104f19190612628565b60405180910390f35b610514600480360381019061050f9190612b4d565b610ff0565b005b34801561052257600080fd5b5061052b6110ff565b6040516105389190612628565b60405180910390f35b34801561054d57600080fd5b50610556611105565b6040516105639190612628565b60405180910390f35b34801561057857600080fd5b5061058161110b565b60405161058e91906126d3565b60405180910390f35b3480156105a357600080fd5b506105be60048036038101906105b99190612761565b61119d565b6040516105cb91906127bc565b60405180910390f35b3480156105e057600080fd5b506105e9611214565b6040516105f69190612628565b60405180910390f35b34801561060b57600080fd5b5061062660048036038101906106219190612761565b61121a565b60405161063391906127bc565b60405180910390f35b34801561064857600080fd5b5061065161123d565b60405161065e9190612bae565b60405180910390f35b34801561067357600080fd5b5061068e60048036038101906106899190612bf5565b611263565b005b6106aa60048036038101906106a591906129de565b611314565b005b3480156106b857600080fd5b506106c1611655565b6040516106ce9190612628565b60405180910390f35b3480156106e357600080fd5b506106ec6107e9565b005b3480156106fa57600080fd5b50610715600480360381019061071091906127d7565b61165b565b6040516107229190612628565b60405180910390f35b34801561073757600080fd5b50610752600480360381019061074d9190612c35565b611677565b60405161075f9190612628565b60405180910390f35b34801561077457600080fd5b5061078f600480360381019061078a9190612b20565b6116fe565b60405161079c9190612da9565b60405180910390f35b3480156107b157600080fd5b506107cc60048036038101906107c79190612b20565b611a61565b6040516107e0989796959493929190612dcb565b60405180910390f35b6000471161082c576040517f08c379a000000000000000000000000000000000000000000000000000000000815260040161082390612ede565b60405180910390fd5b610834610935565b4761083f9190612f5c565b600981905550565b600c5481565b60606003805461085c90612fbc565b80601f016020809104026020016040519081016040528092919081815260200182805461088890612fbc565b80156108d55780601f106108aa576101008083540402835291602001916108d5565b820191906000526020600020905b8154815290600101906020018083116108b857829003601f168201915b5050505050905090565b6000806108ea611d5e565b90506108f7818585611d66565b600191505092915050565b60066020528060005260406000206000915054906101000a900473ffffffffffffffffffffffffffffffffffffffff1681565b6000600254905090565b60008161094b33610fa8565b10159050919050565b60008061095f611d5e565b905061096c858285611f2f565b610977858585611fbb565b60019150509392505050565b600d60009054906101000a900460ff1681565b60006109a133610fa8565b116109e1576040517f08c379a00000000000000000000000000000000000000000000000000000000081526004016109d890613039565b60405180910390fd5b600d60009054906101000a900460ff1615610a31576040517f08c379a0000000000000000000000000000000000000000000000000000000008152600401610a28906130a5565b60405180910390fd5b6001600d60006101000a81548160ff021916908315150217905550610a546107e9565b60004711610a97576040517f08c379a0000000000000000000000000000000000000000000000000000000008152600401610a8e90612ede565b60405180910390fd5b610aa08161093f565b610adf576040517f08c379a0000000000000000000000000000000000000000000000000000000008152600401610ad690613137565b60405180910390fd5b610ae93382612231565b8060086000828254610afb9190613157565b92505081905550610b1433610b0f8361165b565b611263565b6000600d60006101000a81548160ff02191690831515021790555050565b60006012905090565b620186a081565b600d60009054906101000a900460ff1615610b92576040517f08c379a0000000000000000000000000000000000000000000000000000000008152600401610b89906130a5565b60405180910390fd5b6001600d60006101000a81548160ff0219169083151502179055503460095482610bbc919061318b565b14610bfc576040517f08c379a0000000000000000000000000000000000000000000000000000000008152600401610bf39061323f565b60405180910390fd5b620186a081610c09610935565b610c139190613157565b1115610c54576040517f08c379a0000000000000000000000000000000000000000000000000000000008152600401610c4b906132ab565b60405180910390fd5b610c5e33826123fe565b610c666107e9565b8060086000828254610c7891906132cb565b925050819055506000600d60006101000a81548160ff02191690831515021790555050565b600080610ca8611d5e565b9050610cc9818585610cba8589611677565b610cc49190613157565b611d66565b600191505092915050565b600d60009054906101000a900460ff1615610d24576040517f08c379a0000000000000000000000000000000000000000000000000000000008152600401610d1b906130a5565b60405180910390fd5b6001600d60006101000a81548160ff0219169083151502179055506000600a5482610d4f919061318b565b9050803414610d93576040517f08c379a0000000000000000000000000000000000000000000000000000000008152600401610d8a9061334b565b60405180910390fd5b600560003373ffffffffffffffffffffffffffffffffffffffff1673ffffffffffffffffffffffffffffffffffffffff16815260200190815260200160002060070160009054906101000a900460ff16610e22576040517f08c379a0000000000000000000000000000000000000000000000000000000008152600401610e19906133b7565b60405180910390fd5b6040518061010001604052808a815260200189815260200188815260200187815260200186815260200185815260200184815260200160011515815250600560003373ffffffffffffffffffffffffffffffffffffffff1673ffffffffffffffffffffffffffffffffffffffff1681526020019081526020016000206000820151816000019081610eb39190613583565b506020820151816001019081610ec99190613583565b506040820151816002019081610edf9190613583565b506060820151816003019081610ef59190613583565b506080820151816004015560a0820151816005015560c0820151816006019081610f1f9190613583565b5060e08201518160070160006101000a81548160ff021916908315150217905550905050610f4b6107e9565b7faa9f6ecd6a994e8b7abb6b3f3a42756c6c483a3abc40d774db0e7d564ecf895833604051610f7a9190612804565b60405180910390a1506000600d60006101000a81548160ff0219169083151502179055505050505050505050565b60008060008373ffffffffffffffffffffffffffffffffffffffff1673ffffffffffffffffffffffffffffffffffffffff168152602001908152602001600020549050919050565b600d60009054906101000a900460ff1615611040576040517f08c379a0000000000000000000000000000000000000000000000000000000008152600401611037906130a5565b60405180910390fd5b6001600d60006101000a81548160ff0219169083151502179055506000826064600b5461106d9190612f5c565b611077919061318b565b9050600083826110879190613157565b9050803410156110cc576040517f08c379a00000000000000000000000000000000000000000000000000000000081526004016110c3906136a1565b60405180910390fd5b6110d68385611263565b6110de6107e9565b50506000600d60006101000a81548160ff0219169083151502179055505050565b60095481565b60085481565b60606004805461111a90612fbc565b80601f016020809104026020016040519081016040528092919081815260200182805461114690612fbc565b80156111935780601f1061116857610100808354040283529160200191611193565b820191906000526020600020905b81548152906001019060200180831161117657829003601f168201915b5050505050905090565b6000806111a8611d5e565b905060006111b68286611677565b9050838110156111fb576040517f08c379a00000000000000000000000000000000000000000000000000000000081526004016111f290613733565b60405180910390fd5b6112088286868403611d66565b60019250505092915050565b600b5481565b600080611225611d5e565b9050611232818585611fbb565b600191505092915050565b600760009054906101000a900473ffffffffffffffffffffffffffffffffffffffff1681565b60008273ffffffffffffffffffffffffffffffffffffffff168260405161128990613784565b60006040518083038185875af1925050503d80600081146112c6576040519150601f19603f3d011682016040523d82523d6000602084013e6112cb565b606091505b505090508061130f576040517f08c379a0000000000000000000000000000000000000000000000000000000008152600401611306906137e5565b60405180910390fd5b505050565b600d60009054906101000a900460ff1615611364576040517f08c379a000000000000000000000000000000000000000000000000000000000815260040161135b906130a5565b60405180910390fd5b6001600d60006101000a81548160ff0219169083151502179055506000600a548261138f919061318b565b90508034146113d3576040517f08c379a00000000000000000000000000000000000000000000000000000000081526004016113ca9061334b565b60405180910390fd5b600560003373ffffffffffffffffffffffffffffffffffffffff1673ffffffffffffffffffffffffffffffffffffffff16815260200190815260200160002060070160009054906101000a900460ff1615611463576040517f08c379a000000000000000000000000000000000000000000000000000000000815260040161145a90613851565b60405180910390fd5b6040518061010001604052808a815260200189815260200188815260200187815260200186815260200185815260200184815260200160011515815250600560003373ffffffffffffffffffffffffffffffffffffffff1673ffffffffffffffffffffffffffffffffffffffff16815260200190815260200160002060008201518160000190816114f49190613583565b50602082015181600101908161150a9190613583565b5060408201518160020190816115209190613583565b5060608201518160030190816115369190613583565b506080820151816004015560a0820151816005015560c08201518160060190816115609190613583565b5060e08201518160070160006101000a81548160ff021916908315150217905550905050600c600081548092919061159790613871565b91905055503360066000600c54815260200190815260200160002060006101000a81548173ffffffffffffffffffffffffffffffffffffffff021916908373ffffffffffffffffffffffffffffffffffffffff1602179055506115f86107e9565b7f5b73fdb55c6d540b14745a3fd5938bc6f31fefb134291d87585fb561def1395b336040516116279190612804565b60405180910390a1506000600d60006101000a81548160ff0219169083151502179055505050505050505050565b600a5481565b6000806009548361166c919061318b565b905080915050919050565b6000600160008473ffffffffffffffffffffffffffffffffffffffff1673ffffffffffffffffffffffffffffffffffffffff16815260200190815260200160002060008373ffffffffffffffffffffffffffffffffffffffff1673ffffffffffffffffffffffffffffffffffffffff16815260200190815260200160002054905092915050565b61170661255e565b600560008373ffffffffffffffffffffffffffffffffffffffff1673ffffffffffffffffffffffffffffffffffffffff1681526020019081526020016000206040518061010001604052908160008201805461176190612fbc565b80601f016020809104026020016040519081016040528092919081815260200182805461178d90612fbc565b80156117da5780601f106117af576101008083540402835291602001916117da565b820191906000526020600020905b8154815290600101906020018083116117bd57829003601f168201915b505050505081526020016001820180546117f390612fbc565b80601f016020809104026020016040519081016040528092919081815260200182805461181f90612fbc565b801561186c5780601f106118415761010080835404028352916020019161186c565b820191906000526020600020905b81548152906001019060200180831161184f57829003601f168201915b5050505050815260200160028201805461188590612fbc565b80601f01602080910402602001604051908101604052809291908181526020018280546118b190612fbc565b80156118fe5780601f106118d3576101008083540402835291602001916118fe565b820191906000526020600020905b8154815290600101906020018083116118e157829003601f168201915b5050505050815260200160038201805461191790612fbc565b80601f016020809104026020016040519081016040528092919081815260200182805461194390612fbc565b80156119905780601f1061196557610100808354040283529160200191611990565b820191906000526020600020905b81548152906001019060200180831161197357829003601f168201915b5050505050815260200160048201548152602001600582015481526020016006820180546119bd90612fbc565b80601f01602080910402602001604051908101604052809291908181526020018280546119e990612fbc565b8015611a365780601f10611a0b57610100808354040283529160200191611a36565b820191906000526020600020905b815481529060010190602001808311611a1957829003601f168201915b505050505081526020016007820160009054906101000a900460ff1615151515815250509050919050565b6005602052806000526040600020600091509050806000018054611a8490612fbc565b80601f0160208091040260200160405190810160405280929190818152602001828054611ab090612fbc565b8015611afd5780601f10611ad257610100808354040283529160200191611afd565b820191906000526020600020905b815481529060010190602001808311611ae057829003601f168201915b505050505090806001018054611b1290612fbc565b80601f0160208091040260200160405190810160405280929190818152602001828054611b3e90612fbc565b8015611b8b5780601f10611b6057610100808354040283529160200191611b8b565b820191906000526020600020905b815481529060010190602001808311611b6e57829003601f168201915b505050505090806002018054611ba090612fbc565b80601f0160208091040260200160405190810160405280929190818152602001828054611bcc90612fbc565b8015611c195780601f10611bee57610100808354040283529160200191611c19565b820191906000526020600020905b815481529060010190602001808311611bfc57829003601f168201915b505050505090806003018054611c2e90612fbc565b80601f0160208091040260200160405190810160405280929190818152602001828054611c5a90612fbc565b8015611ca75780601f10611c7c57610100808354040283529160200191611ca7565b820191906000526020600020905b815481529060010190602001808311611c8a57829003601f168201915b505050505090806004015490806005015490806006018054611cc890612fbc565b80601f0160208091040260200160405190810160405280929190818152602001828054611cf490612fbc565b8015611d415780601f10611d1657610100808354040283529160200191611d41565b820191906000526020600020905b815481529060010190602001808311611d2457829003601f168201915b5050505050908060070160009054906101000a900460ff16905088565b600033905090565b600073ffffffffffffffffffffffffffffffffffffffff168373ffffffffffffffffffffffffffffffffffffffff1603611dd5576040517f08c379a0000000000000000000000000000000000000000000000000000000008152600401611dcc9061392b565b60405180910390fd5b600073ffffffffffffffffffffffffffffffffffffffff168273ffffffffffffffffffffffffffffffffffffffff1603611e44576040517f08c379a0000000000000000000000000000000000000000000000000000000008152600401611e3b906139bd565b60405180910390fd5b80600160008573ffffffffffffffffffffffffffffffffffffffff1673ffffffffffffffffffffffffffffffffffffffff16815260200190815260200160002060008473ffffffffffffffffffffffffffffffffffffffff1673ffffffffffffffffffffffffffffffffffffffff168152602001908152602001600020819055508173ffffffffffffffffffffffffffffffffffffffff168373ffffffffffffffffffffffffffffffffffffffff167f8c5be1e5ebec7d5bd14f71427d1e84f3dd0314c0f7b2291e5b200ac8c7c3b92583604051611f229190612628565b60405180910390a3505050565b6000611f3b8484611677565b90507fffffffffffffffffffffffffffffffffffffffffffffffffffffffffffffffff8114611fb55781811015611fa7576040517f08c379a0000000000000000000000000000000000000000000000000000000008152600401611f9e90613a29565b60405180910390fd5b611fb48484848403611d66565b5b50505050565b600073ffffffffffffffffffffffffffffffffffffffff168373ffffffffffffffffffffffffffffffffffffffff160361202a576040517f08c379a000000000000000000000000000000000000000000000000000000000815260040161202190613abb565b60405180910390fd5b600073ffffffffffffffffffffffffffffffffffffffff168273ffffffffffffffffffffffffffffffffffffffff1603612099576040517f08c379a000000000000000000000000000000000000000000000000000000000815260040161209090613b4d565b60405180910390fd5b6120a4838383612554565b60008060008573ffffffffffffffffffffffffffffffffffffffff1673ffffffffffffffffffffffffffffffffffffffff1681526020019081526020016000205490508181101561212a576040517f08c379a000000000000000000000000000000000000000000000000000000000815260040161212190613bdf565b60405180910390fd5b8181036000808673ffffffffffffffffffffffffffffffffffffffff1673ffffffffffffffffffffffffffffffffffffffff16815260200190815260200160002081905550816000808573ffffffffffffffffffffffffffffffffffffffff1673ffffffffffffffffffffffffffffffffffffffff168152602001908152602001600020600082825401925050819055508273ffffffffffffffffffffffffffffffffffffffff168473ffffffffffffffffffffffffffffffffffffffff167fddf252ad1be2c89b69c2b068fc378daa952ba7f163c4a11628f55a4df523b3ef846040516122189190612628565b60405180910390a361222b848484612559565b50505050565b600073ffffffffffffffffffffffffffffffffffffffff168273ffffffffffffffffffffffffffffffffffffffff16036122a0576040517f08c379a000000000000000000000000000000000000000000000000000000000815260040161229790613c71565b60405180910390fd5b6122ac82600083612554565b60008060008473ffffffffffffffffffffffffffffffffffffffff1673ffffffffffffffffffffffffffffffffffffffff16815260200190815260200160002054905081811015612332576040517f08c379a000000000000000000000000000000000000000000000000000000000815260040161232990613d03565b60405180910390fd5b8181036000808573ffffffffffffffffffffffffffffffffffffffff1673ffffffffffffffffffffffffffffffffffffffff1681526020019081526020016000208190555081600260008282540392505081905550600073ffffffffffffffffffffffffffffffffffffffff168373ffffffffffffffffffffffffffffffffffffffff167fddf252ad1be2c89b69c2b068fc378daa952ba7f163c4a11628f55a4df523b3ef846040516123e59190612628565b60405180910390a36123f983600084612559565b505050565b600073ffffffffffffffffffffffffffffffffffffffff168273ffffffffffffffffffffffffffffffffffffffff160361246d576040517f08c379a000000000000000000000000000000000000000000000000000000000815260040161246490613d6f565b60405180910390fd5b61247960008383612554565b806002600082825461248b9190613157565b92505081905550806000808473ffffffffffffffffffffffffffffffffffffffff1673ffffffffffffffffffffffffffffffffffffffff168152602001908152602001600020600082825401925050819055508173ffffffffffffffffffffffffffffffffffffffff16600073ffffffffffffffffffffffffffffffffffffffff167fddf252ad1be2c89b69c2b068fc378daa952ba7f163c4a11628f55a4df523b3ef8360405161253c9190612628565b60405180910390a361255060008383612559565b5050565b505050565b505050565b604051806101000160405280606081526020016060815260200160608152602001606081526020016000815260200160008152602001606081526020016000151581525090565b600073ffffffffffffffffffffffffffffffffffffffff82169050919050565b60006125d0826125a5565b9050919050565b6125e0816125c5565b82525050565b6000819050919050565b6125f9816125e6565b82525050565b600060408201905061261460008301856125d7565b61262160208301846125f0565b9392505050565b600060208201905061263d60008301846125f0565b92915050565b600081519050919050565b600082825260208201905092915050565b60005b8381101561267d578082015181840152602081019050612662565b60008484015250505050565b6000601f19601f8301169050919050565b60006126a582612643565b6126af818561264e565b93506126bf81856020860161265f565b6126c881612689565b840191505092915050565b600060208201905081810360008301526126ed818461269a565b905092915050565b6000604051905090565b600080fd5b600080fd5b612712816125c5565b811461271d57600080fd5b50565b60008135905061272f81612709565b92915050565b61273e816125e6565b811461274957600080fd5b50565b60008135905061275b81612735565b92915050565b60008060408385031215612778576127776126ff565b5b600061278685828601612720565b92505060206127978582860161274c565b9150509250929050565b60008115159050919050565b6127b6816127a1565b82525050565b60006020820190506127d160008301846127ad565b92915050565b6000602082840312156127ed576127ec6126ff565b5b60006127fb8482850161274c565b91505092915050565b600060208201905061281960008301846125d7565b92915050565b600080600060608486031215612838576128376126ff565b5b600061284686828701612720565b935050602061285786828701612720565b92505060406128688682870161274c565b9150509250925092565b600060ff82169050919050565b61288881612872565b82525050565b60006020820190506128a3600083018461287f565b92915050565b600080fd5b600080fd5b7f4e487b7100000000000000000000000000000000000000000000000000000000600052604160045260246000fd5b6128eb82612689565b810181811067ffffffffffffffff8211171561290a576129096128b3565b5b80604052505050565b600061291d6126f5565b905061292982826128e2565b919050565b600067ffffffffffffffff821115612949576129486128b3565b5b61295282612689565b9050602081019050919050565b82818337600083830152505050565b600061298161297c8461292e565b612913565b90508281526020810184848401111561299d5761299c6128ae565b5b6129a884828561295f565b509392505050565b600082601f8301126129c5576129c46128a9565b5b81356129d584826020860161296e565b91505092915050565b600080600080600080600080610100898b0312156129ff576129fe6126ff565b5b600089013567ffffffffffffffff811115612a1d57612a1c612704565b5b612a298b828c016129b0565b985050602089013567ffffffffffffffff811115612a4a57612a49612704565b5b612a568b828c016129b0565b975050604089013567ffffffffffffffff811115612a7757612a76612704565b5b612a838b828c016129b0565b965050606089013567ffffffffffffffff811115612aa457612aa3612704565b5b612ab08b828c016129b0565b9550506080612ac18b828c0161274c565b94505060a0612ad28b828c0161274c565b93505060c089013567ffffffffffffffff811115612af357612af2612704565b5b612aff8b828c016129b0565b92505060e0612b108b828c0161274c565b9150509295985092959890939650565b600060208284031215612b3657612b356126ff565b5b6000612b4484828501612720565b91505092915050565b60008060408385031215612b6457612b636126ff565b5b6000612b728582860161274c565b9250506020612b8385828601612720565b9150509250929050565b6000612b98826125a5565b9050919050565b612ba881612b8d565b82525050565b6000602082019050612bc36000830184612b9f565b92915050565b612bd281612b8d565b8114612bdd57600080fd5b50565b600081359050612bef81612bc9565b92915050565b60008060408385031215612c0c57612c0b6126ff565b5b6000612c1a85828601612be0565b9250506020612c2b8582860161274c565b9150509250929050565b60008060408385031215612c4c57612c4b6126ff565b5b6000612c5a85828601612720565b9250506020612c6b85828601612720565b9150509250929050565b600082825260208201905092915050565b6000612c9182612643565b612c9b8185612c75565b9350612cab81856020860161265f565b612cb481612689565b840191505092915050565b612cc8816125e6565b82525050565b612cd7816127a1565b82525050565b6000610100830160008301518482036000860152612cfb8282612c86565b91505060208301518482036020860152612d158282612c86565b91505060408301518482036040860152612d2f8282612c86565b91505060608301518482036060860152612d498282612c86565b9150506080830151612d5e6080860182612cbf565b5060a0830151612d7160a0860182612cbf565b5060c083015184820360c0860152612d898282612c86565b91505060e0830151612d9e60e0860182612cce565b508091505092915050565b60006020820190508181036000830152612dc38184612cdd565b905092915050565b6000610100820190508181036000830152612de6818b61269a565b90508181036020830152612dfa818a61269a565b90508181036040830152612e0e818961269a565b90508181036060830152612e22818861269a565b9050612e3160808301876125f0565b612e3e60a08301866125f0565b81810360c0830152612e50818561269a565b9050612e5f60e08301846127ad565b9998505050505050505050565b7f5468657265206973206e6f2076616c756520696e207468697320636f6e74726160008201527f6374000000000000000000000000000000000000000000000000000000000000602082015250565b6000612ec860228361264e565b9150612ed382612e6c565b604082019050919050565b60006020820190508181036000830152612ef781612ebb565b9050919050565b7f4e487b7100000000000000000000000000000000000000000000000000000000600052601260045260246000fd5b7f4e487b7100000000000000000000000000000000000000000000000000000000600052601160045260246000fd5b6000612f67826125e6565b9150612f72836125e6565b925082612f8257612f81612efe565b5b828204905092915050565b7f4e487b7100000000000000000000000000000000000000000000000000000000600052602260045260246000fd5b60006002820490506001821680612fd457607f821691505b602082108103612fe757612fe6612f8d565b5b50919050565b7f4e6f7420686f6c64657200000000000000000000000000000000000000000000600082015250565b6000613023600a8361264e565b915061302e82612fed565b602082019050919050565b6000602082019050818103600083015261305281613016565b9050919050565b7f5265656e7472616e6379206973206e6f7420616c6c6f77656400000000000000600082015250565b600061308f60198361264e565b915061309a82613059565b602082019050919050565b600060208201905081810360008301526130be81613082565b9050919050565b7f596f752061726520747279696e6720746f207769746864726177206d6f72652060008201527f7468616e20796f7572207374616b650000000000000000000000000000000000602082015250565b6000613121602f8361264e565b915061312c826130c5565b604082019050919050565b6000602082019050818103600083015261315081613114565b9050919050565b6000613162826125e6565b915061316d836125e6565b925082820190508082111561318557613184612f2d565b5b92915050565b6000613196826125e6565b91506131a1836125e6565b92508282026131af816125e6565b915082820484148315176131c6576131c5612f2d565b5b5092915050565b7f596f75206172652073656e64696e67207468652077726f6e6720616d6f756e7460008201527f20746f207468697320636f6e7472616374000000000000000000000000000000602082015250565b600061322960318361264e565b9150613234826131cd565b604082019050919050565b600060208201905081810360008301526132588161321c565b9050919050565b7f4d617820737570706c7920726561636865640000000000000000000000000000600082015250565b600061329560128361264e565b91506132a08261325f565b602082019050919050565b600060208201905081810360008301526132c481613288565b9050919050565b60006132d6826125e6565b91506132e1836125e6565b92508282039050818111156132f9576132f8612f2d565b5b92915050565b7f506c656173652070617920746865207265636f6d6d656e646564206665650000600082015250565b6000613335601e8361264e565b9150613340826132ff565b602082019050919050565b6000602082019050818103600083015261336481613328565b9050919050565b7f4e6f7420612063617368706f696e740000000000000000000000000000000000600082015250565b60006133a1600f8361264e565b91506133ac8261336b565b602082019050919050565b600060208201905081810360008301526133d081613394565b9050919050565b60008190508160005260206000209050919050565b60006020601f8301049050919050565b600082821b905092915050565b6000600883026134397fffffffffffffffffffffffffffffffffffffffffffffffffffffffffffffffff826133fc565b61344386836133fc565b95508019841693508086168417925050509392505050565b6000819050919050565b600061348061347b613476846125e6565b61345b565b6125e6565b9050919050565b6000819050919050565b61349a83613465565b6134ae6134a682613487565b848454613409565b825550505050565b600090565b6134c36134b6565b6134ce818484613491565b505050565b5b818110156134f2576134e76000826134bb565b6001810190506134d4565b5050565b601f82111561353757613508816133d7565b613511846133ec565b81016020851015613520578190505b61353461352c856133ec565b8301826134d3565b50505b505050565b600082821c905092915050565b600061355a6000198460080261353c565b1980831691505092915050565b60006135738383613549565b9150826002028217905092915050565b61358c82612643565b67ffffffffffffffff8111156135a5576135a46128b3565b5b6135af8254612fbc565b6135ba8282856134f6565b600060209050601f8311600181146135ed57600084156135db578287015190505b6135e58582613567565b86555061364d565b601f1984166135fb866133d7565b60005b82811015613623578489015182556001820191506020850194506020810190506135fe565b86831015613640578489015161363c601f891682613549565b8355505b6001600288020188555050505b505050505050565b7f4e6f7420656e6f7567682066756e64732073656e740000000000000000000000600082015250565b600061368b60158361264e565b915061369682613655565b602082019050919050565b600060208201905081810360008301526136ba8161367e565b9050919050565b7f45524332303a2064656372656173656420616c6c6f77616e63652062656c6f7760008201527f207a65726f000000000000000000000000000000000000000000000000000000602082015250565b600061371d60258361264e565b9150613728826136c1565b604082019050919050565b6000602082019050818103600083015261374c81613710565b9050919050565b600081905092915050565b50565b600061376e600083613753565b91506137798261375e565b600082019050919050565b600061378f82613761565b9150819050919050565b7f4661696c656420746f2073656e64207844616900000000000000000000000000600082015250565b60006137cf60138361264e565b91506137da82613799565b602082019050919050565b600060208201905081810360008301526137fe816137c2565b9050919050565b7f416c726561647920612063617368706f696e7400000000000000000000000000600082015250565b600061383b60138361264e565b915061384682613805565b602082019050919050565b6000602082019050818103600083015261386a8161382e565b9050919050565b600061387c826125e6565b91507fffffffffffffffffffffffffffffffffffffffffffffffffffffffffffffffff82036138ae576138ad612f2d565b5b600182019050919050565b7f45524332303a20617070726f76652066726f6d20746865207a65726f2061646460008201527f7265737300000000000000000000000000000000000000000000000000000000602082015250565b600061391560248361264e565b9150613920826138b9565b604082019050919050565b6000602082019050818103600083015261394481613908565b9050919050565b7f45524332303a20617070726f766520746f20746865207a65726f20616464726560008201527f7373000000000000000000000000000000000000000000000000000000000000602082015250565b60006139a760228361264e565b91506139b28261394b565b604082019050919050565b600060208201905081810360008301526139d68161399a565b9050919050565b7f45524332303a20696e73756666696369656e7420616c6c6f77616e6365000000600082015250565b6000613a13601d8361264e565b9150613a1e826139dd565b602082019050919050565b60006020820190508181036000830152613a4281613a06565b9050919050565b7f45524332303a207472616e736665722066726f6d20746865207a65726f20616460008201527f6472657373000000000000000000000000000000000000000000000000000000602082015250565b6000613aa560258361264e565b9150613ab082613a49565b604082019050919050565b60006020820190508181036000830152613ad481613a98565b9050919050565b7f45524332303a207472616e7366657220746f20746865207a65726f206164647260008201527f6573730000000000000000000000000000000000000000000000000000000000602082015250565b6000613b3760238361264e565b9150613b4282613adb565b604082019050919050565b60006020820190508181036000830152613b6681613b2a565b9050919050565b7f45524332303a207472616e7366657220616d6f756e742065786365656473206260008201527f616c616e63650000000000000000000000000000000000000000000000000000602082015250565b6000613bc960268361264e565b9150613bd482613b6d565b604082019050919050565b60006020820190508181036000830152613bf881613bbc565b9050919050565b7f45524332303a206275726e2066726f6d20746865207a65726f2061646472657360008201527f7300000000000000000000000000000000000000000000000000000000000000602082015250565b6000613c5b60218361264e565b9150613c6682613bff565b604082019050919050565b60006020820190508181036000830152613c8a81613c4e565b9050919050565b7f45524332303a206275726e20616d6f756e7420657863656564732062616c616e60008201527f6365000000000000000000000000000000000000000000000000000000000000602082015250565b6000613ced60228361264e565b9150613cf882613c91565b604082019050919050565b60006020820190508181036000830152613d1c81613ce0565b9050919050565b7f45524332303a206d696e7420746f20746865207a65726f206164647265737300600082015250565b6000613d59601f8361264e565b9150613d6482613d23565b602082019050919050565b60006020820190508181036000830152613d8881613d4c565b905091905056fea2646970667358221220908b7e9685786f6981f55a9f5ca6ec8d5a835f5153e244cc22850c1f65fea97a64736f6c63430008110033",
  "linkReferences": {},
  "deployedLinkReferences": {}
}