{
  "_format": "hh-sol-artifact-1",
  "contractName": "CashPoints",
  "sourceName": "contracts/Cashpoints.sol",
  "abi": [
    {
      "inputs": [],
      "stateMutability": "nonpayable",
      "type": "constructor"
    },
    {
      "anonymous": false,
      "inputs": [
        {
          "indexed": true,
          "internalType": "address",
          "name": "owner",
          "type": "address"
        },
        {
          "indexed": true,
          "internalType": "address",
          "name": "spender",
          "type": "address"
        },
        {
          "indexed": false,
          "internalType": "uint256",
          "name": "value",
          "type": "uint256"
        }
      ],
      "name": "Approval",
      "type": "event"
    },
    {
      "anonymous": false,
      "inputs": [
        {
          "indexed": false,
          "internalType": "address",
          "name": "cashpoint",
          "type": "address"
        }
      ],
      "name": "CreatedCashPoint",
      "type": "event"
    },
    {
      "anonymous": false,
      "inputs": [
        {
          "indexed": false,
          "internalType": "address",
          "name": "",
          "type": "address"
        },
        {
          "indexed": false,
          "internalType": "uint256",
          "name": "",
          "type": "uint256"
        }
      ],
      "name": "Received",
      "type": "event"
    },
    {
      "anonymous": false,
      "inputs": [
        {
          "indexed": true,
          "internalType": "address",
          "name": "from",
          "type": "address"
        },
        {
          "indexed": true,
          "internalType": "address",
          "name": "to",
          "type": "address"
        },
        {
          "indexed": false,
          "internalType": "uint256",
          "name": "value",
          "type": "uint256"
        }
      ],
      "name": "Transfer",
      "type": "event"
    },
    {
      "anonymous": false,
      "inputs": [
        {
          "indexed": false,
          "internalType": "address",
          "name": "cashpoint",
          "type": "address"
        }
      ],
      "name": "UpdatedCashPoint",
      "type": "event"
    },
    {
      "inputs": [],
      "name": "AVAILABLE_TOKENS",
      "outputs": [
        {
          "internalType": "uint256",
          "name": "",
          "type": "uint256"
        }
      ],
      "stateMutability": "view",
      "type": "function"
    },
    {
      "inputs": [],
      "name": "CASHPOINT_FEE",
      "outputs": [
        {
          "internalType": "uint256",
          "name": "",
          "type": "uint256"
        }
      ],
      "stateMutability": "view",
      "type": "function"
    },
    {
      "inputs": [],
      "name": "MAX_SUPPLY",
      "outputs": [
        {
          "internalType": "uint256",
          "name": "",
          "type": "uint256"
        }
      ],
      "stateMutability": "view",
      "type": "function"
    },
    {
      "inputs": [],
      "name": "Owner",
      "outputs": [
        {
          "internalType": "address payable",
          "name": "",
          "type": "address"
        }
      ],
      "stateMutability": "view",
      "type": "function"
    },
    {
      "inputs": [],
      "name": "PRICE_PER_TOKEN",
      "outputs": [
        {
          "internalType": "uint256",
          "name": "",
          "type": "uint256"
        }
      ],
      "stateMutability": "view",
      "type": "function"
    },
    {
      "inputs": [],
      "name": "TRANSACTION_COMMISION",
      "outputs": [
        {
          "internalType": "uint256",
          "name": "",
          "type": "uint256"
        }
      ],
      "stateMutability": "view",
      "type": "function"
    },
    {
      "inputs": [
        {
          "internalType": "string",
          "name": "name",
          "type": "string"
        },
        {
          "internalType": "string",
          "name": "city",
          "type": "string"
        },
        {
          "internalType": "string",
          "name": "phone",
          "type": "string"
        },
        {
          "internalType": "string",
          "name": "currency",
          "type": "string"
        },
        {
          "internalType": "uint256",
          "name": "buy",
          "type": "uint256"
        },
        {
          "internalType": "uint256",
          "name": "sell",
          "type": "uint256"
        },
        {
          "internalType": "string",
          "name": "endtime",
          "type": "string"
        },
        {
          "internalType": "uint256",
          "name": "duration",
          "type": "uint256"
        }
      ],
      "name": "addCashPoint",
      "outputs": [],
      "stateMutability": "payable",
      "type": "function"
    },
    {
      "inputs": [
        {
          "internalType": "address",
          "name": "owner",
          "type": "address"
        },
        {
          "internalType": "address",
          "name": "spender",
          "type": "address"
        }
      ],
      "name": "allowance",
      "outputs": [
        {
          "internalType": "uint256",
          "name": "",
          "type": "uint256"
        }
      ],
      "stateMutability": "view",
      "type": "function"
    },
    {
      "inputs": [
        {
          "internalType": "address",
          "name": "spender",
          "type": "address"
        },
        {
          "internalType": "uint256",
          "name": "amount",
          "type": "uint256"
        }
      ],
      "name": "approve",
      "outputs": [
        {
          "internalType": "bool",
          "name": "",
          "type": "bool"
        }
      ],
      "stateMutability": "nonpayable",
      "type": "function"
    },
    {
      "inputs": [
        {
          "internalType": "address",
          "name": "account",
          "type": "address"
        }
      ],
      "name": "balanceOf",
      "outputs": [
        {
          "internalType": "uint256",
          "name": "",
          "type": "uint256"
        }
      ],
      "stateMutability": "view",
      "type": "function"
    },
    {
      "inputs": [
        {
          "internalType": "uint256",
          "name": "_amount",
          "type": "uint256"
        }
      ],
      "name": "buyTokens",
      "outputs": [],
      "stateMutability": "payable",
      "type": "function"
    },
    {
      "inputs": [
        {
          "internalType": "address",
          "name": "",
          "type": "address"
        }
      ],
      "name": "cashpoints",
      "outputs": [
        {
          "internalType": "string",
          "name": "_name",
          "type": "string"
        },
        {
          "internalType": "string",
          "name": "city",
          "type": "string"
        },
        {
          "internalType": "string",
          "name": "_phoneNumber",
          "type": "string"
        },
        {
          "internalType": "string",
          "name": "_currency",
          "type": "string"
        },
        {
          "internalType": "uint256",
          "name": "_buy",
          "type": "uint256"
        },
        {
          "internalType": "uint256",
          "name": "_sell",
          "type": "uint256"
        },
        {
          "internalType": "string",
          "name": "_endTime",
          "type": "string"
        },
        {
          "internalType": "bool",
          "name": "_isCashPoint",
          "type": "bool"
        }
      ],
      "stateMutability": "view",
      "type": "function"
    },
    {
      "inputs": [
        {
          "internalType": "uint256",
          "name": "_tokens",
          "type": "uint256"
        }
      ],
      "name": "checkAmountToTransfer",
      "outputs": [
        {
          "internalType": "uint256",
          "name": "",
          "type": "uint256"
        }
      ],
      "stateMutability": "view",
      "type": "function"
    },
    {
      "inputs": [
        {
          "internalType": "uint256",
          "name": "_tokens",
          "type": "uint256"
        }
      ],
      "name": "checkIfICanWithdraw",
      "outputs": [
        {
          "internalType": "bool",
          "name": "",
          "type": "bool"
        }
      ],
      "stateMutability": "view",
      "type": "function"
    },
    {
      "inputs": [],
      "name": "count",
      "outputs": [
        {
          "internalType": "uint256",
          "name": "",
          "type": "uint256"
        }
      ],
      "stateMutability": "view",
      "type": "function"
    },
    {
      "inputs": [],
      "name": "decimals",
      "outputs": [
        {
          "internalType": "uint8",
          "name": "",
          "type": "uint8"
        }
      ],
      "stateMutability": "view",
      "type": "function"
    },
    {
      "inputs": [
        {
          "internalType": "address",
          "name": "spender",
          "type": "address"
        },
        {
          "internalType": "uint256",
          "name": "subtractedValue",
          "type": "uint256"
        }
      ],
      "name": "decreaseAllowance",
      "outputs": [
        {
          "internalType": "bool",
          "name": "",
          "type": "bool"
        }
      ],
      "stateMutability": "nonpayable",
      "type": "function"
    },
    {
      "inputs": [
        {
          "internalType": "address",
          "name": "cp",
          "type": "address"
        }
      ],
      "name": "getCashPoint",
      "outputs": [
        {
          "components": [
            {
              "internalType": "string",
              "name": "_name",
              "type": "string"
            },
            {
              "internalType": "string",
              "name": "city",
              "type": "string"
            },
            {
              "internalType": "string",
              "name": "_phoneNumber",
              "type": "string"
            },
            {
              "internalType": "string",
              "name": "_currency",
              "type": "string"
            },
            {
              "internalType": "uint256",
              "name": "_buy",
              "type": "uint256"
            },
            {
              "internalType": "uint256",
              "name": "_sell",
              "type": "uint256"
            },
            {
              "internalType": "string",
              "name": "_endTime",
              "type": "string"
            },
            {
              "internalType": "bool",
              "name": "_isCashPoint",
              "type": "bool"
            }
          ],
          "internalType": "struct CashPoints.CashPoint",
          "name": "cashpoint",
          "type": "tuple"
        }
      ],
      "stateMutability": "view",
      "type": "function"
    },
    {
      "inputs": [
        {
          "internalType": "address",
          "name": "spender",
          "type": "address"
        },
        {
          "internalType": "uint256",
          "name": "addedValue",
          "type": "uint256"
        }
      ],
      "name": "increaseAllowance",
      "outputs": [
        {
          "internalType": "bool",
          "name": "",
          "type": "bool"
        }
      ],
      "stateMutability": "nonpayable",
      "type": "function"
    },
    {
      "inputs": [
        {
          "internalType": "uint256",
          "name": "",
          "type": "uint256"
        }
      ],
      "name": "keys",
      "outputs": [
        {
          "internalType": "address",
          "name": "",
          "type": "address"
        }
      ],
      "stateMutability": "view",
      "type": "function"
    },
    {
      "inputs": [],
      "name": "lock",
      "outputs": [
        {
          "internalType": "bool",
          "name": "",
          "type": "bool"
        }
      ],
      "stateMutability": "view",
      "type": "function"
    },
    {
      "inputs": [],
      "name": "name",
      "outputs": [
        {
          "internalType": "string",
          "name": "",
          "type": "string"
        }
      ],
      "stateMutability": "view",
      "type": "function"
    },
    {
      "inputs": [
        {
          "internalType": "uint256",
          "name": "_amount",
          "type": "uint256"
        },
        {
          "internalType": "address",
          "name": "_to",
          "type": "address"
        }
      ],
      "name": "send",
      "outputs": [],
      "stateMutability": "payable",
      "type": "function"
    },
    {
      "inputs": [],
      "name": "setPrice",
      "outputs": [],
      "stateMutability": "nonpayable",
      "type": "function"
    },
    {
      "inputs": [],
      "name": "symbol",
      "outputs": [
        {
          "internalType": "string",
          "name": "",
          "type": "string"
        }
      ],
      "stateMutability": "view",
      "type": "function"
    },
    {
      "inputs": [],
      "name": "totalSupply",
      "outputs": [
        {
          "internalType": "uint256",
          "name": "",
          "type": "uint256"
        }
      ],
      "stateMutability": "view",
      "type": "function"
    },
    {
      "inputs": [
        {
          "internalType": "address",
          "name": "to",
          "type": "address"
        },
        {
          "internalType": "uint256",
          "name": "amount",
          "type": "uint256"
        }
      ],
      "name": "transfer",
      "outputs": [
        {
          "internalType": "bool",
          "name": "",
          "type": "bool"
        }
      ],
      "stateMutability": "nonpayable",
      "type": "function"
    },
    {
      "inputs": [
        {
          "internalType": "address",
          "name": "from",
          "type": "address"
        },
        {
          "internalType": "address",
          "name": "to",
          "type": "address"
        },
        {
          "internalType": "uint256",
          "name": "amount",
          "type": "uint256"
        }
      ],
      "name": "transferFrom",
      "outputs": [
        {
          "internalType": "bool",
          "name": "",
          "type": "bool"
        }
      ],
      "stateMutability": "nonpayable",
      "type": "function"
    },
    {
      "inputs": [
        {
          "internalType": "address payable",
          "name": "_to",
          "type": "address"
        },
        {
          "internalType": "uint256",
          "name": "_amount",
          "type": "uint256"
        }
      ],
      "name": "transferXDai",
      "outputs": [],
      "stateMutability": "nonpayable",
      "type": "function"
    },
    {
      "inputs": [
        {
          "internalType": "string",
          "name": "name",
          "type": "string"
        },
        {
          "internalType": "string",
          "name": "city",
          "type": "string"
        },
        {
          "internalType": "string",
          "name": "phone",
          "type": "string"
        },
        {
          "internalType": "string",
          "name": "currency",
          "type": "string"
        },
        {
          "internalType": "uint256",
          "name": "buy",
          "type": "uint256"
        },
        {
          "internalType": "uint256",
          "name": "sell",
          "type": "uint256"
        },
        {
          "internalType": "string",
          "name": "endtime",
          "type": "string"
        },
        {
          "internalType": "uint256",
          "name": "duration",
          "type": "uint256"
        }
      ],
      "name": "updateCashPoint",
      "outputs": [],
      "stateMutability": "payable",
      "type": "function"
    },
    {
      "inputs": [
        {
          "internalType": "uint256",
          "name": "_tokens",
          "type": "uint256"
        }
      ],
      "name": "withdraw",
      "outputs": [],
      "stateMutability": "nonpayable",
      "type": "function"
    },
    {
      "stateMutability": "payable",
      "type": "receive"
    }
  ],
  "bytecode": "0x60806040526706f05b59d3b20000600a556001600b556000600c556000600d60006101000a81548160ff0219169083151502179055503480156200004257600080fd5b506040518060400160405280600881526020017f4368696b77616d610000000000000000000000000000000000000000000000008152506040518060400160405280600381526020017f43484b00000000000000000000000000000000000000000000000000000000008152508160039081620000c0919062000558565b508060049081620000d2919062000558565b50505033600760006101000a81548173ffffffffffffffffffffffffffffffffffffffff021916908373ffffffffffffffffffffffffffffffffffffffff1602179055506200014c600760009054906101000a900473ffffffffffffffffffffffffffffffffffffffff166127106200015c60201b60201c565b62015f906008819055506200075a565b600073ffffffffffffffffffffffffffffffffffffffff168273ffffffffffffffffffffffffffffffffffffffff1603620001ce576040517f08c379a0000000000000000000000000000000000000000000000000000000008152600401620001c590620006a0565b60405180910390fd5b620001e260008383620002d460201b60201c565b8060026000828254620001f69190620006f1565b92505081905550806000808473ffffffffffffffffffffffffffffffffffffffff1673ffffffffffffffffffffffffffffffffffffffff16815260200190815260200160002060008282546200024d9190620006f1565b925050819055508173ffffffffffffffffffffffffffffffffffffffff16600073ffffffffffffffffffffffffffffffffffffffff167fddf252ad1be2c89b69c2b068fc378daa952ba7f163c4a11628f55a4df523b3ef83604051620002b491906200073d565b60405180910390a3620002d060008383620002d960201b60201c565b5050565b505050565b505050565b600081519050919050565b7f4e487b7100000000000000000000000000000000000000000000000000000000600052604160045260246000fd5b7f4e487b7100000000000000000000000000000000000000000000000000000000600052602260045260246000fd5b600060028204905060018216806200036057607f821691505b60208210810362000376576200037562000318565b5b50919050565b60008190508160005260206000209050919050565b60006020601f8301049050919050565b600082821b905092915050565b600060088302620003e07fffffffffffffffffffffffffffffffffffffffffffffffffffffffffffffffff82620003a1565b620003ec8683620003a1565b95508019841693508086168417925050509392505050565b6000819050919050565b6000819050919050565b600062000439620004336200042d8462000404565b6200040e565b62000404565b9050919050565b6000819050919050565b620004558362000418565b6200046d620004648262000440565b848454620003ae565b825550505050565b600090565b6200048462000475565b620004918184846200044a565b505050565b5b81811015620004b957620004ad6000826200047a565b60018101905062000497565b5050565b601f8211156200050857620004d2816200037c565b620004dd8462000391565b81016020851015620004ed578190505b62000505620004fc8562000391565b83018262000496565b50505b505050565b600082821c905092915050565b60006200052d600019846008026200050d565b1980831691505092915050565b60006200054883836200051a565b9150826002028217905092915050565b6200056382620002de565b67ffffffffffffffff8111156200057f576200057e620002e9565b5b6200058b825462000347565b62000598828285620004bd565b600060209050601f831160018114620005d05760008415620005bb578287015190505b620005c785826200053a565b86555062000637565b601f198416620005e0866200037c565b60005b828110156200060a57848901518255600182019150602085019450602081019050620005e3565b868310156200062a578489015162000626601f8916826200051a565b8355505b6001600288020188555050505b505050505050565b600082825260208201905092915050565b7f45524332303a206d696e7420746f20746865207a65726f206164647265737300600082015250565b600062000688601f836200063f565b9150620006958262000650565b602082019050919050565b60006020820190508181036000830152620006bb8162000679565b9050919050565b7f4e487b7100000000000000000000000000000000000000000000000000000000600052601160045260246000fd5b6000620006fe8262000404565b91506200070b8362000404565b9250828201905080821115620007265762000725620006c2565b5b92915050565b620007378162000404565b82525050565b60006020820190506200075460008301846200072c565b92915050565b613bc8806200076a6000396000f3fe6080604052600436106101dc5760003560e01c8063833b949911610102578063cc6dd91911610095578063dd62ed3e11610064578063dd62ed3e14610700578063e5d725531461073d578063e97567f91461077a578063f83d08ba146107be57610224565b8063cc6dd91914610665578063d49aef6114610681578063da93d0d1146106ac578063dabaddb3146106c357610224565b8063a74143f9116100d1578063a74143f9146105a9578063a9059cbb146105d4578063b4a99a4e14610611578063b78175f91461063c57610224565b8063833b9499146104eb578063948e1a1c1461051657806395d89b4114610541578063a457c2d71461056c57610224565b80632e1a7d4d1161017a578063395093511161014957806339509351146104395780636a905df51461047657806370a0823114610492578063785d04f5146104cf57610224565b80632e1a7d4d1461039e578063313ce567146103c757806332cb6b0c146103f25780633610724e1461041d57610224565b80630cb6aaf1116101b65780630cb6aaf1146102bc57806318160ddd146102f9578063207b885a1461032457806323b872dd1461036157610224565b806306661abd1461022957806306fdde0314610254578063095ea7b31461027f57610224565b36610224576101e96107e9565b7f88a5966d370b9919b20f3e2c13ff65706f196a4e32cc2c12bf57088f88525874333460405161021a929190612402565b60405180910390a1005b600080fd5b34801561023557600080fd5b5061023e610847565b60405161024b919061242b565b60405180910390f35b34801561026057600080fd5b5061026961084d565b60405161027691906124d6565b60405180910390f35b34801561028b57600080fd5b506102a660048036038101906102a19190612564565b6108df565b6040516102b391906125bf565b60405180910390f35b3480156102c857600080fd5b506102e360048036038101906102de91906125da565b610902565b6040516102f09190612607565b60405180910390f35b34801561030557600080fd5b5061030e610935565b60405161031b919061242b565b60405180910390f35b34801561033057600080fd5b5061034b600480360381019061034691906125da565b61093f565b60405161035891906125bf565b60405180910390f35b34801561036d57600080fd5b5061038860048036038101906103839190612622565b610954565b60405161039591906125bf565b60405180910390f35b3480156103aa57600080fd5b506103c560048036038101906103c091906125da565b610983565b005b3480156103d357600080fd5b506103dc610a99565b6040516103e99190612691565b60405180910390f35b3480156103fe57600080fd5b50610407610aa2565b604051610414919061242b565b60405180910390f35b610437600480360381019061043291906125da565b610aa9565b005b34801561044557600080fd5b50610460600480360381019061045b9190612564565b610c04565b60405161046d91906125bf565b60405180910390f35b610490600480360381019061048b91906127e1565b610c3b565b005b34801561049e57600080fd5b506104b960048036038101906104b49190612923565b610e89565b6040516104c6919061242b565b60405180910390f35b6104e960048036038101906104e49190612950565b610ed1565b005b3480156104f757600080fd5b50610500610f5a565b60405161050d919061242b565b60405180910390f35b34801561052257600080fd5b5061052b610f60565b604051610538919061242b565b60405180910390f35b34801561054d57600080fd5b50610556610f66565b60405161056391906124d6565b60405180910390f35b34801561057857600080fd5b50610593600480360381019061058e9190612564565b610ff8565b6040516105a091906125bf565b60405180910390f35b3480156105b557600080fd5b506105be61106f565b6040516105cb919061242b565b60405180910390f35b3480156105e057600080fd5b506105fb60048036038101906105f69190612564565b611075565b60405161060891906125bf565b60405180910390f35b34801561061d57600080fd5b50610626611098565b60405161063391906129b1565b60405180910390f35b34801561064857600080fd5b50610663600480360381019061065e91906129f8565b6110be565b005b61067f600480360381019061067a91906127e1565b61116f565b005b34801561068d57600080fd5b5061069661142a565b6040516106a3919061242b565b60405180910390f35b3480156106b857600080fd5b506106c16107e9565b005b3480156106cf57600080fd5b506106ea60048036038101906106e591906125da565b611430565b6040516106f7919061242b565b60405180910390f35b34801561070c57600080fd5b5061072760048036038101906107229190612a38565b61144c565b604051610734919061242b565b60405180910390f35b34801561074957600080fd5b50610764600480360381019061075f9190612923565b6114d3565b6040516107719190612bac565b60405180910390f35b34801561078657600080fd5b506107a1600480360381019061079c9190612923565b611836565b6040516107b5989796959493929190612bce565b60405180910390f35b3480156107ca57600080fd5b506107d3611b33565b6040516107e091906125bf565b60405180910390f35b6000471161082c576040517f08c379a000000000000000000000000000000000000000000000000000000000815260040161082390612ce1565b60405180910390fd5b610834610935565b4761083f9190612d5f565b600981905550565b600c5481565b60606003805461085c90612dbf565b80601f016020809104026020016040519081016040528092919081815260200182805461088890612dbf565b80156108d55780601f106108aa576101008083540402835291602001916108d5565b820191906000526020600020905b8154815290600101906020018083116108b857829003601f168201915b5050505050905090565b6000806108ea611b46565b90506108f7818585611b4e565b600191505092915050565b60066020528060005260406000206000915054906101000a900473ffffffffffffffffffffffffffffffffffffffff1681565b6000600254905090565b60008161094b33610e89565b10159050919050565b60008061095f611b46565b905061096c858285611d17565b610977858585611da3565b60019150509392505050565b600061098e33610e89565b116109ce576040517f08c379a00000000000000000000000000000000000000000000000000000000081526004016109c590612e3c565b60405180910390fd5b6109d66107e9565b60004711610a19576040517f08c379a0000000000000000000000000000000000000000000000000000000008152600401610a1090612ce1565b60405180910390fd5b610a228161093f565b610a61576040517f08c379a0000000000000000000000000000000000000000000000000000000008152600401610a5890612ece565b60405180910390fd5b610a6b3382612022565b8060086000828254610a7d9190612eee565b92505081905550610a9633610a9183611430565b6110be565b50565b60006012905090565b620186a081565b600d60009054906101000a900460ff1615610af9576040517f08c379a0000000000000000000000000000000000000000000000000000000008152600401610af090612f6e565b60405180910390fd5b6001600d60006101000a81548160ff0219169083151502179055503460095482610b239190612f8e565b14610b63576040517f08c379a0000000000000000000000000000000000000000000000000000000008152600401610b5a90613042565b60405180910390fd5b620186a081610b70610935565b610b7a9190612eee565b1115610bbb576040517f08c379a0000000000000000000000000000000000000000000000000000000008152600401610bb2906130ae565b60405180910390fd5b610bc533826121f8565b610bcd6107e9565b8060086000828254610bdf91906130ce565b925050819055506000600d60006101000a81548160ff02191690831515021790555050565b600080610c0f611b46565b9050610c30818585610c21858961144c565b610c2b9190612eee565b611b4e565b600191505092915050565b6000600a5482610c4b9190612f8e565b9050803414610c8f576040517f08c379a0000000000000000000000000000000000000000000000000000000008152600401610c869061314e565b60405180910390fd5b600560003373ffffffffffffffffffffffffffffffffffffffff1673ffffffffffffffffffffffffffffffffffffffff16815260200190815260200160002060070160009054906101000a900460ff16610d1e576040517f08c379a0000000000000000000000000000000000000000000000000000000008152600401610d15906131ba565b60405180910390fd5b6040518061010001604052808a815260200189815260200188815260200187815260200186815260200185815260200184815260200160011515815250600560003373ffffffffffffffffffffffffffffffffffffffff1673ffffffffffffffffffffffffffffffffffffffff1681526020019081526020016000206000820151816000019081610daf9190613386565b506020820151816001019081610dc59190613386565b506040820151816002019081610ddb9190613386565b506060820151816003019081610df19190613386565b506080820151816004015560a0820151816005015560c0820151816006019081610e1b9190613386565b5060e08201518160070160006101000a81548160ff021916908315150217905550905050610e476107e9565b7faa9f6ecd6a994e8b7abb6b3f3a42756c6c483a3abc40d774db0e7d564ecf895833604051610e769190612607565b60405180910390a1505050505050505050565b60008060008373ffffffffffffffffffffffffffffffffffffffff1673ffffffffffffffffffffffffffffffffffffffff168152602001908152602001600020549050919050565b6000826064600b54610ee39190612d5f565b610eed9190612f8e565b905060008382610efd9190612eee565b905080341015610f42576040517f08c379a0000000000000000000000000000000000000000000000000000000008152600401610f39906134a4565b60405180910390fd5b610f4c83856110be565b610f546107e9565b50505050565b60095481565b60085481565b606060048054610f7590612dbf565b80601f0160208091040260200160405190810160405280929190818152602001828054610fa190612dbf565b8015610fee5780601f10610fc357610100808354040283529160200191610fee565b820191906000526020600020905b815481529060010190602001808311610fd157829003601f168201915b5050505050905090565b600080611003611b46565b90506000611011828661144c565b905083811015611056576040517f08c379a000000000000000000000000000000000000000000000000000000000815260040161104d90613536565b60405180910390fd5b6110638286868403611b4e565b60019250505092915050565b600b5481565b600080611080611b46565b905061108d818585611da3565b600191505092915050565b600760009054906101000a900473ffffffffffffffffffffffffffffffffffffffff1681565b60008273ffffffffffffffffffffffffffffffffffffffff16826040516110e490613587565b60006040518083038185875af1925050503d8060008114611121576040519150601f19603f3d011682016040523d82523d6000602084013e611126565b606091505b505090508061116a576040517f08c379a0000000000000000000000000000000000000000000000000000000008152600401611161906135e8565b60405180910390fd5b505050565b6000600a548261117f9190612f8e565b90508034146111c3576040517f08c379a00000000000000000000000000000000000000000000000000000000081526004016111ba9061314e565b60405180910390fd5b600560003373ffffffffffffffffffffffffffffffffffffffff1673ffffffffffffffffffffffffffffffffffffffff16815260200190815260200160002060070160009054906101000a900460ff1615611253576040517f08c379a000000000000000000000000000000000000000000000000000000000815260040161124a90613654565b60405180910390fd5b6040518061010001604052808a815260200189815260200188815260200187815260200186815260200185815260200184815260200160011515815250600560003373ffffffffffffffffffffffffffffffffffffffff1673ffffffffffffffffffffffffffffffffffffffff16815260200190815260200160002060008201518160000190816112e49190613386565b5060208201518160010190816112fa9190613386565b5060408201518160020190816113109190613386565b5060608201518160030190816113269190613386565b506080820151816004015560a0820151816005015560c08201518160060190816113509190613386565b5060e08201518160070160006101000a81548160ff021916908315150217905550905050600c600081548092919061138790613674565b91905055503360066000600c54815260200190815260200160002060006101000a81548173ffffffffffffffffffffffffffffffffffffffff021916908373ffffffffffffffffffffffffffffffffffffffff1602179055506113e86107e9565b7f5b73fdb55c6d540b14745a3fd5938bc6f31fefb134291d87585fb561def1395b336040516114179190612607565b60405180910390a1505050505050505050565b600a5481565b600080600954836114419190612f8e565b905080915050919050565b6000600160008473ffffffffffffffffffffffffffffffffffffffff1673ffffffffffffffffffffffffffffffffffffffff16815260200190815260200160002060008373ffffffffffffffffffffffffffffffffffffffff1673ffffffffffffffffffffffffffffffffffffffff16815260200190815260200160002054905092915050565b6114db612361565b600560008373ffffffffffffffffffffffffffffffffffffffff1673ffffffffffffffffffffffffffffffffffffffff1681526020019081526020016000206040518061010001604052908160008201805461153690612dbf565b80601f016020809104026020016040519081016040528092919081815260200182805461156290612dbf565b80156115af5780601f10611584576101008083540402835291602001916115af565b820191906000526020600020905b81548152906001019060200180831161159257829003601f168201915b505050505081526020016001820180546115c890612dbf565b80601f01602080910402602001604051908101604052809291908181526020018280546115f490612dbf565b80156116415780601f1061161657610100808354040283529160200191611641565b820191906000526020600020905b81548152906001019060200180831161162457829003601f168201915b5050505050815260200160028201805461165a90612dbf565b80601f016020809104026020016040519081016040528092919081815260200182805461168690612dbf565b80156116d35780601f106116a8576101008083540402835291602001916116d3565b820191906000526020600020905b8154815290600101906020018083116116b657829003601f168201915b505050505081526020016003820180546116ec90612dbf565b80601f016020809104026020016040519081016040528092919081815260200182805461171890612dbf565b80156117655780601f1061173a57610100808354040283529160200191611765565b820191906000526020600020905b81548152906001019060200180831161174857829003601f168201915b50505050508152602001600482015481526020016005820154815260200160068201805461179290612dbf565b80601f01602080910402602001604051908101604052809291908181526020018280546117be90612dbf565b801561180b5780601f106117e05761010080835404028352916020019161180b565b820191906000526020600020905b8154815290600101906020018083116117ee57829003601f168201915b505050505081526020016007820160009054906101000a900460ff1615151515815250509050919050565b600560205280600052604060002060009150905080600001805461185990612dbf565b80601f016020809104026020016040519081016040528092919081815260200182805461188590612dbf565b80156118d25780601f106118a7576101008083540402835291602001916118d2565b820191906000526020600020905b8154815290600101906020018083116118b557829003601f168201915b5050505050908060010180546118e790612dbf565b80601f016020809104026020016040519081016040528092919081815260200182805461191390612dbf565b80156119605780601f1061193557610100808354040283529160200191611960565b820191906000526020600020905b81548152906001019060200180831161194357829003601f168201915b50505050509080600201805461197590612dbf565b80601f01602080910402602001604051908101604052809291908181526020018280546119a190612dbf565b80156119ee5780601f106119c3576101008083540402835291602001916119ee565b820191906000526020600020905b8154815290600101906020018083116119d157829003601f168201915b505050505090806003018054611a0390612dbf565b80601f0160208091040260200160405190810160405280929190818152602001828054611a2f90612dbf565b8015611a7c5780601f10611a5157610100808354040283529160200191611a7c565b820191906000526020600020905b815481529060010190602001808311611a5f57829003601f168201915b505050505090806004015490806005015490806006018054611a9d90612dbf565b80601f0160208091040260200160405190810160405280929190818152602001828054611ac990612dbf565b8015611b165780601f10611aeb57610100808354040283529160200191611b16565b820191906000526020600020905b815481529060010190602001808311611af957829003601f168201915b5050505050908060070160009054906101000a900460ff16905088565b600d60009054906101000a900460ff1681565b600033905090565b600073ffffffffffffffffffffffffffffffffffffffff168373ffffffffffffffffffffffffffffffffffffffff1603611bbd576040517f08c379a0000000000000000000000000000000000000000000000000000000008152600401611bb49061372e565b60405180910390fd5b600073ffffffffffffffffffffffffffffffffffffffff168273ffffffffffffffffffffffffffffffffffffffff1603611c2c576040517f08c379a0000000000000000000000000000000000000000000000000000000008152600401611c23906137c0565b60405180910390fd5b80600160008573ffffffffffffffffffffffffffffffffffffffff1673ffffffffffffffffffffffffffffffffffffffff16815260200190815260200160002060008473ffffffffffffffffffffffffffffffffffffffff1673ffffffffffffffffffffffffffffffffffffffff168152602001908152602001600020819055508173ffffffffffffffffffffffffffffffffffffffff168373ffffffffffffffffffffffffffffffffffffffff167f8c5be1e5ebec7d5bd14f71427d1e84f3dd0314c0f7b2291e5b200ac8c7c3b92583604051611d0a919061242b565b60405180910390a3505050565b6000611d23848461144c565b90507fffffffffffffffffffffffffffffffffffffffffffffffffffffffffffffffff8114611d9d5781811015611d8f576040517f08c379a0000000000000000000000000000000000000000000000000000000008152600401611d869061382c565b60405180910390fd5b611d9c8484848403611b4e565b5b50505050565b600073ffffffffffffffffffffffffffffffffffffffff168373ffffffffffffffffffffffffffffffffffffffff1603611e12576040517f08c379a0000000000000000000000000000000000000000000000000000000008152600401611e09906138be565b60405180910390fd5b600073ffffffffffffffffffffffffffffffffffffffff168273ffffffffffffffffffffffffffffffffffffffff1603611e81576040517f08c379a0000000000000000000000000000000000000000000000000000000008152600401611e7890613950565b60405180910390fd5b611e8c838383612357565b60008060008573ffffffffffffffffffffffffffffffffffffffff1673ffffffffffffffffffffffffffffffffffffffff16815260200190815260200160002054905081811015611f12576040517f08c379a0000000000000000000000000000000000000000000000000000000008152600401611f09906139e2565b60405180910390fd5b8181036000808673ffffffffffffffffffffffffffffffffffffffff1673ffffffffffffffffffffffffffffffffffffffff16815260200190815260200160002081905550816000808573ffffffffffffffffffffffffffffffffffffffff1673ffffffffffffffffffffffffffffffffffffffff1681526020019081526020016000206000828254611fa59190612eee565b925050819055508273ffffffffffffffffffffffffffffffffffffffff168473ffffffffffffffffffffffffffffffffffffffff167fddf252ad1be2c89b69c2b068fc378daa952ba7f163c4a11628f55a4df523b3ef84604051612009919061242b565b60405180910390a361201c84848461235c565b50505050565b600073ffffffffffffffffffffffffffffffffffffffff168273ffffffffffffffffffffffffffffffffffffffff1603612091576040517f08c379a000000000000000000000000000000000000000000000000000000000815260040161208890613a74565b60405180910390fd5b61209d82600083612357565b60008060008473ffffffffffffffffffffffffffffffffffffffff1673ffffffffffffffffffffffffffffffffffffffff16815260200190815260200160002054905081811015612123576040517f08c379a000000000000000000000000000000000000000000000000000000000815260040161211a90613b06565b60405180910390fd5b8181036000808573ffffffffffffffffffffffffffffffffffffffff1673ffffffffffffffffffffffffffffffffffffffff16815260200190815260200160002081905550816002600082825461217a91906130ce565b92505081905550600073ffffffffffffffffffffffffffffffffffffffff168373ffffffffffffffffffffffffffffffffffffffff167fddf252ad1be2c89b69c2b068fc378daa952ba7f163c4a11628f55a4df523b3ef846040516121df919061242b565b60405180910390a36121f38360008461235c565b505050565b600073ffffffffffffffffffffffffffffffffffffffff168273ffffffffffffffffffffffffffffffffffffffff1603612267576040517f08c379a000000000000000000000000000000000000000000000000000000000815260040161225e90613b72565b60405180910390fd5b61227360008383612357565b80600260008282546122859190612eee565b92505081905550806000808473ffffffffffffffffffffffffffffffffffffffff1673ffffffffffffffffffffffffffffffffffffffff16815260200190815260200160002060008282546122da9190612eee565b925050819055508173ffffffffffffffffffffffffffffffffffffffff16600073ffffffffffffffffffffffffffffffffffffffff167fddf252ad1be2c89b69c2b068fc378daa952ba7f163c4a11628f55a4df523b3ef8360405161233f919061242b565b60405180910390a36123536000838361235c565b5050565b505050565b505050565b604051806101000160405280606081526020016060815260200160608152602001606081526020016000815260200160008152602001606081526020016000151581525090565b600073ffffffffffffffffffffffffffffffffffffffff82169050919050565b60006123d3826123a8565b9050919050565b6123e3816123c8565b82525050565b6000819050919050565b6123fc816123e9565b82525050565b600060408201905061241760008301856123da565b61242460208301846123f3565b9392505050565b600060208201905061244060008301846123f3565b92915050565b600081519050919050565b600082825260208201905092915050565b60005b83811015612480578082015181840152602081019050612465565b60008484015250505050565b6000601f19601f8301169050919050565b60006124a882612446565b6124b28185612451565b93506124c2818560208601612462565b6124cb8161248c565b840191505092915050565b600060208201905081810360008301526124f0818461249d565b905092915050565b6000604051905090565b600080fd5b600080fd5b612515816123c8565b811461252057600080fd5b50565b6000813590506125328161250c565b92915050565b612541816123e9565b811461254c57600080fd5b50565b60008135905061255e81612538565b92915050565b6000806040838503121561257b5761257a612502565b5b600061258985828601612523565b925050602061259a8582860161254f565b9150509250929050565b60008115159050919050565b6125b9816125a4565b82525050565b60006020820190506125d460008301846125b0565b92915050565b6000602082840312156125f0576125ef612502565b5b60006125fe8482850161254f565b91505092915050565b600060208201905061261c60008301846123da565b92915050565b60008060006060848603121561263b5761263a612502565b5b600061264986828701612523565b935050602061265a86828701612523565b925050604061266b8682870161254f565b9150509250925092565b600060ff82169050919050565b61268b81612675565b82525050565b60006020820190506126a66000830184612682565b92915050565b600080fd5b600080fd5b7f4e487b7100000000000000000000000000000000000000000000000000000000600052604160045260246000fd5b6126ee8261248c565b810181811067ffffffffffffffff8211171561270d5761270c6126b6565b5b80604052505050565b60006127206124f8565b905061272c82826126e5565b919050565b600067ffffffffffffffff82111561274c5761274b6126b6565b5b6127558261248c565b9050602081019050919050565b82818337600083830152505050565b600061278461277f84612731565b612716565b9050828152602081018484840111156127a05761279f6126b1565b5b6127ab848285612762565b509392505050565b600082601f8301126127c8576127c76126ac565b5b81356127d8848260208601612771565b91505092915050565b600080600080600080600080610100898b03121561280257612801612502565b5b600089013567ffffffffffffffff8111156128205761281f612507565b5b61282c8b828c016127b3565b985050602089013567ffffffffffffffff81111561284d5761284c612507565b5b6128598b828c016127b3565b975050604089013567ffffffffffffffff81111561287a57612879612507565b5b6128868b828c016127b3565b965050606089013567ffffffffffffffff8111156128a7576128a6612507565b5b6128b38b828c016127b3565b95505060806128c48b828c0161254f565b94505060a06128d58b828c0161254f565b93505060c089013567ffffffffffffffff8111156128f6576128f5612507565b5b6129028b828c016127b3565b92505060e06129138b828c0161254f565b9150509295985092959890939650565b60006020828403121561293957612938612502565b5b600061294784828501612523565b91505092915050565b6000806040838503121561296757612966612502565b5b60006129758582860161254f565b925050602061298685828601612523565b9150509250929050565b600061299b826123a8565b9050919050565b6129ab81612990565b82525050565b60006020820190506129c660008301846129a2565b92915050565b6129d581612990565b81146129e057600080fd5b50565b6000813590506129f2816129cc565b92915050565b60008060408385031215612a0f57612a0e612502565b5b6000612a1d858286016129e3565b9250506020612a2e8582860161254f565b9150509250929050565b60008060408385031215612a4f57612a4e612502565b5b6000612a5d85828601612523565b9250506020612a6e85828601612523565b9150509250929050565b600082825260208201905092915050565b6000612a9482612446565b612a9e8185612a78565b9350612aae818560208601612462565b612ab78161248c565b840191505092915050565b612acb816123e9565b82525050565b612ada816125a4565b82525050565b6000610100830160008301518482036000860152612afe8282612a89565b91505060208301518482036020860152612b188282612a89565b91505060408301518482036040860152612b328282612a89565b91505060608301518482036060860152612b4c8282612a89565b9150506080830151612b616080860182612ac2565b5060a0830151612b7460a0860182612ac2565b5060c083015184820360c0860152612b8c8282612a89565b91505060e0830151612ba160e0860182612ad1565b508091505092915050565b60006020820190508181036000830152612bc68184612ae0565b905092915050565b6000610100820190508181036000830152612be9818b61249d565b90508181036020830152612bfd818a61249d565b90508181036040830152612c11818961249d565b90508181036060830152612c25818861249d565b9050612c3460808301876123f3565b612c4160a08301866123f3565b81810360c0830152612c53818561249d565b9050612c6260e08301846125b0565b9998505050505050505050565b7f5468657265206973206e6f2076616c756520696e207468697320636f6e74726160008201527f6374000000000000000000000000000000000000000000000000000000000000602082015250565b6000612ccb602283612451565b9150612cd682612c6f565b604082019050919050565b60006020820190508181036000830152612cfa81612cbe565b9050919050565b7f4e487b7100000000000000000000000000000000000000000000000000000000600052601260045260246000fd5b7f4e487b7100000000000000000000000000000000000000000000000000000000600052601160045260246000fd5b6000612d6a826123e9565b9150612d75836123e9565b925082612d8557612d84612d01565b5b828204905092915050565b7f4e487b7100000000000000000000000000000000000000000000000000000000600052602260045260246000fd5b60006002820490506001821680612dd757607f821691505b602082108103612dea57612de9612d90565b5b50919050565b7f4e6f7420686f6c64657200000000000000000000000000000000000000000000600082015250565b6000612e26600a83612451565b9150612e3182612df0565b602082019050919050565b60006020820190508181036000830152612e5581612e19565b9050919050565b7f596f752061726520747279696e6720746f207769746864726177206d6f72652060008201527f7468616e20796f7572207374616b650000000000000000000000000000000000602082015250565b6000612eb8602f83612451565b9150612ec382612e5c565b604082019050919050565b60006020820190508181036000830152612ee781612eab565b9050919050565b6000612ef9826123e9565b9150612f04836123e9565b9250828201905080821115612f1c57612f1b612d30565b5b92915050565b7f5265656e7472616e6379206c6f636b2069732061637469766500000000000000600082015250565b6000612f58601983612451565b9150612f6382612f22565b602082019050919050565b60006020820190508181036000830152612f8781612f4b565b9050919050565b6000612f99826123e9565b9150612fa4836123e9565b9250828202612fb2816123e9565b91508282048414831517612fc957612fc8612d30565b5b5092915050565b7f596f75206172652073656e64696e67207468652077726f6e6720616d6f756e7460008201527f20746f207468697320636f6e7472616374000000000000000000000000000000602082015250565b600061302c603183612451565b915061303782612fd0565b604082019050919050565b6000602082019050818103600083015261305b8161301f565b9050919050565b7f4d617820737570706c7920726561636865640000000000000000000000000000600082015250565b6000613098601283612451565b91506130a382613062565b602082019050919050565b600060208201905081810360008301526130c78161308b565b9050919050565b60006130d9826123e9565b91506130e4836123e9565b92508282039050818111156130fc576130fb612d30565b5b92915050565b7f506c656173652070617920746865207265636f6d6d656e646564206665650000600082015250565b6000613138601e83612451565b915061314382613102565b602082019050919050565b600060208201905081810360008301526131678161312b565b9050919050565b7f6e6f7420612063617368706f696e740000000000000000000000000000000000600082015250565b60006131a4600f83612451565b91506131af8261316e565b602082019050919050565b600060208201905081810360008301526131d381613197565b9050919050565b60008190508160005260206000209050919050565b60006020601f8301049050919050565b600082821b905092915050565b60006008830261323c7fffffffffffffffffffffffffffffffffffffffffffffffffffffffffffffffff826131ff565b61324686836131ff565b95508019841693508086168417925050509392505050565b6000819050919050565b600061328361327e613279846123e9565b61325e565b6123e9565b9050919050565b6000819050919050565b61329d83613268565b6132b16132a98261328a565b84845461320c565b825550505050565b600090565b6132c66132b9565b6132d1818484613294565b505050565b5b818110156132f5576132ea6000826132be565b6001810190506132d7565b5050565b601f82111561333a5761330b816131da565b613314846131ef565b81016020851015613323578190505b61333761332f856131ef565b8301826132d6565b50505b505050565b600082821c905092915050565b600061335d6000198460080261333f565b1980831691505092915050565b6000613376838361334c565b9150826002028217905092915050565b61338f82612446565b67ffffffffffffffff8111156133a8576133a76126b6565b5b6133b28254612dbf565b6133bd8282856132f9565b600060209050601f8311600181146133f057600084156133de578287015190505b6133e8858261336a565b865550613450565b601f1984166133fe866131da565b60005b8281101561342657848901518255600182019150602085019450602081019050613401565b86831015613443578489015161343f601f89168261334c565b8355505b6001600288020188555050505b505050505050565b7f4e6f7420656e6f7567682066756e64732073656e740000000000000000000000600082015250565b600061348e601583612451565b915061349982613458565b602082019050919050565b600060208201905081810360008301526134bd81613481565b9050919050565b7f45524332303a2064656372656173656420616c6c6f77616e63652062656c6f7760008201527f207a65726f000000000000000000000000000000000000000000000000000000602082015250565b6000613520602583612451565b915061352b826134c4565b604082019050919050565b6000602082019050818103600083015261354f81613513565b9050919050565b600081905092915050565b50565b6000613571600083613556565b915061357c82613561565b600082019050919050565b600061359282613564565b9150819050919050565b7f4661696c656420746f2073656e64207844616900000000000000000000000000600082015250565b60006135d2601383612451565b91506135dd8261359c565b602082019050919050565b60006020820190508181036000830152613601816135c5565b9050919050565b7f616c726561647920612063617368706f696e7400000000000000000000000000600082015250565b600061363e601383612451565b915061364982613608565b602082019050919050565b6000602082019050818103600083015261366d81613631565b9050919050565b600061367f826123e9565b91507fffffffffffffffffffffffffffffffffffffffffffffffffffffffffffffffff82036136b1576136b0612d30565b5b600182019050919050565b7f45524332303a20617070726f76652066726f6d20746865207a65726f2061646460008201527f7265737300000000000000000000000000000000000000000000000000000000602082015250565b6000613718602483612451565b9150613723826136bc565b604082019050919050565b600060208201905081810360008301526137478161370b565b9050919050565b7f45524332303a20617070726f766520746f20746865207a65726f20616464726560008201527f7373000000000000000000000000000000000000000000000000000000000000602082015250565b60006137aa602283612451565b91506137b58261374e565b604082019050919050565b600060208201905081810360008301526137d98161379d565b9050919050565b7f45524332303a20696e73756666696369656e7420616c6c6f77616e6365000000600082015250565b6000613816601d83612451565b9150613821826137e0565b602082019050919050565b6000602082019050818103600083015261384581613809565b9050919050565b7f45524332303a207472616e736665722066726f6d20746865207a65726f20616460008201527f6472657373000000000000000000000000000000000000000000000000000000602082015250565b60006138a8602583612451565b91506138b38261384c565b604082019050919050565b600060208201905081810360008301526138d78161389b565b9050919050565b7f45524332303a207472616e7366657220746f20746865207a65726f206164647260008201527f6573730000000000000000000000000000000000000000000000000000000000602082015250565b600061393a602383612451565b9150613945826138de565b604082019050919050565b600060208201905081810360008301526139698161392d565b9050919050565b7f45524332303a207472616e7366657220616d6f756e742065786365656473206260008201527f616c616e63650000000000000000000000000000000000000000000000000000602082015250565b60006139cc602683612451565b91506139d782613970565b604082019050919050565b600060208201905081810360008301526139fb816139bf565b9050919050565b7f45524332303a206275726e2066726f6d20746865207a65726f2061646472657360008201527f7300000000000000000000000000000000000000000000000000000000000000602082015250565b6000613a5e602183612451565b9150613a6982613a02565b604082019050919050565b60006020820190508181036000830152613a8d81613a51565b9050919050565b7f45524332303a206275726e20616d6f756e7420657863656564732062616c616e60008201527f6365000000000000000000000000000000000000000000000000000000000000602082015250565b6000613af0602283612451565b9150613afb82613a94565b604082019050919050565b60006020820190508181036000830152613b1f81613ae3565b9050919050565b7f45524332303a206d696e7420746f20746865207a65726f206164647265737300600082015250565b6000613b5c601f83612451565b9150613b6782613b26565b602082019050919050565b60006020820190508181036000830152613b8b81613b4f565b905091905056fea2646970667358221220b384c9097be0f456fad76c80c48ea1013baeef93e0472703df971d6a54bb2c0364736f6c63430008110033",
  "linkReferences": {},
  "deployedLinkReferences": {}
}