{
  "_format": "hh-sol-artifact-1",
  "contractName": "CashPoints",
  "sourceName": "contracts/Cashpoints.sol",
  "abi": [
    {
      "inputs": [],
      "stateMutability": "nonpayable",
      "type": "constructor"
    },
    {
      "anonymous": false,
      "inputs": [
        {
          "indexed": true,
          "internalType": "address",
          "name": "owner",
          "type": "address"
        },
        {
          "indexed": true,
          "internalType": "address",
          "name": "spender",
          "type": "address"
        },
        {
          "indexed": false,
          "internalType": "uint256",
          "name": "value",
          "type": "uint256"
        }
      ],
      "name": "Approval",
      "type": "event"
    },
    {
      "anonymous": false,
      "inputs": [
        {
          "indexed": false,
          "internalType": "address",
          "name": "cashpoint",
          "type": "address"
        }
      ],
      "name": "CreatedCashPoint",
      "type": "event"
    },
    {
      "anonymous": false,
      "inputs": [
        {
          "indexed": false,
          "internalType": "address",
          "name": "",
          "type": "address"
        },
        {
          "indexed": false,
          "internalType": "uint256",
          "name": "",
          "type": "uint256"
        }
      ],
      "name": "Received",
      "type": "event"
    },
    {
      "anonymous": false,
      "inputs": [
        {
          "indexed": true,
          "internalType": "address",
          "name": "from",
          "type": "address"
        },
        {
          "indexed": true,
          "internalType": "address",
          "name": "to",
          "type": "address"
        },
        {
          "indexed": false,
          "internalType": "uint256",
          "name": "value",
          "type": "uint256"
        }
      ],
      "name": "Transfer",
      "type": "event"
    },
    {
      "anonymous": false,
      "inputs": [
        {
          "indexed": false,
          "internalType": "address",
          "name": "cashpoint",
          "type": "address"
        }
      ],
      "name": "UpdatedCashPoint",
      "type": "event"
    },
    {
      "inputs": [],
      "name": "AVAILABLE_TOKENS",
      "outputs": [
        {
          "internalType": "uint256",
          "name": "",
          "type": "uint256"
        }
      ],
      "stateMutability": "view",
      "type": "function"
    },
    {
      "inputs": [],
      "name": "CASHPOINT_FEE",
      "outputs": [
        {
          "internalType": "uint256",
          "name": "",
          "type": "uint256"
        }
      ],
      "stateMutability": "view",
      "type": "function"
    },
    {
      "inputs": [],
      "name": "MAX_SUPPLY",
      "outputs": [
        {
          "internalType": "uint256",
          "name": "",
          "type": "uint256"
        }
      ],
      "stateMutability": "view",
      "type": "function"
    },
    {
      "inputs": [],
      "name": "Owner",
      "outputs": [
        {
          "internalType": "address payable",
          "name": "",
          "type": "address"
        }
      ],
      "stateMutability": "view",
      "type": "function"
    },
    {
      "inputs": [],
      "name": "PRICE_PER_TOKEN",
      "outputs": [
        {
          "internalType": "uint256",
          "name": "",
          "type": "uint256"
        }
      ],
      "stateMutability": "view",
      "type": "function"
    },
    {
      "inputs": [],
      "name": "TRANSACTION_COMMISION",
      "outputs": [
        {
          "internalType": "uint256",
          "name": "",
          "type": "uint256"
        }
      ],
      "stateMutability": "view",
      "type": "function"
    },
    {
      "inputs": [
        {
          "internalType": "string",
          "name": "name",
          "type": "string"
        },
        {
          "internalType": "int256",
          "name": "lat",
          "type": "int256"
        },
        {
          "internalType": "int256",
          "name": "long",
          "type": "int256"
        },
        {
          "internalType": "uint256",
          "name": "accuracy",
          "type": "uint256"
        },
        {
          "internalType": "string",
          "name": "city",
          "type": "string"
        },
        {
          "internalType": "string",
          "name": "phone",
          "type": "string"
        },
        {
          "internalType": "string",
          "name": "currency",
          "type": "string"
        },
        {
          "internalType": "uint256",
          "name": "buy",
          "type": "uint256"
        },
        {
          "internalType": "uint256",
          "name": "sell",
          "type": "uint256"
        },
        {
          "internalType": "string",
          "name": "endtime",
          "type": "string"
        },
        {
          "internalType": "uint256",
          "name": "duration",
          "type": "uint256"
        }
      ],
      "name": "addCashPoint",
      "outputs": [],
      "stateMutability": "payable",
      "type": "function"
    },
    {
      "inputs": [
        {
          "internalType": "address",
          "name": "owner",
          "type": "address"
        },
        {
          "internalType": "address",
          "name": "spender",
          "type": "address"
        }
      ],
      "name": "allowance",
      "outputs": [
        {
          "internalType": "uint256",
          "name": "",
          "type": "uint256"
        }
      ],
      "stateMutability": "view",
      "type": "function"
    },
    {
      "inputs": [
        {
          "internalType": "address",
          "name": "spender",
          "type": "address"
        },
        {
          "internalType": "uint256",
          "name": "amount",
          "type": "uint256"
        }
      ],
      "name": "approve",
      "outputs": [
        {
          "internalType": "bool",
          "name": "",
          "type": "bool"
        }
      ],
      "stateMutability": "nonpayable",
      "type": "function"
    },
    {
      "inputs": [
        {
          "internalType": "address",
          "name": "account",
          "type": "address"
        }
      ],
      "name": "balanceOf",
      "outputs": [
        {
          "internalType": "uint256",
          "name": "",
          "type": "uint256"
        }
      ],
      "stateMutability": "view",
      "type": "function"
    },
    {
      "inputs": [
        {
          "internalType": "uint256",
          "name": "_amount",
          "type": "uint256"
        }
      ],
      "name": "buyTokens",
      "outputs": [],
      "stateMutability": "payable",
      "type": "function"
    },
    {
      "inputs": [
        {
          "internalType": "address",
          "name": "",
          "type": "address"
        }
      ],
      "name": "cashpoints",
      "outputs": [
        {
          "internalType": "string",
          "name": "_name",
          "type": "string"
        },
        {
          "internalType": "int256",
          "name": "latitude",
          "type": "int256"
        },
        {
          "internalType": "int256",
          "name": "longitude",
          "type": "int256"
        },
        {
          "internalType": "uint256",
          "name": "accuracy",
          "type": "uint256"
        },
        {
          "internalType": "string",
          "name": "city",
          "type": "string"
        },
        {
          "internalType": "string",
          "name": "_phoneNumber",
          "type": "string"
        },
        {
          "internalType": "string",
          "name": "_currency",
          "type": "string"
        },
        {
          "internalType": "uint256",
          "name": "_buy",
          "type": "uint256"
        },
        {
          "internalType": "uint256",
          "name": "_sell",
          "type": "uint256"
        },
        {
          "internalType": "string",
          "name": "_endTime",
          "type": "string"
        },
        {
          "internalType": "bool",
          "name": "_isCashPoint",
          "type": "bool"
        }
      ],
      "stateMutability": "view",
      "type": "function"
    },
    {
      "inputs": [
        {
          "internalType": "uint256",
          "name": "_tokens",
          "type": "uint256"
        }
      ],
      "name": "checkAmountToTransfer",
      "outputs": [
        {
          "internalType": "uint256",
          "name": "",
          "type": "uint256"
        }
      ],
      "stateMutability": "view",
      "type": "function"
    },
    {
      "inputs": [
        {
          "internalType": "uint256",
          "name": "_tokens",
          "type": "uint256"
        }
      ],
      "name": "checkIfICanWithdraw",
      "outputs": [
        {
          "internalType": "bool",
          "name": "",
          "type": "bool"
        }
      ],
      "stateMutability": "view",
      "type": "function"
    },
    {
      "inputs": [],
      "name": "count",
      "outputs": [
        {
          "internalType": "uint256",
          "name": "",
          "type": "uint256"
        }
      ],
      "stateMutability": "view",
      "type": "function"
    },
    {
      "inputs": [],
      "name": "decimals",
      "outputs": [
        {
          "internalType": "uint8",
          "name": "",
          "type": "uint8"
        }
      ],
      "stateMutability": "view",
      "type": "function"
    },
    {
      "inputs": [
        {
          "internalType": "address",
          "name": "spender",
          "type": "address"
        },
        {
          "internalType": "uint256",
          "name": "subtractedValue",
          "type": "uint256"
        }
      ],
      "name": "decreaseAllowance",
      "outputs": [
        {
          "internalType": "bool",
          "name": "",
          "type": "bool"
        }
      ],
      "stateMutability": "nonpayable",
      "type": "function"
    },
    {
      "inputs": [
        {
          "internalType": "address",
          "name": "cp",
          "type": "address"
        }
      ],
      "name": "getCashPoint",
      "outputs": [
        {
          "components": [
            {
              "internalType": "string",
              "name": "_name",
              "type": "string"
            },
            {
              "internalType": "int256",
              "name": "latitude",
              "type": "int256"
            },
            {
              "internalType": "int256",
              "name": "longitude",
              "type": "int256"
            },
            {
              "internalType": "uint256",
              "name": "accuracy",
              "type": "uint256"
            },
            {
              "internalType": "string",
              "name": "city",
              "type": "string"
            },
            {
              "internalType": "string",
              "name": "_phoneNumber",
              "type": "string"
            },
            {
              "internalType": "string",
              "name": "_currency",
              "type": "string"
            },
            {
              "internalType": "uint256",
              "name": "_buy",
              "type": "uint256"
            },
            {
              "internalType": "uint256",
              "name": "_sell",
              "type": "uint256"
            },
            {
              "internalType": "string",
              "name": "_endTime",
              "type": "string"
            },
            {
              "internalType": "bool",
              "name": "_isCashPoint",
              "type": "bool"
            }
          ],
          "internalType": "struct CashPoints.CashPoint",
          "name": "cashpoint",
          "type": "tuple"
        }
      ],
      "stateMutability": "view",
      "type": "function"
    },
    {
      "inputs": [
        {
          "internalType": "address",
          "name": "spender",
          "type": "address"
        },
        {
          "internalType": "uint256",
          "name": "addedValue",
          "type": "uint256"
        }
      ],
      "name": "increaseAllowance",
      "outputs": [
        {
          "internalType": "bool",
          "name": "",
          "type": "bool"
        }
      ],
      "stateMutability": "nonpayable",
      "type": "function"
    },
    {
      "inputs": [
        {
          "internalType": "uint256",
          "name": "",
          "type": "uint256"
        }
      ],
      "name": "keys",
      "outputs": [
        {
          "internalType": "address",
          "name": "",
          "type": "address"
        }
      ],
      "stateMutability": "view",
      "type": "function"
    },
    {
      "inputs": [],
      "name": "name",
      "outputs": [
        {
          "internalType": "string",
          "name": "",
          "type": "string"
        }
      ],
      "stateMutability": "view",
      "type": "function"
    },
    {
      "inputs": [],
      "name": "reentrancyLock",
      "outputs": [
        {
          "internalType": "bool",
          "name": "",
          "type": "bool"
        }
      ],
      "stateMutability": "view",
      "type": "function"
    },
    {
      "inputs": [
        {
          "internalType": "uint256",
          "name": "_amount",
          "type": "uint256"
        },
        {
          "internalType": "address",
          "name": "_to",
          "type": "address"
        }
      ],
      "name": "send",
      "outputs": [],
      "stateMutability": "payable",
      "type": "function"
    },
    {
      "inputs": [],
      "name": "setPrice",
      "outputs": [],
      "stateMutability": "nonpayable",
      "type": "function"
    },
    {
      "inputs": [],
      "name": "symbol",
      "outputs": [
        {
          "internalType": "string",
          "name": "",
          "type": "string"
        }
      ],
      "stateMutability": "view",
      "type": "function"
    },
    {
      "inputs": [],
      "name": "totalSupply",
      "outputs": [
        {
          "internalType": "uint256",
          "name": "",
          "type": "uint256"
        }
      ],
      "stateMutability": "view",
      "type": "function"
    },
    {
      "inputs": [
        {
          "internalType": "address",
          "name": "to",
          "type": "address"
        },
        {
          "internalType": "uint256",
          "name": "amount",
          "type": "uint256"
        }
      ],
      "name": "transfer",
      "outputs": [
        {
          "internalType": "bool",
          "name": "",
          "type": "bool"
        }
      ],
      "stateMutability": "nonpayable",
      "type": "function"
    },
    {
      "inputs": [
        {
          "internalType": "address",
          "name": "from",
          "type": "address"
        },
        {
          "internalType": "address",
          "name": "to",
          "type": "address"
        },
        {
          "internalType": "uint256",
          "name": "amount",
          "type": "uint256"
        }
      ],
      "name": "transferFrom",
      "outputs": [
        {
          "internalType": "bool",
          "name": "",
          "type": "bool"
        }
      ],
      "stateMutability": "nonpayable",
      "type": "function"
    },
    {
      "inputs": [
        {
          "internalType": "address payable",
          "name": "_to",
          "type": "address"
        },
        {
          "internalType": "uint256",
          "name": "_amount",
          "type": "uint256"
        }
      ],
      "name": "transferXDai",
      "outputs": [],
      "stateMutability": "nonpayable",
      "type": "function"
    },
    {
      "inputs": [
        {
          "internalType": "string",
          "name": "name",
          "type": "string"
        },
        {
          "internalType": "int256",
          "name": "lat",
          "type": "int256"
        },
        {
          "internalType": "int256",
          "name": "long",
          "type": "int256"
        },
        {
          "internalType": "uint256",
          "name": "accuracy",
          "type": "uint256"
        },
        {
          "internalType": "string",
          "name": "city",
          "type": "string"
        },
        {
          "internalType": "string",
          "name": "phone",
          "type": "string"
        },
        {
          "internalType": "string",
          "name": "currency",
          "type": "string"
        },
        {
          "internalType": "uint256",
          "name": "buy",
          "type": "uint256"
        },
        {
          "internalType": "uint256",
          "name": "sell",
          "type": "uint256"
        },
        {
          "internalType": "string",
          "name": "endtime",
          "type": "string"
        },
        {
          "internalType": "uint256",
          "name": "duration",
          "type": "uint256"
        }
      ],
      "name": "updateCashPoint",
      "outputs": [],
      "stateMutability": "payable",
      "type": "function"
    },
    {
      "inputs": [
        {
          "internalType": "uint256",
          "name": "_tokens",
          "type": "uint256"
        }
      ],
      "name": "withdraw",
      "outputs": [],
      "stateMutability": "nonpayable",
      "type": "function"
    },
    {
      "stateMutability": "payable",
      "type": "receive"
    }
  ],
  "bytecode": "0x60806040526706f05b59d3b20000600a556001600b556000600c556000600d60006101000a81548160ff0219169083151502179055503480156200004257600080fd5b506040518060400160405280600881526020017f4368696b77616d610000000000000000000000000000000000000000000000008152506040518060400160405280600381526020017f43484b00000000000000000000000000000000000000000000000000000000008152508160039081620000c091906200054d565b508060049081620000d291906200054d565b50505033600760006101000a81548173ffffffffffffffffffffffffffffffffffffffff021916908373ffffffffffffffffffffffffffffffffffffffff1602179055506200014c600760009054906101000a900473ffffffffffffffffffffffffffffffffffffffff166127106200015c60201b60201c565b62015f906008819055506200074f565b600073ffffffffffffffffffffffffffffffffffffffff168273ffffffffffffffffffffffffffffffffffffffff1603620001ce576040517f08c379a0000000000000000000000000000000000000000000000000000000008152600401620001c59062000695565b60405180910390fd5b620001e260008383620002c960201b60201c565b8060026000828254620001f69190620006e6565b92505081905550806000808473ffffffffffffffffffffffffffffffffffffffff1673ffffffffffffffffffffffffffffffffffffffff168152602001908152602001600020600082825401925050819055508173ffffffffffffffffffffffffffffffffffffffff16600073ffffffffffffffffffffffffffffffffffffffff167fddf252ad1be2c89b69c2b068fc378daa952ba7f163c4a11628f55a4df523b3ef83604051620002a9919062000732565b60405180910390a3620002c560008383620002ce60201b60201c565b5050565b505050565b505050565b600081519050919050565b7f4e487b7100000000000000000000000000000000000000000000000000000000600052604160045260246000fd5b7f4e487b7100000000000000000000000000000000000000000000000000000000600052602260045260246000fd5b600060028204905060018216806200035557607f821691505b6020821081036200036b576200036a6200030d565b5b50919050565b60008190508160005260206000209050919050565b60006020601f8301049050919050565b600082821b905092915050565b600060088302620003d57fffffffffffffffffffffffffffffffffffffffffffffffffffffffffffffffff8262000396565b620003e1868362000396565b95508019841693508086168417925050509392505050565b6000819050919050565b6000819050919050565b60006200042e620004286200042284620003f9565b62000403565b620003f9565b9050919050565b6000819050919050565b6200044a836200040d565b62000462620004598262000435565b848454620003a3565b825550505050565b600090565b620004796200046a565b620004868184846200043f565b505050565b5b81811015620004ae57620004a26000826200046f565b6001810190506200048c565b5050565b601f821115620004fd57620004c78162000371565b620004d28462000386565b81016020851015620004e2578190505b620004fa620004f18562000386565b8301826200048b565b50505b505050565b600082821c905092915050565b6000620005226000198460080262000502565b1980831691505092915050565b60006200053d83836200050f565b9150826002028217905092915050565b6200055882620002d3565b67ffffffffffffffff811115620005745762000573620002de565b5b6200058082546200033c565b6200058d828285620004b2565b600060209050601f831160018114620005c55760008415620005b0578287015190505b620005bc85826200052f565b8655506200062c565b601f198416620005d58662000371565b60005b82811015620005ff57848901518255600182019150602085019450602081019050620005d8565b868310156200061f57848901516200061b601f8916826200050f565b8355505b6001600288020188555050505b505050505050565b600082825260208201905092915050565b7f45524332303a206d696e7420746f20746865207a65726f206164647265737300600082015250565b60006200067d601f8362000634565b91506200068a8262000645565b602082019050919050565b60006020820190508181036000830152620006b0816200066e565b9050919050565b7f4e487b7100000000000000000000000000000000000000000000000000000000600052601160045260246000fd5b6000620006f382620003f9565b91506200070083620003f9565b92508282019050808211156200071b576200071a620006b7565b5b92915050565b6200072c81620003f9565b82525050565b600060208201905062000749600083018462000721565b92915050565b613f77806200075f6000396000f3fe6080604052600436106101dc5760003560e01c8063785d04f511610102578063b78175f911610095578063dd62ed3e11610064578063dd62ed3e1461070f578063e5d725531461074c578063e97567f914610789578063e9a88419146107d057610224565b8063b78175f914610667578063d49aef6114610690578063da93d0d1146106bb578063dabaddb3146106d257610224565b8063a457c2d7116100d1578063a457c2d714610597578063a74143f9146105d4578063a9059cbb146105ff578063b4a99a4e1461063c57610224565b8063785d04f5146104fa578063833b949914610516578063948e1a1c1461054157806395d89b411461056c57610224565b80632446d79f1161017a5780633610724e116101495780633610724e1461044857806339509351146104645780636e0ce194146104a157806370a08231146104bd57610224565b80632446d79f1461039e5780632e1a7d4d146103c9578063313ce567146103f257806332cb6b0c1461041d57610224565b80630cb6aaf1116101b65780630cb6aaf1146102bc57806318160ddd146102f9578063207b885a1461032457806323b872dd1461036157610224565b806306661abd1461022957806306fdde0314610254578063095ea7b31461027f57610224565b36610224576101e96107ec565b7f88a5966d370b9919b20f3e2c13ff65706f196a4e32cc2c12bf57088f88525874333460405161021a9291906126b3565b60405180910390a1005b600080fd5b34801561023557600080fd5b5061023e61084a565b60405161024b91906126dc565b60405180910390f35b34801561026057600080fd5b50610269610850565b6040516102769190612787565b60405180910390f35b34801561028b57600080fd5b506102a660048036038101906102a19190612815565b6108e2565b6040516102b39190612870565b60405180910390f35b3480156102c857600080fd5b506102e360048036038101906102de919061288b565b610905565b6040516102f091906128b8565b60405180910390f35b34801561030557600080fd5b5061030e610938565b60405161031b91906126dc565b60405180910390f35b34801561033057600080fd5b5061034b6004803603810190610346919061288b565b610942565b6040516103589190612870565b60405180910390f35b34801561036d57600080fd5b50610388600480360381019061038391906128d3565b610957565b6040516103959190612870565b60405180910390f35b3480156103aa57600080fd5b506103b3610986565b6040516103c09190612870565b60405180910390f35b3480156103d557600080fd5b506103f060048036038101906103eb919061288b565b610999565b005b3480156103fe57600080fd5b50610407610b35565b6040516104149190612942565b60405180910390f35b34801561042957600080fd5b50610432610b3e565b60405161043f91906126dc565b60405180910390f35b610462600480360381019061045d919061288b565b610b45565b005b34801561047057600080fd5b5061048b60048036038101906104869190612815565b610ca0565b6040516104989190612870565b60405180910390f35b6104bb60048036038101906104b69190612ac8565b610cd7565b005b3480156104c957600080fd5b506104e460048036038101906104df9190612c48565b61104e565b6040516104f191906126dc565b60405180910390f35b610514600480360381019061050f9190612c75565b611096565b005b34801561052257600080fd5b5061052b6111a5565b60405161053891906126dc565b60405180910390f35b34801561054d57600080fd5b506105566111ab565b60405161056391906126dc565b60405180910390f35b34801561057857600080fd5b506105816111b1565b60405161058e9190612787565b60405180910390f35b3480156105a357600080fd5b506105be60048036038101906105b99190612815565b611243565b6040516105cb9190612870565b60405180910390f35b3480156105e057600080fd5b506105e96112ba565b6040516105f691906126dc565b60405180910390f35b34801561060b57600080fd5b5061062660048036038101906106219190612815565b6112c0565b6040516106339190612870565b60405180910390f35b34801561064857600080fd5b506106516112e3565b60405161065e9190612cd6565b60405180910390f35b34801561067357600080fd5b5061068e60048036038101906106899190612d1d565b611309565b005b34801561069c57600080fd5b506106a56113ba565b6040516106b291906126dc565b60405180910390f35b3480156106c757600080fd5b506106d06107ec565b005b3480156106de57600080fd5b506106f960048036038101906106f4919061288b565b6113c0565b60405161070691906126dc565b60405180910390f35b34801561071b57600080fd5b5061073660048036038101906107319190612d5d565b6113dc565b60405161074391906126dc565b60405180910390f35b34801561075857600080fd5b50610773600480360381019061076e9190612c48565b611463565b6040516107809190612f1f565b60405180910390f35b34801561079557600080fd5b506107b060048036038101906107ab9190612c48565b6117e4565b6040516107c79b9a99989796959493929190612f50565b60405180910390f35b6107ea60048036038101906107e59190612ac8565b611af3565b005b6000471161082f576040517f08c379a000000000000000000000000000000000000000000000000000000000815260040161082690613090565b60405180910390fd5b610837610938565b47610842919061310e565b600981905550565b600c5481565b60606003805461085f9061316e565b80601f016020809104026020016040519081016040528092919081815260200182805461088b9061316e565b80156108d85780601f106108ad576101008083540402835291602001916108d8565b820191906000526020600020905b8154815290600101906020018083116108bb57829003601f168201915b5050505050905090565b6000806108ed611dfd565b90506108fa818585611e05565b600191505092915050565b60066020528060005260406000206000915054906101000a900473ffffffffffffffffffffffffffffffffffffffff1681565b6000600254905090565b60008161094e3361104e565b10159050919050565b600080610962611dfd565b905061096f858285611fce565b61097a85858561205a565b60019150509392505050565b600d60009054906101000a900460ff1681565b60006109a43361104e565b116109e4576040517f08c379a00000000000000000000000000000000000000000000000000000000081526004016109db906131eb565b60405180910390fd5b600d60009054906101000a900460ff1615610a34576040517f08c379a0000000000000000000000000000000000000000000000000000000008152600401610a2b90613257565b60405180910390fd5b6001600d60006101000a81548160ff021916908315150217905550610a576107ec565b60004711610a9a576040517f08c379a0000000000000000000000000000000000000000000000000000000008152600401610a9190613090565b60405180910390fd5b610aa381610942565b610ae2576040517f08c379a0000000000000000000000000000000000000000000000000000000008152600401610ad9906132e9565b60405180910390fd5b610aec33826122d0565b8060086000828254610afe9190613309565b92505081905550610b1733610b12836113c0565b611309565b6000600d60006101000a81548160ff02191690831515021790555050565b60006012905090565b620186a081565b600d60009054906101000a900460ff1615610b95576040517f08c379a0000000000000000000000000000000000000000000000000000000008152600401610b8c90613257565b60405180910390fd5b6001600d60006101000a81548160ff0219169083151502179055503460095482610bbf919061333d565b14610bff576040517f08c379a0000000000000000000000000000000000000000000000000000000008152600401610bf6906133f1565b60405180910390fd5b620186a081610c0c610938565b610c169190613309565b1115610c57576040517f08c379a0000000000000000000000000000000000000000000000000000000008152600401610c4e9061345d565b60405180910390fd5b610c61338261249d565b610c696107ec565b8060086000828254610c7b919061347d565b925050819055506000600d60006101000a81548160ff02191690831515021790555050565b600080610cab611dfd565b9050610ccc818585610cbd85896113dc565b610cc79190613309565b611e05565b600191505092915050565b600d60009054906101000a900460ff1615610d27576040517f08c379a0000000000000000000000000000000000000000000000000000000008152600401610d1e90613257565b60405180910390fd5b6001600d60006101000a81548160ff0219169083151502179055506000600a5482610d52919061333d565b9050803414610d96576040517f08c379a0000000000000000000000000000000000000000000000000000000008152600401610d8d906134fd565b60405180910390fd5b600560003373ffffffffffffffffffffffffffffffffffffffff1673ffffffffffffffffffffffffffffffffffffffff168152602001908152602001600020600a0160009054906101000a900460ff1615610e26576040517f08c379a0000000000000000000000000000000000000000000000000000000008152600401610e1d90613569565b60405180910390fd5b6040518061016001604052808d81526020018c81526020018b81526020018a815260200189815260200188815260200187815260200186815260200185815260200184815260200160011515815250600560003373ffffffffffffffffffffffffffffffffffffffff1673ffffffffffffffffffffffffffffffffffffffff1681526020019081526020016000206000820151816000019081610ec99190613735565b506020820151816001015560408201518160020155606082015181600301556080820151816004019081610efd9190613735565b5060a0820151816005019081610f139190613735565b5060c0820151816006019081610f299190613735565b5060e082015181600701556101008201518160080155610120820151816009019081610f559190613735565b5061014082015181600a0160006101000a81548160ff021916908315150217905550905050600c6000815480929190610f8d90613807565b91905055503360066000600c54815260200190815260200160002060006101000a81548173ffffffffffffffffffffffffffffffffffffffff021916908373ffffffffffffffffffffffffffffffffffffffff160217905550610fee6107ec565b7f5b73fdb55c6d540b14745a3fd5938bc6f31fefb134291d87585fb561def1395b3360405161101d91906128b8565b60405180910390a1506000600d60006101000a81548160ff0219169083151502179055505050505050505050505050565b60008060008373ffffffffffffffffffffffffffffffffffffffff1673ffffffffffffffffffffffffffffffffffffffff168152602001908152602001600020549050919050565b600d60009054906101000a900460ff16156110e6576040517f08c379a00000000000000000000000000000000000000000000000000000000081526004016110dd90613257565b60405180910390fd5b6001600d60006101000a81548160ff0219169083151502179055506000826064600b54611113919061310e565b61111d919061333d565b90506000838261112d9190613309565b905080341015611172576040517f08c379a00000000000000000000000000000000000000000000000000000000081526004016111699061389b565b60405180910390fd5b61117c8385611309565b6111846107ec565b50506000600d60006101000a81548160ff0219169083151502179055505050565b60095481565b60085481565b6060600480546111c09061316e565b80601f01602080910402602001604051908101604052809291908181526020018280546111ec9061316e565b80156112395780601f1061120e57610100808354040283529160200191611239565b820191906000526020600020905b81548152906001019060200180831161121c57829003601f168201915b5050505050905090565b60008061124e611dfd565b9050600061125c82866113dc565b9050838110156112a1576040517f08c379a00000000000000000000000000000000000000000000000000000000081526004016112989061392d565b60405180910390fd5b6112ae8286868403611e05565b60019250505092915050565b600b5481565b6000806112cb611dfd565b90506112d881858561205a565b600191505092915050565b600760009054906101000a900473ffffffffffffffffffffffffffffffffffffffff1681565b60008273ffffffffffffffffffffffffffffffffffffffff168260405161132f9061397e565b60006040518083038185875af1925050503d806000811461136c576040519150601f19603f3d011682016040523d82523d6000602084013e611371565b606091505b50509050806113b5576040517f08c379a00000000000000000000000000000000000000000000000000000000081526004016113ac906139df565b60405180910390fd5b505050565b600a5481565b600080600954836113d1919061333d565b905080915050919050565b6000600160008473ffffffffffffffffffffffffffffffffffffffff1673ffffffffffffffffffffffffffffffffffffffff16815260200190815260200160002060008373ffffffffffffffffffffffffffffffffffffffff1673ffffffffffffffffffffffffffffffffffffffff16815260200190815260200160002054905092915050565b61146b6125fd565b600560008373ffffffffffffffffffffffffffffffffffffffff1673ffffffffffffffffffffffffffffffffffffffff168152602001908152602001600020604051806101600160405290816000820180546114c69061316e565b80601f01602080910402602001604051908101604052809291908181526020018280546114f29061316e565b801561153f5780601f106115145761010080835404028352916020019161153f565b820191906000526020600020905b81548152906001019060200180831161152257829003601f168201915b505050505081526020016001820154815260200160028201548152602001600382015481526020016004820180546115769061316e565b80601f01602080910402602001604051908101604052809291908181526020018280546115a29061316e565b80156115ef5780601f106115c4576101008083540402835291602001916115ef565b820191906000526020600020905b8154815290600101906020018083116115d257829003601f168201915b505050505081526020016005820180546116089061316e565b80601f01602080910402602001604051908101604052809291908181526020018280546116349061316e565b80156116815780601f1061165657610100808354040283529160200191611681565b820191906000526020600020905b81548152906001019060200180831161166457829003601f168201915b5050505050815260200160068201805461169a9061316e565b80601f01602080910402602001604051908101604052809291908181526020018280546116c69061316e565b80156117135780601f106116e857610100808354040283529160200191611713565b820191906000526020600020905b8154815290600101906020018083116116f657829003601f168201915b5050505050815260200160078201548152602001600882015481526020016009820180546117409061316e565b80601f016020809104026020016040519081016040528092919081815260200182805461176c9061316e565b80156117b95780601f1061178e576101008083540402835291602001916117b9565b820191906000526020600020905b81548152906001019060200180831161179c57829003601f168201915b50505050508152602001600a820160009054906101000a900460ff1615151515815250509050919050565b60056020528060005260406000206000915090508060000180546118079061316e565b80601f01602080910402602001604051908101604052809291908181526020018280546118339061316e565b80156118805780601f1061185557610100808354040283529160200191611880565b820191906000526020600020905b81548152906001019060200180831161186357829003601f168201915b5050505050908060010154908060020154908060030154908060040180546118a79061316e565b80601f01602080910402602001604051908101604052809291908181526020018280546118d39061316e565b80156119205780601f106118f557610100808354040283529160200191611920565b820191906000526020600020905b81548152906001019060200180831161190357829003601f168201915b5050505050908060050180546119359061316e565b80601f01602080910402602001604051908101604052809291908181526020018280546119619061316e565b80156119ae5780601f10611983576101008083540402835291602001916119ae565b820191906000526020600020905b81548152906001019060200180831161199157829003601f168201915b5050505050908060060180546119c39061316e565b80601f01602080910402602001604051908101604052809291908181526020018280546119ef9061316e565b8015611a3c5780601f10611a1157610100808354040283529160200191611a3c565b820191906000526020600020905b815481529060010190602001808311611a1f57829003601f168201915b505050505090806007015490806008015490806009018054611a5d9061316e565b80601f0160208091040260200160405190810160405280929190818152602001828054611a899061316e565b8015611ad65780601f10611aab57610100808354040283529160200191611ad6565b820191906000526020600020905b815481529060010190602001808311611ab957829003601f168201915b50505050509080600a0160009054906101000a900460ff1690508b565b600d60009054906101000a900460ff1615611b43576040517f08c379a0000000000000000000000000000000000000000000000000000000008152600401611b3a90613257565b60405180910390fd5b6001600d60006101000a81548160ff0219169083151502179055506000600a5482611b6e919061333d565b9050803414611bb2576040517f08c379a0000000000000000000000000000000000000000000000000000000008152600401611ba9906134fd565b60405180910390fd5b600560003373ffffffffffffffffffffffffffffffffffffffff1673ffffffffffffffffffffffffffffffffffffffff168152602001908152602001600020600a0160009054906101000a900460ff16611c41576040517f08c379a0000000000000000000000000000000000000000000000000000000008152600401611c3890613a4b565b60405180910390fd5b6040518061016001604052808d81526020018c81526020018b81526020018a815260200189815260200188815260200187815260200186815260200185815260200184815260200160011515815250600560003373ffffffffffffffffffffffffffffffffffffffff1673ffffffffffffffffffffffffffffffffffffffff1681526020019081526020016000206000820151816000019081611ce49190613735565b506020820151816001015560408201518160020155606082015181600301556080820151816004019081611d189190613735565b5060a0820151816005019081611d2e9190613735565b5060c0820151816006019081611d449190613735565b5060e082015181600701556101008201518160080155610120820151816009019081611d709190613735565b5061014082015181600a0160006101000a81548160ff021916908315150217905550905050611d9d6107ec565b7faa9f6ecd6a994e8b7abb6b3f3a42756c6c483a3abc40d774db0e7d564ecf895833604051611dcc91906128b8565b60405180910390a1506000600d60006101000a81548160ff0219169083151502179055505050505050505050505050565b600033905090565b600073ffffffffffffffffffffffffffffffffffffffff168373ffffffffffffffffffffffffffffffffffffffff1603611e74576040517f08c379a0000000000000000000000000000000000000000000000000000000008152600401611e6b90613add565b60405180910390fd5b600073ffffffffffffffffffffffffffffffffffffffff168273ffffffffffffffffffffffffffffffffffffffff1603611ee3576040517f08c379a0000000000000000000000000000000000000000000000000000000008152600401611eda90613b6f565b60405180910390fd5b80600160008573ffffffffffffffffffffffffffffffffffffffff1673ffffffffffffffffffffffffffffffffffffffff16815260200190815260200160002060008473ffffffffffffffffffffffffffffffffffffffff1673ffffffffffffffffffffffffffffffffffffffff168152602001908152602001600020819055508173ffffffffffffffffffffffffffffffffffffffff168373ffffffffffffffffffffffffffffffffffffffff167f8c5be1e5ebec7d5bd14f71427d1e84f3dd0314c0f7b2291e5b200ac8c7c3b92583604051611fc191906126dc565b60405180910390a3505050565b6000611fda84846113dc565b90507fffffffffffffffffffffffffffffffffffffffffffffffffffffffffffffffff81146120545781811015612046576040517f08c379a000000000000000000000000000000000000000000000000000000000815260040161203d90613bdb565b60405180910390fd5b6120538484848403611e05565b5b50505050565b600073ffffffffffffffffffffffffffffffffffffffff168373ffffffffffffffffffffffffffffffffffffffff16036120c9576040517f08c379a00000000000000000000000000000000000000000000000000000000081526004016120c090613c6d565b60405180910390fd5b600073ffffffffffffffffffffffffffffffffffffffff168273ffffffffffffffffffffffffffffffffffffffff1603612138576040517f08c379a000000000000000000000000000000000000000000000000000000000815260040161212f90613cff565b60405180910390fd5b6121438383836125f3565b60008060008573ffffffffffffffffffffffffffffffffffffffff1673ffffffffffffffffffffffffffffffffffffffff168152602001908152602001600020549050818110156121c9576040517f08c379a00000000000000000000000000000000000000000000000000000000081526004016121c090613d91565b60405180910390fd5b8181036000808673ffffffffffffffffffffffffffffffffffffffff1673ffffffffffffffffffffffffffffffffffffffff16815260200190815260200160002081905550816000808573ffffffffffffffffffffffffffffffffffffffff1673ffffffffffffffffffffffffffffffffffffffff168152602001908152602001600020600082825401925050819055508273ffffffffffffffffffffffffffffffffffffffff168473ffffffffffffffffffffffffffffffffffffffff167fddf252ad1be2c89b69c2b068fc378daa952ba7f163c4a11628f55a4df523b3ef846040516122b791906126dc565b60405180910390a36122ca8484846125f8565b50505050565b600073ffffffffffffffffffffffffffffffffffffffff168273ffffffffffffffffffffffffffffffffffffffff160361233f576040517f08c379a000000000000000000000000000000000000000000000000000000000815260040161233690613e23565b60405180910390fd5b61234b826000836125f3565b60008060008473ffffffffffffffffffffffffffffffffffffffff1673ffffffffffffffffffffffffffffffffffffffff168152602001908152602001600020549050818110156123d1576040517f08c379a00000000000000000000000000000000000000000000000000000000081526004016123c890613eb5565b60405180910390fd5b8181036000808573ffffffffffffffffffffffffffffffffffffffff1673ffffffffffffffffffffffffffffffffffffffff1681526020019081526020016000208190555081600260008282540392505081905550600073ffffffffffffffffffffffffffffffffffffffff168373ffffffffffffffffffffffffffffffffffffffff167fddf252ad1be2c89b69c2b068fc378daa952ba7f163c4a11628f55a4df523b3ef8460405161248491906126dc565b60405180910390a3612498836000846125f8565b505050565b600073ffffffffffffffffffffffffffffffffffffffff168273ffffffffffffffffffffffffffffffffffffffff160361250c576040517f08c379a000000000000000000000000000000000000000000000000000000000815260040161250390613f21565b60405180910390fd5b612518600083836125f3565b806002600082825461252a9190613309565b92505081905550806000808473ffffffffffffffffffffffffffffffffffffffff1673ffffffffffffffffffffffffffffffffffffffff168152602001908152602001600020600082825401925050819055508173ffffffffffffffffffffffffffffffffffffffff16600073ffffffffffffffffffffffffffffffffffffffff167fddf252ad1be2c89b69c2b068fc378daa952ba7f163c4a11628f55a4df523b3ef836040516125db91906126dc565b60405180910390a36125ef600083836125f8565b5050565b505050565b505050565b604051806101600160405280606081526020016000815260200160008152602001600081526020016060815260200160608152602001606081526020016000815260200160008152602001606081526020016000151581525090565b600073ffffffffffffffffffffffffffffffffffffffff82169050919050565b600061268482612659565b9050919050565b61269481612679565b82525050565b6000819050919050565b6126ad8161269a565b82525050565b60006040820190506126c8600083018561268b565b6126d560208301846126a4565b9392505050565b60006020820190506126f160008301846126a4565b92915050565b600081519050919050565b600082825260208201905092915050565b60005b83811015612731578082015181840152602081019050612716565b60008484015250505050565b6000601f19601f8301169050919050565b6000612759826126f7565b6127638185612702565b9350612773818560208601612713565b61277c8161273d565b840191505092915050565b600060208201905081810360008301526127a1818461274e565b905092915050565b6000604051905090565b600080fd5b600080fd5b6127c681612679565b81146127d157600080fd5b50565b6000813590506127e3816127bd565b92915050565b6127f28161269a565b81146127fd57600080fd5b50565b60008135905061280f816127e9565b92915050565b6000806040838503121561282c5761282b6127b3565b5b600061283a858286016127d4565b925050602061284b85828601612800565b9150509250929050565b60008115159050919050565b61286a81612855565b82525050565b60006020820190506128856000830184612861565b92915050565b6000602082840312156128a1576128a06127b3565b5b60006128af84828501612800565b91505092915050565b60006020820190506128cd600083018461268b565b92915050565b6000806000606084860312156128ec576128eb6127b3565b5b60006128fa868287016127d4565b935050602061290b868287016127d4565b925050604061291c86828701612800565b9150509250925092565b600060ff82169050919050565b61293c81612926565b82525050565b60006020820190506129576000830184612933565b92915050565b600080fd5b600080fd5b7f4e487b7100000000000000000000000000000000000000000000000000000000600052604160045260246000fd5b61299f8261273d565b810181811067ffffffffffffffff821117156129be576129bd612967565b5b80604052505050565b60006129d16127a9565b90506129dd8282612996565b919050565b600067ffffffffffffffff8211156129fd576129fc612967565b5b612a068261273d565b9050602081019050919050565b82818337600083830152505050565b6000612a35612a30846129e2565b6129c7565b905082815260208101848484011115612a5157612a50612962565b5b612a5c848285612a13565b509392505050565b600082601f830112612a7957612a7861295d565b5b8135612a89848260208601612a22565b91505092915050565b6000819050919050565b612aa581612a92565b8114612ab057600080fd5b50565b600081359050612ac281612a9c565b92915050565b60008060008060008060008060008060006101608c8e031215612aee57612aed6127b3565b5b60008c013567ffffffffffffffff811115612b0c57612b0b6127b8565b5b612b188e828f01612a64565b9b50506020612b298e828f01612ab3565b9a50506040612b3a8e828f01612ab3565b9950506060612b4b8e828f01612800565b98505060808c013567ffffffffffffffff811115612b6c57612b6b6127b8565b5b612b788e828f01612a64565b97505060a08c013567ffffffffffffffff811115612b9957612b986127b8565b5b612ba58e828f01612a64565b96505060c08c013567ffffffffffffffff811115612bc657612bc56127b8565b5b612bd28e828f01612a64565b95505060e0612be38e828f01612800565b945050610100612bf58e828f01612800565b9350506101208c013567ffffffffffffffff811115612c1757612c166127b8565b5b612c238e828f01612a64565b925050610140612c358e828f01612800565b9150509295989b509295989b9093969950565b600060208284031215612c5e57612c5d6127b3565b5b6000612c6c848285016127d4565b91505092915050565b60008060408385031215612c8c57612c8b6127b3565b5b6000612c9a85828601612800565b9250506020612cab858286016127d4565b9150509250929050565b6000612cc082612659565b9050919050565b612cd081612cb5565b82525050565b6000602082019050612ceb6000830184612cc7565b92915050565b612cfa81612cb5565b8114612d0557600080fd5b50565b600081359050612d1781612cf1565b92915050565b60008060408385031215612d3457612d336127b3565b5b6000612d4285828601612d08565b9250506020612d5385828601612800565b9150509250929050565b60008060408385031215612d7457612d736127b3565b5b6000612d82858286016127d4565b9250506020612d93858286016127d4565b9150509250929050565b600082825260208201905092915050565b6000612db9826126f7565b612dc38185612d9d565b9350612dd3818560208601612713565b612ddc8161273d565b840191505092915050565b612df081612a92565b82525050565b612dff8161269a565b82525050565b612e0e81612855565b82525050565b6000610160830160008301518482036000860152612e328282612dae565b9150506020830151612e476020860182612de7565b506040830151612e5a6040860182612de7565b506060830151612e6d6060860182612df6565b5060808301518482036080860152612e858282612dae565b91505060a083015184820360a0860152612e9f8282612dae565b91505060c083015184820360c0860152612eb98282612dae565b91505060e0830151612ece60e0860182612df6565b50610100830151612ee3610100860182612df6565b50610120830151848203610120860152612efd8282612dae565b915050610140830151612f14610140860182612e05565b508091505092915050565b60006020820190508181036000830152612f398184612e14565b905092915050565b612f4a81612a92565b82525050565b6000610160820190508181036000830152612f6b818e61274e565b9050612f7a602083018d612f41565b612f87604083018c612f41565b612f94606083018b6126a4565b8181036080830152612fa6818a61274e565b905081810360a0830152612fba818961274e565b905081810360c0830152612fce818861274e565b9050612fdd60e08301876126a4565b612feb6101008301866126a4565b818103610120830152612ffe818561274e565b905061300e610140830184612861565b9c9b505050505050505050505050565b7f5468657265206973206e6f2076616c756520696e207468697320636f6e74726160008201527f6374000000000000000000000000000000000000000000000000000000000000602082015250565b600061307a602283612702565b91506130858261301e565b604082019050919050565b600060208201905081810360008301526130a98161306d565b9050919050565b7f4e487b7100000000000000000000000000000000000000000000000000000000600052601260045260246000fd5b7f4e487b7100000000000000000000000000000000000000000000000000000000600052601160045260246000fd5b60006131198261269a565b91506131248361269a565b925082613134576131336130b0565b5b828204905092915050565b7f4e487b7100000000000000000000000000000000000000000000000000000000600052602260045260246000fd5b6000600282049050600182168061318657607f821691505b6020821081036131995761319861313f565b5b50919050565b7f4e6f7420686f6c64657200000000000000000000000000000000000000000000600082015250565b60006131d5600a83612702565b91506131e08261319f565b602082019050919050565b60006020820190508181036000830152613204816131c8565b9050919050565b7f5265656e7472616e6379206973206e6f7420616c6c6f77656400000000000000600082015250565b6000613241601983612702565b915061324c8261320b565b602082019050919050565b6000602082019050818103600083015261327081613234565b9050919050565b7f596f752061726520747279696e6720746f207769746864726177206d6f72652060008201527f7468616e20796f7572207374616b650000000000000000000000000000000000602082015250565b60006132d3602f83612702565b91506132de82613277565b604082019050919050565b60006020820190508181036000830152613302816132c6565b9050919050565b60006133148261269a565b915061331f8361269a565b9250828201905080821115613337576133366130df565b5b92915050565b60006133488261269a565b91506133538361269a565b92508282026133618161269a565b91508282048414831517613378576133776130df565b5b5092915050565b7f596f75206172652073656e64696e67207468652077726f6e6720616d6f756e7460008201527f20746f207468697320636f6e7472616374000000000000000000000000000000602082015250565b60006133db603183612702565b91506133e68261337f565b604082019050919050565b6000602082019050818103600083015261340a816133ce565b9050919050565b7f4d617820737570706c7920726561636865640000000000000000000000000000600082015250565b6000613447601283612702565b915061345282613411565b602082019050919050565b600060208201905081810360008301526134768161343a565b9050919050565b60006134888261269a565b91506134938361269a565b92508282039050818111156134ab576134aa6130df565b5b92915050565b7f506c656173652070617920746865207265636f6d6d656e646564206665650000600082015250565b60006134e7601e83612702565b91506134f2826134b1565b602082019050919050565b60006020820190508181036000830152613516816134da565b9050919050565b7f416c726561647920612063617368706f696e7400000000000000000000000000600082015250565b6000613553601383612702565b915061355e8261351d565b602082019050919050565b6000602082019050818103600083015261358281613546565b9050919050565b60008190508160005260206000209050919050565b60006020601f8301049050919050565b600082821b905092915050565b6000600883026135eb7fffffffffffffffffffffffffffffffffffffffffffffffffffffffffffffffff826135ae565b6135f586836135ae565b95508019841693508086168417925050509392505050565b6000819050919050565b600061363261362d6136288461269a565b61360d565b61269a565b9050919050565b6000819050919050565b61364c83613617565b61366061365882613639565b8484546135bb565b825550505050565b600090565b613675613668565b613680818484613643565b505050565b5b818110156136a45761369960008261366d565b600181019050613686565b5050565b601f8211156136e9576136ba81613589565b6136c38461359e565b810160208510156136d2578190505b6136e66136de8561359e565b830182613685565b50505b505050565b600082821c905092915050565b600061370c600019846008026136ee565b1980831691505092915050565b600061372583836136fb565b9150826002028217905092915050565b61373e826126f7565b67ffffffffffffffff81111561375757613756612967565b5b613761825461316e565b61376c8282856136a8565b600060209050601f83116001811461379f576000841561378d578287015190505b6137978582613719565b8655506137ff565b601f1984166137ad86613589565b60005b828110156137d5578489015182556001820191506020850194506020810190506137b0565b868310156137f257848901516137ee601f8916826136fb565b8355505b6001600288020188555050505b505050505050565b60006138128261269a565b91507fffffffffffffffffffffffffffffffffffffffffffffffffffffffffffffffff8203613844576138436130df565b5b600182019050919050565b7f4e6f7420656e6f7567682066756e64732073656e740000000000000000000000600082015250565b6000613885601583612702565b91506138908261384f565b602082019050919050565b600060208201905081810360008301526138b481613878565b9050919050565b7f45524332303a2064656372656173656420616c6c6f77616e63652062656c6f7760008201527f207a65726f000000000000000000000000000000000000000000000000000000602082015250565b6000613917602583612702565b9150613922826138bb565b604082019050919050565b600060208201905081810360008301526139468161390a565b9050919050565b600081905092915050565b50565b600061396860008361394d565b915061397382613958565b600082019050919050565b60006139898261395b565b9150819050919050565b7f4661696c656420746f2073656e64207844616900000000000000000000000000600082015250565b60006139c9601383612702565b91506139d482613993565b602082019050919050565b600060208201905081810360008301526139f8816139bc565b9050919050565b7f4e6f7420612063617368706f696e740000000000000000000000000000000000600082015250565b6000613a35600f83612702565b9150613a40826139ff565b602082019050919050565b60006020820190508181036000830152613a6481613a28565b9050919050565b7f45524332303a20617070726f76652066726f6d20746865207a65726f2061646460008201527f7265737300000000000000000000000000000000000000000000000000000000602082015250565b6000613ac7602483612702565b9150613ad282613a6b565b604082019050919050565b60006020820190508181036000830152613af681613aba565b9050919050565b7f45524332303a20617070726f766520746f20746865207a65726f20616464726560008201527f7373000000000000000000000000000000000000000000000000000000000000602082015250565b6000613b59602283612702565b9150613b6482613afd565b604082019050919050565b60006020820190508181036000830152613b8881613b4c565b9050919050565b7f45524332303a20696e73756666696369656e7420616c6c6f77616e6365000000600082015250565b6000613bc5601d83612702565b9150613bd082613b8f565b602082019050919050565b60006020820190508181036000830152613bf481613bb8565b9050919050565b7f45524332303a207472616e736665722066726f6d20746865207a65726f20616460008201527f6472657373000000000000000000000000000000000000000000000000000000602082015250565b6000613c57602583612702565b9150613c6282613bfb565b604082019050919050565b60006020820190508181036000830152613c8681613c4a565b9050919050565b7f45524332303a207472616e7366657220746f20746865207a65726f206164647260008201527f6573730000000000000000000000000000000000000000000000000000000000602082015250565b6000613ce9602383612702565b9150613cf482613c8d565b604082019050919050565b60006020820190508181036000830152613d1881613cdc565b9050919050565b7f45524332303a207472616e7366657220616d6f756e742065786365656473206260008201527f616c616e63650000000000000000000000000000000000000000000000000000602082015250565b6000613d7b602683612702565b9150613d8682613d1f565b604082019050919050565b60006020820190508181036000830152613daa81613d6e565b9050919050565b7f45524332303a206275726e2066726f6d20746865207a65726f2061646472657360008201527f7300000000000000000000000000000000000000000000000000000000000000602082015250565b6000613e0d602183612702565b9150613e1882613db1565b604082019050919050565b60006020820190508181036000830152613e3c81613e00565b9050919050565b7f45524332303a206275726e20616d6f756e7420657863656564732062616c616e60008201527f6365000000000000000000000000000000000000000000000000000000000000602082015250565b6000613e9f602283612702565b9150613eaa82613e43565b604082019050919050565b60006020820190508181036000830152613ece81613e92565b9050919050565b7f45524332303a206d696e7420746f20746865207a65726f206164647265737300600082015250565b6000613f0b601f83612702565b9150613f1682613ed5565b602082019050919050565b60006020820190508181036000830152613f3a81613efe565b905091905056fea2646970667358221220df3380cfb677ffdb73ed4ba1b6ec020c725e9735f93dfba48d05d33a2a2763b064736f6c63430008110033",
  "linkReferences": {},
  "deployedLinkReferences": {}
}