{
  "_format": "hh-sol-artifact-1",
  "contractName": "CashPoints",
  "sourceName": "contracts/Cashpoints.sol",
  "abi": [
    {
      "inputs": [],
      "stateMutability": "nonpayable",
      "type": "constructor"
    },
    {
      "anonymous": false,
      "inputs": [
        {
          "indexed": true,
          "internalType": "address",
          "name": "owner",
          "type": "address"
        },
        {
          "indexed": true,
          "internalType": "address",
          "name": "spender",
          "type": "address"
        },
        {
          "indexed": false,
          "internalType": "uint256",
          "name": "value",
          "type": "uint256"
        }
      ],
      "name": "Approval",
      "type": "event"
    },
    {
      "anonymous": false,
      "inputs": [
        {
          "indexed": false,
          "internalType": "address",
          "name": "cashpoint",
          "type": "address"
        }
      ],
      "name": "CreatedCashPoint",
      "type": "event"
    },
    {
      "anonymous": false,
      "inputs": [
        {
          "indexed": false,
          "internalType": "address",
          "name": "",
          "type": "address"
        },
        {
          "indexed": false,
          "internalType": "uint256",
          "name": "",
          "type": "uint256"
        }
      ],
      "name": "Received",
      "type": "event"
    },
    {
      "anonymous": false,
      "inputs": [
        {
          "indexed": true,
          "internalType": "address",
          "name": "from",
          "type": "address"
        },
        {
          "indexed": true,
          "internalType": "address",
          "name": "to",
          "type": "address"
        },
        {
          "indexed": false,
          "internalType": "uint256",
          "name": "value",
          "type": "uint256"
        }
      ],
      "name": "Transfer",
      "type": "event"
    },
    {
      "anonymous": false,
      "inputs": [
        {
          "indexed": false,
          "internalType": "address",
          "name": "cashpoint",
          "type": "address"
        }
      ],
      "name": "UpdatedCashPoint",
      "type": "event"
    },
    {
      "inputs": [],
      "name": "AVAILABLE_TOKENS",
      "outputs": [
        {
          "internalType": "uint256",
          "name": "",
          "type": "uint256"
        }
      ],
      "stateMutability": "view",
      "type": "function"
    },
    {
      "inputs": [],
      "name": "CASHPOINT_FEE",
      "outputs": [
        {
          "internalType": "uint256",
          "name": "",
          "type": "uint256"
        }
      ],
      "stateMutability": "view",
      "type": "function"
    },
    {
      "inputs": [],
      "name": "MAX_SUPPLY",
      "outputs": [
        {
          "internalType": "uint256",
          "name": "",
          "type": "uint256"
        }
      ],
      "stateMutability": "view",
      "type": "function"
    },
    {
      "inputs": [],
      "name": "Owner",
      "outputs": [
        {
          "internalType": "address payable",
          "name": "",
          "type": "address"
        }
      ],
      "stateMutability": "view",
      "type": "function"
    },
    {
      "inputs": [],
      "name": "PRICE_PER_TOKEN",
      "outputs": [
        {
          "internalType": "uint256",
          "name": "",
          "type": "uint256"
        }
      ],
      "stateMutability": "view",
      "type": "function"
    },
    {
      "inputs": [],
      "name": "TRANSACTION_COMMISION",
      "outputs": [
        {
          "internalType": "uint256",
          "name": "",
          "type": "uint256"
        }
      ],
      "stateMutability": "view",
      "type": "function"
    },
    {
      "inputs": [
        {
          "internalType": "string",
          "name": "name",
          "type": "string"
        },
        {
          "internalType": "int256",
          "name": "lat",
          "type": "int256"
        },
        {
          "internalType": "int256",
          "name": "long",
          "type": "int256"
        },
        {
          "internalType": "uint256",
          "name": "accuracy",
          "type": "uint256"
        },
        {
          "internalType": "string",
          "name": "city",
          "type": "string"
        },
        {
          "internalType": "string",
          "name": "phone",
          "type": "string"
        },
        {
          "internalType": "string",
          "name": "currency",
          "type": "string"
        },
        {
          "internalType": "uint256",
          "name": "buy",
          "type": "uint256"
        },
        {
          "internalType": "uint256",
          "name": "sell",
          "type": "uint256"
        },
        {
          "internalType": "uint256",
          "name": "endtime",
          "type": "uint256"
        },
        {
          "internalType": "uint256",
          "name": "duration",
          "type": "uint256"
        }
      ],
      "name": "addCashPoint",
      "outputs": [],
      "stateMutability": "payable",
      "type": "function"
    },
    {
      "inputs": [
        {
          "internalType": "address",
          "name": "owner",
          "type": "address"
        },
        {
          "internalType": "address",
          "name": "spender",
          "type": "address"
        }
      ],
      "name": "allowance",
      "outputs": [
        {
          "internalType": "uint256",
          "name": "",
          "type": "uint256"
        }
      ],
      "stateMutability": "view",
      "type": "function"
    },
    {
      "inputs": [
        {
          "internalType": "address",
          "name": "spender",
          "type": "address"
        },
        {
          "internalType": "uint256",
          "name": "amount",
          "type": "uint256"
        }
      ],
      "name": "approve",
      "outputs": [
        {
          "internalType": "bool",
          "name": "",
          "type": "bool"
        }
      ],
      "stateMutability": "nonpayable",
      "type": "function"
    },
    {
      "inputs": [
        {
          "internalType": "address",
          "name": "account",
          "type": "address"
        }
      ],
      "name": "balanceOf",
      "outputs": [
        {
          "internalType": "uint256",
          "name": "",
          "type": "uint256"
        }
      ],
      "stateMutability": "view",
      "type": "function"
    },
    {
      "inputs": [
        {
          "internalType": "uint256",
          "name": "_amount",
          "type": "uint256"
        }
      ],
      "name": "buyTokens",
      "outputs": [],
      "stateMutability": "payable",
      "type": "function"
    },
    {
      "inputs": [
        {
          "internalType": "address",
          "name": "",
          "type": "address"
        }
      ],
      "name": "cashpoints",
      "outputs": [
        {
          "internalType": "string",
          "name": "_name",
          "type": "string"
        },
        {
          "internalType": "int256",
          "name": "latitude",
          "type": "int256"
        },
        {
          "internalType": "int256",
          "name": "longitude",
          "type": "int256"
        },
        {
          "internalType": "uint256",
          "name": "accuracy",
          "type": "uint256"
        },
        {
          "internalType": "string",
          "name": "city",
          "type": "string"
        },
        {
          "internalType": "string",
          "name": "_phoneNumber",
          "type": "string"
        },
        {
          "internalType": "string",
          "name": "_currency",
          "type": "string"
        },
        {
          "internalType": "uint256",
          "name": "_buy",
          "type": "uint256"
        },
        {
          "internalType": "uint256",
          "name": "_sell",
          "type": "uint256"
        },
        {
          "internalType": "uint256",
          "name": "_endTime",
          "type": "uint256"
        },
        {
          "internalType": "bool",
          "name": "_isCashPoint",
          "type": "bool"
        }
      ],
      "stateMutability": "view",
      "type": "function"
    },
    {
      "inputs": [
        {
          "internalType": "uint256",
          "name": "_tokens",
          "type": "uint256"
        }
      ],
      "name": "checkAmountToTransfer",
      "outputs": [
        {
          "internalType": "uint256",
          "name": "",
          "type": "uint256"
        }
      ],
      "stateMutability": "view",
      "type": "function"
    },
    {
      "inputs": [
        {
          "internalType": "uint256",
          "name": "_tokens",
          "type": "uint256"
        }
      ],
      "name": "checkIfICanWithdraw",
      "outputs": [
        {
          "internalType": "bool",
          "name": "",
          "type": "bool"
        }
      ],
      "stateMutability": "view",
      "type": "function"
    },
    {
      "inputs": [],
      "name": "count",
      "outputs": [
        {
          "internalType": "uint256",
          "name": "",
          "type": "uint256"
        }
      ],
      "stateMutability": "view",
      "type": "function"
    },
    {
      "inputs": [],
      "name": "decimals",
      "outputs": [
        {
          "internalType": "uint8",
          "name": "",
          "type": "uint8"
        }
      ],
      "stateMutability": "view",
      "type": "function"
    },
    {
      "inputs": [
        {
          "internalType": "address",
          "name": "spender",
          "type": "address"
        },
        {
          "internalType": "uint256",
          "name": "subtractedValue",
          "type": "uint256"
        }
      ],
      "name": "decreaseAllowance",
      "outputs": [
        {
          "internalType": "bool",
          "name": "",
          "type": "bool"
        }
      ],
      "stateMutability": "nonpayable",
      "type": "function"
    },
    {
      "inputs": [
        {
          "internalType": "address",
          "name": "cp",
          "type": "address"
        }
      ],
      "name": "getCashPoint",
      "outputs": [
        {
          "components": [
            {
              "internalType": "string",
              "name": "_name",
              "type": "string"
            },
            {
              "internalType": "int256",
              "name": "latitude",
              "type": "int256"
            },
            {
              "internalType": "int256",
              "name": "longitude",
              "type": "int256"
            },
            {
              "internalType": "uint256",
              "name": "accuracy",
              "type": "uint256"
            },
            {
              "internalType": "string",
              "name": "city",
              "type": "string"
            },
            {
              "internalType": "string",
              "name": "_phoneNumber",
              "type": "string"
            },
            {
              "internalType": "string",
              "name": "_currency",
              "type": "string"
            },
            {
              "internalType": "uint256",
              "name": "_buy",
              "type": "uint256"
            },
            {
              "internalType": "uint256",
              "name": "_sell",
              "type": "uint256"
            },
            {
              "internalType": "uint256",
              "name": "_endTime",
              "type": "uint256"
            },
            {
              "internalType": "bool",
              "name": "_isCashPoint",
              "type": "bool"
            }
          ],
          "internalType": "struct CashPoints.CashPoint",
          "name": "cashpoint",
          "type": "tuple"
        }
      ],
      "stateMutability": "view",
      "type": "function"
    },
    {
      "inputs": [
        {
          "internalType": "address",
          "name": "spender",
          "type": "address"
        },
        {
          "internalType": "uint256",
          "name": "addedValue",
          "type": "uint256"
        }
      ],
      "name": "increaseAllowance",
      "outputs": [
        {
          "internalType": "bool",
          "name": "",
          "type": "bool"
        }
      ],
      "stateMutability": "nonpayable",
      "type": "function"
    },
    {
      "inputs": [
        {
          "internalType": "uint256",
          "name": "",
          "type": "uint256"
        }
      ],
      "name": "keys",
      "outputs": [
        {
          "internalType": "address",
          "name": "",
          "type": "address"
        }
      ],
      "stateMutability": "view",
      "type": "function"
    },
    {
      "inputs": [],
      "name": "name",
      "outputs": [
        {
          "internalType": "string",
          "name": "",
          "type": "string"
        }
      ],
      "stateMutability": "view",
      "type": "function"
    },
    {
      "inputs": [],
      "name": "reentrancyLock",
      "outputs": [
        {
          "internalType": "bool",
          "name": "",
          "type": "bool"
        }
      ],
      "stateMutability": "view",
      "type": "function"
    },
    {
      "inputs": [
        {
          "internalType": "uint256",
          "name": "_amount",
          "type": "uint256"
        },
        {
          "internalType": "address",
          "name": "_to",
          "type": "address"
        }
      ],
      "name": "send",
      "outputs": [],
      "stateMutability": "payable",
      "type": "function"
    },
    {
      "inputs": [],
      "name": "setPrice",
      "outputs": [],
      "stateMutability": "nonpayable",
      "type": "function"
    },
    {
      "inputs": [],
      "name": "symbol",
      "outputs": [
        {
          "internalType": "string",
          "name": "",
          "type": "string"
        }
      ],
      "stateMutability": "view",
      "type": "function"
    },
    {
      "inputs": [],
      "name": "totalSupply",
      "outputs": [
        {
          "internalType": "uint256",
          "name": "",
          "type": "uint256"
        }
      ],
      "stateMutability": "view",
      "type": "function"
    },
    {
      "inputs": [
        {
          "internalType": "address",
          "name": "to",
          "type": "address"
        },
        {
          "internalType": "uint256",
          "name": "amount",
          "type": "uint256"
        }
      ],
      "name": "transfer",
      "outputs": [
        {
          "internalType": "bool",
          "name": "",
          "type": "bool"
        }
      ],
      "stateMutability": "nonpayable",
      "type": "function"
    },
    {
      "inputs": [
        {
          "internalType": "address",
          "name": "from",
          "type": "address"
        },
        {
          "internalType": "address",
          "name": "to",
          "type": "address"
        },
        {
          "internalType": "uint256",
          "name": "amount",
          "type": "uint256"
        }
      ],
      "name": "transferFrom",
      "outputs": [
        {
          "internalType": "bool",
          "name": "",
          "type": "bool"
        }
      ],
      "stateMutability": "nonpayable",
      "type": "function"
    },
    {
      "inputs": [
        {
          "internalType": "address payable",
          "name": "_to",
          "type": "address"
        },
        {
          "internalType": "uint256",
          "name": "_amount",
          "type": "uint256"
        }
      ],
      "name": "transferXDai",
      "outputs": [],
      "stateMutability": "nonpayable",
      "type": "function"
    },
    {
      "inputs": [
        {
          "internalType": "string",
          "name": "name",
          "type": "string"
        },
        {
          "internalType": "int256",
          "name": "lat",
          "type": "int256"
        },
        {
          "internalType": "int256",
          "name": "long",
          "type": "int256"
        },
        {
          "internalType": "uint256",
          "name": "accuracy",
          "type": "uint256"
        },
        {
          "internalType": "string",
          "name": "city",
          "type": "string"
        },
        {
          "internalType": "string",
          "name": "phone",
          "type": "string"
        },
        {
          "internalType": "string",
          "name": "currency",
          "type": "string"
        },
        {
          "internalType": "uint256",
          "name": "buy",
          "type": "uint256"
        },
        {
          "internalType": "uint256",
          "name": "sell",
          "type": "uint256"
        },
        {
          "internalType": "uint256",
          "name": "endtime",
          "type": "uint256"
        },
        {
          "internalType": "uint256",
          "name": "duration",
          "type": "uint256"
        }
      ],
      "name": "updateCashPoint",
      "outputs": [],
      "stateMutability": "payable",
      "type": "function"
    },
    {
      "inputs": [
        {
          "internalType": "uint256",
          "name": "_tokens",
          "type": "uint256"
        }
      ],
      "name": "withdraw",
      "outputs": [],
      "stateMutability": "nonpayable",
      "type": "function"
    },
    {
      "stateMutability": "payable",
      "type": "receive"
    }
  ],
  "bytecode": "0x60806040526706f05b59d3b20000600a556001600b556000600c556000600d60006101000a81548160ff0219169083151502179055503480156200004257600080fd5b506040518060400160405280600881526020017f4368696b77616d610000000000000000000000000000000000000000000000008152506040518060400160405280600381526020017f43484b00000000000000000000000000000000000000000000000000000000008152508160039081620000c091906200054d565b508060049081620000d291906200054d565b50505033600760006101000a81548173ffffffffffffffffffffffffffffffffffffffff021916908373ffffffffffffffffffffffffffffffffffffffff1602179055506200014c600760009054906101000a900473ffffffffffffffffffffffffffffffffffffffff166127106200015c60201b60201c565b62015f906008819055506200074f565b600073ffffffffffffffffffffffffffffffffffffffff168273ffffffffffffffffffffffffffffffffffffffff1603620001ce576040517f08c379a0000000000000000000000000000000000000000000000000000000008152600401620001c59062000695565b60405180910390fd5b620001e260008383620002c960201b60201c565b8060026000828254620001f69190620006e6565b92505081905550806000808473ffffffffffffffffffffffffffffffffffffffff1673ffffffffffffffffffffffffffffffffffffffff168152602001908152602001600020600082825401925050819055508173ffffffffffffffffffffffffffffffffffffffff16600073ffffffffffffffffffffffffffffffffffffffff167fddf252ad1be2c89b69c2b068fc378daa952ba7f163c4a11628f55a4df523b3ef83604051620002a9919062000732565b60405180910390a3620002c560008383620002ce60201b60201c565b5050565b505050565b505050565b600081519050919050565b7f4e487b7100000000000000000000000000000000000000000000000000000000600052604160045260246000fd5b7f4e487b7100000000000000000000000000000000000000000000000000000000600052602260045260246000fd5b600060028204905060018216806200035557607f821691505b6020821081036200036b576200036a6200030d565b5b50919050565b60008190508160005260206000209050919050565b60006020601f8301049050919050565b600082821b905092915050565b600060088302620003d57fffffffffffffffffffffffffffffffffffffffffffffffffffffffffffffffff8262000396565b620003e1868362000396565b95508019841693508086168417925050509392505050565b6000819050919050565b6000819050919050565b60006200042e620004286200042284620003f9565b62000403565b620003f9565b9050919050565b6000819050919050565b6200044a836200040d565b62000462620004598262000435565b848454620003a3565b825550505050565b600090565b620004796200046a565b620004868184846200043f565b505050565b5b81811015620004ae57620004a26000826200046f565b6001810190506200048c565b5050565b601f821115620004fd57620004c78162000371565b620004d28462000386565b81016020851015620004e2578190505b620004fa620004f18562000386565b8301826200048b565b50505b505050565b600082821c905092915050565b6000620005226000198460080262000502565b1980831691505092915050565b60006200053d83836200050f565b9150826002028217905092915050565b6200055882620002d3565b67ffffffffffffffff811115620005745762000573620002de565b5b6200058082546200033c565b6200058d828285620004b2565b600060209050601f831160018114620005c55760008415620005b0578287015190505b620005bc85826200052f565b8655506200062c565b601f198416620005d58662000371565b60005b82811015620005ff57848901518255600182019150602085019450602081019050620005d8565b868310156200061f57848901516200061b601f8916826200050f565b8355505b6001600288020188555050505b505050505050565b600082825260208201905092915050565b7f45524332303a206d696e7420746f20746865207a65726f206164647265737300600082015250565b60006200067d601f8362000634565b91506200068a8262000645565b602082019050919050565b60006020820190508181036000830152620006b0816200066e565b9050919050565b7f4e487b7100000000000000000000000000000000000000000000000000000000600052601160045260246000fd5b6000620006f382620003f9565b91506200070083620003f9565b92508282019050808211156200071b576200071a620006b7565b5b92915050565b6200072c81620003f9565b82525050565b600060208201905062000749600083018462000721565b92915050565b613e25806200075f6000396000f3fe6080604052600436106101dc5760003560e01c8063785d04f511610102578063b4a99a4e11610095578063dabaddb311610064578063dabaddb3146106ee578063dd62ed3e1461072b578063e5d7255314610768578063e97567f9146107a557610224565b8063b4a99a4e14610658578063b78175f914610683578063d49aef61146106ac578063da93d0d1146106d757610224565b806395d89b41116100d157806395d89b4114610588578063a457c2d7146105b3578063a74143f9146105f0578063a9059cbb1461061b57610224565b8063785d04f5146104fa578063833b949914610516578063909126d714610541578063948e1a1c1461055d57610224565b80632446d79f1161017a5780633610724e116101495780633610724e1461044857806339509351146104645780636d471d6f146104a157806370a08231146104bd57610224565b80632446d79f1461039e5780632e1a7d4d146103c9578063313ce567146103f257806332cb6b0c1461041d57610224565b80630cb6aaf1116101b65780630cb6aaf1146102bc57806318160ddd146102f9578063207b885a1461032457806323b872dd1461036157610224565b806306661abd1461022957806306fdde0314610254578063095ea7b31461027f57610224565b36610224576101e96107ec565b7f88a5966d370b9919b20f3e2c13ff65706f196a4e32cc2c12bf57088f88525874333460405161021a92919061258b565b60405180910390a1005b600080fd5b34801561023557600080fd5b5061023e61084a565b60405161024b91906125b4565b60405180910390f35b34801561026057600080fd5b50610269610850565b604051610276919061265f565b60405180910390f35b34801561028b57600080fd5b506102a660048036038101906102a191906126ed565b6108e2565b6040516102b39190612748565b60405180910390f35b3480156102c857600080fd5b506102e360048036038101906102de9190612763565b610905565b6040516102f09190612790565b60405180910390f35b34801561030557600080fd5b5061030e610938565b60405161031b91906125b4565b60405180910390f35b34801561033057600080fd5b5061034b60048036038101906103469190612763565b610942565b6040516103589190612748565b60405180910390f35b34801561036d57600080fd5b50610388600480360381019061038391906127ab565b610957565b6040516103959190612748565b60405180910390f35b3480156103aa57600080fd5b506103b3610986565b6040516103c09190612748565b60405180910390f35b3480156103d557600080fd5b506103f060048036038101906103eb9190612763565b610999565b005b3480156103fe57600080fd5b50610407610b35565b604051610414919061281a565b60405180910390f35b34801561042957600080fd5b50610432610b3e565b60405161043f91906125b4565b60405180910390f35b610462600480360381019061045d9190612763565b610b45565b005b34801561047057600080fd5b5061048b600480360381019061048691906126ed565b610ca0565b6040516104989190612748565b60405180910390f35b6104bb60048036038101906104b691906129a0565b610cd7565b005b3480156104c957600080fd5b506104e460048036038101906104df9190612b04565b610fd5565b6040516104f191906125b4565b60405180910390f35b610514600480360381019061050f9190612b31565b61101d565b005b34801561052257600080fd5b5061052b61112c565b60405161053891906125b4565b60405180910390f35b61055b600480360381019061055691906129a0565b611132565b005b34801561056957600080fd5b5061057261149d565b60405161057f91906125b4565b60405180910390f35b34801561059457600080fd5b5061059d6114a3565b6040516105aa919061265f565b60405180910390f35b3480156105bf57600080fd5b506105da60048036038101906105d591906126ed565b611535565b6040516105e79190612748565b60405180910390f35b3480156105fc57600080fd5b506106056115ac565b60405161061291906125b4565b60405180910390f35b34801561062757600080fd5b50610642600480360381019061063d91906126ed565b6115b2565b60405161064f9190612748565b60405180910390f35b34801561066457600080fd5b5061066d6115d5565b60405161067a9190612b92565b60405180910390f35b34801561068f57600080fd5b506106aa60048036038101906106a59190612bd9565b6115fb565b005b3480156106b857600080fd5b506106c16116ac565b6040516106ce91906125b4565b60405180910390f35b3480156106e357600080fd5b506106ec6107ec565b005b3480156106fa57600080fd5b5061071560048036038101906107109190612763565b6116b2565b60405161072291906125b4565b60405180910390f35b34801561073757600080fd5b50610752600480360381019061074d9190612c19565b6116ce565b60405161075f91906125b4565b60405180910390f35b34801561077457600080fd5b5061078f600480360381019061078a9190612b04565b611755565b60405161079c9190612dd4565b60405180910390f35b3480156107b157600080fd5b506107cc60048036038101906107c79190612b04565b611a4e565b6040516107e39b9a99989796959493929190612e05565b60405180910390f35b6000471161082f576040517f08c379a000000000000000000000000000000000000000000000000000000000815260040161082690612f3e565b60405180910390fd5b610837610938565b476108429190612fbc565b600981905550565b600c5481565b60606003805461085f9061301c565b80601f016020809104026020016040519081016040528092919081815260200182805461088b9061301c565b80156108d85780601f106108ad576101008083540402835291602001916108d8565b820191906000526020600020905b8154815290600101906020018083116108bb57829003601f168201915b5050505050905090565b6000806108ed611cd5565b90506108fa818585611cdd565b600191505092915050565b60066020528060005260406000206000915054906101000a900473ffffffffffffffffffffffffffffffffffffffff1681565b6000600254905090565b60008161094e33610fd5565b10159050919050565b600080610962611cd5565b905061096f858285611ea6565b61097a858585611f32565b60019150509392505050565b600d60009054906101000a900460ff1681565b60006109a433610fd5565b116109e4576040517f08c379a00000000000000000000000000000000000000000000000000000000081526004016109db90613099565b60405180910390fd5b600d60009054906101000a900460ff1615610a34576040517f08c379a0000000000000000000000000000000000000000000000000000000008152600401610a2b90613105565b60405180910390fd5b6001600d60006101000a81548160ff021916908315150217905550610a576107ec565b60004711610a9a576040517f08c379a0000000000000000000000000000000000000000000000000000000008152600401610a9190612f3e565b60405180910390fd5b610aa381610942565b610ae2576040517f08c379a0000000000000000000000000000000000000000000000000000000008152600401610ad990613197565b60405180910390fd5b610aec33826121a8565b8060086000828254610afe91906131b7565b92505081905550610b1733610b12836116b2565b6115fb565b6000600d60006101000a81548160ff02191690831515021790555050565b60006012905090565b620186a081565b600d60009054906101000a900460ff1615610b95576040517f08c379a0000000000000000000000000000000000000000000000000000000008152600401610b8c90613105565b60405180910390fd5b6001600d60006101000a81548160ff0219169083151502179055503460095482610bbf91906131eb565b14610bff576040517f08c379a0000000000000000000000000000000000000000000000000000000008152600401610bf69061329f565b60405180910390fd5b620186a081610c0c610938565b610c1691906131b7565b1115610c57576040517f08c379a0000000000000000000000000000000000000000000000000000000008152600401610c4e9061330b565b60405180910390fd5b610c613382612375565b610c696107ec565b8060086000828254610c7b919061332b565b925050819055506000600d60006101000a81548160ff02191690831515021790555050565b600080610cab611cd5565b9050610ccc818585610cbd85896116ce565b610cc791906131b7565b611cdd565b600191505092915050565b600d60009054906101000a900460ff1615610d27576040517f08c379a0000000000000000000000000000000000000000000000000000000008152600401610d1e90613105565b60405180910390fd5b6001600d60006101000a81548160ff0219169083151502179055506000600a5482610d5291906131eb565b9050803414610d96576040517f08c379a0000000000000000000000000000000000000000000000000000000008152600401610d8d906133ab565b60405180910390fd5b600560003373ffffffffffffffffffffffffffffffffffffffff1673ffffffffffffffffffffffffffffffffffffffff168152602001908152602001600020600a0160009054906101000a900460ff16610e25576040517f08c379a0000000000000000000000000000000000000000000000000000000008152600401610e1c90613417565b60405180910390fd5b6040518061016001604052808d81526020018c81526020018b81526020018a815260200189815260200188815260200187815260200186815260200185815260200184815260200160011515815250600560003373ffffffffffffffffffffffffffffffffffffffff1673ffffffffffffffffffffffffffffffffffffffff1681526020019081526020016000206000820151816000019081610ec891906135e3565b506020820151816001015560408201518160020155606082015181600301556080820151816004019081610efc91906135e3565b5060a0820151816005019081610f1291906135e3565b5060c0820151816006019081610f2891906135e3565b5060e082015181600701556101008201518160080155610120820151816009015561014082015181600a0160006101000a81548160ff021916908315150217905550905050610f756107ec565b7faa9f6ecd6a994e8b7abb6b3f3a42756c6c483a3abc40d774db0e7d564ecf895833604051610fa49190612790565b60405180910390a1506000600d60006101000a81548160ff0219169083151502179055505050505050505050505050565b60008060008373ffffffffffffffffffffffffffffffffffffffff1673ffffffffffffffffffffffffffffffffffffffff168152602001908152602001600020549050919050565b600d60009054906101000a900460ff161561106d576040517f08c379a000000000000000000000000000000000000000000000000000000000815260040161106490613105565b60405180910390fd5b6001600d60006101000a81548160ff0219169083151502179055506000826064600b5461109a9190612fbc565b6110a491906131eb565b9050600083826110b491906131b7565b9050803410156110f9576040517f08c379a00000000000000000000000000000000000000000000000000000000081526004016110f090613701565b60405180910390fd5b61110383856115fb565b61110b6107ec565b50506000600d60006101000a81548160ff0219169083151502179055505050565b60095481565b600d60009054906101000a900460ff1615611182576040517f08c379a000000000000000000000000000000000000000000000000000000000815260040161117990613105565b60405180910390fd5b6001600d60006101000a81548160ff0219169083151502179055506000600a54826111ad91906131eb565b90508034146111f1576040517f08c379a00000000000000000000000000000000000000000000000000000000081526004016111e8906133ab565b60405180910390fd5b600560003373ffffffffffffffffffffffffffffffffffffffff1673ffffffffffffffffffffffffffffffffffffffff168152602001908152602001600020600a0160009054906101000a900460ff1615611281576040517f08c379a00000000000000000000000000000000000000000000000000000000081526004016112789061376d565b60405180910390fd5b6040518061016001604052808d81526020018c81526020018b81526020018a815260200189815260200188815260200187815260200186815260200185815260200184815260200160011515815250600560003373ffffffffffffffffffffffffffffffffffffffff1673ffffffffffffffffffffffffffffffffffffffff168152602001908152602001600020600082015181600001908161132491906135e3565b50602082015181600101556040820151816002015560608201518160030155608082015181600401908161135891906135e3565b5060a082015181600501908161136e91906135e3565b5060c082015181600601908161138491906135e3565b5060e082015181600701556101008201518160080155610120820151816009015561014082015181600a0160006101000a81548160ff021916908315150217905550905050600c60008154809291906113dc9061378d565b91905055503360066000600c54815260200190815260200160002060006101000a81548173ffffffffffffffffffffffffffffffffffffffff021916908373ffffffffffffffffffffffffffffffffffffffff16021790555061143d6107ec565b7f5b73fdb55c6d540b14745a3fd5938bc6f31fefb134291d87585fb561def1395b3360405161146c9190612790565b60405180910390a1506000600d60006101000a81548160ff0219169083151502179055505050505050505050505050565b60085481565b6060600480546114b29061301c565b80601f01602080910402602001604051908101604052809291908181526020018280546114de9061301c565b801561152b5780601f106115005761010080835404028352916020019161152b565b820191906000526020600020905b81548152906001019060200180831161150e57829003601f168201915b5050505050905090565b600080611540611cd5565b9050600061154e82866116ce565b905083811015611593576040517f08c379a000000000000000000000000000000000000000000000000000000000815260040161158a90613847565b60405180910390fd5b6115a08286868403611cdd565b60019250505092915050565b600b5481565b6000806115bd611cd5565b90506115ca818585611f32565b600191505092915050565b600760009054906101000a900473ffffffffffffffffffffffffffffffffffffffff1681565b60008273ffffffffffffffffffffffffffffffffffffffff168260405161162190613898565b60006040518083038185875af1925050503d806000811461165e576040519150601f19603f3d011682016040523d82523d6000602084013e611663565b606091505b50509050806116a7576040517f08c379a000000000000000000000000000000000000000000000000000000000815260040161169e906138f9565b60405180910390fd5b505050565b600a5481565b600080600954836116c391906131eb565b905080915050919050565b6000600160008473ffffffffffffffffffffffffffffffffffffffff1673ffffffffffffffffffffffffffffffffffffffff16815260200190815260200160002060008373ffffffffffffffffffffffffffffffffffffffff1673ffffffffffffffffffffffffffffffffffffffff16815260200190815260200160002054905092915050565b61175d6124d5565b600560008373ffffffffffffffffffffffffffffffffffffffff1673ffffffffffffffffffffffffffffffffffffffff168152602001908152602001600020604051806101600160405290816000820180546117b89061301c565b80601f01602080910402602001604051908101604052809291908181526020018280546117e49061301c565b80156118315780601f1061180657610100808354040283529160200191611831565b820191906000526020600020905b81548152906001019060200180831161181457829003601f168201915b505050505081526020016001820154815260200160028201548152602001600382015481526020016004820180546118689061301c565b80601f01602080910402602001604051908101604052809291908181526020018280546118949061301c565b80156118e15780601f106118b6576101008083540402835291602001916118e1565b820191906000526020600020905b8154815290600101906020018083116118c457829003601f168201915b505050505081526020016005820180546118fa9061301c565b80601f01602080910402602001604051908101604052809291908181526020018280546119269061301c565b80156119735780601f1061194857610100808354040283529160200191611973565b820191906000526020600020905b81548152906001019060200180831161195657829003601f168201915b5050505050815260200160068201805461198c9061301c565b80601f01602080910402602001604051908101604052809291908181526020018280546119b89061301c565b8015611a055780601f106119da57610100808354040283529160200191611a05565b820191906000526020600020905b8154815290600101906020018083116119e857829003601f168201915b50505050508152602001600782015481526020016008820154815260200160098201548152602001600a820160009054906101000a900460ff1615151515815250509050919050565b6005602052806000526040600020600091509050806000018054611a719061301c565b80601f0160208091040260200160405190810160405280929190818152602001828054611a9d9061301c565b8015611aea5780601f10611abf57610100808354040283529160200191611aea565b820191906000526020600020905b815481529060010190602001808311611acd57829003601f168201915b505050505090806001015490806002015490806003015490806004018054611b119061301c565b80601f0160208091040260200160405190810160405280929190818152602001828054611b3d9061301c565b8015611b8a5780601f10611b5f57610100808354040283529160200191611b8a565b820191906000526020600020905b815481529060010190602001808311611b6d57829003601f168201915b505050505090806005018054611b9f9061301c565b80601f0160208091040260200160405190810160405280929190818152602001828054611bcb9061301c565b8015611c185780601f10611bed57610100808354040283529160200191611c18565b820191906000526020600020905b815481529060010190602001808311611bfb57829003601f168201915b505050505090806006018054611c2d9061301c565b80601f0160208091040260200160405190810160405280929190818152602001828054611c599061301c565b8015611ca65780601f10611c7b57610100808354040283529160200191611ca6565b820191906000526020600020905b815481529060010190602001808311611c8957829003601f168201915b50505050509080600701549080600801549080600901549080600a0160009054906101000a900460ff1690508b565b600033905090565b600073ffffffffffffffffffffffffffffffffffffffff168373ffffffffffffffffffffffffffffffffffffffff1603611d4c576040517f08c379a0000000000000000000000000000000000000000000000000000000008152600401611d439061398b565b60405180910390fd5b600073ffffffffffffffffffffffffffffffffffffffff168273ffffffffffffffffffffffffffffffffffffffff1603611dbb576040517f08c379a0000000000000000000000000000000000000000000000000000000008152600401611db290613a1d565b60405180910390fd5b80600160008573ffffffffffffffffffffffffffffffffffffffff1673ffffffffffffffffffffffffffffffffffffffff16815260200190815260200160002060008473ffffffffffffffffffffffffffffffffffffffff1673ffffffffffffffffffffffffffffffffffffffff168152602001908152602001600020819055508173ffffffffffffffffffffffffffffffffffffffff168373ffffffffffffffffffffffffffffffffffffffff167f8c5be1e5ebec7d5bd14f71427d1e84f3dd0314c0f7b2291e5b200ac8c7c3b92583604051611e9991906125b4565b60405180910390a3505050565b6000611eb284846116ce565b90507fffffffffffffffffffffffffffffffffffffffffffffffffffffffffffffffff8114611f2c5781811015611f1e576040517f08c379a0000000000000000000000000000000000000000000000000000000008152600401611f1590613a89565b60405180910390fd5b611f2b8484848403611cdd565b5b50505050565b600073ffffffffffffffffffffffffffffffffffffffff168373ffffffffffffffffffffffffffffffffffffffff1603611fa1576040517f08c379a0000000000000000000000000000000000000000000000000000000008152600401611f9890613b1b565b60405180910390fd5b600073ffffffffffffffffffffffffffffffffffffffff168273ffffffffffffffffffffffffffffffffffffffff1603612010576040517f08c379a000000000000000000000000000000000000000000000000000000000815260040161200790613bad565b60405180910390fd5b61201b8383836124cb565b60008060008573ffffffffffffffffffffffffffffffffffffffff1673ffffffffffffffffffffffffffffffffffffffff168152602001908152602001600020549050818110156120a1576040517f08c379a000000000000000000000000000000000000000000000000000000000815260040161209890613c3f565b60405180910390fd5b8181036000808673ffffffffffffffffffffffffffffffffffffffff1673ffffffffffffffffffffffffffffffffffffffff16815260200190815260200160002081905550816000808573ffffffffffffffffffffffffffffffffffffffff1673ffffffffffffffffffffffffffffffffffffffff168152602001908152602001600020600082825401925050819055508273ffffffffffffffffffffffffffffffffffffffff168473ffffffffffffffffffffffffffffffffffffffff167fddf252ad1be2c89b69c2b068fc378daa952ba7f163c4a11628f55a4df523b3ef8460405161218f91906125b4565b60405180910390a36121a28484846124d0565b50505050565b600073ffffffffffffffffffffffffffffffffffffffff168273ffffffffffffffffffffffffffffffffffffffff1603612217576040517f08c379a000000000000000000000000000000000000000000000000000000000815260040161220e90613cd1565b60405180910390fd5b612223826000836124cb565b60008060008473ffffffffffffffffffffffffffffffffffffffff1673ffffffffffffffffffffffffffffffffffffffff168152602001908152602001600020549050818110156122a9576040517f08c379a00000000000000000000000000000000000000000000000000000000081526004016122a090613d63565b60405180910390fd5b8181036000808573ffffffffffffffffffffffffffffffffffffffff1673ffffffffffffffffffffffffffffffffffffffff1681526020019081526020016000208190555081600260008282540392505081905550600073ffffffffffffffffffffffffffffffffffffffff168373ffffffffffffffffffffffffffffffffffffffff167fddf252ad1be2c89b69c2b068fc378daa952ba7f163c4a11628f55a4df523b3ef8460405161235c91906125b4565b60405180910390a3612370836000846124d0565b505050565b600073ffffffffffffffffffffffffffffffffffffffff168273ffffffffffffffffffffffffffffffffffffffff16036123e4576040517f08c379a00000000000000000000000000000000000000000000000000000000081526004016123db90613dcf565b60405180910390fd5b6123f0600083836124cb565b806002600082825461240291906131b7565b92505081905550806000808473ffffffffffffffffffffffffffffffffffffffff1673ffffffffffffffffffffffffffffffffffffffff168152602001908152602001600020600082825401925050819055508173ffffffffffffffffffffffffffffffffffffffff16600073ffffffffffffffffffffffffffffffffffffffff167fddf252ad1be2c89b69c2b068fc378daa952ba7f163c4a11628f55a4df523b3ef836040516124b391906125b4565b60405180910390a36124c7600083836124d0565b5050565b505050565b505050565b604051806101600160405280606081526020016000815260200160008152602001600081526020016060815260200160608152602001606081526020016000815260200160008152602001600081526020016000151581525090565b600073ffffffffffffffffffffffffffffffffffffffff82169050919050565b600061255c82612531565b9050919050565b61256c81612551565b82525050565b6000819050919050565b61258581612572565b82525050565b60006040820190506125a06000830185612563565b6125ad602083018461257c565b9392505050565b60006020820190506125c9600083018461257c565b92915050565b600081519050919050565b600082825260208201905092915050565b60005b838110156126095780820151818401526020810190506125ee565b60008484015250505050565b6000601f19601f8301169050919050565b6000612631826125cf565b61263b81856125da565b935061264b8185602086016125eb565b61265481612615565b840191505092915050565b600060208201905081810360008301526126798184612626565b905092915050565b6000604051905090565b600080fd5b600080fd5b61269e81612551565b81146126a957600080fd5b50565b6000813590506126bb81612695565b92915050565b6126ca81612572565b81146126d557600080fd5b50565b6000813590506126e7816126c1565b92915050565b600080604083850312156127045761270361268b565b5b6000612712858286016126ac565b9250506020612723858286016126d8565b9150509250929050565b60008115159050919050565b6127428161272d565b82525050565b600060208201905061275d6000830184612739565b92915050565b6000602082840312156127795761277861268b565b5b6000612787848285016126d8565b91505092915050565b60006020820190506127a56000830184612563565b92915050565b6000806000606084860312156127c4576127c361268b565b5b60006127d2868287016126ac565b93505060206127e3868287016126ac565b92505060406127f4868287016126d8565b9150509250925092565b600060ff82169050919050565b612814816127fe565b82525050565b600060208201905061282f600083018461280b565b92915050565b600080fd5b600080fd5b7f4e487b7100000000000000000000000000000000000000000000000000000000600052604160045260246000fd5b61287782612615565b810181811067ffffffffffffffff821117156128965761289561283f565b5b80604052505050565b60006128a9612681565b90506128b5828261286e565b919050565b600067ffffffffffffffff8211156128d5576128d461283f565b5b6128de82612615565b9050602081019050919050565b82818337600083830152505050565b600061290d612908846128ba565b61289f565b9050828152602081018484840111156129295761292861283a565b5b6129348482856128eb565b509392505050565b600082601f83011261295157612950612835565b5b81356129618482602086016128fa565b91505092915050565b6000819050919050565b61297d8161296a565b811461298857600080fd5b50565b60008135905061299a81612974565b92915050565b60008060008060008060008060008060006101608c8e0312156129c6576129c561268b565b5b60008c013567ffffffffffffffff8111156129e4576129e3612690565b5b6129f08e828f0161293c565b9b50506020612a018e828f0161298b565b9a50506040612a128e828f0161298b565b9950506060612a238e828f016126d8565b98505060808c013567ffffffffffffffff811115612a4457612a43612690565b5b612a508e828f0161293c565b97505060a08c013567ffffffffffffffff811115612a7157612a70612690565b5b612a7d8e828f0161293c565b96505060c08c013567ffffffffffffffff811115612a9e57612a9d612690565b5b612aaa8e828f0161293c565b95505060e0612abb8e828f016126d8565b945050610100612acd8e828f016126d8565b935050610120612adf8e828f016126d8565b925050610140612af18e828f016126d8565b9150509295989b509295989b9093969950565b600060208284031215612b1a57612b1961268b565b5b6000612b28848285016126ac565b91505092915050565b60008060408385031215612b4857612b4761268b565b5b6000612b56858286016126d8565b9250506020612b67858286016126ac565b9150509250929050565b6000612b7c82612531565b9050919050565b612b8c81612b71565b82525050565b6000602082019050612ba76000830184612b83565b92915050565b612bb681612b71565b8114612bc157600080fd5b50565b600081359050612bd381612bad565b92915050565b60008060408385031215612bf057612bef61268b565b5b6000612bfe85828601612bc4565b9250506020612c0f858286016126d8565b9150509250929050565b60008060408385031215612c3057612c2f61268b565b5b6000612c3e858286016126ac565b9250506020612c4f858286016126ac565b9150509250929050565b600082825260208201905092915050565b6000612c75826125cf565b612c7f8185612c59565b9350612c8f8185602086016125eb565b612c9881612615565b840191505092915050565b612cac8161296a565b82525050565b612cbb81612572565b82525050565b612cca8161272d565b82525050565b6000610160830160008301518482036000860152612cee8282612c6a565b9150506020830151612d036020860182612ca3565b506040830151612d166040860182612ca3565b506060830151612d296060860182612cb2565b5060808301518482036080860152612d418282612c6a565b91505060a083015184820360a0860152612d5b8282612c6a565b91505060c083015184820360c0860152612d758282612c6a565b91505060e0830151612d8a60e0860182612cb2565b50610100830151612d9f610100860182612cb2565b50610120830151612db4610120860182612cb2565b50610140830151612dc9610140860182612cc1565b508091505092915050565b60006020820190508181036000830152612dee8184612cd0565b905092915050565b612dff8161296a565b82525050565b6000610160820190508181036000830152612e20818e612626565b9050612e2f602083018d612df6565b612e3c604083018c612df6565b612e49606083018b61257c565b8181036080830152612e5b818a612626565b905081810360a0830152612e6f8189612626565b905081810360c0830152612e838188612626565b9050612e9260e083018761257c565b612ea061010083018661257c565b612eae61012083018561257c565b612ebc610140830184612739565b9c9b505050505050505050505050565b7f5468657265206973206e6f2076616c756520696e207468697320636f6e74726160008201527f6374000000000000000000000000000000000000000000000000000000000000602082015250565b6000612f286022836125da565b9150612f3382612ecc565b604082019050919050565b60006020820190508181036000830152612f5781612f1b565b9050919050565b7f4e487b7100000000000000000000000000000000000000000000000000000000600052601260045260246000fd5b7f4e487b7100000000000000000000000000000000000000000000000000000000600052601160045260246000fd5b6000612fc782612572565b9150612fd283612572565b925082612fe257612fe1612f5e565b5b828204905092915050565b7f4e487b7100000000000000000000000000000000000000000000000000000000600052602260045260246000fd5b6000600282049050600182168061303457607f821691505b60208210810361304757613046612fed565b5b50919050565b7f4e6f7420686f6c64657200000000000000000000000000000000000000000000600082015250565b6000613083600a836125da565b915061308e8261304d565b602082019050919050565b600060208201905081810360008301526130b281613076565b9050919050565b7f5265656e7472616e6379206973206e6f7420616c6c6f77656400000000000000600082015250565b60006130ef6019836125da565b91506130fa826130b9565b602082019050919050565b6000602082019050818103600083015261311e816130e2565b9050919050565b7f596f752061726520747279696e6720746f207769746864726177206d6f72652060008201527f7468616e20796f7572207374616b650000000000000000000000000000000000602082015250565b6000613181602f836125da565b915061318c82613125565b604082019050919050565b600060208201905081810360008301526131b081613174565b9050919050565b60006131c282612572565b91506131cd83612572565b92508282019050808211156131e5576131e4612f8d565b5b92915050565b60006131f682612572565b915061320183612572565b925082820261320f81612572565b9150828204841483151761322657613225612f8d565b5b5092915050565b7f596f75206172652073656e64696e67207468652077726f6e6720616d6f756e7460008201527f20746f207468697320636f6e7472616374000000000000000000000000000000602082015250565b60006132896031836125da565b91506132948261322d565b604082019050919050565b600060208201905081810360008301526132b88161327c565b9050919050565b7f4d617820737570706c7920726561636865640000000000000000000000000000600082015250565b60006132f56012836125da565b9150613300826132bf565b602082019050919050565b60006020820190508181036000830152613324816132e8565b9050919050565b600061333682612572565b915061334183612572565b925082820390508181111561335957613358612f8d565b5b92915050565b7f506c656173652070617920746865207265636f6d6d656e646564206665650000600082015250565b6000613395601e836125da565b91506133a08261335f565b602082019050919050565b600060208201905081810360008301526133c481613388565b9050919050565b7f4e6f7420612063617368706f696e740000000000000000000000000000000000600082015250565b6000613401600f836125da565b915061340c826133cb565b602082019050919050565b60006020820190508181036000830152613430816133f4565b9050919050565b60008190508160005260206000209050919050565b60006020601f8301049050919050565b600082821b905092915050565b6000600883026134997fffffffffffffffffffffffffffffffffffffffffffffffffffffffffffffffff8261345c565b6134a3868361345c565b95508019841693508086168417925050509392505050565b6000819050919050565b60006134e06134db6134d684612572565b6134bb565b612572565b9050919050565b6000819050919050565b6134fa836134c5565b61350e613506826134e7565b848454613469565b825550505050565b600090565b613523613516565b61352e8184846134f1565b505050565b5b818110156135525761354760008261351b565b600181019050613534565b5050565b601f8211156135975761356881613437565b6135718461344c565b81016020851015613580578190505b61359461358c8561344c565b830182613533565b50505b505050565b600082821c905092915050565b60006135ba6000198460080261359c565b1980831691505092915050565b60006135d383836135a9565b9150826002028217905092915050565b6135ec826125cf565b67ffffffffffffffff8111156136055761360461283f565b5b61360f825461301c565b61361a828285613556565b600060209050601f83116001811461364d576000841561363b578287015190505b61364585826135c7565b8655506136ad565b601f19841661365b86613437565b60005b828110156136835784890151825560018201915060208501945060208101905061365e565b868310156136a0578489015161369c601f8916826135a9565b8355505b6001600288020188555050505b505050505050565b7f4e6f7420656e6f7567682066756e64732073656e740000000000000000000000600082015250565b60006136eb6015836125da565b91506136f6826136b5565b602082019050919050565b6000602082019050818103600083015261371a816136de565b9050919050565b7f416c726561647920612063617368706f696e7400000000000000000000000000600082015250565b60006137576013836125da565b915061376282613721565b602082019050919050565b600060208201905081810360008301526137868161374a565b9050919050565b600061379882612572565b91507fffffffffffffffffffffffffffffffffffffffffffffffffffffffffffffffff82036137ca576137c9612f8d565b5b600182019050919050565b7f45524332303a2064656372656173656420616c6c6f77616e63652062656c6f7760008201527f207a65726f000000000000000000000000000000000000000000000000000000602082015250565b60006138316025836125da565b915061383c826137d5565b604082019050919050565b6000602082019050818103600083015261386081613824565b9050919050565b600081905092915050565b50565b6000613882600083613867565b915061388d82613872565b600082019050919050565b60006138a382613875565b9150819050919050565b7f4661696c656420746f2073656e64207844616900000000000000000000000000600082015250565b60006138e36013836125da565b91506138ee826138ad565b602082019050919050565b60006020820190508181036000830152613912816138d6565b9050919050565b7f45524332303a20617070726f76652066726f6d20746865207a65726f2061646460008201527f7265737300000000000000000000000000000000000000000000000000000000602082015250565b60006139756024836125da565b915061398082613919565b604082019050919050565b600060208201905081810360008301526139a481613968565b9050919050565b7f45524332303a20617070726f766520746f20746865207a65726f20616464726560008201527f7373000000000000000000000000000000000000000000000000000000000000602082015250565b6000613a076022836125da565b9150613a12826139ab565b604082019050919050565b60006020820190508181036000830152613a36816139fa565b9050919050565b7f45524332303a20696e73756666696369656e7420616c6c6f77616e6365000000600082015250565b6000613a73601d836125da565b9150613a7e82613a3d565b602082019050919050565b60006020820190508181036000830152613aa281613a66565b9050919050565b7f45524332303a207472616e736665722066726f6d20746865207a65726f20616460008201527f6472657373000000000000000000000000000000000000000000000000000000602082015250565b6000613b056025836125da565b9150613b1082613aa9565b604082019050919050565b60006020820190508181036000830152613b3481613af8565b9050919050565b7f45524332303a207472616e7366657220746f20746865207a65726f206164647260008201527f6573730000000000000000000000000000000000000000000000000000000000602082015250565b6000613b976023836125da565b9150613ba282613b3b565b604082019050919050565b60006020820190508181036000830152613bc681613b8a565b9050919050565b7f45524332303a207472616e7366657220616d6f756e742065786365656473206260008201527f616c616e63650000000000000000000000000000000000000000000000000000602082015250565b6000613c296026836125da565b9150613c3482613bcd565b604082019050919050565b60006020820190508181036000830152613c5881613c1c565b9050919050565b7f45524332303a206275726e2066726f6d20746865207a65726f2061646472657360008201527f7300000000000000000000000000000000000000000000000000000000000000602082015250565b6000613cbb6021836125da565b9150613cc682613c5f565b604082019050919050565b60006020820190508181036000830152613cea81613cae565b9050919050565b7f45524332303a206275726e20616d6f756e7420657863656564732062616c616e60008201527f6365000000000000000000000000000000000000000000000000000000000000602082015250565b6000613d4d6022836125da565b9150613d5882613cf1565b604082019050919050565b60006020820190508181036000830152613d7c81613d40565b9050919050565b7f45524332303a206d696e7420746f20746865207a65726f206164647265737300600082015250565b6000613db9601f836125da565b9150613dc482613d83565b602082019050919050565b60006020820190508181036000830152613de881613dac565b905091905056fea26469706673582212200b0ded7048bbf19d6d6fa28ce44b866cc598b77ad69c897e4c28164822cf9bb564736f6c63430008110033",
  "linkReferences": {},
  "deployedLinkReferences": {}
}