{
  "_format": "hh-sol-artifact-1",
  "contractName": "CashPoints",
  "sourceName": "contracts/Cashpoints.sol",
  "abi": [
    {
      "inputs": [],
      "stateMutability": "nonpayable",
      "type": "constructor"
    },
    {
      "anonymous": false,
      "inputs": [
        {
          "indexed": true,
          "internalType": "address",
          "name": "owner",
          "type": "address"
        },
        {
          "indexed": true,
          "internalType": "address",
          "name": "spender",
          "type": "address"
        },
        {
          "indexed": false,
          "internalType": "uint256",
          "name": "value",
          "type": "uint256"
        }
      ],
      "name": "Approval",
      "type": "event"
    },
    {
      "anonymous": false,
      "inputs": [
        {
          "indexed": false,
          "internalType": "address",
          "name": "cashpoint",
          "type": "address"
        }
      ],
      "name": "CreatedCashPoint",
      "type": "event"
    },
    {
      "anonymous": false,
      "inputs": [
        {
          "indexed": false,
          "internalType": "address",
          "name": "",
          "type": "address"
        },
        {
          "indexed": false,
          "internalType": "uint256",
          "name": "",
          "type": "uint256"
        }
      ],
      "name": "Received",
      "type": "event"
    },
    {
      "anonymous": false,
      "inputs": [
        {
          "indexed": true,
          "internalType": "address",
          "name": "from",
          "type": "address"
        },
        {
          "indexed": true,
          "internalType": "address",
          "name": "to",
          "type": "address"
        },
        {
          "indexed": false,
          "internalType": "uint256",
          "name": "value",
          "type": "uint256"
        }
      ],
      "name": "Transfer",
      "type": "event"
    },
    {
      "anonymous": false,
      "inputs": [
        {
          "indexed": false,
          "internalType": "address",
          "name": "cashpoint",
          "type": "address"
        }
      ],
      "name": "UpdatedCashPoint",
      "type": "event"
    },
    {
      "inputs": [],
      "name": "AVAILABLE_TOKENS",
      "outputs": [
        {
          "internalType": "uint256",
          "name": "",
          "type": "uint256"
        }
      ],
      "stateMutability": "view",
      "type": "function"
    },
    {
      "inputs": [],
      "name": "CASHPOINT_FEE",
      "outputs": [
        {
          "internalType": "uint256",
          "name": "",
          "type": "uint256"
        }
      ],
      "stateMutability": "view",
      "type": "function"
    },
    {
      "inputs": [],
      "name": "MAX_SUPPLY",
      "outputs": [
        {
          "internalType": "uint256",
          "name": "",
          "type": "uint256"
        }
      ],
      "stateMutability": "view",
      "type": "function"
    },
    {
      "inputs": [],
      "name": "Owner",
      "outputs": [
        {
          "internalType": "address payable",
          "name": "",
          "type": "address"
        }
      ],
      "stateMutability": "view",
      "type": "function"
    },
    {
      "inputs": [],
      "name": "PRICE_PER_TOKEN",
      "outputs": [
        {
          "internalType": "uint256",
          "name": "",
          "type": "uint256"
        }
      ],
      "stateMutability": "view",
      "type": "function"
    },
    {
      "inputs": [],
      "name": "TRANSACTION_COMMISION",
      "outputs": [
        {
          "internalType": "uint256",
          "name": "",
          "type": "uint256"
        }
      ],
      "stateMutability": "view",
      "type": "function"
    },
    {
      "inputs": [
        {
          "internalType": "string",
          "name": "name",
          "type": "string"
        },
        {
          "internalType": "string",
          "name": "city",
          "type": "string"
        },
        {
          "internalType": "string",
          "name": "phone",
          "type": "string"
        },
        {
          "internalType": "string",
          "name": "currency",
          "type": "string"
        },
        {
          "internalType": "uint256",
          "name": "buy",
          "type": "uint256"
        },
        {
          "internalType": "uint256",
          "name": "sell",
          "type": "uint256"
        },
        {
          "internalType": "string",
          "name": "endtime",
          "type": "string"
        },
        {
          "internalType": "uint256",
          "name": "duration",
          "type": "uint256"
        }
      ],
      "name": "addCashPoint",
      "outputs": [],
      "stateMutability": "payable",
      "type": "function"
    },
    {
      "inputs": [
        {
          "internalType": "address",
          "name": "owner",
          "type": "address"
        },
        {
          "internalType": "address",
          "name": "spender",
          "type": "address"
        }
      ],
      "name": "allowance",
      "outputs": [
        {
          "internalType": "uint256",
          "name": "",
          "type": "uint256"
        }
      ],
      "stateMutability": "view",
      "type": "function"
    },
    {
      "inputs": [
        {
          "internalType": "address",
          "name": "spender",
          "type": "address"
        },
        {
          "internalType": "uint256",
          "name": "amount",
          "type": "uint256"
        }
      ],
      "name": "approve",
      "outputs": [
        {
          "internalType": "bool",
          "name": "",
          "type": "bool"
        }
      ],
      "stateMutability": "nonpayable",
      "type": "function"
    },
    {
      "inputs": [
        {
          "internalType": "address",
          "name": "account",
          "type": "address"
        }
      ],
      "name": "balanceOf",
      "outputs": [
        {
          "internalType": "uint256",
          "name": "",
          "type": "uint256"
        }
      ],
      "stateMutability": "view",
      "type": "function"
    },
    {
      "inputs": [
        {
          "internalType": "uint256",
          "name": "_amount",
          "type": "uint256"
        }
      ],
      "name": "buyTokens",
      "outputs": [],
      "stateMutability": "payable",
      "type": "function"
    },
    {
      "inputs": [
        {
          "internalType": "address",
          "name": "",
          "type": "address"
        }
      ],
      "name": "cashpoints",
      "outputs": [
        {
          "internalType": "string",
          "name": "_name",
          "type": "string"
        },
        {
          "internalType": "string",
          "name": "city",
          "type": "string"
        },
        {
          "internalType": "string",
          "name": "_phoneNumber",
          "type": "string"
        },
        {
          "internalType": "string",
          "name": "_currency",
          "type": "string"
        },
        {
          "internalType": "uint256",
          "name": "_buy",
          "type": "uint256"
        },
        {
          "internalType": "uint256",
          "name": "_sell",
          "type": "uint256"
        },
        {
          "internalType": "string",
          "name": "_endTime",
          "type": "string"
        },
        {
          "internalType": "bool",
          "name": "_isCashPoint",
          "type": "bool"
        }
      ],
      "stateMutability": "view",
      "type": "function"
    },
    {
      "inputs": [
        {
          "internalType": "uint256",
          "name": "_tokens",
          "type": "uint256"
        }
      ],
      "name": "checkAmountToTransfer",
      "outputs": [
        {
          "internalType": "uint256",
          "name": "",
          "type": "uint256"
        }
      ],
      "stateMutability": "view",
      "type": "function"
    },
    {
      "inputs": [
        {
          "internalType": "uint256",
          "name": "_tokens",
          "type": "uint256"
        }
      ],
      "name": "checkIfICanWithdraw",
      "outputs": [
        {
          "internalType": "bool",
          "name": "",
          "type": "bool"
        }
      ],
      "stateMutability": "view",
      "type": "function"
    },
    {
      "inputs": [],
      "name": "count",
      "outputs": [
        {
          "internalType": "uint256",
          "name": "",
          "type": "uint256"
        }
      ],
      "stateMutability": "view",
      "type": "function"
    },
    {
      "inputs": [],
      "name": "decimals",
      "outputs": [
        {
          "internalType": "uint8",
          "name": "",
          "type": "uint8"
        }
      ],
      "stateMutability": "view",
      "type": "function"
    },
    {
      "inputs": [
        {
          "internalType": "address",
          "name": "spender",
          "type": "address"
        },
        {
          "internalType": "uint256",
          "name": "subtractedValue",
          "type": "uint256"
        }
      ],
      "name": "decreaseAllowance",
      "outputs": [
        {
          "internalType": "bool",
          "name": "",
          "type": "bool"
        }
      ],
      "stateMutability": "nonpayable",
      "type": "function"
    },
    {
      "inputs": [
        {
          "internalType": "address",
          "name": "cp",
          "type": "address"
        }
      ],
      "name": "getCashPoint",
      "outputs": [
        {
          "components": [
            {
              "internalType": "string",
              "name": "_name",
              "type": "string"
            },
            {
              "internalType": "string",
              "name": "city",
              "type": "string"
            },
            {
              "internalType": "string",
              "name": "_phoneNumber",
              "type": "string"
            },
            {
              "internalType": "string",
              "name": "_currency",
              "type": "string"
            },
            {
              "internalType": "uint256",
              "name": "_buy",
              "type": "uint256"
            },
            {
              "internalType": "uint256",
              "name": "_sell",
              "type": "uint256"
            },
            {
              "internalType": "string",
              "name": "_endTime",
              "type": "string"
            },
            {
              "internalType": "bool",
              "name": "_isCashPoint",
              "type": "bool"
            }
          ],
          "internalType": "struct CashPoints.CashPoint",
          "name": "cashpoint",
          "type": "tuple"
        }
      ],
      "stateMutability": "view",
      "type": "function"
    },
    {
      "inputs": [
        {
          "internalType": "address",
          "name": "spender",
          "type": "address"
        },
        {
          "internalType": "uint256",
          "name": "addedValue",
          "type": "uint256"
        }
      ],
      "name": "increaseAllowance",
      "outputs": [
        {
          "internalType": "bool",
          "name": "",
          "type": "bool"
        }
      ],
      "stateMutability": "nonpayable",
      "type": "function"
    },
    {
      "inputs": [
        {
          "internalType": "uint256",
          "name": "",
          "type": "uint256"
        }
      ],
      "name": "keys",
      "outputs": [
        {
          "internalType": "address",
          "name": "",
          "type": "address"
        }
      ],
      "stateMutability": "view",
      "type": "function"
    },
    {
      "inputs": [],
      "name": "name",
      "outputs": [
        {
          "internalType": "string",
          "name": "",
          "type": "string"
        }
      ],
      "stateMutability": "view",
      "type": "function"
    },
    {
      "inputs": [],
      "name": "reentrancyLock",
      "outputs": [
        {
          "internalType": "bool",
          "name": "",
          "type": "bool"
        }
      ],
      "stateMutability": "view",
      "type": "function"
    },
    {
      "inputs": [
        {
          "internalType": "uint256",
          "name": "_amount",
          "type": "uint256"
        },
        {
          "internalType": "address",
          "name": "_to",
          "type": "address"
        }
      ],
      "name": "send",
      "outputs": [],
      "stateMutability": "payable",
      "type": "function"
    },
    {
      "inputs": [],
      "name": "setPrice",
      "outputs": [],
      "stateMutability": "nonpayable",
      "type": "function"
    },
    {
      "inputs": [],
      "name": "symbol",
      "outputs": [
        {
          "internalType": "string",
          "name": "",
          "type": "string"
        }
      ],
      "stateMutability": "view",
      "type": "function"
    },
    {
      "inputs": [],
      "name": "totalSupply",
      "outputs": [
        {
          "internalType": "uint256",
          "name": "",
          "type": "uint256"
        }
      ],
      "stateMutability": "view",
      "type": "function"
    },
    {
      "inputs": [
        {
          "internalType": "address",
          "name": "to",
          "type": "address"
        },
        {
          "internalType": "uint256",
          "name": "amount",
          "type": "uint256"
        }
      ],
      "name": "transfer",
      "outputs": [
        {
          "internalType": "bool",
          "name": "",
          "type": "bool"
        }
      ],
      "stateMutability": "nonpayable",
      "type": "function"
    },
    {
      "inputs": [
        {
          "internalType": "address",
          "name": "from",
          "type": "address"
        },
        {
          "internalType": "address",
          "name": "to",
          "type": "address"
        },
        {
          "internalType": "uint256",
          "name": "amount",
          "type": "uint256"
        }
      ],
      "name": "transferFrom",
      "outputs": [
        {
          "internalType": "bool",
          "name": "",
          "type": "bool"
        }
      ],
      "stateMutability": "nonpayable",
      "type": "function"
    },
    {
      "inputs": [
        {
          "internalType": "address payable",
          "name": "_to",
          "type": "address"
        },
        {
          "internalType": "uint256",
          "name": "_amount",
          "type": "uint256"
        }
      ],
      "name": "transferXDai",
      "outputs": [],
      "stateMutability": "nonpayable",
      "type": "function"
    },
    {
      "inputs": [
        {
          "internalType": "string",
          "name": "name",
          "type": "string"
        },
        {
          "internalType": "string",
          "name": "city",
          "type": "string"
        },
        {
          "internalType": "string",
          "name": "phone",
          "type": "string"
        },
        {
          "internalType": "string",
          "name": "currency",
          "type": "string"
        },
        {
          "internalType": "uint256",
          "name": "buy",
          "type": "uint256"
        },
        {
          "internalType": "uint256",
          "name": "sell",
          "type": "uint256"
        },
        {
          "internalType": "string",
          "name": "endtime",
          "type": "string"
        },
        {
          "internalType": "uint256",
          "name": "duration",
          "type": "uint256"
        }
      ],
      "name": "updateCashPoint",
      "outputs": [],
      "stateMutability": "payable",
      "type": "function"
    },
    {
      "inputs": [
        {
          "internalType": "uint256",
          "name": "_tokens",
          "type": "uint256"
        }
      ],
      "name": "withdraw",
      "outputs": [],
      "stateMutability": "nonpayable",
      "type": "function"
    },
    {
      "stateMutability": "payable",
      "type": "receive"
    }
  ],
  "bytecode": "0x60806040526706f05b59d3b20000600a556001600b556000600c556000600d60006101000a81548160ff0219169083151502179055503480156200004257600080fd5b506040518060400160405280600881526020017f4368696b77616d610000000000000000000000000000000000000000000000008152506040518060400160405280600381526020017f43484b00000000000000000000000000000000000000000000000000000000008152508160039081620000c0919062000558565b508060049081620000d2919062000558565b50505033600760006101000a81548173ffffffffffffffffffffffffffffffffffffffff021916908373ffffffffffffffffffffffffffffffffffffffff1602179055506200014c600760009054906101000a900473ffffffffffffffffffffffffffffffffffffffff166127106200015c60201b60201c565b62015f906008819055506200075a565b600073ffffffffffffffffffffffffffffffffffffffff168273ffffffffffffffffffffffffffffffffffffffff1603620001ce576040517f08c379a0000000000000000000000000000000000000000000000000000000008152600401620001c590620006a0565b60405180910390fd5b620001e260008383620002d460201b60201c565b8060026000828254620001f69190620006f1565b92505081905550806000808473ffffffffffffffffffffffffffffffffffffffff1673ffffffffffffffffffffffffffffffffffffffff16815260200190815260200160002060008282546200024d9190620006f1565b925050819055508173ffffffffffffffffffffffffffffffffffffffff16600073ffffffffffffffffffffffffffffffffffffffff167fddf252ad1be2c89b69c2b068fc378daa952ba7f163c4a11628f55a4df523b3ef83604051620002b491906200073d565b60405180910390a3620002d060008383620002d960201b60201c565b5050565b505050565b505050565b600081519050919050565b7f4e487b7100000000000000000000000000000000000000000000000000000000600052604160045260246000fd5b7f4e487b7100000000000000000000000000000000000000000000000000000000600052602260045260246000fd5b600060028204905060018216806200036057607f821691505b60208210810362000376576200037562000318565b5b50919050565b60008190508160005260206000209050919050565b60006020601f8301049050919050565b600082821b905092915050565b600060088302620003e07fffffffffffffffffffffffffffffffffffffffffffffffffffffffffffffffff82620003a1565b620003ec8683620003a1565b95508019841693508086168417925050509392505050565b6000819050919050565b6000819050919050565b600062000439620004336200042d8462000404565b6200040e565b62000404565b9050919050565b6000819050919050565b620004558362000418565b6200046d620004648262000440565b848454620003ae565b825550505050565b600090565b6200048462000475565b620004918184846200044a565b505050565b5b81811015620004b957620004ad6000826200047a565b60018101905062000497565b5050565b601f8211156200050857620004d2816200037c565b620004dd8462000391565b81016020851015620004ed578190505b62000505620004fc8562000391565b83018262000496565b50505b505050565b600082821c905092915050565b60006200052d600019846008026200050d565b1980831691505092915050565b60006200054883836200051a565b9150826002028217905092915050565b6200056382620002de565b67ffffffffffffffff8111156200057f576200057e620002e9565b5b6200058b825462000347565b62000598828285620004bd565b600060209050601f831160018114620005d05760008415620005bb578287015190505b620005c785826200053a565b86555062000637565b601f198416620005e0866200037c565b60005b828110156200060a57848901518255600182019150602085019450602081019050620005e3565b868310156200062a578489015162000626601f8916826200051a565b8355505b6001600288020188555050505b505050505050565b600082825260208201905092915050565b7f45524332303a206d696e7420746f20746865207a65726f206164647265737300600082015250565b600062000688601f836200063f565b9150620006958262000650565b602082019050919050565b60006020820190508181036000830152620006bb8162000679565b9050919050565b7f4e487b7100000000000000000000000000000000000000000000000000000000600052601160045260246000fd5b6000620006fe8262000404565b91506200070b8362000404565b9250828201905080821115620007265762000725620006c2565b5b92915050565b620007378162000404565b82525050565b60006020820190506200075460008301846200072c565b92915050565b613de0806200076a6000396000f3fe6080604052600436106101dc5760003560e01c8063785d04f511610102578063b78175f911610095578063dabaddb311610064578063dabaddb3146106ee578063dd62ed3e1461072b578063e5d7255314610768578063e97567f9146107a557610224565b8063b78175f914610667578063cc6dd91914610690578063d49aef61146106ac578063da93d0d1146106d757610224565b8063a457c2d7116100d1578063a457c2d714610597578063a74143f9146105d4578063a9059cbb146105ff578063b4a99a4e1461063c57610224565b8063785d04f5146104fa578063833b949914610516578063948e1a1c1461054157806395d89b411461056c57610224565b80632446d79f1161017a5780633610724e116101495780633610724e1461044857806339509351146104645780636a905df5146104a157806370a08231146104bd57610224565b80632446d79f1461039e5780632e1a7d4d146103c9578063313ce567146103f257806332cb6b0c1461041d57610224565b80630cb6aaf1116101b65780630cb6aaf1146102bc57806318160ddd146102f9578063207b885a1461032457806323b872dd1461036157610224565b806306661abd1461022957806306fdde0314610254578063095ea7b31461027f57610224565b36610224576101e96107e9565b7f88a5966d370b9919b20f3e2c13ff65706f196a4e32cc2c12bf57088f88525874333460405161021a92919061261a565b60405180910390a1005b600080fd5b34801561023557600080fd5b5061023e610847565b60405161024b9190612643565b60405180910390f35b34801561026057600080fd5b5061026961084d565b60405161027691906126ee565b60405180910390f35b34801561028b57600080fd5b506102a660048036038101906102a1919061277c565b6108df565b6040516102b391906127d7565b60405180910390f35b3480156102c857600080fd5b506102e360048036038101906102de91906127f2565b610902565b6040516102f0919061281f565b60405180910390f35b34801561030557600080fd5b5061030e610935565b60405161031b9190612643565b60405180910390f35b34801561033057600080fd5b5061034b600480360381019061034691906127f2565b61093f565b60405161035891906127d7565b60405180910390f35b34801561036d57600080fd5b506103886004803603810190610383919061283a565b610954565b60405161039591906127d7565b60405180910390f35b3480156103aa57600080fd5b506103b3610983565b6040516103c091906127d7565b60405180910390f35b3480156103d557600080fd5b506103f060048036038101906103eb91906127f2565b610996565b005b3480156103fe57600080fd5b50610407610b32565b60405161041491906128a9565b60405180910390f35b34801561042957600080fd5b50610432610b3b565b60405161043f9190612643565b60405180910390f35b610462600480360381019061045d91906127f2565b610b42565b005b34801561047057600080fd5b5061048b6004803603810190610486919061277c565b610c9d565b60405161049891906127d7565b60405180910390f35b6104bb60048036038101906104b691906129f9565b610cd4565b005b3480156104c957600080fd5b506104e460048036038101906104df9190612b3b565b610fa8565b6040516104f19190612643565b60405180910390f35b610514600480360381019061050f9190612b68565b610ff0565b005b34801561052257600080fd5b5061052b6110ff565b6040516105389190612643565b60405180910390f35b34801561054d57600080fd5b50610556611105565b6040516105639190612643565b60405180910390f35b34801561057857600080fd5b5061058161110b565b60405161058e91906126ee565b60405180910390f35b3480156105a357600080fd5b506105be60048036038101906105b9919061277c565b61119d565b6040516105cb91906127d7565b60405180910390f35b3480156105e057600080fd5b506105e9611214565b6040516105f69190612643565b60405180910390f35b34801561060b57600080fd5b506106266004803603810190610621919061277c565b61121a565b60405161063391906127d7565b60405180910390f35b34801561064857600080fd5b5061065161123d565b60405161065e9190612bc9565b60405180910390f35b34801561067357600080fd5b5061068e60048036038101906106899190612c10565b611263565b005b6106aa60048036038101906106a591906129f9565b611314565b005b3480156106b857600080fd5b506106c1611655565b6040516106ce9190612643565b60405180910390f35b3480156106e357600080fd5b506106ec6107e9565b005b3480156106fa57600080fd5b50610715600480360381019061071091906127f2565b61165b565b6040516107229190612643565b60405180910390f35b34801561073757600080fd5b50610752600480360381019061074d9190612c50565b611677565b60405161075f9190612643565b60405180910390f35b34801561077457600080fd5b5061078f600480360381019061078a9190612b3b565b6116fe565b60405161079c9190612dc4565b60405180910390f35b3480156107b157600080fd5b506107cc60048036038101906107c79190612b3b565b611a61565b6040516107e0989796959493929190612de6565b60405180910390f35b6000471161082c576040517f08c379a000000000000000000000000000000000000000000000000000000000815260040161082390612ef9565b60405180910390fd5b610834610935565b4761083f9190612f77565b600981905550565b600c5481565b60606003805461085c90612fd7565b80601f016020809104026020016040519081016040528092919081815260200182805461088890612fd7565b80156108d55780601f106108aa576101008083540402835291602001916108d5565b820191906000526020600020905b8154815290600101906020018083116108b857829003601f168201915b5050505050905090565b6000806108ea611d5e565b90506108f7818585611d66565b600191505092915050565b60066020528060005260406000206000915054906101000a900473ffffffffffffffffffffffffffffffffffffffff1681565b6000600254905090565b60008161094b33610fa8565b10159050919050565b60008061095f611d5e565b905061096c858285611f2f565b610977858585611fbb565b60019150509392505050565b600d60009054906101000a900460ff1681565b60006109a133610fa8565b116109e1576040517f08c379a00000000000000000000000000000000000000000000000000000000081526004016109d890613054565b60405180910390fd5b600d60009054906101000a900460ff1615610a31576040517f08c379a0000000000000000000000000000000000000000000000000000000008152600401610a28906130c0565b60405180910390fd5b6001600d60006101000a81548160ff021916908315150217905550610a546107e9565b60004711610a97576040517f08c379a0000000000000000000000000000000000000000000000000000000008152600401610a8e90612ef9565b60405180910390fd5b610aa08161093f565b610adf576040517f08c379a0000000000000000000000000000000000000000000000000000000008152600401610ad690613152565b60405180910390fd5b610ae9338261223a565b8060086000828254610afb9190613172565b92505081905550610b1433610b0f8361165b565b611263565b6000600d60006101000a81548160ff02191690831515021790555050565b60006012905090565b620186a081565b600d60009054906101000a900460ff1615610b92576040517f08c379a0000000000000000000000000000000000000000000000000000000008152600401610b89906130c0565b60405180910390fd5b6001600d60006101000a81548160ff0219169083151502179055503460095482610bbc91906131a6565b14610bfc576040517f08c379a0000000000000000000000000000000000000000000000000000000008152600401610bf39061325a565b60405180910390fd5b620186a081610c09610935565b610c139190613172565b1115610c54576040517f08c379a0000000000000000000000000000000000000000000000000000000008152600401610c4b906132c6565b60405180910390fd5b610c5e3382612410565b610c666107e9565b8060086000828254610c7891906132e6565b925050819055506000600d60006101000a81548160ff02191690831515021790555050565b600080610ca8611d5e565b9050610cc9818585610cba8589611677565b610cc49190613172565b611d66565b600191505092915050565b600d60009054906101000a900460ff1615610d24576040517f08c379a0000000000000000000000000000000000000000000000000000000008152600401610d1b906130c0565b60405180910390fd5b6001600d60006101000a81548160ff0219169083151502179055506000600a5482610d4f91906131a6565b9050803414610d93576040517f08c379a0000000000000000000000000000000000000000000000000000000008152600401610d8a90613366565b60405180910390fd5b600560003373ffffffffffffffffffffffffffffffffffffffff1673ffffffffffffffffffffffffffffffffffffffff16815260200190815260200160002060070160009054906101000a900460ff16610e22576040517f08c379a0000000000000000000000000000000000000000000000000000000008152600401610e19906133d2565b60405180910390fd5b6040518061010001604052808a815260200189815260200188815260200187815260200186815260200185815260200184815260200160011515815250600560003373ffffffffffffffffffffffffffffffffffffffff1673ffffffffffffffffffffffffffffffffffffffff1681526020019081526020016000206000820151816000019081610eb3919061359e565b506020820151816001019081610ec9919061359e565b506040820151816002019081610edf919061359e565b506060820151816003019081610ef5919061359e565b506080820151816004015560a0820151816005015560c0820151816006019081610f1f919061359e565b5060e08201518160070160006101000a81548160ff021916908315150217905550905050610f4b6107e9565b7faa9f6ecd6a994e8b7abb6b3f3a42756c6c483a3abc40d774db0e7d564ecf895833604051610f7a919061281f565b60405180910390a1506000600d60006101000a81548160ff0219169083151502179055505050505050505050565b60008060008373ffffffffffffffffffffffffffffffffffffffff1673ffffffffffffffffffffffffffffffffffffffff168152602001908152602001600020549050919050565b600d60009054906101000a900460ff1615611040576040517f08c379a0000000000000000000000000000000000000000000000000000000008152600401611037906130c0565b60405180910390fd5b6001600d60006101000a81548160ff0219169083151502179055506000826064600b5461106d9190612f77565b61107791906131a6565b9050600083826110879190613172565b9050803410156110cc576040517f08c379a00000000000000000000000000000000000000000000000000000000081526004016110c3906136bc565b60405180910390fd5b6110d68385611263565b6110de6107e9565b50506000600d60006101000a81548160ff0219169083151502179055505050565b60095481565b60085481565b60606004805461111a90612fd7565b80601f016020809104026020016040519081016040528092919081815260200182805461114690612fd7565b80156111935780601f1061116857610100808354040283529160200191611193565b820191906000526020600020905b81548152906001019060200180831161117657829003601f168201915b5050505050905090565b6000806111a8611d5e565b905060006111b68286611677565b9050838110156111fb576040517f08c379a00000000000000000000000000000000000000000000000000000000081526004016111f29061374e565b60405180910390fd5b6112088286868403611d66565b60019250505092915050565b600b5481565b600080611225611d5e565b9050611232818585611fbb565b600191505092915050565b600760009054906101000a900473ffffffffffffffffffffffffffffffffffffffff1681565b60008273ffffffffffffffffffffffffffffffffffffffff16826040516112899061379f565b60006040518083038185875af1925050503d80600081146112c6576040519150601f19603f3d011682016040523d82523d6000602084013e6112cb565b606091505b505090508061130f576040517f08c379a000000000000000000000000000000000000000000000000000000000815260040161130690613800565b60405180910390fd5b505050565b600d60009054906101000a900460ff1615611364576040517f08c379a000000000000000000000000000000000000000000000000000000000815260040161135b906130c0565b60405180910390fd5b6001600d60006101000a81548160ff0219169083151502179055506000600a548261138f91906131a6565b90508034146113d3576040517f08c379a00000000000000000000000000000000000000000000000000000000081526004016113ca90613366565b60405180910390fd5b600560003373ffffffffffffffffffffffffffffffffffffffff1673ffffffffffffffffffffffffffffffffffffffff16815260200190815260200160002060070160009054906101000a900460ff1615611463576040517f08c379a000000000000000000000000000000000000000000000000000000000815260040161145a9061386c565b60405180910390fd5b6040518061010001604052808a815260200189815260200188815260200187815260200186815260200185815260200184815260200160011515815250600560003373ffffffffffffffffffffffffffffffffffffffff1673ffffffffffffffffffffffffffffffffffffffff16815260200190815260200160002060008201518160000190816114f4919061359e565b50602082015181600101908161150a919061359e565b506040820151816002019081611520919061359e565b506060820151816003019081611536919061359e565b506080820151816004015560a0820151816005015560c0820151816006019081611560919061359e565b5060e08201518160070160006101000a81548160ff021916908315150217905550905050600c60008154809291906115979061388c565b91905055503360066000600c54815260200190815260200160002060006101000a81548173ffffffffffffffffffffffffffffffffffffffff021916908373ffffffffffffffffffffffffffffffffffffffff1602179055506115f86107e9565b7f5b73fdb55c6d540b14745a3fd5938bc6f31fefb134291d87585fb561def1395b33604051611627919061281f565b60405180910390a1506000600d60006101000a81548160ff0219169083151502179055505050505050505050565b600a5481565b6000806009548361166c91906131a6565b905080915050919050565b6000600160008473ffffffffffffffffffffffffffffffffffffffff1673ffffffffffffffffffffffffffffffffffffffff16815260200190815260200160002060008373ffffffffffffffffffffffffffffffffffffffff1673ffffffffffffffffffffffffffffffffffffffff16815260200190815260200160002054905092915050565b611706612579565b600560008373ffffffffffffffffffffffffffffffffffffffff1673ffffffffffffffffffffffffffffffffffffffff1681526020019081526020016000206040518061010001604052908160008201805461176190612fd7565b80601f016020809104026020016040519081016040528092919081815260200182805461178d90612fd7565b80156117da5780601f106117af576101008083540402835291602001916117da565b820191906000526020600020905b8154815290600101906020018083116117bd57829003601f168201915b505050505081526020016001820180546117f390612fd7565b80601f016020809104026020016040519081016040528092919081815260200182805461181f90612fd7565b801561186c5780601f106118415761010080835404028352916020019161186c565b820191906000526020600020905b81548152906001019060200180831161184f57829003601f168201915b5050505050815260200160028201805461188590612fd7565b80601f01602080910402602001604051908101604052809291908181526020018280546118b190612fd7565b80156118fe5780601f106118d3576101008083540402835291602001916118fe565b820191906000526020600020905b8154815290600101906020018083116118e157829003601f168201915b5050505050815260200160038201805461191790612fd7565b80601f016020809104026020016040519081016040528092919081815260200182805461194390612fd7565b80156119905780601f1061196557610100808354040283529160200191611990565b820191906000526020600020905b81548152906001019060200180831161197357829003601f168201915b5050505050815260200160048201548152602001600582015481526020016006820180546119bd90612fd7565b80601f01602080910402602001604051908101604052809291908181526020018280546119e990612fd7565b8015611a365780601f10611a0b57610100808354040283529160200191611a36565b820191906000526020600020905b815481529060010190602001808311611a1957829003601f168201915b505050505081526020016007820160009054906101000a900460ff1615151515815250509050919050565b6005602052806000526040600020600091509050806000018054611a8490612fd7565b80601f0160208091040260200160405190810160405280929190818152602001828054611ab090612fd7565b8015611afd5780601f10611ad257610100808354040283529160200191611afd565b820191906000526020600020905b815481529060010190602001808311611ae057829003601f168201915b505050505090806001018054611b1290612fd7565b80601f0160208091040260200160405190810160405280929190818152602001828054611b3e90612fd7565b8015611b8b5780601f10611b6057610100808354040283529160200191611b8b565b820191906000526020600020905b815481529060010190602001808311611b6e57829003601f168201915b505050505090806002018054611ba090612fd7565b80601f0160208091040260200160405190810160405280929190818152602001828054611bcc90612fd7565b8015611c195780601f10611bee57610100808354040283529160200191611c19565b820191906000526020600020905b815481529060010190602001808311611bfc57829003601f168201915b505050505090806003018054611c2e90612fd7565b80601f0160208091040260200160405190810160405280929190818152602001828054611c5a90612fd7565b8015611ca75780601f10611c7c57610100808354040283529160200191611ca7565b820191906000526020600020905b815481529060010190602001808311611c8a57829003601f168201915b505050505090806004015490806005015490806006018054611cc890612fd7565b80601f0160208091040260200160405190810160405280929190818152602001828054611cf490612fd7565b8015611d415780601f10611d1657610100808354040283529160200191611d41565b820191906000526020600020905b815481529060010190602001808311611d2457829003601f168201915b5050505050908060070160009054906101000a900460ff16905088565b600033905090565b600073ffffffffffffffffffffffffffffffffffffffff168373ffffffffffffffffffffffffffffffffffffffff1603611dd5576040517f08c379a0000000000000000000000000000000000000000000000000000000008152600401611dcc90613946565b60405180910390fd5b600073ffffffffffffffffffffffffffffffffffffffff168273ffffffffffffffffffffffffffffffffffffffff1603611e44576040517f08c379a0000000000000000000000000000000000000000000000000000000008152600401611e3b906139d8565b60405180910390fd5b80600160008573ffffffffffffffffffffffffffffffffffffffff1673ffffffffffffffffffffffffffffffffffffffff16815260200190815260200160002060008473ffffffffffffffffffffffffffffffffffffffff1673ffffffffffffffffffffffffffffffffffffffff168152602001908152602001600020819055508173ffffffffffffffffffffffffffffffffffffffff168373ffffffffffffffffffffffffffffffffffffffff167f8c5be1e5ebec7d5bd14f71427d1e84f3dd0314c0f7b2291e5b200ac8c7c3b92583604051611f229190612643565b60405180910390a3505050565b6000611f3b8484611677565b90507fffffffffffffffffffffffffffffffffffffffffffffffffffffffffffffffff8114611fb55781811015611fa7576040517f08c379a0000000000000000000000000000000000000000000000000000000008152600401611f9e90613a44565b60405180910390fd5b611fb48484848403611d66565b5b50505050565b600073ffffffffffffffffffffffffffffffffffffffff168373ffffffffffffffffffffffffffffffffffffffff160361202a576040517f08c379a000000000000000000000000000000000000000000000000000000000815260040161202190613ad6565b60405180910390fd5b600073ffffffffffffffffffffffffffffffffffffffff168273ffffffffffffffffffffffffffffffffffffffff1603612099576040517f08c379a000000000000000000000000000000000000000000000000000000000815260040161209090613b68565b60405180910390fd5b6120a483838361256f565b60008060008573ffffffffffffffffffffffffffffffffffffffff1673ffffffffffffffffffffffffffffffffffffffff1681526020019081526020016000205490508181101561212a576040517f08c379a000000000000000000000000000000000000000000000000000000000815260040161212190613bfa565b60405180910390fd5b8181036000808673ffffffffffffffffffffffffffffffffffffffff1673ffffffffffffffffffffffffffffffffffffffff16815260200190815260200160002081905550816000808573ffffffffffffffffffffffffffffffffffffffff1673ffffffffffffffffffffffffffffffffffffffff16815260200190815260200160002060008282546121bd9190613172565b925050819055508273ffffffffffffffffffffffffffffffffffffffff168473ffffffffffffffffffffffffffffffffffffffff167fddf252ad1be2c89b69c2b068fc378daa952ba7f163c4a11628f55a4df523b3ef846040516122219190612643565b60405180910390a3612234848484612574565b50505050565b600073ffffffffffffffffffffffffffffffffffffffff168273ffffffffffffffffffffffffffffffffffffffff16036122a9576040517f08c379a00000000000000000000000000000000000000000000000000000000081526004016122a090613c8c565b60405180910390fd5b6122b58260008361256f565b60008060008473ffffffffffffffffffffffffffffffffffffffff1673ffffffffffffffffffffffffffffffffffffffff1681526020019081526020016000205490508181101561233b576040517f08c379a000000000000000000000000000000000000000000000000000000000815260040161233290613d1e565b60405180910390fd5b8181036000808573ffffffffffffffffffffffffffffffffffffffff1673ffffffffffffffffffffffffffffffffffffffff16815260200190815260200160002081905550816002600082825461239291906132e6565b92505081905550600073ffffffffffffffffffffffffffffffffffffffff168373ffffffffffffffffffffffffffffffffffffffff167fddf252ad1be2c89b69c2b068fc378daa952ba7f163c4a11628f55a4df523b3ef846040516123f79190612643565b60405180910390a361240b83600084612574565b505050565b600073ffffffffffffffffffffffffffffffffffffffff168273ffffffffffffffffffffffffffffffffffffffff160361247f576040517f08c379a000000000000000000000000000000000000000000000000000000000815260040161247690613d8a565b60405180910390fd5b61248b6000838361256f565b806002600082825461249d9190613172565b92505081905550806000808473ffffffffffffffffffffffffffffffffffffffff1673ffffffffffffffffffffffffffffffffffffffff16815260200190815260200160002060008282546124f29190613172565b925050819055508173ffffffffffffffffffffffffffffffffffffffff16600073ffffffffffffffffffffffffffffffffffffffff167fddf252ad1be2c89b69c2b068fc378daa952ba7f163c4a11628f55a4df523b3ef836040516125579190612643565b60405180910390a361256b60008383612574565b5050565b505050565b505050565b604051806101000160405280606081526020016060815260200160608152602001606081526020016000815260200160008152602001606081526020016000151581525090565b600073ffffffffffffffffffffffffffffffffffffffff82169050919050565b60006125eb826125c0565b9050919050565b6125fb816125e0565b82525050565b6000819050919050565b61261481612601565b82525050565b600060408201905061262f60008301856125f2565b61263c602083018461260b565b9392505050565b6000602082019050612658600083018461260b565b92915050565b600081519050919050565b600082825260208201905092915050565b60005b8381101561269857808201518184015260208101905061267d565b60008484015250505050565b6000601f19601f8301169050919050565b60006126c08261265e565b6126ca8185612669565b93506126da81856020860161267a565b6126e3816126a4565b840191505092915050565b6000602082019050818103600083015261270881846126b5565b905092915050565b6000604051905090565b600080fd5b600080fd5b61272d816125e0565b811461273857600080fd5b50565b60008135905061274a81612724565b92915050565b61275981612601565b811461276457600080fd5b50565b60008135905061277681612750565b92915050565b600080604083850312156127935761279261271a565b5b60006127a18582860161273b565b92505060206127b285828601612767565b9150509250929050565b60008115159050919050565b6127d1816127bc565b82525050565b60006020820190506127ec60008301846127c8565b92915050565b6000602082840312156128085761280761271a565b5b600061281684828501612767565b91505092915050565b600060208201905061283460008301846125f2565b92915050565b6000806000606084860312156128535761285261271a565b5b60006128618682870161273b565b93505060206128728682870161273b565b925050604061288386828701612767565b9150509250925092565b600060ff82169050919050565b6128a38161288d565b82525050565b60006020820190506128be600083018461289a565b92915050565b600080fd5b600080fd5b7f4e487b7100000000000000000000000000000000000000000000000000000000600052604160045260246000fd5b612906826126a4565b810181811067ffffffffffffffff82111715612925576129246128ce565b5b80604052505050565b6000612938612710565b905061294482826128fd565b919050565b600067ffffffffffffffff821115612964576129636128ce565b5b61296d826126a4565b9050602081019050919050565b82818337600083830152505050565b600061299c61299784612949565b61292e565b9050828152602081018484840111156129b8576129b76128c9565b5b6129c384828561297a565b509392505050565b600082601f8301126129e0576129df6128c4565b5b81356129f0848260208601612989565b91505092915050565b600080600080600080600080610100898b031215612a1a57612a1961271a565b5b600089013567ffffffffffffffff811115612a3857612a3761271f565b5b612a448b828c016129cb565b985050602089013567ffffffffffffffff811115612a6557612a6461271f565b5b612a718b828c016129cb565b975050604089013567ffffffffffffffff811115612a9257612a9161271f565b5b612a9e8b828c016129cb565b965050606089013567ffffffffffffffff811115612abf57612abe61271f565b5b612acb8b828c016129cb565b9550506080612adc8b828c01612767565b94505060a0612aed8b828c01612767565b93505060c089013567ffffffffffffffff811115612b0e57612b0d61271f565b5b612b1a8b828c016129cb565b92505060e0612b2b8b828c01612767565b9150509295985092959890939650565b600060208284031215612b5157612b5061271a565b5b6000612b5f8482850161273b565b91505092915050565b60008060408385031215612b7f57612b7e61271a565b5b6000612b8d85828601612767565b9250506020612b9e8582860161273b565b9150509250929050565b6000612bb3826125c0565b9050919050565b612bc381612ba8565b82525050565b6000602082019050612bde6000830184612bba565b92915050565b612bed81612ba8565b8114612bf857600080fd5b50565b600081359050612c0a81612be4565b92915050565b60008060408385031215612c2757612c2661271a565b5b6000612c3585828601612bfb565b9250506020612c4685828601612767565b9150509250929050565b60008060408385031215612c6757612c6661271a565b5b6000612c758582860161273b565b9250506020612c868582860161273b565b9150509250929050565b600082825260208201905092915050565b6000612cac8261265e565b612cb68185612c90565b9350612cc681856020860161267a565b612ccf816126a4565b840191505092915050565b612ce381612601565b82525050565b612cf2816127bc565b82525050565b6000610100830160008301518482036000860152612d168282612ca1565b91505060208301518482036020860152612d308282612ca1565b91505060408301518482036040860152612d4a8282612ca1565b91505060608301518482036060860152612d648282612ca1565b9150506080830151612d796080860182612cda565b5060a0830151612d8c60a0860182612cda565b5060c083015184820360c0860152612da48282612ca1565b91505060e0830151612db960e0860182612ce9565b508091505092915050565b60006020820190508181036000830152612dde8184612cf8565b905092915050565b6000610100820190508181036000830152612e01818b6126b5565b90508181036020830152612e15818a6126b5565b90508181036040830152612e2981896126b5565b90508181036060830152612e3d81886126b5565b9050612e4c608083018761260b565b612e5960a083018661260b565b81810360c0830152612e6b81856126b5565b9050612e7a60e08301846127c8565b9998505050505050505050565b7f5468657265206973206e6f2076616c756520696e207468697320636f6e74726160008201527f6374000000000000000000000000000000000000000000000000000000000000602082015250565b6000612ee3602283612669565b9150612eee82612e87565b604082019050919050565b60006020820190508181036000830152612f1281612ed6565b9050919050565b7f4e487b7100000000000000000000000000000000000000000000000000000000600052601260045260246000fd5b7f4e487b7100000000000000000000000000000000000000000000000000000000600052601160045260246000fd5b6000612f8282612601565b9150612f8d83612601565b925082612f9d57612f9c612f19565b5b828204905092915050565b7f4e487b7100000000000000000000000000000000000000000000000000000000600052602260045260246000fd5b60006002820490506001821680612fef57607f821691505b60208210810361300257613001612fa8565b5b50919050565b7f4e6f7420686f6c64657200000000000000000000000000000000000000000000600082015250565b600061303e600a83612669565b915061304982613008565b602082019050919050565b6000602082019050818103600083015261306d81613031565b9050919050565b7f5265656e7472616e6379206973206e6f7420616c6c6f77656400000000000000600082015250565b60006130aa601983612669565b91506130b582613074565b602082019050919050565b600060208201905081810360008301526130d98161309d565b9050919050565b7f596f752061726520747279696e6720746f207769746864726177206d6f72652060008201527f7468616e20796f7572207374616b650000000000000000000000000000000000602082015250565b600061313c602f83612669565b9150613147826130e0565b604082019050919050565b6000602082019050818103600083015261316b8161312f565b9050919050565b600061317d82612601565b915061318883612601565b92508282019050808211156131a05761319f612f48565b5b92915050565b60006131b182612601565b91506131bc83612601565b92508282026131ca81612601565b915082820484148315176131e1576131e0612f48565b5b5092915050565b7f596f75206172652073656e64696e67207468652077726f6e6720616d6f756e7460008201527f20746f207468697320636f6e7472616374000000000000000000000000000000602082015250565b6000613244603183612669565b915061324f826131e8565b604082019050919050565b6000602082019050818103600083015261327381613237565b9050919050565b7f4d617820737570706c7920726561636865640000000000000000000000000000600082015250565b60006132b0601283612669565b91506132bb8261327a565b602082019050919050565b600060208201905081810360008301526132df816132a3565b9050919050565b60006132f182612601565b91506132fc83612601565b925082820390508181111561331457613313612f48565b5b92915050565b7f506c656173652070617920746865207265636f6d6d656e646564206665650000600082015250565b6000613350601e83612669565b915061335b8261331a565b602082019050919050565b6000602082019050818103600083015261337f81613343565b9050919050565b7f4e6f7420612063617368706f696e740000000000000000000000000000000000600082015250565b60006133bc600f83612669565b91506133c782613386565b602082019050919050565b600060208201905081810360008301526133eb816133af565b9050919050565b60008190508160005260206000209050919050565b60006020601f8301049050919050565b600082821b905092915050565b6000600883026134547fffffffffffffffffffffffffffffffffffffffffffffffffffffffffffffffff82613417565b61345e8683613417565b95508019841693508086168417925050509392505050565b6000819050919050565b600061349b61349661349184612601565b613476565b612601565b9050919050565b6000819050919050565b6134b583613480565b6134c96134c1826134a2565b848454613424565b825550505050565b600090565b6134de6134d1565b6134e98184846134ac565b505050565b5b8181101561350d576135026000826134d6565b6001810190506134ef565b5050565b601f82111561355257613523816133f2565b61352c84613407565b8101602085101561353b578190505b61354f61354785613407565b8301826134ee565b50505b505050565b600082821c905092915050565b600061357560001984600802613557565b1980831691505092915050565b600061358e8383613564565b9150826002028217905092915050565b6135a78261265e565b67ffffffffffffffff8111156135c0576135bf6128ce565b5b6135ca8254612fd7565b6135d5828285613511565b600060209050601f83116001811461360857600084156135f6578287015190505b6136008582613582565b865550613668565b601f198416613616866133f2565b60005b8281101561363e57848901518255600182019150602085019450602081019050613619565b8683101561365b5784890151613657601f891682613564565b8355505b6001600288020188555050505b505050505050565b7f4e6f7420656e6f7567682066756e64732073656e740000000000000000000000600082015250565b60006136a6601583612669565b91506136b182613670565b602082019050919050565b600060208201905081810360008301526136d581613699565b9050919050565b7f45524332303a2064656372656173656420616c6c6f77616e63652062656c6f7760008201527f207a65726f000000000000000000000000000000000000000000000000000000602082015250565b6000613738602583612669565b9150613743826136dc565b604082019050919050565b600060208201905081810360008301526137678161372b565b9050919050565b600081905092915050565b50565b600061378960008361376e565b915061379482613779565b600082019050919050565b60006137aa8261377c565b9150819050919050565b7f4661696c656420746f2073656e64207844616900000000000000000000000000600082015250565b60006137ea601383612669565b91506137f5826137b4565b602082019050919050565b60006020820190508181036000830152613819816137dd565b9050919050565b7f416c726561647920612063617368706f696e7400000000000000000000000000600082015250565b6000613856601383612669565b915061386182613820565b602082019050919050565b6000602082019050818103600083015261388581613849565b9050919050565b600061389782612601565b91507fffffffffffffffffffffffffffffffffffffffffffffffffffffffffffffffff82036138c9576138c8612f48565b5b600182019050919050565b7f45524332303a20617070726f76652066726f6d20746865207a65726f2061646460008201527f7265737300000000000000000000000000000000000000000000000000000000602082015250565b6000613930602483612669565b915061393b826138d4565b604082019050919050565b6000602082019050818103600083015261395f81613923565b9050919050565b7f45524332303a20617070726f766520746f20746865207a65726f20616464726560008201527f7373000000000000000000000000000000000000000000000000000000000000602082015250565b60006139c2602283612669565b91506139cd82613966565b604082019050919050565b600060208201905081810360008301526139f1816139b5565b9050919050565b7f45524332303a20696e73756666696369656e7420616c6c6f77616e6365000000600082015250565b6000613a2e601d83612669565b9150613a39826139f8565b602082019050919050565b60006020820190508181036000830152613a5d81613a21565b9050919050565b7f45524332303a207472616e736665722066726f6d20746865207a65726f20616460008201527f6472657373000000000000000000000000000000000000000000000000000000602082015250565b6000613ac0602583612669565b9150613acb82613a64565b604082019050919050565b60006020820190508181036000830152613aef81613ab3565b9050919050565b7f45524332303a207472616e7366657220746f20746865207a65726f206164647260008201527f6573730000000000000000000000000000000000000000000000000000000000602082015250565b6000613b52602383612669565b9150613b5d82613af6565b604082019050919050565b60006020820190508181036000830152613b8181613b45565b9050919050565b7f45524332303a207472616e7366657220616d6f756e742065786365656473206260008201527f616c616e63650000000000000000000000000000000000000000000000000000602082015250565b6000613be4602683612669565b9150613bef82613b88565b604082019050919050565b60006020820190508181036000830152613c1381613bd7565b9050919050565b7f45524332303a206275726e2066726f6d20746865207a65726f2061646472657360008201527f7300000000000000000000000000000000000000000000000000000000000000602082015250565b6000613c76602183612669565b9150613c8182613c1a565b604082019050919050565b60006020820190508181036000830152613ca581613c69565b9050919050565b7f45524332303a206275726e20616d6f756e7420657863656564732062616c616e60008201527f6365000000000000000000000000000000000000000000000000000000000000602082015250565b6000613d08602283612669565b9150613d1382613cac565b604082019050919050565b60006020820190508181036000830152613d3781613cfb565b9050919050565b7f45524332303a206d696e7420746f20746865207a65726f206164647265737300600082015250565b6000613d74601f83612669565b9150613d7f82613d3e565b602082019050919050565b60006020820190508181036000830152613da381613d67565b905091905056fea264697066735822122006399b5b41ee6a1d125637ea322fce968b7d46f0cd44b1e9ccbb0c89805b928664736f6c63430008110033",
  "linkReferences": {},
  "deployedLinkReferences": {}
}