{
  "_format": "hh-sol-artifact-1",
  "contractName": "CashPoints",
  "sourceName": "contracts/Cashpoints.sol",
  "abi": [
    {
      "inputs": [],
      "stateMutability": "nonpayable",
      "type": "constructor"
    },
    {
      "anonymous": false,
      "inputs": [
        {
          "indexed": true,
          "internalType": "address",
          "name": "owner",
          "type": "address"
        },
        {
          "indexed": true,
          "internalType": "address",
          "name": "spender",
          "type": "address"
        },
        {
          "indexed": false,
          "internalType": "uint256",
          "name": "value",
          "type": "uint256"
        }
      ],
      "name": "Approval",
      "type": "event"
    },
    {
      "anonymous": false,
      "inputs": [
        {
          "indexed": false,
          "internalType": "address",
          "name": "cashpoint",
          "type": "address"
        }
      ],
      "name": "CreatedCashPoint",
      "type": "event"
    },
    {
      "anonymous": false,
      "inputs": [
        {
          "indexed": false,
          "internalType": "address",
          "name": "",
          "type": "address"
        },
        {
          "indexed": false,
          "internalType": "uint256",
          "name": "",
          "type": "uint256"
        }
      ],
      "name": "Received",
      "type": "event"
    },
    {
      "anonymous": false,
      "inputs": [
        {
          "indexed": true,
          "internalType": "address",
          "name": "from",
          "type": "address"
        },
        {
          "indexed": true,
          "internalType": "address",
          "name": "to",
          "type": "address"
        },
        {
          "indexed": false,
          "internalType": "uint256",
          "name": "value",
          "type": "uint256"
        }
      ],
      "name": "Transfer",
      "type": "event"
    },
    {
      "anonymous": false,
      "inputs": [
        {
          "indexed": false,
          "internalType": "address",
          "name": "cashpoint",
          "type": "address"
        }
      ],
      "name": "UpdatedCashPoint",
      "type": "event"
    },
    {
      "inputs": [],
      "name": "AVAILABLE_TOKENS",
      "outputs": [
        {
          "internalType": "uint256",
          "name": "",
          "type": "uint256"
        }
      ],
      "stateMutability": "view",
      "type": "function"
    },
    {
      "inputs": [],
      "name": "CASHPOINT_FEE",
      "outputs": [
        {
          "internalType": "uint256",
          "name": "",
          "type": "uint256"
        }
      ],
      "stateMutability": "view",
      "type": "function"
    },
    {
      "inputs": [],
      "name": "MAX_SUPPLY",
      "outputs": [
        {
          "internalType": "uint256",
          "name": "",
          "type": "uint256"
        }
      ],
      "stateMutability": "view",
      "type": "function"
    },
    {
      "inputs": [],
      "name": "Owner",
      "outputs": [
        {
          "internalType": "address payable",
          "name": "",
          "type": "address"
        }
      ],
      "stateMutability": "view",
      "type": "function"
    },
    {
      "inputs": [],
      "name": "PRICE_PER_TOKEN",
      "outputs": [
        {
          "internalType": "uint256",
          "name": "",
          "type": "uint256"
        }
      ],
      "stateMutability": "view",
      "type": "function"
    },
    {
      "inputs": [],
      "name": "TRANSACTION_COMMISION",
      "outputs": [
        {
          "internalType": "uint256",
          "name": "",
          "type": "uint256"
        }
      ],
      "stateMutability": "view",
      "type": "function"
    },
    {
      "inputs": [
        {
          "internalType": "string",
          "name": "name",
          "type": "string"
        },
        {
          "internalType": "string",
          "name": "city",
          "type": "string"
        },
        {
          "internalType": "string",
          "name": "phone",
          "type": "string"
        },
        {
          "internalType": "string",
          "name": "currency",
          "type": "string"
        },
        {
          "internalType": "uint256",
          "name": "buy",
          "type": "uint256"
        },
        {
          "internalType": "uint256",
          "name": "sell",
          "type": "uint256"
        },
        {
          "internalType": "string",
          "name": "endtime",
          "type": "string"
        },
        {
          "internalType": "uint256",
          "name": "duration",
          "type": "uint256"
        }
      ],
      "name": "addCashPoint",
      "outputs": [],
      "stateMutability": "payable",
      "type": "function"
    },
    {
      "inputs": [
        {
          "internalType": "address",
          "name": "owner",
          "type": "address"
        },
        {
          "internalType": "address",
          "name": "spender",
          "type": "address"
        }
      ],
      "name": "allowance",
      "outputs": [
        {
          "internalType": "uint256",
          "name": "",
          "type": "uint256"
        }
      ],
      "stateMutability": "view",
      "type": "function"
    },
    {
      "inputs": [
        {
          "internalType": "address",
          "name": "spender",
          "type": "address"
        },
        {
          "internalType": "uint256",
          "name": "amount",
          "type": "uint256"
        }
      ],
      "name": "approve",
      "outputs": [
        {
          "internalType": "bool",
          "name": "",
          "type": "bool"
        }
      ],
      "stateMutability": "nonpayable",
      "type": "function"
    },
    {
      "inputs": [
        {
          "internalType": "address",
          "name": "account",
          "type": "address"
        }
      ],
      "name": "balanceOf",
      "outputs": [
        {
          "internalType": "uint256",
          "name": "",
          "type": "uint256"
        }
      ],
      "stateMutability": "view",
      "type": "function"
    },
    {
      "inputs": [
        {
          "internalType": "uint256",
          "name": "_amount",
          "type": "uint256"
        }
      ],
      "name": "buyTokens",
      "outputs": [],
      "stateMutability": "payable",
      "type": "function"
    },
    {
      "inputs": [
        {
          "internalType": "address",
          "name": "",
          "type": "address"
        }
      ],
      "name": "cashpoints",
      "outputs": [
        {
          "internalType": "string",
          "name": "_name",
          "type": "string"
        },
        {
          "internalType": "string",
          "name": "city",
          "type": "string"
        },
        {
          "internalType": "string",
          "name": "_phoneNumber",
          "type": "string"
        },
        {
          "internalType": "string",
          "name": "_currency",
          "type": "string"
        },
        {
          "internalType": "uint256",
          "name": "_buy",
          "type": "uint256"
        },
        {
          "internalType": "uint256",
          "name": "_sell",
          "type": "uint256"
        },
        {
          "internalType": "string",
          "name": "_endTime",
          "type": "string"
        },
        {
          "internalType": "bool",
          "name": "_isCashPoint",
          "type": "bool"
        }
      ],
      "stateMutability": "view",
      "type": "function"
    },
    {
      "inputs": [
        {
          "internalType": "uint256",
          "name": "_tokens",
          "type": "uint256"
        }
      ],
      "name": "checkAmountToTransfer",
      "outputs": [
        {
          "internalType": "uint256",
          "name": "",
          "type": "uint256"
        }
      ],
      "stateMutability": "view",
      "type": "function"
    },
    {
      "inputs": [
        {
          "internalType": "uint256",
          "name": "_tokens",
          "type": "uint256"
        }
      ],
      "name": "checkIfICanWithdraw",
      "outputs": [
        {
          "internalType": "bool",
          "name": "",
          "type": "bool"
        }
      ],
      "stateMutability": "view",
      "type": "function"
    },
    {
      "inputs": [],
      "name": "count",
      "outputs": [
        {
          "internalType": "uint256",
          "name": "",
          "type": "uint256"
        }
      ],
      "stateMutability": "view",
      "type": "function"
    },
    {
      "inputs": [],
      "name": "decimals",
      "outputs": [
        {
          "internalType": "uint8",
          "name": "",
          "type": "uint8"
        }
      ],
      "stateMutability": "view",
      "type": "function"
    },
    {
      "inputs": [
        {
          "internalType": "address",
          "name": "spender",
          "type": "address"
        },
        {
          "internalType": "uint256",
          "name": "subtractedValue",
          "type": "uint256"
        }
      ],
      "name": "decreaseAllowance",
      "outputs": [
        {
          "internalType": "bool",
          "name": "",
          "type": "bool"
        }
      ],
      "stateMutability": "nonpayable",
      "type": "function"
    },
    {
      "inputs": [
        {
          "internalType": "address",
          "name": "cp",
          "type": "address"
        }
      ],
      "name": "getCashPoint",
      "outputs": [
        {
          "components": [
            {
              "internalType": "string",
              "name": "_name",
              "type": "string"
            },
            {
              "internalType": "string",
              "name": "city",
              "type": "string"
            },
            {
              "internalType": "string",
              "name": "_phoneNumber",
              "type": "string"
            },
            {
              "internalType": "string",
              "name": "_currency",
              "type": "string"
            },
            {
              "internalType": "uint256",
              "name": "_buy",
              "type": "uint256"
            },
            {
              "internalType": "uint256",
              "name": "_sell",
              "type": "uint256"
            },
            {
              "internalType": "string",
              "name": "_endTime",
              "type": "string"
            },
            {
              "internalType": "bool",
              "name": "_isCashPoint",
              "type": "bool"
            }
          ],
          "internalType": "struct CashPoints.CashPoint",
          "name": "cashpoint",
          "type": "tuple"
        }
      ],
      "stateMutability": "view",
      "type": "function"
    },
    {
      "inputs": [
        {
          "internalType": "address",
          "name": "spender",
          "type": "address"
        },
        {
          "internalType": "uint256",
          "name": "addedValue",
          "type": "uint256"
        }
      ],
      "name": "increaseAllowance",
      "outputs": [
        {
          "internalType": "bool",
          "name": "",
          "type": "bool"
        }
      ],
      "stateMutability": "nonpayable",
      "type": "function"
    },
    {
      "inputs": [
        {
          "internalType": "uint256",
          "name": "",
          "type": "uint256"
        }
      ],
      "name": "keys",
      "outputs": [
        {
          "internalType": "address",
          "name": "",
          "type": "address"
        }
      ],
      "stateMutability": "view",
      "type": "function"
    },
    {
      "inputs": [],
      "name": "name",
      "outputs": [
        {
          "internalType": "string",
          "name": "",
          "type": "string"
        }
      ],
      "stateMutability": "view",
      "type": "function"
    },
    {
      "inputs": [],
      "name": "reentrancyLock",
      "outputs": [
        {
          "internalType": "bool",
          "name": "",
          "type": "bool"
        }
      ],
      "stateMutability": "view",
      "type": "function"
    },
    {
      "inputs": [],
      "name": "selfDestruct",
      "outputs": [],
      "stateMutability": "nonpayable",
      "type": "function"
    },
    {
      "inputs": [
        {
          "internalType": "uint256",
          "name": "_amount",
          "type": "uint256"
        },
        {
          "internalType": "address",
          "name": "_to",
          "type": "address"
        }
      ],
      "name": "send",
      "outputs": [],
      "stateMutability": "payable",
      "type": "function"
    },
    {
      "inputs": [],
      "name": "setPrice",
      "outputs": [],
      "stateMutability": "nonpayable",
      "type": "function"
    },
    {
      "inputs": [],
      "name": "symbol",
      "outputs": [
        {
          "internalType": "string",
          "name": "",
          "type": "string"
        }
      ],
      "stateMutability": "view",
      "type": "function"
    },
    {
      "inputs": [],
      "name": "totalSupply",
      "outputs": [
        {
          "internalType": "uint256",
          "name": "",
          "type": "uint256"
        }
      ],
      "stateMutability": "view",
      "type": "function"
    },
    {
      "inputs": [
        {
          "internalType": "address",
          "name": "to",
          "type": "address"
        },
        {
          "internalType": "uint256",
          "name": "amount",
          "type": "uint256"
        }
      ],
      "name": "transfer",
      "outputs": [
        {
          "internalType": "bool",
          "name": "",
          "type": "bool"
        }
      ],
      "stateMutability": "nonpayable",
      "type": "function"
    },
    {
      "inputs": [
        {
          "internalType": "address",
          "name": "from",
          "type": "address"
        },
        {
          "internalType": "address",
          "name": "to",
          "type": "address"
        },
        {
          "internalType": "uint256",
          "name": "amount",
          "type": "uint256"
        }
      ],
      "name": "transferFrom",
      "outputs": [
        {
          "internalType": "bool",
          "name": "",
          "type": "bool"
        }
      ],
      "stateMutability": "nonpayable",
      "type": "function"
    },
    {
      "inputs": [
        {
          "internalType": "address payable",
          "name": "_to",
          "type": "address"
        },
        {
          "internalType": "uint256",
          "name": "_amount",
          "type": "uint256"
        }
      ],
      "name": "transferXDai",
      "outputs": [],
      "stateMutability": "nonpayable",
      "type": "function"
    },
    {
      "inputs": [
        {
          "internalType": "string",
          "name": "name",
          "type": "string"
        },
        {
          "internalType": "string",
          "name": "city",
          "type": "string"
        },
        {
          "internalType": "string",
          "name": "phone",
          "type": "string"
        },
        {
          "internalType": "string",
          "name": "currency",
          "type": "string"
        },
        {
          "internalType": "uint256",
          "name": "buy",
          "type": "uint256"
        },
        {
          "internalType": "uint256",
          "name": "sell",
          "type": "uint256"
        },
        {
          "internalType": "string",
          "name": "endtime",
          "type": "string"
        },
        {
          "internalType": "uint256",
          "name": "duration",
          "type": "uint256"
        }
      ],
      "name": "updateCashPoint",
      "outputs": [],
      "stateMutability": "payable",
      "type": "function"
    },
    {
      "inputs": [
        {
          "internalType": "uint256",
          "name": "_tokens",
          "type": "uint256"
        }
      ],
      "name": "withdraw",
      "outputs": [],
      "stateMutability": "nonpayable",
      "type": "function"
    },
    {
      "stateMutability": "payable",
      "type": "receive"
    }
  ],
  "bytecode": "0x60806040526706f05b59d3b20000600a556001600b556000600c556000600d60006101000a81548160ff0219169083151502179055503480156200004257600080fd5b506040518060400160405280600881526020017f4368696b77616d610000000000000000000000000000000000000000000000008152506040518060400160405280600381526020017f43484b00000000000000000000000000000000000000000000000000000000008152508160039081620000c0919062000558565b508060049081620000d2919062000558565b50505033600760006101000a81548173ffffffffffffffffffffffffffffffffffffffff021916908373ffffffffffffffffffffffffffffffffffffffff1602179055506200014c600760009054906101000a900473ffffffffffffffffffffffffffffffffffffffff166127106200015c60201b60201c565b62015f906008819055506200075a565b600073ffffffffffffffffffffffffffffffffffffffff168273ffffffffffffffffffffffffffffffffffffffff1603620001ce576040517f08c379a0000000000000000000000000000000000000000000000000000000008152600401620001c590620006a0565b60405180910390fd5b620001e260008383620002d460201b60201c565b8060026000828254620001f69190620006f1565b92505081905550806000808473ffffffffffffffffffffffffffffffffffffffff1673ffffffffffffffffffffffffffffffffffffffff16815260200190815260200160002060008282546200024d9190620006f1565b925050819055508173ffffffffffffffffffffffffffffffffffffffff16600073ffffffffffffffffffffffffffffffffffffffff167fddf252ad1be2c89b69c2b068fc378daa952ba7f163c4a11628f55a4df523b3ef83604051620002b491906200073d565b60405180910390a3620002d060008383620002d960201b60201c565b5050565b505050565b505050565b600081519050919050565b7f4e487b7100000000000000000000000000000000000000000000000000000000600052604160045260246000fd5b7f4e487b7100000000000000000000000000000000000000000000000000000000600052602260045260246000fd5b600060028204905060018216806200036057607f821691505b60208210810362000376576200037562000318565b5b50919050565b60008190508160005260206000209050919050565b60006020601f8301049050919050565b600082821b905092915050565b600060088302620003e07fffffffffffffffffffffffffffffffffffffffffffffffffffffffffffffffff82620003a1565b620003ec8683620003a1565b95508019841693508086168417925050509392505050565b6000819050919050565b6000819050919050565b600062000439620004336200042d8462000404565b6200040e565b62000404565b9050919050565b6000819050919050565b620004558362000418565b6200046d620004648262000440565b848454620003ae565b825550505050565b600090565b6200048462000475565b620004918184846200044a565b505050565b5b81811015620004b957620004ad6000826200047a565b60018101905062000497565b5050565b601f8211156200050857620004d2816200037c565b620004dd8462000391565b81016020851015620004ed578190505b62000505620004fc8562000391565b83018262000496565b50505b505050565b600082821c905092915050565b60006200052d600019846008026200050d565b1980831691505092915050565b60006200054883836200051a565b9150826002028217905092915050565b6200056382620002de565b67ffffffffffffffff8111156200057f576200057e620002e9565b5b6200058b825462000347565b62000598828285620004bd565b600060209050601f831160018114620005d05760008415620005bb578287015190505b620005c785826200053a565b86555062000637565b601f198416620005e0866200037c565b60005b828110156200060a57848901518255600182019150602085019450602081019050620005e3565b868310156200062a578489015162000626601f8916826200051a565b8355505b6001600288020188555050505b505050505050565b600082825260208201905092915050565b7f45524332303a206d696e7420746f20746865207a65726f206164647265737300600082015250565b600062000688601f836200063f565b9150620006958262000650565b602082019050919050565b60006020820190508181036000830152620006bb8162000679565b9050919050565b7f4e487b7100000000000000000000000000000000000000000000000000000000600052601160045260246000fd5b6000620006fe8262000404565b91506200070b8362000404565b9250828201905080821115620007265762000725620006c2565b5b92915050565b620007378162000404565b82525050565b60006020820190506200075460008301846200072c565b92915050565b61400e806200076a6000396000f3fe6080604052600436106101e75760003560e01c8063833b949911610102578063b78175f911610095578063dabaddb311610064578063dabaddb314610710578063dd62ed3e1461074d578063e5d725531461078a578063e97567f9146107c75761022f565b8063b78175f914610689578063cc6dd919146106b2578063d49aef61146106ce578063da93d0d1146106f95761022f565b8063a457c2d7116100d1578063a457c2d7146105b9578063a74143f9146105f6578063a9059cbb14610621578063b4a99a4e1461065e5761022f565b8063833b949914610521578063948e1a1c1461054c57806395d89b41146105775780639cb8a26a146105a25761022f565b80632e1a7d4d1161017a5780633950935111610149578063395093511461046f5780636a905df5146104ac57806370a08231146104c8578063785d04f5146105055761022f565b80632e1a7d4d146103d4578063313ce567146103fd57806332cb6b0c146104285780633610724e146104535761022f565b806318160ddd116101b657806318160ddd14610304578063207b885a1461032f57806323b872dd1461036c5780632446d79f146103a95761022f565b806306661abd1461023457806306fdde031461025f578063095ea7b31461028a5780630cb6aaf1146102c75761022f565b3661022f576101f461080b565b7f88a5966d370b9919b20f3e2c13ff65706f196a4e32cc2c12bf57088f88525874333460405161022592919061274a565b60405180910390a1005b600080fd5b34801561024057600080fd5b50610249610869565b6040516102569190612773565b60405180910390f35b34801561026b57600080fd5b5061027461086f565b604051610281919061281e565b60405180910390f35b34801561029657600080fd5b506102b160048036038101906102ac91906128ac565b610901565b6040516102be9190612907565b60405180910390f35b3480156102d357600080fd5b506102ee60048036038101906102e99190612922565b610924565b6040516102fb919061294f565b60405180910390f35b34801561031057600080fd5b50610319610957565b6040516103269190612773565b60405180910390f35b34801561033b57600080fd5b5061035660048036038101906103519190612922565b610961565b6040516103639190612907565b60405180910390f35b34801561037857600080fd5b50610393600480360381019061038e919061296a565b610976565b6040516103a09190612907565b60405180910390f35b3480156103b557600080fd5b506103be6109a5565b6040516103cb9190612907565b60405180910390f35b3480156103e057600080fd5b506103fb60048036038101906103f69190612922565b6109b8565b005b34801561040957600080fd5b50610412610b54565b60405161041f91906129d9565b60405180910390f35b34801561043457600080fd5b5061043d610b5d565b60405161044a9190612773565b60405180910390f35b61046d60048036038101906104689190612922565b610b64565b005b34801561047b57600080fd5b50610496600480360381019061049191906128ac565b610cbf565b6040516104a39190612907565b60405180910390f35b6104c660048036038101906104c19190612b29565b610cf6565b005b3480156104d457600080fd5b506104ef60048036038101906104ea9190612c6b565b610fca565b6040516104fc9190612773565b60405180910390f35b61051f600480360381019061051a9190612c98565b611012565b005b34801561052d57600080fd5b50610536611121565b6040516105439190612773565b60405180910390f35b34801561055857600080fd5b50610561611127565b60405161056e9190612773565b60405180910390f35b34801561058357600080fd5b5061058c61112d565b604051610599919061281e565b60405180910390f35b3480156105ae57600080fd5b506105b76111bf565b005b3480156105c557600080fd5b506105e060048036038101906105db91906128ac565b6112cd565b6040516105ed9190612907565b60405180910390f35b34801561060257600080fd5b5061060b611344565b6040516106189190612773565b60405180910390f35b34801561062d57600080fd5b50610648600480360381019061064391906128ac565b61134a565b6040516106559190612907565b60405180910390f35b34801561066a57600080fd5b5061067361136d565b6040516106809190612cf9565b60405180910390f35b34801561069557600080fd5b506106b060048036038101906106ab9190612d40565b611393565b005b6106cc60048036038101906106c79190612b29565b611444565b005b3480156106da57600080fd5b506106e3611785565b6040516106f09190612773565b60405180910390f35b34801561070557600080fd5b5061070e61080b565b005b34801561071c57600080fd5b5061073760048036038101906107329190612922565b61178b565b6040516107449190612773565b60405180910390f35b34801561075957600080fd5b50610774600480360381019061076f9190612d80565b6117a7565b6040516107819190612773565b60405180910390f35b34801561079657600080fd5b506107b160048036038101906107ac9190612c6b565b61182e565b6040516107be9190612ef4565b60405180910390f35b3480156107d357600080fd5b506107ee60048036038101906107e99190612c6b565b611b91565b604051610802989796959493929190612f16565b60405180910390f35b6000471161084e576040517f08c379a000000000000000000000000000000000000000000000000000000000815260040161084590613029565b60405180910390fd5b610856610957565b4761086191906130a7565b600981905550565b600c5481565b60606003805461087e90613107565b80601f01602080910402602001604051908101604052809291908181526020018280546108aa90613107565b80156108f75780601f106108cc576101008083540402835291602001916108f7565b820191906000526020600020905b8154815290600101906020018083116108da57829003601f168201915b5050505050905090565b60008061090c611e8e565b9050610919818585611e96565b600191505092915050565b60066020528060005260406000206000915054906101000a900473ffffffffffffffffffffffffffffffffffffffff1681565b6000600254905090565b60008161096d33610fca565b10159050919050565b600080610981611e8e565b905061098e85828561205f565b6109998585856120eb565b60019150509392505050565b600d60009054906101000a900460ff1681565b60006109c333610fca565b11610a03576040517f08c379a00000000000000000000000000000000000000000000000000000000081526004016109fa90613184565b60405180910390fd5b600d60009054906101000a900460ff1615610a53576040517f08c379a0000000000000000000000000000000000000000000000000000000008152600401610a4a906131f0565b60405180910390fd5b6001600d60006101000a81548160ff021916908315150217905550610a7661080b565b60004711610ab9576040517f08c379a0000000000000000000000000000000000000000000000000000000008152600401610ab090613029565b60405180910390fd5b610ac281610961565b610b01576040517f08c379a0000000000000000000000000000000000000000000000000000000008152600401610af890613282565b60405180910390fd5b610b0b338261236a565b8060086000828254610b1d91906132a2565b92505081905550610b3633610b318361178b565b611393565b6000600d60006101000a81548160ff02191690831515021790555050565b60006012905090565b620186a081565b600d60009054906101000a900460ff1615610bb4576040517f08c379a0000000000000000000000000000000000000000000000000000000008152600401610bab906131f0565b60405180910390fd5b6001600d60006101000a81548160ff0219169083151502179055503460095482610bde91906132d6565b14610c1e576040517f08c379a0000000000000000000000000000000000000000000000000000000008152600401610c159061338a565b60405180910390fd5b620186a081610c2b610957565b610c3591906132a2565b1115610c76576040517f08c379a0000000000000000000000000000000000000000000000000000000008152600401610c6d906133f6565b60405180910390fd5b610c803382612540565b610c8861080b565b8060086000828254610c9a9190613416565b925050819055506000600d60006101000a81548160ff02191690831515021790555050565b600080610cca611e8e565b9050610ceb818585610cdc85896117a7565b610ce691906132a2565b611e96565b600191505092915050565b600d60009054906101000a900460ff1615610d46576040517f08c379a0000000000000000000000000000000000000000000000000000000008152600401610d3d906131f0565b60405180910390fd5b6001600d60006101000a81548160ff0219169083151502179055506000600a5482610d7191906132d6565b9050803414610db5576040517f08c379a0000000000000000000000000000000000000000000000000000000008152600401610dac90613496565b60405180910390fd5b600560003373ffffffffffffffffffffffffffffffffffffffff1673ffffffffffffffffffffffffffffffffffffffff16815260200190815260200160002060070160009054906101000a900460ff16610e44576040517f08c379a0000000000000000000000000000000000000000000000000000000008152600401610e3b90613502565b60405180910390fd5b6040518061010001604052808a815260200189815260200188815260200187815260200186815260200185815260200184815260200160011515815250600560003373ffffffffffffffffffffffffffffffffffffffff1673ffffffffffffffffffffffffffffffffffffffff1681526020019081526020016000206000820151816000019081610ed591906136ce565b506020820151816001019081610eeb91906136ce565b506040820151816002019081610f0191906136ce565b506060820151816003019081610f1791906136ce565b506080820151816004015560a0820151816005015560c0820151816006019081610f4191906136ce565b5060e08201518160070160006101000a81548160ff021916908315150217905550905050610f6d61080b565b7faa9f6ecd6a994e8b7abb6b3f3a42756c6c483a3abc40d774db0e7d564ecf895833604051610f9c919061294f565b60405180910390a1506000600d60006101000a81548160ff0219169083151502179055505050505050505050565b60008060008373ffffffffffffffffffffffffffffffffffffffff1673ffffffffffffffffffffffffffffffffffffffff168152602001908152602001600020549050919050565b600d60009054906101000a900460ff1615611062576040517f08c379a0000000000000000000000000000000000000000000000000000000008152600401611059906131f0565b60405180910390fd5b6001600d60006101000a81548160ff0219169083151502179055506000826064600b5461108f91906130a7565b61109991906132d6565b9050600083826110a991906132a2565b9050803410156110ee576040517f08c379a00000000000000000000000000000000000000000000000000000000081526004016110e5906137ec565b60405180910390fd5b6110f88385611393565b61110061080b565b50506000600d60006101000a81548160ff0219169083151502179055505050565b60095481565b60085481565b60606004805461113c90613107565b80601f016020809104026020016040519081016040528092919081815260200182805461116890613107565b80156111b55780601f1061118a576101008083540402835291602001916111b5565b820191906000526020600020905b81548152906001019060200180831161119857829003601f168201915b5050505050905090565b600760009054906101000a900473ffffffffffffffffffffffffffffffffffffffff1673ffffffffffffffffffffffffffffffffffffffff163373ffffffffffffffffffffffffffffffffffffffff161461124f576040517f08c379a000000000000000000000000000000000000000000000000000000000815260040161124690613858565b60405180910390fd5b60004714611292576040517f08c379a0000000000000000000000000000000000000000000000000000000008152600401611289906138ea565b60405180910390fd5b600760009054906101000a900473ffffffffffffffffffffffffffffffffffffffff1673ffffffffffffffffffffffffffffffffffffffff16ff5b6000806112d8611e8e565b905060006112e682866117a7565b90508381101561132b576040517f08c379a00000000000000000000000000000000000000000000000000000000081526004016113229061397c565b60405180910390fd5b6113388286868403611e96565b60019250505092915050565b600b5481565b600080611355611e8e565b90506113628185856120eb565b600191505092915050565b600760009054906101000a900473ffffffffffffffffffffffffffffffffffffffff1681565b60008273ffffffffffffffffffffffffffffffffffffffff16826040516113b9906139cd565b60006040518083038185875af1925050503d80600081146113f6576040519150601f19603f3d011682016040523d82523d6000602084013e6113fb565b606091505b505090508061143f576040517f08c379a000000000000000000000000000000000000000000000000000000000815260040161143690613a2e565b60405180910390fd5b505050565b600d60009054906101000a900460ff1615611494576040517f08c379a000000000000000000000000000000000000000000000000000000000815260040161148b906131f0565b60405180910390fd5b6001600d60006101000a81548160ff0219169083151502179055506000600a54826114bf91906132d6565b9050803414611503576040517f08c379a00000000000000000000000000000000000000000000000000000000081526004016114fa90613496565b60405180910390fd5b600560003373ffffffffffffffffffffffffffffffffffffffff1673ffffffffffffffffffffffffffffffffffffffff16815260200190815260200160002060070160009054906101000a900460ff1615611593576040517f08c379a000000000000000000000000000000000000000000000000000000000815260040161158a90613a9a565b60405180910390fd5b6040518061010001604052808a815260200189815260200188815260200187815260200186815260200185815260200184815260200160011515815250600560003373ffffffffffffffffffffffffffffffffffffffff1673ffffffffffffffffffffffffffffffffffffffff168152602001908152602001600020600082015181600001908161162491906136ce565b50602082015181600101908161163a91906136ce565b50604082015181600201908161165091906136ce565b50606082015181600301908161166691906136ce565b506080820151816004015560a0820151816005015560c082015181600601908161169091906136ce565b5060e08201518160070160006101000a81548160ff021916908315150217905550905050600c60008154809291906116c790613aba565b91905055503360066000600c54815260200190815260200160002060006101000a81548173ffffffffffffffffffffffffffffffffffffffff021916908373ffffffffffffffffffffffffffffffffffffffff16021790555061172861080b565b7f5b73fdb55c6d540b14745a3fd5938bc6f31fefb134291d87585fb561def1395b33604051611757919061294f565b60405180910390a1506000600d60006101000a81548160ff0219169083151502179055505050505050505050565b600a5481565b6000806009548361179c91906132d6565b905080915050919050565b6000600160008473ffffffffffffffffffffffffffffffffffffffff1673ffffffffffffffffffffffffffffffffffffffff16815260200190815260200160002060008373ffffffffffffffffffffffffffffffffffffffff1673ffffffffffffffffffffffffffffffffffffffff16815260200190815260200160002054905092915050565b6118366126a9565b600560008373ffffffffffffffffffffffffffffffffffffffff1673ffffffffffffffffffffffffffffffffffffffff1681526020019081526020016000206040518061010001604052908160008201805461189190613107565b80601f01602080910402602001604051908101604052809291908181526020018280546118bd90613107565b801561190a5780601f106118df5761010080835404028352916020019161190a565b820191906000526020600020905b8154815290600101906020018083116118ed57829003601f168201915b5050505050815260200160018201805461192390613107565b80601f016020809104026020016040519081016040528092919081815260200182805461194f90613107565b801561199c5780601f106119715761010080835404028352916020019161199c565b820191906000526020600020905b81548152906001019060200180831161197f57829003601f168201915b505050505081526020016002820180546119b590613107565b80601f01602080910402602001604051908101604052809291908181526020018280546119e190613107565b8015611a2e5780601f10611a0357610100808354040283529160200191611a2e565b820191906000526020600020905b815481529060010190602001808311611a1157829003601f168201915b50505050508152602001600382018054611a4790613107565b80601f0160208091040260200160405190810160405280929190818152602001828054611a7390613107565b8015611ac05780601f10611a9557610100808354040283529160200191611ac0565b820191906000526020600020905b815481529060010190602001808311611aa357829003601f168201915b505050505081526020016004820154815260200160058201548152602001600682018054611aed90613107565b80601f0160208091040260200160405190810160405280929190818152602001828054611b1990613107565b8015611b665780601f10611b3b57610100808354040283529160200191611b66565b820191906000526020600020905b815481529060010190602001808311611b4957829003601f168201915b505050505081526020016007820160009054906101000a900460ff1615151515815250509050919050565b6005602052806000526040600020600091509050806000018054611bb490613107565b80601f0160208091040260200160405190810160405280929190818152602001828054611be090613107565b8015611c2d5780601f10611c0257610100808354040283529160200191611c2d565b820191906000526020600020905b815481529060010190602001808311611c1057829003601f168201915b505050505090806001018054611c4290613107565b80601f0160208091040260200160405190810160405280929190818152602001828054611c6e90613107565b8015611cbb5780601f10611c9057610100808354040283529160200191611cbb565b820191906000526020600020905b815481529060010190602001808311611c9e57829003601f168201915b505050505090806002018054611cd090613107565b80601f0160208091040260200160405190810160405280929190818152602001828054611cfc90613107565b8015611d495780601f10611d1e57610100808354040283529160200191611d49565b820191906000526020600020905b815481529060010190602001808311611d2c57829003601f168201915b505050505090806003018054611d5e90613107565b80601f0160208091040260200160405190810160405280929190818152602001828054611d8a90613107565b8015611dd75780601f10611dac57610100808354040283529160200191611dd7565b820191906000526020600020905b815481529060010190602001808311611dba57829003601f168201915b505050505090806004015490806005015490806006018054611df890613107565b80601f0160208091040260200160405190810160405280929190818152602001828054611e2490613107565b8015611e715780601f10611e4657610100808354040283529160200191611e71565b820191906000526020600020905b815481529060010190602001808311611e5457829003601f168201915b5050505050908060070160009054906101000a900460ff16905088565b600033905090565b600073ffffffffffffffffffffffffffffffffffffffff168373ffffffffffffffffffffffffffffffffffffffff1603611f05576040517f08c379a0000000000000000000000000000000000000000000000000000000008152600401611efc90613b74565b60405180910390fd5b600073ffffffffffffffffffffffffffffffffffffffff168273ffffffffffffffffffffffffffffffffffffffff1603611f74576040517f08c379a0000000000000000000000000000000000000000000000000000000008152600401611f6b90613c06565b60405180910390fd5b80600160008573ffffffffffffffffffffffffffffffffffffffff1673ffffffffffffffffffffffffffffffffffffffff16815260200190815260200160002060008473ffffffffffffffffffffffffffffffffffffffff1673ffffffffffffffffffffffffffffffffffffffff168152602001908152602001600020819055508173ffffffffffffffffffffffffffffffffffffffff168373ffffffffffffffffffffffffffffffffffffffff167f8c5be1e5ebec7d5bd14f71427d1e84f3dd0314c0f7b2291e5b200ac8c7c3b925836040516120529190612773565b60405180910390a3505050565b600061206b84846117a7565b90507fffffffffffffffffffffffffffffffffffffffffffffffffffffffffffffffff81146120e557818110156120d7576040517f08c379a00000000000000000000000000000000000000000000000000000000081526004016120ce90613c72565b60405180910390fd5b6120e48484848403611e96565b5b50505050565b600073ffffffffffffffffffffffffffffffffffffffff168373ffffffffffffffffffffffffffffffffffffffff160361215a576040517f08c379a000000000000000000000000000000000000000000000000000000000815260040161215190613d04565b60405180910390fd5b600073ffffffffffffffffffffffffffffffffffffffff168273ffffffffffffffffffffffffffffffffffffffff16036121c9576040517f08c379a00000000000000000000000000000000000000000000000000000000081526004016121c090613d96565b60405180910390fd5b6121d483838361269f565b60008060008573ffffffffffffffffffffffffffffffffffffffff1673ffffffffffffffffffffffffffffffffffffffff1681526020019081526020016000205490508181101561225a576040517f08c379a000000000000000000000000000000000000000000000000000000000815260040161225190613e28565b60405180910390fd5b8181036000808673ffffffffffffffffffffffffffffffffffffffff1673ffffffffffffffffffffffffffffffffffffffff16815260200190815260200160002081905550816000808573ffffffffffffffffffffffffffffffffffffffff1673ffffffffffffffffffffffffffffffffffffffff16815260200190815260200160002060008282546122ed91906132a2565b925050819055508273ffffffffffffffffffffffffffffffffffffffff168473ffffffffffffffffffffffffffffffffffffffff167fddf252ad1be2c89b69c2b068fc378daa952ba7f163c4a11628f55a4df523b3ef846040516123519190612773565b60405180910390a36123648484846126a4565b50505050565b600073ffffffffffffffffffffffffffffffffffffffff168273ffffffffffffffffffffffffffffffffffffffff16036123d9576040517f08c379a00000000000000000000000000000000000000000000000000000000081526004016123d090613eba565b60405180910390fd5b6123e58260008361269f565b60008060008473ffffffffffffffffffffffffffffffffffffffff1673ffffffffffffffffffffffffffffffffffffffff1681526020019081526020016000205490508181101561246b576040517f08c379a000000000000000000000000000000000000000000000000000000000815260040161246290613f4c565b60405180910390fd5b8181036000808573ffffffffffffffffffffffffffffffffffffffff1673ffffffffffffffffffffffffffffffffffffffff1681526020019081526020016000208190555081600260008282546124c29190613416565b92505081905550600073ffffffffffffffffffffffffffffffffffffffff168373ffffffffffffffffffffffffffffffffffffffff167fddf252ad1be2c89b69c2b068fc378daa952ba7f163c4a11628f55a4df523b3ef846040516125279190612773565b60405180910390a361253b836000846126a4565b505050565b600073ffffffffffffffffffffffffffffffffffffffff168273ffffffffffffffffffffffffffffffffffffffff16036125af576040517f08c379a00000000000000000000000000000000000000000000000000000000081526004016125a690613fb8565b60405180910390fd5b6125bb6000838361269f565b80600260008282546125cd91906132a2565b92505081905550806000808473ffffffffffffffffffffffffffffffffffffffff1673ffffffffffffffffffffffffffffffffffffffff168152602001908152602001600020600082825461262291906132a2565b925050819055508173ffffffffffffffffffffffffffffffffffffffff16600073ffffffffffffffffffffffffffffffffffffffff167fddf252ad1be2c89b69c2b068fc378daa952ba7f163c4a11628f55a4df523b3ef836040516126879190612773565b60405180910390a361269b600083836126a4565b5050565b505050565b505050565b604051806101000160405280606081526020016060815260200160608152602001606081526020016000815260200160008152602001606081526020016000151581525090565b600073ffffffffffffffffffffffffffffffffffffffff82169050919050565b600061271b826126f0565b9050919050565b61272b81612710565b82525050565b6000819050919050565b61274481612731565b82525050565b600060408201905061275f6000830185612722565b61276c602083018461273b565b9392505050565b6000602082019050612788600083018461273b565b92915050565b600081519050919050565b600082825260208201905092915050565b60005b838110156127c85780820151818401526020810190506127ad565b60008484015250505050565b6000601f19601f8301169050919050565b60006127f08261278e565b6127fa8185612799565b935061280a8185602086016127aa565b612813816127d4565b840191505092915050565b6000602082019050818103600083015261283881846127e5565b905092915050565b6000604051905090565b600080fd5b600080fd5b61285d81612710565b811461286857600080fd5b50565b60008135905061287a81612854565b92915050565b61288981612731565b811461289457600080fd5b50565b6000813590506128a681612880565b92915050565b600080604083850312156128c3576128c261284a565b5b60006128d18582860161286b565b92505060206128e285828601612897565b9150509250929050565b60008115159050919050565b612901816128ec565b82525050565b600060208201905061291c60008301846128f8565b92915050565b6000602082840312156129385761293761284a565b5b600061294684828501612897565b91505092915050565b60006020820190506129646000830184612722565b92915050565b6000806000606084860312156129835761298261284a565b5b60006129918682870161286b565b93505060206129a28682870161286b565b92505060406129b386828701612897565b9150509250925092565b600060ff82169050919050565b6129d3816129bd565b82525050565b60006020820190506129ee60008301846129ca565b92915050565b600080fd5b600080fd5b7f4e487b7100000000000000000000000000000000000000000000000000000000600052604160045260246000fd5b612a36826127d4565b810181811067ffffffffffffffff82111715612a5557612a546129fe565b5b80604052505050565b6000612a68612840565b9050612a748282612a2d565b919050565b600067ffffffffffffffff821115612a9457612a936129fe565b5b612a9d826127d4565b9050602081019050919050565b82818337600083830152505050565b6000612acc612ac784612a79565b612a5e565b905082815260208101848484011115612ae857612ae76129f9565b5b612af3848285612aaa565b509392505050565b600082601f830112612b1057612b0f6129f4565b5b8135612b20848260208601612ab9565b91505092915050565b600080600080600080600080610100898b031215612b4a57612b4961284a565b5b600089013567ffffffffffffffff811115612b6857612b6761284f565b5b612b748b828c01612afb565b985050602089013567ffffffffffffffff811115612b9557612b9461284f565b5b612ba18b828c01612afb565b975050604089013567ffffffffffffffff811115612bc257612bc161284f565b5b612bce8b828c01612afb565b965050606089013567ffffffffffffffff811115612bef57612bee61284f565b5b612bfb8b828c01612afb565b9550506080612c0c8b828c01612897565b94505060a0612c1d8b828c01612897565b93505060c089013567ffffffffffffffff811115612c3e57612c3d61284f565b5b612c4a8b828c01612afb565b92505060e0612c5b8b828c01612897565b9150509295985092959890939650565b600060208284031215612c8157612c8061284a565b5b6000612c8f8482850161286b565b91505092915050565b60008060408385031215612caf57612cae61284a565b5b6000612cbd85828601612897565b9250506020612cce8582860161286b565b9150509250929050565b6000612ce3826126f0565b9050919050565b612cf381612cd8565b82525050565b6000602082019050612d0e6000830184612cea565b92915050565b612d1d81612cd8565b8114612d2857600080fd5b50565b600081359050612d3a81612d14565b92915050565b60008060408385031215612d5757612d5661284a565b5b6000612d6585828601612d2b565b9250506020612d7685828601612897565b9150509250929050565b60008060408385031215612d9757612d9661284a565b5b6000612da58582860161286b565b9250506020612db68582860161286b565b9150509250929050565b600082825260208201905092915050565b6000612ddc8261278e565b612de68185612dc0565b9350612df68185602086016127aa565b612dff816127d4565b840191505092915050565b612e1381612731565b82525050565b612e22816128ec565b82525050565b6000610100830160008301518482036000860152612e468282612dd1565b91505060208301518482036020860152612e608282612dd1565b91505060408301518482036040860152612e7a8282612dd1565b91505060608301518482036060860152612e948282612dd1565b9150506080830151612ea96080860182612e0a565b5060a0830151612ebc60a0860182612e0a565b5060c083015184820360c0860152612ed48282612dd1565b91505060e0830151612ee960e0860182612e19565b508091505092915050565b60006020820190508181036000830152612f0e8184612e28565b905092915050565b6000610100820190508181036000830152612f31818b6127e5565b90508181036020830152612f45818a6127e5565b90508181036040830152612f5981896127e5565b90508181036060830152612f6d81886127e5565b9050612f7c608083018761273b565b612f8960a083018661273b565b81810360c0830152612f9b81856127e5565b9050612faa60e08301846128f8565b9998505050505050505050565b7f5468657265206973206e6f2076616c756520696e207468697320636f6e74726160008201527f6374000000000000000000000000000000000000000000000000000000000000602082015250565b6000613013602283612799565b915061301e82612fb7565b604082019050919050565b6000602082019050818103600083015261304281613006565b9050919050565b7f4e487b7100000000000000000000000000000000000000000000000000000000600052601260045260246000fd5b7f4e487b7100000000000000000000000000000000000000000000000000000000600052601160045260246000fd5b60006130b282612731565b91506130bd83612731565b9250826130cd576130cc613049565b5b828204905092915050565b7f4e487b7100000000000000000000000000000000000000000000000000000000600052602260045260246000fd5b6000600282049050600182168061311f57607f821691505b602082108103613132576131316130d8565b5b50919050565b7f4e6f7420686f6c64657200000000000000000000000000000000000000000000600082015250565b600061316e600a83612799565b915061317982613138565b602082019050919050565b6000602082019050818103600083015261319d81613161565b9050919050565b7f5265656e7472616e6379206973206e6f7420616c6c6f77656400000000000000600082015250565b60006131da601983612799565b91506131e5826131a4565b602082019050919050565b60006020820190508181036000830152613209816131cd565b9050919050565b7f596f752061726520747279696e6720746f207769746864726177206d6f72652060008201527f7468616e20796f7572207374616b650000000000000000000000000000000000602082015250565b600061326c602f83612799565b915061327782613210565b604082019050919050565b6000602082019050818103600083015261329b8161325f565b9050919050565b60006132ad82612731565b91506132b883612731565b92508282019050808211156132d0576132cf613078565b5b92915050565b60006132e182612731565b91506132ec83612731565b92508282026132fa81612731565b9150828204841483151761331157613310613078565b5b5092915050565b7f596f75206172652073656e64696e67207468652077726f6e6720616d6f756e7460008201527f20746f207468697320636f6e7472616374000000000000000000000000000000602082015250565b6000613374603183612799565b915061337f82613318565b604082019050919050565b600060208201905081810360008301526133a381613367565b9050919050565b7f4d617820737570706c7920726561636865640000000000000000000000000000600082015250565b60006133e0601283612799565b91506133eb826133aa565b602082019050919050565b6000602082019050818103600083015261340f816133d3565b9050919050565b600061342182612731565b915061342c83612731565b925082820390508181111561344457613443613078565b5b92915050565b7f506c656173652070617920746865207265636f6d6d656e646564206665650000600082015250565b6000613480601e83612799565b915061348b8261344a565b602082019050919050565b600060208201905081810360008301526134af81613473565b9050919050565b7f4e6f7420612063617368706f696e740000000000000000000000000000000000600082015250565b60006134ec600f83612799565b91506134f7826134b6565b602082019050919050565b6000602082019050818103600083015261351b816134df565b9050919050565b60008190508160005260206000209050919050565b60006020601f8301049050919050565b600082821b905092915050565b6000600883026135847fffffffffffffffffffffffffffffffffffffffffffffffffffffffffffffffff82613547565b61358e8683613547565b95508019841693508086168417925050509392505050565b6000819050919050565b60006135cb6135c66135c184612731565b6135a6565b612731565b9050919050565b6000819050919050565b6135e5836135b0565b6135f96135f1826135d2565b848454613554565b825550505050565b600090565b61360e613601565b6136198184846135dc565b505050565b5b8181101561363d57613632600082613606565b60018101905061361f565b5050565b601f8211156136825761365381613522565b61365c84613537565b8101602085101561366b578190505b61367f61367785613537565b83018261361e565b50505b505050565b600082821c905092915050565b60006136a560001984600802613687565b1980831691505092915050565b60006136be8383613694565b9150826002028217905092915050565b6136d78261278e565b67ffffffffffffffff8111156136f0576136ef6129fe565b5b6136fa8254613107565b613705828285613641565b600060209050601f8311600181146137385760008415613726578287015190505b61373085826136b2565b865550613798565b601f19841661374686613522565b60005b8281101561376e57848901518255600182019150602085019450602081019050613749565b8683101561378b5784890151613787601f891682613694565b8355505b6001600288020188555050505b505050505050565b7f4e6f7420656e6f7567682066756e64732073656e740000000000000000000000600082015250565b60006137d6601583612799565b91506137e1826137a0565b602082019050919050565b60006020820190508181036000830152613805816137c9565b9050919050565b7f4e6f74206f776e65720000000000000000000000000000000000000000000000600082015250565b6000613842600983612799565b915061384d8261380c565b602082019050919050565b6000602082019050818103600083015261387181613835565b9050919050565b7f436f6e74726163742062616c616e6365206d757374206265203020666f72207360008201527f656c666465737472756374000000000000000000000000000000000000000000602082015250565b60006138d4602b83612799565b91506138df82613878565b604082019050919050565b60006020820190508181036000830152613903816138c7565b9050919050565b7f45524332303a2064656372656173656420616c6c6f77616e63652062656c6f7760008201527f207a65726f000000000000000000000000000000000000000000000000000000602082015250565b6000613966602583612799565b91506139718261390a565b604082019050919050565b6000602082019050818103600083015261399581613959565b9050919050565b600081905092915050565b50565b60006139b760008361399c565b91506139c2826139a7565b600082019050919050565b60006139d8826139aa565b9150819050919050565b7f4661696c656420746f2073656e64207844616900000000000000000000000000600082015250565b6000613a18601383612799565b9150613a23826139e2565b602082019050919050565b60006020820190508181036000830152613a4781613a0b565b9050919050565b7f416c726561647920612063617368706f696e7400000000000000000000000000600082015250565b6000613a84601383612799565b9150613a8f82613a4e565b602082019050919050565b60006020820190508181036000830152613ab381613a77565b9050919050565b6000613ac582612731565b91507fffffffffffffffffffffffffffffffffffffffffffffffffffffffffffffffff8203613af757613af6613078565b5b600182019050919050565b7f45524332303a20617070726f76652066726f6d20746865207a65726f2061646460008201527f7265737300000000000000000000000000000000000000000000000000000000602082015250565b6000613b5e602483612799565b9150613b6982613b02565b604082019050919050565b60006020820190508181036000830152613b8d81613b51565b9050919050565b7f45524332303a20617070726f766520746f20746865207a65726f20616464726560008201527f7373000000000000000000000000000000000000000000000000000000000000602082015250565b6000613bf0602283612799565b9150613bfb82613b94565b604082019050919050565b60006020820190508181036000830152613c1f81613be3565b9050919050565b7f45524332303a20696e73756666696369656e7420616c6c6f77616e6365000000600082015250565b6000613c5c601d83612799565b9150613c6782613c26565b602082019050919050565b60006020820190508181036000830152613c8b81613c4f565b9050919050565b7f45524332303a207472616e736665722066726f6d20746865207a65726f20616460008201527f6472657373000000000000000000000000000000000000000000000000000000602082015250565b6000613cee602583612799565b9150613cf982613c92565b604082019050919050565b60006020820190508181036000830152613d1d81613ce1565b9050919050565b7f45524332303a207472616e7366657220746f20746865207a65726f206164647260008201527f6573730000000000000000000000000000000000000000000000000000000000602082015250565b6000613d80602383612799565b9150613d8b82613d24565b604082019050919050565b60006020820190508181036000830152613daf81613d73565b9050919050565b7f45524332303a207472616e7366657220616d6f756e742065786365656473206260008201527f616c616e63650000000000000000000000000000000000000000000000000000602082015250565b6000613e12602683612799565b9150613e1d82613db6565b604082019050919050565b60006020820190508181036000830152613e4181613e05565b9050919050565b7f45524332303a206275726e2066726f6d20746865207a65726f2061646472657360008201527f7300000000000000000000000000000000000000000000000000000000000000602082015250565b6000613ea4602183612799565b9150613eaf82613e48565b604082019050919050565b60006020820190508181036000830152613ed381613e97565b9050919050565b7f45524332303a206275726e20616d6f756e7420657863656564732062616c616e60008201527f6365000000000000000000000000000000000000000000000000000000000000602082015250565b6000613f36602283612799565b9150613f4182613eda565b604082019050919050565b60006020820190508181036000830152613f6581613f29565b9050919050565b7f45524332303a206d696e7420746f20746865207a65726f206164647265737300600082015250565b6000613fa2601f83612799565b9150613fad82613f6c565b602082019050919050565b60006020820190508181036000830152613fd181613f95565b905091905056fea26469706673582212209336d6ac7cd1439cc80f1f32dd61279df9dd5a84bb8d0ea2aaac7f5d1d0cb51c64736f6c63430008110033",
  "linkReferences": {},
  "deployedLinkReferences": {}
}